ARM GAS  /tmp/cc4YHyd8.s 			page 1


   1              		.syntax unified
   2              		.cpu cortex-m3
   3              		.fpu softvfp
   4              		.eabi_attribute 20, 1
   5              		.eabi_attribute 21, 1
   6              		.eabi_attribute 23, 3
   7              		.eabi_attribute 24, 1
   8              		.eabi_attribute 25, 1
   9              		.eabi_attribute 26, 1
  10              		.eabi_attribute 30, 2
  11              		.eabi_attribute 34, 1
  12              		.eabi_attribute 18, 4
  13              		.thumb
  14              		.file	"atmel_pmc.c"
  15              		.text
  16              	.Ltext0:
  17              		.cfi_sections	.debug_frame
  18              		.section	.text.PMC_EnablePeripheral,"ax",%progbits
  19              		.align	2
  20              		.p2align 4,,15
  21              		.global	PMC_EnablePeripheral
  22              		.thumb
  23              		.thumb_func
  24              		.type	PMC_EnablePeripheral, %function
  25              	PMC_EnablePeripheral:
  26              	.LFB36:
  27              		.file 1 "./atmel_lib/atmel_pmc.c"
  28              		.loc 1 61 0
  29              		.cfi_startproc
  30              		@ args = 0, pretend = 0, frame = 0
  31              		@ frame_needed = 0, uses_anonymous_args = 0
  32              	.LVL0:
  33              		.loc 1 62 0
  34 0000 1F28     		cmp	r0, #31
  35              		.loc 1 61 0
  36 0002 08B5     		push	{r3, lr}
  37              		.cfi_def_cfa_offset 8
  38              		.cfi_offset 3, -8
  39              		.cfi_offset 14, -4
  40              		.loc 1 62 0
  41 0004 0CD8     		bhi	.L5
  42              		.loc 1 64 0
  43 0006 0123     		movs	r3, #1
  44 0008 03FA00F0 		lsl	r0, r3, r0
  45              	.LVL1:
  46 000c 4FF48063 		mov	r3, #1024
  47 0010 C4F20E03 		movt	r3, 16398
  48 0014 9A69     		ldr	r2, [r3, #24]
  49 0016 0240     		ands	r2, r2, r0
  50 0018 9042     		cmp	r0, r2
  51              		.loc 1 70 0
  52 001a 18BF     		it	ne
  53 001c 1861     		strne	r0, [r3, #16]
  54 001e 08BD     		pop	{r3, pc}
  55              	.LVL2:
  56              	.L5:
  57              		.loc 1 62 0 discriminator 1
ARM GAS  /tmp/cc4YHyd8.s 			page 2


  58 0020 40F20000 		movw	r0, #:lower16:.LC0
  59              	.LVL3:
  60 0024 40F20002 		movw	r2, #:lower16:.LANCHOR0
  61 0028 40F20003 		movw	r3, #:lower16:.LC1
  62 002c C0F20000 		movt	r0, #:upper16:.LC0
  63 0030 C0F20002 		movt	r2, #:upper16:.LANCHOR0
  64 0034 C0F20003 		movt	r3, #:upper16:.LC1
  65 0038 3E21     		movs	r1, #62
  66 003a FFF7FEFF 		bl	__assert_func
  67              	.LVL4:
  68              		.cfi_endproc
  69              	.LFE36:
  70              		.size	PMC_EnablePeripheral, .-PMC_EnablePeripheral
  71 003e 00BF     		.section	.text.PMC_DisablePeripheral,"ax",%progbits
  72              		.align	2
  73              		.p2align 4,,15
  74              		.global	PMC_DisablePeripheral
  75              		.thumb
  76              		.thumb_func
  77              		.type	PMC_DisablePeripheral, %function
  78              	PMC_DisablePeripheral:
  79              	.LFB37:
  80              		.loc 1 83 0
  81              		.cfi_startproc
  82              		@ args = 0, pretend = 0, frame = 0
  83              		@ frame_needed = 0, uses_anonymous_args = 0
  84              	.LVL5:
  85              		.loc 1 84 0
  86 0000 1F28     		cmp	r0, #31
  87              		.loc 1 83 0
  88 0002 08B5     		push	{r3, lr}
  89              		.cfi_def_cfa_offset 8
  90              		.cfi_offset 3, -8
  91              		.cfi_offset 14, -4
  92              		.loc 1 84 0
  93 0004 0CD8     		bhi	.L9
  94              		.loc 1 86 0
  95 0006 0123     		movs	r3, #1
  96 0008 03FA00F0 		lsl	r0, r3, r0
  97              	.LVL6:
  98 000c 4FF48063 		mov	r3, #1024
  99 0010 C4F20E03 		movt	r3, 16398
 100 0014 9A69     		ldr	r2, [r3, #24]
 101 0016 0240     		ands	r2, r2, r0
 102 0018 9042     		cmp	r0, r2
 103              		.loc 1 92 0
 104 001a 08BF     		it	eq
 105 001c 5861     		streq	r0, [r3, #20]
 106 001e 08BD     		pop	{r3, pc}
 107              	.LVL7:
 108              	.L9:
 109              		.loc 1 84 0 discriminator 1
 110 0020 40F20000 		movw	r0, #:lower16:.LC0
 111              	.LVL8:
 112 0024 40F20002 		movw	r2, #:lower16:.LANCHOR1
 113 0028 40F20003 		movw	r3, #:lower16:.LC1
 114 002c C0F20000 		movt	r0, #:upper16:.LC0
ARM GAS  /tmp/cc4YHyd8.s 			page 3


 115 0030 C0F20002 		movt	r2, #:upper16:.LANCHOR1
 116 0034 C0F20003 		movt	r3, #:upper16:.LC1
 117 0038 5421     		movs	r1, #84
 118 003a FFF7FEFF 		bl	__assert_func
 119              	.LVL9:
 120              		.cfi_endproc
 121              	.LFE37:
 122              		.size	PMC_DisablePeripheral, .-PMC_DisablePeripheral
 123 003e 00BF     		.section	.text.PMC_EnableAllPeripherals,"ax",%progbits
 124              		.align	2
 125              		.p2align 4,,15
 126              		.global	PMC_EnableAllPeripherals
 127              		.thumb
 128              		.thumb_func
 129              		.type	PMC_EnableAllPeripherals, %function
 130              	PMC_EnableAllPeripherals:
 131              	.LFB38:
 132              		.loc 1 100 0
 133              		.cfi_startproc
 134              		@ args = 0, pretend = 0, frame = 0
 135              		@ frame_needed = 0, uses_anonymous_args = 0
 136              		@ link register save eliminated.
 137              		.loc 1 101 0
 138 0000 4FF48062 		mov	r2, #1024
 139 0004 C4F20E02 		movt	r2, 16398
 140 0008 6FF00303 		mvn	r3, #3
 141 000c 1361     		str	r3, [r2, #16]
 142              	.L12:
 143              		.loc 1 102 0 discriminator 1
 144 000e 9369     		ldr	r3, [r2, #24]
 145 0010 23F00303 		bic	r3, r3, #3
 146 0014 0433     		adds	r3, r3, #4
 147 0016 FAD1     		bne	.L12
 148              		.loc 1 105 0
 149 0018 7047     		bx	lr
 150              		.cfi_endproc
 151              	.LFE38:
 152              		.size	PMC_EnableAllPeripherals, .-PMC_EnableAllPeripherals
 153 001a 00BFAFF3 		.section	.text.PMC_DisableAllPeripherals,"ax",%progbits
 153      0080
 154              		.align	2
 155              		.p2align 4,,15
 156              		.global	PMC_DisableAllPeripherals
 157              		.thumb
 158              		.thumb_func
 159              		.type	PMC_DisableAllPeripherals, %function
 160              	PMC_DisableAllPeripherals:
 161              	.LFB39:
 162              		.loc 1 111 0
 163              		.cfi_startproc
 164              		@ args = 0, pretend = 0, frame = 0
 165              		@ frame_needed = 0, uses_anonymous_args = 0
 166              		@ link register save eliminated.
 167              		.loc 1 112 0
 168 0000 4FF48062 		mov	r2, #1024
 169 0004 C4F20E02 		movt	r2, 16398
 170 0008 6FF00303 		mvn	r3, #3
ARM GAS  /tmp/cc4YHyd8.s 			page 4


 171 000c 5361     		str	r3, [r2, #20]
 172              	.L15:
 173              		.loc 1 113 0 discriminator 1
 174 000e 9369     		ldr	r3, [r2, #24]
 175 0010 33F00301 		bics	r1, r3, #3
 176 0014 FBD1     		bne	.L15
 177              		.loc 1 116 0
 178 0016 7047     		bx	lr
 179              		.cfi_endproc
 180              	.LFE39:
 181              		.size	PMC_DisableAllPeripherals, .-PMC_DisableAllPeripherals
 182 0018 AFF30080 		.section	.text.PMC_IsPeriphEnabled,"ax",%progbits
 182      AFF30080 
 183              		.align	2
 184              		.p2align 4,,15
 185              		.global	PMC_IsPeriphEnabled
 186              		.thumb
 187              		.thumb_func
 188              		.type	PMC_IsPeriphEnabled, %function
 189              	PMC_IsPeriphEnabled:
 190              	.LFB40:
 191              		.loc 1 124 0
 192              		.cfi_startproc
 193              		@ args = 0, pretend = 0, frame = 0
 194              		@ frame_needed = 0, uses_anonymous_args = 0
 195              	.LVL10:
 196              		.loc 1 125 0
 197 0000 1F28     		cmp	r0, #31
 198              		.loc 1 124 0
 199 0002 08B5     		push	{r3, lr}
 200              		.cfi_def_cfa_offset 8
 201              		.cfi_offset 3, -8
 202              		.cfi_offset 14, -4
 203              		.loc 1 125 0
 204 0004 09D8     		bhi	.L18
 205              		.loc 1 127 0
 206 0006 0123     		movs	r3, #1
 207 0008 03FA00F0 		lsl	r0, r3, r0
 208              	.LVL11:
 209 000c 4FF48063 		mov	r3, #1024
 210 0010 C4F20E03 		movt	r3, 16398
 211 0014 9B69     		ldr	r3, [r3, #24]
 212              		.loc 1 128 0
 213 0016 1840     		ands	r0, r0, r3
 214 0018 08BD     		pop	{r3, pc}
 215              	.LVL12:
 216              	.L18:
 217              		.loc 1 125 0 discriminator 1
 218 001a 40F20000 		movw	r0, #:lower16:.LC0
 219              	.LVL13:
 220 001e 40F20002 		movw	r2, #:lower16:.LANCHOR2
 221 0022 40F20003 		movw	r3, #:lower16:.LC1
 222 0026 C0F20000 		movt	r0, #:upper16:.LC0
 223 002a C0F20002 		movt	r2, #:upper16:.LANCHOR2
 224 002e C0F20003 		movt	r3, #:upper16:.LC1
 225 0032 7D21     		movs	r1, #125
 226 0034 FFF7FEFF 		bl	__assert_func
ARM GAS  /tmp/cc4YHyd8.s 			page 5


 227              	.LVL14:
 228              		.cfi_endproc
 229              	.LFE40:
 230              		.size	PMC_IsPeriphEnabled, .-PMC_IsPeriphEnabled
 231 0038 AFF30080 		.section	.rodata.__func__.5797,"a",%progbits
 231      AFF30080 
 232              		.align	2
 233              		.set	.LANCHOR2,. + 0
 234              		.type	__func__.5797, %object
 235              		.size	__func__.5797, 20
 236              	__func__.5797:
 237 0000 504D435F 		.ascii	"PMC_IsPeriphEnabled\000"
 237      49735065 
 237      72697068 
 237      456E6162 
 237      6C656400 
 238              		.section	.rodata.__func__.5781,"a",%progbits
 239              		.align	2
 240              		.set	.LANCHOR1,. + 0
 241              		.type	__func__.5781, %object
 242              		.size	__func__.5781, 22
 243              	__func__.5781:
 244 0000 504D435F 		.ascii	"PMC_DisablePeripheral\000"
 244      44697361 
 244      626C6550 
 244      65726970 
 244      68657261 
 245 0016 0000     		.section	.rodata.__func__.5777,"a",%progbits
 246              		.align	2
 247              		.set	.LANCHOR0,. + 0
 248              		.type	__func__.5777, %object
 249              		.size	__func__.5777, 21
 250              	__func__.5777:
 251 0000 504D435F 		.ascii	"PMC_EnablePeripheral\000"
 251      456E6162 
 251      6C655065 
 251      72697068 
 251      6572616C 
 252 0015 000000   		.section	.rodata.str1.4,"aMS",%progbits,1
 253              		.align	2
 254              	.LC0:
 255 0000 2E2F6174 		.ascii	"./atmel_lib/atmel_pmc.c\000"
 255      6D656C5F 
 255      6C69622F 
 255      61746D65 
 255      6C5F706D 
 256              	.LC1:
 257 0018 64774964 		.ascii	"dwId < 32\000"
 257      203C2033 
 257      3200
 258 0022 0000     		.text
 259              	.Letext0:
 260              		.file 2 "/usr/include/newlib/machine/_default_types.h"
 261              		.file 3 "/usr/include/newlib/stdint.h"
 262              		.file 4 "./atmel_lib/include/SAM3N.h"
 263              		.file 5 "../../os/hal/platforms/AT91SAM3/core_cm3.h"
 264              		.file 6 "/usr/include/newlib/assert.h"
ARM GAS  /tmp/cc4YHyd8.s 			page 6


