ARM GAS  /tmp/cctIPXEk.s 			page 1


   1              		.syntax unified
   2              		.cpu cortex-m3
   3              		.fpu softvfp
   4              		.eabi_attribute 20, 1
   5              		.eabi_attribute 21, 1
   6              		.eabi_attribute 23, 3
   7              		.eabi_attribute 24, 1
   8              		.eabi_attribute 25, 1
   9              		.eabi_attribute 26, 1
  10              		.eabi_attribute 30, 2
  11              		.eabi_attribute 34, 1
  12              		.eabi_attribute 18, 4
  13              		.thumb
  14              		.file	"chmemcore.c"
  15              		.text
  16              	.Ltext0:
  17              		.cfi_sections	.debug_frame
  18              		.section	.text._core_init,"ax",%progbits
  19              		.align	2
  20              		.p2align 4,,15
  21              		.global	_core_init
  22              		.thumb
  23              		.thumb_func
  24              		.type	_core_init, %function
  25              	_core_init:
  26              	.LFB7:
  27              		.file 1 "../../os/kernel/src/chmemcore.c"
  28              		.loc 1 66 0
  29              		.cfi_startproc
  30              		@ args = 0, pretend = 0, frame = 0
  31              		@ frame_needed = 0, uses_anonymous_args = 0
  32              		@ link register save eliminated.
  33              		.loc 1 71 0
  34 0000 40F20001 		movw	r1, #:lower16:__heap_end__
  35              		.loc 1 70 0
  36 0004 0848     		ldr	r0, .L2
  37              		.loc 1 71 0
  38 0006 C0F20001 		movt	r1, #:upper16:__heap_end__
  39 000a 40F20002 		movw	r2, #:lower16:.LANCHOR1
  40              		.loc 1 70 0
  41 000e 40F20003 		movw	r3, #:lower16:.LANCHOR0
  42              		.loc 1 71 0
  43 0012 21F00701 		bic	r1, r1, #7
  44 0016 C0F20002 		movt	r2, #:upper16:.LANCHOR1
  45              		.loc 1 70 0
  46 001a 20F00700 		bic	r0, r0, #7
  47 001e C0F20003 		movt	r3, #:upper16:.LANCHOR0
  48              		.loc 1 71 0
  49 0022 1160     		str	r1, [r2]
  50              		.loc 1 70 0
  51 0024 1860     		str	r0, [r3]
  52 0026 7047     		bx	lr
  53              	.L3:
  54              		.align	2
  55              	.L2:
  56 0028 07000000 		.word	__heap_base__+7
  57              		.cfi_endproc
ARM GAS  /tmp/cctIPXEk.s 			page 2


  58              	.LFE7:
  59              		.size	_core_init, .-_core_init
  60 002c AFF30080 		.section	.text.chCoreAlloc,"ax",%progbits
  61              		.align	2
  62              		.p2align 4,,15
  63              		.global	chCoreAlloc
  64              		.thumb
  65              		.thumb_func
  66              		.type	chCoreAlloc, %function
  67              	chCoreAlloc:
  68              	.LFB8:
  69              		.loc 1 91 0
  70              		.cfi_startproc
  71              		@ args = 0, pretend = 0, frame = 0
  72              		@ frame_needed = 0, uses_anonymous_args = 0
  73              		@ link register save eliminated.
  74              	.LVL0:
  75              	.LBB6:
  76              		.loc 1 94 0
  77 0000 2023     		movs	r3, #32
  78              	@ 94 "../../os/kernel/src/chmemcore.c" 1
  79 0002 83F31188 		msr     BASEPRI, r3
  80              	@ 0 "" 2
  81              	.LVL1:
  82              		.thumb
  83              	.LBE6:
  84              	.LBB7:
  85              	.LBB8:
  86              		.loc 1 118 0
  87 0006 40F20003 		movw	r3, #:lower16:.LANCHOR0
  88 000a 40F20002 		movw	r2, #:lower16:.LANCHOR1
  89 000e C0F20003 		movt	r3, #:upper16:.LANCHOR0
  90 0012 C0F20002 		movt	r2, #:upper16:.LANCHOR1
  91 0016 1968     		ldr	r1, [r3]
  92 0018 1268     		ldr	r2, [r2]
  93              		.loc 1 117 0
  94 001a 0730     		adds	r0, r0, #7
  95              	.LVL2:
  96 001c 20F00700 		bic	r0, r0, #7
  97              	.LVL3:
  98              		.loc 1 118 0
  99 0020 521A     		subs	r2, r2, r1
 100 0022 9042     		cmp	r0, r2
 101              	.LVL4:
 102              		.loc 1 121 0
 103 0024 9BBF     		ittet	ls
 104 0026 4018     		addls	r0, r0, r1
 105              	.LVL5:
 106 0028 1860     		strls	r0, [r3]
 107              		.loc 1 119 0
 108 002a 0020     		movhi	r0, #0
 109              		.loc 1 122 0
 110 002c 0846     		movls	r0, r1
 111              	.LBE8:
 112              	.LBE7:
 113              	.LBB9:
 114              		.loc 1 96 0
ARM GAS  /tmp/cctIPXEk.s 			page 3


 115 002e 0023     		movs	r3, #0
 116              	@ 96 "../../os/kernel/src/chmemcore.c" 1
 117 0030 83F31188 		msr     BASEPRI, r3
 118              	@ 0 "" 2
 119              		.thumb
 120              	.LBE9:
 121              		.loc 1 98 0
 122 0034 7047     		bx	lr
 123              		.cfi_endproc
 124              	.LFE8:
 125              		.size	chCoreAlloc, .-chCoreAlloc
 126 0036 00BFAFF3 		.section	.text.chCoreAllocI,"ax",%progbits
 126      0080AFF3 
 126      0080
 127              		.align	2
 128              		.p2align 4,,15
 129              		.global	chCoreAllocI
 130              		.thumb
 131              		.thumb_func
 132              		.type	chCoreAllocI, %function
 133              	chCoreAllocI:
 134              	.LFB9:
 135              		.loc 1 112 0
 136              		.cfi_startproc
 137              		@ args = 0, pretend = 0, frame = 0
 138              		@ frame_needed = 0, uses_anonymous_args = 0
 139              		@ link register save eliminated.
 140              	.LVL6:
 141              		.loc 1 118 0
 142 0000 40F20003 		movw	r3, #:lower16:.LANCHOR0
 143 0004 40F20002 		movw	r2, #:lower16:.LANCHOR1
 144 0008 C0F20003 		movt	r3, #:upper16:.LANCHOR0
 145 000c C0F20002 		movt	r2, #:upper16:.LANCHOR1
 146 0010 1968     		ldr	r1, [r3]
 147 0012 1268     		ldr	r2, [r2]
 148              		.loc 1 117 0
 149 0014 0730     		adds	r0, r0, #7
 150              	.LVL7:
 151 0016 20F00700 		bic	r0, r0, #7
 152              	.LVL8:
 153              		.loc 1 118 0
 154 001a 521A     		subs	r2, r2, r1
 155 001c 9042     		cmp	r0, r2
 156              	.LVL9:
 157              		.loc 1 121 0
 158 001e 9DBF     		ittte	ls
 159 0020 4018     		addls	r0, r0, r1
 160              	.LVL10:
 161 0022 1860     		strls	r0, [r3]
 162              		.loc 1 122 0
 163 0024 0846     		movls	r0, r1
 164              		.loc 1 119 0
 165 0026 0020     		movhi	r0, #0
 166              		.loc 1 123 0
 167 0028 7047     		bx	lr
 168              		.cfi_endproc
 169              	.LFE9:
ARM GAS  /tmp/cctIPXEk.s 			page 4


 170              		.size	chCoreAllocI, .-chCoreAllocI
 171 002a 00BFAFF3 		.section	.text.chCoreStatus,"ax",%progbits
 171      0080
 172              		.align	2
 173              		.p2align 4,,15
 174              		.global	chCoreStatus
 175              		.thumb
 176              		.thumb_func
 177              		.type	chCoreStatus, %function
 178              	chCoreStatus:
 179              	.LFB10:
 180              		.loc 1 132 0
 181              		.cfi_startproc
 182              		@ args = 0, pretend = 0, frame = 0
 183              		@ frame_needed = 0, uses_anonymous_args = 0
 184              		@ link register save eliminated.
 185              		.loc 1 134 0
 186 0000 40F20002 		movw	r2, #:lower16:.LANCHOR1
 187 0004 40F20003 		movw	r3, #:lower16:.LANCHOR0
 188 0008 C0F20002 		movt	r2, #:upper16:.LANCHOR1
 189 000c C0F20003 		movt	r3, #:upper16:.LANCHOR0
 190 0010 1068     		ldr	r0, [r2]
 191 0012 1B68     		ldr	r3, [r3]
 192              		.loc 1 135 0
 193 0014 C01A     		subs	r0, r0, r3
 194 0016 7047     		bx	lr
 195              		.cfi_endproc
 196              	.LFE10:
 197              		.size	chCoreStatus, .-chCoreStatus
 198 0018 AFF30080 		.section	.bss.endmem,"aw",%nobits
 198      AFF30080 
 199              		.align	2
 200              		.set	.LANCHOR1,. + 0
 201              		.type	endmem, %object
 202              		.size	endmem, 4
 203              	endmem:
 204 0000 00000000 		.space	4
 205              		.section	.bss.nextmem,"aw",%nobits
 206              		.align	2
 207              		.set	.LANCHOR0,. + 0
 208              		.type	nextmem, %object
 209              		.size	nextmem, 4
 210              	nextmem:
 211 0000 00000000 		.space	4
 212              		.text
 213              	.Letext0:
 214              		.file 2 "/usr/lib/gcc/arm-none-eabi/4.8.2/include/stddef.h"
 215              		.file 3 "/usr/include/newlib/machine/_default_types.h"
 216              		.file 4 "/usr/include/newlib/stdint.h"
