ARM GAS  /tmp/ccnLJ0T0.s 			page 1


   1              		.syntax unified
   2              		.cpu cortex-m3
   3              		.fpu softvfp
   4              		.eabi_attribute 20, 1
   5              		.eabi_attribute 21, 1
   6              		.eabi_attribute 23, 3
   7              		.eabi_attribute 24, 1
   8              		.eabi_attribute 25, 1
   9              		.eabi_attribute 26, 1
  10              		.eabi_attribute 30, 2
  11              		.eabi_attribute 34, 1
  12              		.eabi_attribute 18, 4
  13              		.thumb
  14              		.file	"hw_serial.c"
  15              		.text
  16              	.Ltext0:
  17              		.cfi_sections	.debug_frame
  18              		.section	.text.hw_serial_init,"ax",%progbits
  19              		.align	2
  20              		.p2align 4,,15
  21              		.global	hw_serial_init
  22              		.thumb
  23              		.thumb_func
  24              		.type	hw_serial_init, %function
  25              	hw_serial_init:
  26              	.LFB36:
  27              		.file 1 "./weta_vm/hw/hw_serial.c"
  28              		.loc 1 8 0
  29              		.cfi_startproc
  30              		@ args = 0, pretend = 0, frame = 0
  31              		@ frame_needed = 0, uses_anonymous_args = 0
  32              		@ link register save eliminated.
  33              	.LVL0:
  34 0000 7047     		bx	lr
  35              		.cfi_endproc
  36              	.LFE36:
  37              		.size	hw_serial_init, .-hw_serial_init
  38 0002 00BFAFF3 		.section	.text.hw_serial_start,"ax",%progbits
  38      0080AFF3 
  38      0080AFF3 
  38      0080
  39              		.align	2
  40              		.p2align 4,,15
  41              		.global	hw_serial_start
  42              		.thumb
  43              		.thumb_func
  44              		.type	hw_serial_start, %function
  45              	hw_serial_start:
  46              	.LFB37:
  47              		.loc 1 15 0
  48              		.cfi_startproc
  49              		@ args = 0, pretend = 0, frame = 0
  50              		@ frame_needed = 0, uses_anonymous_args = 0
  51              		@ link register save eliminated.
  52              	.LVL1:
  53              		.loc 1 16 0
  54 0000 0021     		movs	r1, #0
ARM GAS  /tmp/ccnLJ0T0.s 			page 2


  55 0002 FFF7FEBF 		b	sdStart
  56              	.LVL2:
  57              		.cfi_endproc
  58              	.LFE37:
  59              		.size	hw_serial_start, .-hw_serial_start
  60 0006 00BFAFF3 		.section	.text.hw_serial_start_all,"ax",%progbits
  60      0080AFF3 
  60      0080
  61              		.align	2
  62              		.p2align 4,,15
  63              		.global	hw_serial_start_all
  64              		.thumb
  65              		.thumb_func
  66              		.type	hw_serial_start_all, %function
  67              	hw_serial_start_all:
  68              	.LFB38:
  69              		.loc 1 21 0
  70              		.cfi_startproc
  71              		@ args = 0, pretend = 0, frame = 0
  72              		@ frame_needed = 0, uses_anonymous_args = 0
  73              	.LVL3:
  74 0000 08B5     		push	{r3, lr}
  75              		.cfi_def_cfa_offset 8
  76              		.cfi_offset 3, -8
  77              		.cfi_offset 14, -4
  78              		.loc 1 24 0
  79 0002 40F20000 		movw	r0, #:lower16:SD1
  80              	.LVL4:
  81 0006 C0F20000 		movt	r0, #:upper16:SD1
  82 000a 0021     		movs	r1, #0
  83 000c FFF7FEFF 		bl	sdStart
  84              	.LVL5:
  85              		.loc 1 31 0
  86 0010 BDE80840 		pop	{r3, lr}
  87              		.loc 1 25 0
  88 0014 40F20000 		movw	r0, #:lower16:SD2
  89 0018 C0F20000 		movt	r0, #:upper16:SD2
  90 001c 0021     		movs	r1, #0
  91 001e FFF7FEBF 		b	sdStart
  92              	.LVL6:
  93              		.cfi_endproc
  94              	.LFE38:
  95              		.size	hw_serial_start_all, .-hw_serial_start_all
  96 0022 00BFAFF3 		.section	.text.hw_serial_read,"ax",%progbits
  96      0080AFF3 
  96      0080AFF3 
  96      0080
  97              		.align	2
  98              		.p2align 4,,15
  99              		.global	hw_serial_read
 100              		.thumb
 101              		.thumb_func
 102              		.type	hw_serial_read, %function
 103              	hw_serial_read:
 104              	.LFB39:
 105              		.loc 1 35 0
 106              		.cfi_startproc
ARM GAS  /tmp/ccnLJ0T0.s 			page 3


 107              		@ args = 0, pretend = 0, frame = 0
 108              		@ frame_needed = 0, uses_anonymous_args = 0
 109              	.LVL7:
 110 0000 10B5     		push	{r4, lr}
 111              		.cfi_def_cfa_offset 8
 112              		.cfi_offset 4, -8
 113              		.cfi_offset 14, -4
 114              		.loc 1 36 0
 115 0002 0468     		ldr	r4, [r0]
 116 0004 4FF0FF33 		mov	r3, #-1
 117 0008 E469     		ldr	r4, [r4, #28]
 118 000a A047     		blx	r4
 119              	.LVL8:
 120              		.loc 1 37 0
 121 000c C0B2     		uxtb	r0, r0
 122 000e 10BD     		pop	{r4, pc}
 123              		.cfi_endproc
 124              	.LFE39:
 125              		.size	hw_serial_read, .-hw_serial_read
 126              		.section	.text.hw_serial_read_byte,"ax",%progbits
 127              		.align	2
 128              		.p2align 4,,15
 129              		.global	hw_serial_read_byte
 130              		.thumb
 131              		.thumb_func
 132              		.type	hw_serial_read_byte, %function
 133              	hw_serial_read_byte:
 134              	.LFB40:
 135              		.loc 1 41 0
 136              		.cfi_startproc
 137              		@ args = 0, pretend = 0, frame = 0
 138              		@ frame_needed = 0, uses_anonymous_args = 0
 139              	.LVL9:
 140 0000 08B5     		push	{r3, lr}
 141              		.cfi_def_cfa_offset 8
 142              		.cfi_offset 3, -8
 143              		.cfi_offset 14, -4
 144              		.loc 1 44 0
 145 0002 0368     		ldr	r3, [r0]
 146 0004 4FF0FF31 		mov	r1, #-1
 147 0008 5B69     		ldr	r3, [r3, #20]
 148 000a 9847     		blx	r3
 149              	.LVL10:
 150              		.loc 1 45 0
 151 000c C0B2     		uxtb	r0, r0
 152 000e 08BD     		pop	{r3, pc}
 153              		.cfi_endproc
 154              	.LFE40:
 155              		.size	hw_serial_read_byte, .-hw_serial_read_byte
 156              		.section	.text.hw_serial_write,"ax",%progbits
 157              		.align	2
 158              		.p2align 4,,15
 159              		.global	hw_serial_write
 160              		.thumb
 161              		.thumb_func
 162              		.type	hw_serial_write, %function
 163              	hw_serial_write:
ARM GAS  /tmp/ccnLJ0T0.s 			page 4


 164              	.LFB41:
 165              		.loc 1 49 0
 166              		.cfi_startproc
 167              		@ args = 0, pretend = 0, frame = 0
 168              		@ frame_needed = 0, uses_anonymous_args = 0
 169              	.LVL11:
 170 0000 10B5     		push	{r4, lr}
 171              		.cfi_def_cfa_offset 8
 172              		.cfi_offset 4, -8
 173              		.cfi_offset 14, -4
 174              		.loc 1 50 0
 175 0002 0468     		ldr	r4, [r0]
 176 0004 4FF0FF33 		mov	r3, #-1
 177 0008 A469     		ldr	r4, [r4, #24]
 178 000a A047     		blx	r4
 179              	.LVL12:
 180              		.loc 1 51 0
 181 000c C0B2     		uxtb	r0, r0
 182 000e 10BD     		pop	{r4, pc}
 183              		.cfi_endproc
 184              	.LFE41:
 185              		.size	hw_serial_write, .-hw_serial_write
 186              		.section	.text.hw_serial_write_byte,"ax",%progbits
 187              		.align	2
 188              		.p2align 4,,15
 189              		.global	hw_serial_write_byte
 190              		.thumb
 191              		.thumb_func
 192              		.type	hw_serial_write_byte, %function
 193              	hw_serial_write_byte:
 194              	.LFB42:
 195              		.loc 1 55 0
 196              		.cfi_startproc
 197              		@ args = 0, pretend = 0, frame = 0
 198              		@ frame_needed = 0, uses_anonymous_args = 0
 199              	.LVL13:
 200 0000 08B5     		push	{r3, lr}
 201              		.cfi_def_cfa_offset 8
 202              		.cfi_offset 3, -8
 203              		.cfi_offset 14, -4
 204              		.loc 1 57 0
 205 0002 0368     		ldr	r3, [r0]
 206 0004 4FF0FF32 		mov	r2, #-1
 207 0008 1B69     		ldr	r3, [r3, #16]
 208 000a 9847     		blx	r3
 209              	.LVL14:
 210 000c 08BD     		pop	{r3, pc}
 211              		.cfi_endproc
 212              	.LFE42:
 213              		.size	hw_serial_write_byte, .-hw_serial_write_byte
 214 000e 00BF     		.section	.text.hw_serial_available,"ax",%progbits
 215              		.align	2
 216              		.p2align 4,,15
 217              		.global	hw_serial_available
 218              		.thumb
 219              		.thumb_func
 220              		.type	hw_serial_available, %function
ARM GAS  /tmp/ccnLJ0T0.s 			page 5


 221              	hw_serial_available:
 222              	.LFB43:
 223              		.loc 1 62 0
 224              		.cfi_startproc
 225              		@ args = 0, pretend = 0, frame = 0
 226              		@ frame_needed = 0, uses_anonymous_args = 0
 227              	.LVL15:
 228 0000 08B5     		push	{r3, lr}
 229              		.cfi_def_cfa_offset 8
 230              		.cfi_offset 3, -8
 231              		.cfi_offset 14, -4
 232              		.loc 1 63 0
 233 0002 0368     		ldr	r3, [r0]
 234 0004 DB68     		ldr	r3, [r3, #12]
 235 0006 9847     		blx	r3
 236              	.LVL16:
 237              		.loc 1 64 0
 238 0008 D0F10100 		rsbs	r0, r0, #1
 239 000c 38BF     		it	cc
 240 000e 0020     		movcc	r0, #0
 241 0010 08BD     		pop	{r3, pc}
 242              		.cfi_endproc
 243              	.LFE43:
 244              		.size	hw_serial_available, .-hw_serial_available
 245 0012 00BFAFF3 		.text
 245      0080AFF3 
 245      0080AFF3 
 245      0080
 246              	.Letext0:
 247              		.file 2 "/usr/include/newlib/machine/_default_types.h"
 248              		.file 3 "/usr/include/newlib/stdint.h"
 249              		.file 4 "/usr/lib/gcc/arm-none-eabi/4.8.2/include/stddef.h"
 250              		.file 5 "../../os/ports/GCC/ARMCMx/chtypes.h"
 251              		.file 6 "../../os/kernel/include/chlists.h"
 252              		.file 7 "../../os/kernel/include/chthreads.h"
 253              		.file 8 "../../os/ports/GCC/ARMCMx/chcore_v7m.h"
 254              		.file 9 "../../os/kernel/include/chmtx.h"
 255              		.file 10 "../../os/kernel/include/chevents.h"
 256              		.file 11 "../../os/kernel/include/chqueues.h"
 257              		.file 12 "../../os/kernel/include/chioch.h"
 258              		.file 13 "../../os/hal/include/serial.h"
 259              		.file 14 "./weta_vm/hw/hw_serial.h"
 260              		.file 15 "../../os/hal/platforms/AT91SAM3/at91lib/SAM3N.h"
 261              		.file 16 "../../os/hal/platforms/AT91SAM3/serial_lld.h"
 262              		.file 17 "../../os/hal/platforms/AT91SAM3/core_cm3.h"
