ARM GAS  /tmp/ccsXekvW.s 			page 1


   1              		.syntax unified
   2              		.cpu cortex-m3
   3              		.fpu softvfp
   4              		.eabi_attribute 20, 1
   5              		.eabi_attribute 21, 1
   6              		.eabi_attribute 23, 3
   7              		.eabi_attribute 24, 1
   8              		.eabi_attribute 25, 1
   9              		.eabi_attribute 26, 1
  10              		.eabi_attribute 30, 2
  11              		.eabi_attribute 34, 1
  12              		.eabi_attribute 18, 4
  13              		.thumb
  14              		.file	"weta_stack.c"
  15              		.text
  16              	.Ltext0:
  17              		.cfi_sections	.debug_frame
  18              		.section	.text.weta_stack_dump,"ax",%progbits
  19              		.align	2
  20              		.p2align 4,,15
  21              		.global	weta_stack_dump
  22              		.thumb
  23              		.thumb_func
  24              		.type	weta_stack_dump, %function
  25              	weta_stack_dump:
  26              	.LFB36:
  27              		.file 1 "./weta_vm/weta_stack.c"
  28              		.loc 1 25 0
  29              		.cfi_startproc
  30              		@ args = 0, pretend = 0, frame = 256
  31              		@ frame_needed = 0, uses_anonymous_args = 0
  32              	.LVL0:
  33 0000 30B5     		push	{r4, r5, lr}
  34              		.cfi_def_cfa_offset 12
  35              		.cfi_offset 4, -12
  36              		.cfi_offset 5, -8
  37              		.cfi_offset 14, -4
  38              		.loc 1 27 0
  39 0002 40F20001 		movw	r1, #:lower16:.LC0
  40              		.loc 1 25 0
  41 0006 C1B0     		sub	sp, sp, #260
  42              		.cfi_def_cfa_offset 272
  43              		.loc 1 27 0
  44 0008 B0F90221 		ldrsh	r2, [r0, #258]
  45 000c C0F20001 		movt	r1, #:upper16:.LC0
  46              		.loc 1 25 0
  47 0010 0546     		mov	r5, r0
  48              		.loc 1 27 0
  49 0012 6846     		mov	r0, sp
  50              	.LVL1:
  51 0014 FFF7FEFF 		bl	sprintf
  52              	.LVL2:
  53              		.loc 1 28 0
  54 0018 6846     		mov	r0, sp
  55 001a FFF7FEFF 		bl	strlen
  56              	.LVL3:
  57 001e C2B2     		uxtb	r2, r0
ARM GAS  /tmp/ccsXekvW.s 			page 2


  58 0020 40F20000 		movw	r0, #:lower16:SD2
  59 0024 6946     		mov	r1, sp
  60 0026 C0F20000 		movt	r0, #:upper16:SD2
  61 002a FFF7FEFF 		bl	hw_serial_write
  62              	.LVL4:
  63              		.loc 1 31 0
  64 002e B5F90231 		ldrsh	r3, [r5, #258]
  65 0032 002B     		cmp	r3, #0
  66 0034 C4BF     		itt	gt
  67 0036 0024     		movgt	r4, #0
  68 0038 2346     		movgt	r3, r4
  69 003a 19DD     		ble	.L3
  70              	.LVL5:
  71              	.L4:
  72              		.loc 1 33 0 discriminator 2
  73 003c 40F20001 		movw	r1, #:lower16:.LC2
  74 0040 EA5C     		ldrb	r2, [r5, r3]	@ zero_extendqisi2
  75 0042 C0F20001 		movt	r1, #:upper16:.LC2
  76 0046 6846     		mov	r0, sp
  77 0048 FFF7FEFF 		bl	sprintf
  78              	.LVL6:
  79              		.loc 1 34 0 discriminator 2
  80 004c 6846     		mov	r0, sp
  81 004e FFF7FEFF 		bl	strlen
  82              	.LVL7:
  83 0052 C2B2     		uxtb	r2, r0
  84 0054 40F20000 		movw	r0, #:lower16:SD2
  85 0058 C0F20000 		movt	r0, #:upper16:SD2
  86 005c 6946     		mov	r1, sp
  87 005e 0134     		adds	r4, r4, #1
  88              	.LVL8:
  89 0060 FFF7FEFF 		bl	hw_serial_write
  90              	.LVL9:
  91 0064 A4B2     		uxth	r4, r4
  92              	.LVL10:
  93              		.loc 1 31 0 discriminator 2
  94 0066 B5F90221 		ldrsh	r2, [r5, #258]
  95 006a 23B2     		sxth	r3, r4
  96 006c 9A42     		cmp	r2, r3
  97 006e E5DC     		bgt	.L4
  98              	.LVL11:
  99              	.L3:
 100              		.loc 1 36 0
 101 0070 40F20004 		movw	r4, #:lower16:.LC1
 102 0074 6D46     		mov	r5, sp
 103              	.LVL12:
 104 0076 C0F20004 		movt	r4, #:upper16:.LC1
 105 007a 0FCC     		ldmia	r4!, {r0, r1, r2, r3}
 106 007c 0FC5     		stmia	r5!, {r0, r1, r2, r3}
 107 007e 2368     		ldr	r3, [r4]
 108              		.loc 1 37 0
 109 0080 40F20000 		movw	r0, #:lower16:SD2
 110 0084 6946     		mov	r1, sp
 111 0086 1322     		movs	r2, #19
 112              		.loc 1 36 0
 113 0088 2B60     		str	r3, [r5]
 114              		.loc 1 37 0
ARM GAS  /tmp/ccsXekvW.s 			page 3


 115 008a C0F20000 		movt	r0, #:upper16:SD2
 116 008e FFF7FEFF 		bl	hw_serial_write
 117              	.LVL13:
 118              		.loc 1 38 0
 119 0092 41B0     		add	sp, sp, #260
 120              		@ sp needed
 121 0094 30BD     		pop	{r4, r5, pc}
 122              		.cfi_endproc
 123              	.LFE36:
 124              		.size	weta_stack_dump, .-weta_stack_dump
 125 0096 00BFAFF3 		.section	.text.weta_stack_initStack,"ax",%progbits
 125      0080AFF3 
 125      0080
 126              		.align	2
 127              		.p2align 4,,15
 128              		.global	weta_stack_initStack
 129              		.thumb
 130              		.thumb_func
 131              		.type	weta_stack_initStack, %function
 132              	weta_stack_initStack:
 133              	.LFB37:
 134              		.loc 1 42 0
 135              		.cfi_startproc
 136              		@ args = 0, pretend = 0, frame = 0
 137              		@ frame_needed = 0, uses_anonymous_args = 0
 138              		@ link register save eliminated.
 139              	.LVL14:
 140              		.loc 1 44 0
 141 0000 0022     		movs	r2, #0
 142              		.loc 1 42 0
 143 0002 10B4     		push	{r4}
 144              		.cfi_def_cfa_offset 4
 145              		.cfi_offset 4, -4
 146              		.loc 1 46 0
 147 0004 4FF48071 		mov	r1, #256
 148              		.loc 1 43 0
 149 0008 0124     		movs	r4, #1
 150              		.loc 1 46 0
 151 000a 1346     		mov	r3, r2
 152              		.loc 1 43 0
 153 000c 80F80041 		strb	r4, [r0, #256]
 154              		.loc 1 46 0
 155 0010 A0F80411 		strh	r1, [r0, #260]	@ movhi
 156              	.LVL15:
 157              		.loc 1 44 0
 158 0014 A0F80221 		strh	r2, [r0, #258]	@ movhi
 159              	.LVL16:
 160              	.L9:
 161              		.loc 1 50 0 discriminator 2
 162 0018 C254     		strb	r2, [r0, r3]
 163              	.LVL17:
 164 001a 0133     		adds	r3, r3, #1
 165              	.LVL18:
 166              		.loc 1 49 0 discriminator 2
 167 001c B3F5807F 		cmp	r3, #256
 168 0020 FAD1     		bne	.L9
 169              		.loc 1 51 0
ARM GAS  /tmp/ccsXekvW.s 			page 4


 170 0022 5DF8044B 		ldr	r4, [sp], #4
 171 0026 7047     		bx	lr
 172              		.cfi_endproc
 173              	.LFE37:
 174              		.size	weta_stack_initStack, .-weta_stack_initStack
 175 0028 AFF30080 		.section	.text.weta_stack_init,"ax",%progbits
 175      AFF30080 
 176              		.align	2
 177              		.p2align 4,,15
 178              		.global	weta_stack_init
 179              		.thumb
 180              		.thumb_func
 181              		.type	weta_stack_init, %function
 182              	weta_stack_init:
 183              	.LFB38:
 184              		.loc 1 55 0
 185              		.cfi_startproc
 186              		@ args = 0, pretend = 0, frame = 0
 187              		@ frame_needed = 0, uses_anonymous_args = 0
 188              		@ link register save eliminated.
 189              	.LVL19:
 190              	.LBB122:
 191              	.LBB123:
 192              		.loc 1 43 0
 193 0000 40F20002 		movw	r2, #:lower16:.LANCHOR0
 194 0004 C0F20002 		movt	r2, #:upper16:.LANCHOR0
 195              		.loc 1 46 0
 196 0008 4FF48073 		mov	r3, #256
 197              		.loc 1 43 0
 198 000c 0120     		movs	r0, #1
 199              		.loc 1 44 0
 200 000e 0021     		movs	r1, #0
 201              		.loc 1 46 0
 202 0010 A2F80431 		strh	r3, [r2, #260]	@ movhi
 203              	.LVL20:
 204              		.loc 1 43 0
 205 0014 82F80001 		strb	r0, [r2, #256]
 206              		.loc 1 44 0
 207 0018 A2F80211 		strh	r1, [r2, #258]	@ movhi
 208 001c 531E     		subs	r3, r2, #1
 209 001e FF32     		adds	r2, r2, #255
 210              	.LVL21:
 211              	.L13:
 212              		.loc 1 50 0
 213 0020 03F8011F 		strb	r1, [r3, #1]!
 214              	.LVL22:
 215              		.loc 1 49 0
 216 0024 9342     		cmp	r3, r2
 217 0026 FBD1     		bne	.L13
 218              	.LBE123:
 219              	.LBE122:
 220              		.loc 1 59 0
 221 0028 7047     		bx	lr
 222              		.cfi_endproc
 223              	.LFE38:
 224              		.size	weta_stack_init, .-weta_stack_init
 225 002a 00BFAFF3 		.section	.text.weta_stack_allocate,"ax",%progbits
ARM GAS  /tmp/ccsXekvW.s 			page 5


 225      0080
 226              		.align	2
 227              		.p2align 4,,15
 228              		.global	weta_stack_allocate
 229              		.thumb
 230              		.thumb_func
 231              		.type	weta_stack_allocate, %function
 232              	weta_stack_allocate:
 233              	.LFB39:
 234              		.loc 1 63 0
 235              		.cfi_startproc
 236              		@ args = 0, pretend = 0, frame = 0
 237              		@ frame_needed = 0, uses_anonymous_args = 0
 238              		@ link register save eliminated.
 239              	.LVL23:
 240              		.loc 1 67 0
 241 0000 40F20003 		movw	r3, #:lower16:.LANCHOR0
 242 0004 C0F20003 		movt	r3, #:upper16:.LANCHOR0
 243 0008 93F80001 		ldrb	r0, [r3, #256]	@ zero_extendqisi2
 244 000c 00B9     		cbnz	r0, .L18
 245              	.L16:
 246              		.loc 1 74 0
 247 000e 7047     		bx	lr
 248              	.L18:
 249              		.loc 1 69 0
 250 0010 0022     		movs	r2, #0
 251 0012 83F80021 		strb	r2, [r3, #256]
 252              		.loc 1 70 0
 253 0016 1846     		mov	r0, r3
 254 0018 F9E7     		b	.L16
 255              		.cfi_endproc
 256              	.LFE39:
 257              		.size	weta_stack_allocate, .-weta_stack_allocate
 258 001a 00BFAFF3 		.section	.text.weta_stack_release,"ax",%progbits
 258      0080
 259              		.align	2
 260              		.p2align 4,,15
 261              		.global	weta_stack_release
 262              		.thumb
 263              		.thumb_func
 264              		.type	weta_stack_release, %function
 265              	weta_stack_release:
 266              	.LFB40:
 267              		.loc 1 78 0
 268              		.cfi_startproc
 269              		@ args = 0, pretend = 0, frame = 0
 270              		@ frame_needed = 0, uses_anonymous_args = 0
 271              		@ link register save eliminated.
 272              	.LVL24:
 273              		.loc 1 82 0
 274 0000 40F20003 		movw	r3, #:lower16:.LANCHOR0
 275 0004 C0F20003 		movt	r3, #:upper16:.LANCHOR0
 276 0008 9842     		cmp	r0, r3
 277 000a 00D0     		beq	.L24
 278              	.L19:
 279 000c 7047     		bx	lr
 280              	.L24:
ARM GAS  /tmp/ccsXekvW.s 			page 6


 281              	.LVL25:
 282              	.LBB124:
 283              	.LBB125:
 284              		.loc 1 43 0
 285 000e 0122     		movs	r2, #1
 286              		.loc 1 46 0
 287 0010 4FF48073 		mov	r3, #256
 288              		.loc 1 44 0
 289 0014 0021     		movs	r1, #0
 290              		.loc 1 43 0
 291 0016 80F80021 		strb	r2, [r0, #256]
 292              		.loc 1 46 0
 293 001a A0F80431 		strh	r3, [r0, #260]	@ movhi
 294              	.LVL26:
 295              		.loc 1 44 0
 296 001e A0F80211 		strh	r1, [r0, #258]	@ movhi
 297 0022 431E     		subs	r3, r0, #1
 298 0024 00F1FF02 		add	r2, r0, #255
 299              	.LVL27:
 300              	.L22:
 301              		.loc 1 50 0
 302 0028 03F8011F 		strb	r1, [r3, #1]!
 303              	.LVL28:
 304              		.loc 1 49 0
 305 002c 9342     		cmp	r3, r2
 306 002e FBD1     		bne	.L22
 307 0030 ECE7     		b	.L19
 308              	.LBE125:
 309              	.LBE124:
 310              		.cfi_endproc
 311              	.LFE40:
 312              		.size	weta_stack_release, .-weta_stack_release
 313 0032 00BFAFF3 		.section	.text.weta_stack_setStackState,"ax",%progbits
 313      0080AFF3 
 313      0080AFF3 
 313      0080
 314              		.align	2
 315              		.p2align 4,,15
 316              		.global	weta_stack_setStackState
 317              		.thumb
 318              		.thumb_func
 319              		.type	weta_stack_setStackState, %function
 320              	weta_stack_setStackState:
 321              	.LFB41:
 322              		.loc 1 92 0
 323              		.cfi_startproc
 324              		@ args = 0, pretend = 0, frame = 0
 325              		@ frame_needed = 0, uses_anonymous_args = 0
 326              		@ link register save eliminated.
 327              	.LVL29:
 328              		.loc 1 93 0
 329 0000 0A88     		ldrh	r2, [r1]
 330              		.loc 1 95 0
 331 0002 4B88     		ldrh	r3, [r1, #2]
 332              		.loc 1 93 0
 333 0004 A0F80221 		strh	r2, [r0, #258]	@ movhi
 334              		.loc 1 95 0
ARM GAS  /tmp/ccsXekvW.s 			page 7


 335 0008 A0F80431 		strh	r3, [r0, #260]	@ movhi
 336 000c 7047     		bx	lr
 337              		.cfi_endproc
 338              	.LFE41:
 339              		.size	weta_stack_setStackState, .-weta_stack_setStackState
 340 000e 00BF     		.section	.text.weta_stack_getStackState,"ax",%progbits
 341              		.align	2
 342              		.p2align 4,,15
 343              		.global	weta_stack_getStackState
 344              		.thumb
 345              		.thumb_func
 346              		.type	weta_stack_getStackState, %function
 347              	weta_stack_getStackState:
 348              	.LFB42:
 349              		.loc 1 101 0
 350              		.cfi_startproc
 351              		@ args = 0, pretend = 0, frame = 0
 352              		@ frame_needed = 0, uses_anonymous_args = 0
 353              		@ link register save eliminated.
 354              	.LVL30:
 355              		.loc 1 102 0
 356 0000 B0F80221 		ldrh	r2, [r0, #258]
 357              		.loc 1 104 0
 358 0004 B0F80431 		ldrh	r3, [r0, #260]
 359              		.loc 1 102 0
 360 0008 0A80     		strh	r2, [r1]	@ movhi
 361              		.loc 1 104 0
 362 000a 4B80     		strh	r3, [r1, #2]	@ movhi
 363 000c 7047     		bx	lr
 364              		.cfi_endproc
 365              	.LFE42:
 366              		.size	weta_stack_getStackState, .-weta_stack_getStackState
 367 000e 00BF     		.section	.text.weta_stack_pushStackState,"ax",%progbits
 368              		.align	2
 369              		.p2align 4,,15
 370              		.global	weta_stack_pushStackState
 371              		.thumb
 372              		.thumb_func
 373              		.type	weta_stack_pushStackState, %function
 374              	weta_stack_pushStackState:
 375              	.LFB43:
 376              		.loc 1 110 0
 377              		.cfi_startproc
 378              		@ args = 0, pretend = 0, frame = 0
 379              		@ frame_needed = 0, uses_anonymous_args = 0
 380              		@ link register save eliminated.
 381              	.LVL31:
 382 0000 70B4     		push	{r4, r5, r6}
 383              		.cfi_def_cfa_offset 12
 384              		.cfi_offset 4, -12
 385              		.cfi_offset 5, -8
 386              		.cfi_offset 6, -4
 387              	.LBB126:
 388              	.LBB127:
 389              	.LBB128:
 390              	.LBB129:
 391              		.loc 1 195 0
ARM GAS  /tmp/ccsXekvW.s 			page 8


 392 0002 B0F80241 		ldrh	r4, [r0, #258]
 393              	.LBE129:
 394              	.LBE128:
 395              		.loc 1 339 0
 396 0006 0A88     		ldrh	r2, [r1]
 397              	.LVL32:
 398              	.LBB132:
 399              	.LBB130:
 400              		.loc 1 200 0
 401 0008 23B2     		sxth	r3, r4
 402 000a C518     		adds	r5, r0, r3
 403 000c C2F30726 		ubfx	r6, r2, #8, #8
 404              	.LVL33:
 405 0010 C254     		strb	r2, [r0, r3]
 406              	.LVL34:
 407              		.loc 1 205 0
 408 0012 A4B2     		uxth	r4, r4
 409              		.loc 1 200 0
 410 0014 6E70     		strb	r6, [r5, #1]
 411              	.LVL35:
 412              	.LBE130:
 413              	.LBE132:
 414              	.LBE127:
 415              	.LBE126:
 416              	.LBB135:
 417              	.LBB136:
 418              		.loc 1 339 0
 419 0016 4A88     		ldrh	r2, [r1, #2]
 420              	.LVL36:
 421              	.LBE136:
 422              	.LBE135:
 423              	.LBB140:
 424              	.LBB134:
 425              	.LBB133:
 426              	.LBB131:
 427              		.loc 1 205 0
 428 0018 A31C     		adds	r3, r4, #2
 429              	.LBE131:
 430              	.LBE133:
 431              	.LBE134:
 432              	.LBE140:
 433              	.LBB141:
 434              	.LBB139:
 435              	.LBB137:
 436              	.LBB138:
 437              		.loc 1 200 0
 438 001a 1BB2     		sxth	r3, r3
 439 001c C2F30725 		ubfx	r5, r2, #8, #8
 440              	.LVL37:
 441 0020 C118     		adds	r1, r0, r3
 442              	.LVL38:
 443              		.loc 1 205 0
 444 0022 0434     		adds	r4, r4, #4
 445              	.LVL39:
 446              		.loc 1 200 0
 447 0024 C254     		strb	r2, [r0, r3]
 448              	.LVL40:
ARM GAS  /tmp/ccsXekvW.s 			page 9


 449 0026 4D70     		strb	r5, [r1, #1]
 450              	.LVL41:
 451              		.loc 1 205 0
 452 0028 A0F80241 		strh	r4, [r0, #258]	@ movhi
 453              	.LVL42:
 454              	.LBE138:
 455              	.LBE137:
 456              	.LBE139:
 457              	.LBE141:
 458              		.loc 1 115 0
 459 002c 70BC     		pop	{r4, r5, r6}
 460              	.LVL43:
 461 002e 7047     		bx	lr
 462              		.cfi_endproc
 463              	.LFE43:
 464              		.size	weta_stack_pushStackState, .-weta_stack_pushStackState
 465              		.section	.text.weta_stack_popStackState,"ax",%progbits
 466              		.align	2
 467              		.p2align 4,,15
 468              		.global	weta_stack_popStackState
 469              		.thumb
 470              		.thumb_func
 471              		.type	weta_stack_popStackState, %function
 472              	weta_stack_popStackState:
 473              	.LFB44:
 474              		.loc 1 119 0
 475              		.cfi_startproc
 476              		@ args = 0, pretend = 0, frame = 0
 477              		@ frame_needed = 0, uses_anonymous_args = 0
 478              		@ link register save eliminated.
 479              	.LVL44:
 480              	.LBB142:
 481              	.LBB143:
 482              	.LBB144:
 483              	.LBB145:
 484              		.loc 1 216 0
 485 0000 B0F80221 		ldrh	r2, [r0, #258]
 486              	.LBE145:
 487              	.LBE144:
 488              	.LBE143:
 489              	.LBE142:
 490              		.loc 1 119 0
 491 0004 30B4     		push	{r4, r5}
 492              		.cfi_def_cfa_offset 8
 493              		.cfi_offset 4, -8
 494              		.cfi_offset 5, -4
 495              	.LBB149:
 496              	.LBB148:
 497              	.LBB147:
 498              	.LBB146:
 499              		.loc 1 216 0
 500 0006 023A     		subs	r2, r2, #2
 501 0008 92B2     		uxth	r2, r2
 502              		.loc 1 219 0
 503 000a 14B2     		sxth	r4, r2
 504 000c 055D     		ldrb	r5, [r0, r4]	@ zero_extendqisi2
 505 000e 0444     		add	r4, r4, r0
ARM GAS  /tmp/ccsXekvW.s 			page 10


 506 0010 6478     		ldrb	r4, [r4, #1]	@ zero_extendqisi2
 507 0012 4FF00003 		mov	r3, #0	@ movhi
 508              	.LVL45:
 509 0016 65F30703 		bfi	r3, r5, #0, #8
 510              	.LVL46:
 511 001a 64F30F23 		bfi	r3, r4, #8, #8
 512              		.loc 1 216 0
 513 001e A0F80221 		strh	r2, [r0, #258]	@ movhi
 514              	.LVL47:
 515              	.LBE146:
 516              	.LBE147:
 517              		.loc 1 363 0
 518 0022 4B80     		strh	r3, [r1, #2]	@ movhi
 519              	.LVL48:
 520              	.LBE148:
 521              	.LBE149:
 522              	.LBB150:
 523              	.LBB151:
 524              	.LBB152:
 525              	.LBB153:
 526              		.loc 1 216 0
 527 0024 B0F80221 		ldrh	r2, [r0, #258]
 528              		.loc 1 219 0
 529 0028 4FF00003 		mov	r3, #0	@ movhi
 530              	.LVL49:
 531              		.loc 1 216 0
 532 002c 023A     		subs	r2, r2, #2
 533 002e 92B2     		uxth	r2, r2
 534              		.loc 1 219 0
 535 0030 14B2     		sxth	r4, r2
 536 0032 055D     		ldrb	r5, [r0, r4]	@ zero_extendqisi2
 537 0034 0444     		add	r4, r4, r0
 538 0036 6478     		ldrb	r4, [r4, #1]	@ zero_extendqisi2
 539 0038 65F30703 		bfi	r3, r5, #0, #8
 540              	.LVL50:
 541 003c 64F30F23 		bfi	r3, r4, #8, #8
 542              		.loc 1 216 0
 543 0040 A0F80221 		strh	r2, [r0, #258]	@ movhi
 544              	.LVL51:
 545              	.LBE153:
 546              	.LBE152:
 547              	.LBE151:
 548              	.LBE150:
 549              		.loc 1 124 0
 550 0044 30BC     		pop	{r4, r5}
 551              	.LBB155:
 552              	.LBB154:
 553              		.loc 1 363 0
 554 0046 0B80     		strh	r3, [r1]	@ movhi
 555              	.LBE154:
 556              	.LBE155:
 557              		.loc 1 124 0
 558 0048 7047     		bx	lr
 559              		.cfi_endproc
 560              	.LFE44:
 561              		.size	weta_stack_popStackState, .-weta_stack_popStackState
 562 004a 00BFAFF3 		.section	.text.weta_stack_pushn,"ax",%progbits
ARM GAS  /tmp/ccsXekvW.s 			page 11


 562      0080
 563              		.align	2
 564              		.p2align 4,,15
 565              		.global	weta_stack_pushn
 566              		.thumb
 567              		.thumb_func
 568              		.type	weta_stack_pushn, %function
 569              	weta_stack_pushn:
 570              	.LFB45:
 571              		.loc 1 128 0
 572              		.cfi_startproc
 573              		@ args = 0, pretend = 0, frame = 0
 574              		@ frame_needed = 0, uses_anonymous_args = 0
 575              		@ link register save eliminated.
 576              	.LVL52:
 577              		.loc 1 133 0
 578 0000 B0F80231 		ldrh	r3, [r0, #258]
 579 0004 1944     		add	r1, r1, r3
 580              	.LVL53:
 581 0006 89B2     		uxth	r1, r1
 582 0008 A0F80211 		strh	r1, [r0, #258]	@ movhi
 583              		.loc 1 135 0
 584 000c 08B2     		sxth	r0, r1
 585              	.LVL54:
 586 000e 7047     		bx	lr
 587              		.cfi_endproc
 588              	.LFE45:
 589              		.size	weta_stack_pushn, .-weta_stack_pushn
 590              		.section	.text.weta_stack_popn,"ax",%progbits
 591              		.align	2
 592              		.p2align 4,,15
 593              		.global	weta_stack_popn
 594              		.thumb
 595              		.thumb_func
 596              		.type	weta_stack_popn, %function
 597              	weta_stack_popn:
 598              	.LFB46:
 599              		.loc 1 139 0
 600              		.cfi_startproc
 601              		@ args = 0, pretend = 0, frame = 0
 602              		@ frame_needed = 0, uses_anonymous_args = 0
 603              		@ link register save eliminated.
 604              	.LVL55:
 605              		.loc 1 144 0
 606 0000 B0F80231 		ldrh	r3, [r0, #258]
 607 0004 591A     		subs	r1, r3, r1
 608              	.LVL56:
 609 0006 89B2     		uxth	r1, r1
 610 0008 A0F80211 		strh	r1, [r0, #258]	@ movhi
 611              		.loc 1 146 0
 612 000c 08B2     		sxth	r0, r1
 613              	.LVL57:
 614 000e 7047     		bx	lr
 615              		.cfi_endproc
 616              	.LFE46:
 617              		.size	weta_stack_popn, .-weta_stack_popn
 618              		.section	.text.weta_stack_getTop,"ax",%progbits
ARM GAS  /tmp/ccsXekvW.s 			page 12


 619              		.align	2
 620              		.p2align 4,,15
 621              		.global	weta_stack_getTop
 622              		.thumb
 623              		.thumb_func
 624              		.type	weta_stack_getTop, %function
 625              	weta_stack_getTop:
 626              	.LFB47:
 627              		.loc 1 150 0
 628              		.cfi_startproc
 629              		@ args = 0, pretend = 0, frame = 0
 630              		@ frame_needed = 0, uses_anonymous_args = 0
 631              		@ link register save eliminated.
 632              	.LVL58:
 633              		.loc 1 152 0
 634 0000 B0F90201 		ldrsh	r0, [r0, #258]
 635              	.LVL59:
 636 0004 7047     		bx	lr
 637              		.cfi_endproc
 638              	.LFE47:
 639              		.size	weta_stack_getTop, .-weta_stack_getTop
 640 0006 00BFAFF3 		.section	.text.weta_stack_setTop,"ax",%progbits
 640      0080AFF3 
 640      0080
 641              		.align	2
 642              		.p2align 4,,15
 643              		.global	weta_stack_setTop
 644              		.thumb
 645              		.thumb_func
 646              		.type	weta_stack_setTop, %function
 647              	weta_stack_setTop:
 648              	.LFB48:
 649              		.loc 1 156 0
 650              		.cfi_startproc
 651              		@ args = 0, pretend = 0, frame = 0
 652              		@ frame_needed = 0, uses_anonymous_args = 0
 653              		@ link register save eliminated.
 654              	.LVL60:
 655              		.loc 1 161 0
 656 0000 A0F80211 		strh	r1, [r0, #258]	@ movhi
 657              		.loc 1 163 0
 658 0004 0846     		mov	r0, r1
 659              	.LVL61:
 660 0006 7047     		bx	lr
 661              		.cfi_endproc
 662              	.LFE48:
 663              		.size	weta_stack_setTop, .-weta_stack_setTop
 664 0008 AFF30080 		.section	.text.weta_stack_getStringTop,"ax",%progbits
 664      AFF30080 
 665              		.align	2
 666              		.p2align 4,,15
 667              		.global	weta_stack_getStringTop
 668              		.thumb
 669              		.thumb_func
 670              		.type	weta_stack_getStringTop, %function
 671              	weta_stack_getStringTop:
 672              	.LFB49:
ARM GAS  /tmp/ccsXekvW.s 			page 13


 673              		.loc 1 169 0
 674              		.cfi_startproc
 675              		@ args = 0, pretend = 0, frame = 0
 676              		@ frame_needed = 0, uses_anonymous_args = 0
 677              		@ link register save eliminated.
 678              	.LVL62:
 679              		.loc 1 171 0
 680 0000 B0F90401 		ldrsh	r0, [r0, #260]
 681              	.LVL63:
 682 0004 7047     		bx	lr
 683              		.cfi_endproc
 684              	.LFE49:
 685              		.size	weta_stack_getStringTop, .-weta_stack_getStringTop
 686 0006 00BFAFF3 		.section	.text.weta_stack_getStackAddress,"ax",%progbits
 686      0080AFF3 
 686      0080
 687              		.align	2
 688              		.p2align 4,,15
 689              		.global	weta_stack_getStackAddress
 690              		.thumb
 691              		.thumb_func
 692              		.type	weta_stack_getStackAddress, %function
 693              	weta_stack_getStackAddress:
 694              	.LFB50:
 695              		.loc 1 176 0
 696              		.cfi_startproc
 697              		@ args = 0, pretend = 0, frame = 0
 698              		@ frame_needed = 0, uses_anonymous_args = 0
 699              		@ link register save eliminated.
 700              	.LVL64:
 701              		.loc 1 178 0
 702 0000 0844     		add	r0, r0, r1
 703              	.LVL65:
 704 0002 7047     		bx	lr
 705              		.cfi_endproc
 706              	.LFE50:
 707              		.size	weta_stack_getStackAddress, .-weta_stack_getStackAddress
 708 0004 AFF30080 		.section	.text.weta_stack_getTopAddress,"ax",%progbits
 708      AFF30080 
 708      AFF30080 
 709              		.align	2
 710              		.p2align 4,,15
 711              		.global	weta_stack_getTopAddress
 712              		.thumb
 713              		.thumb_func
 714              		.type	weta_stack_getTopAddress, %function
 715              	weta_stack_getTopAddress:
 716              	.LFB51:
 717              		.loc 1 182 0
 718              		.cfi_startproc
 719              		@ args = 0, pretend = 0, frame = 0
 720              		@ frame_needed = 0, uses_anonymous_args = 0
 721              		@ link register save eliminated.
 722              	.LVL66:
 723              		.loc 1 183 0
 724 0000 B0F90231 		ldrsh	r3, [r0, #258]
 725              		.loc 1 184 0
ARM GAS  /tmp/ccsXekvW.s 			page 14


 726 0004 1844     		add	r0, r0, r3
 727              	.LVL67:
 728 0006 7047     		bx	lr
 729              		.cfi_endproc
 730              	.LFE51:
 731              		.size	weta_stack_getTopAddress, .-weta_stack_getTopAddress
 732              		.section	.text.weta_stack_pushBytes,"ax",%progbits
 733              		.align	2
 734              		.p2align 4,,15
 735              		.global	weta_stack_pushBytes
 736              		.thumb
 737              		.thumb_func
 738              		.type	weta_stack_pushBytes, %function
 739              	weta_stack_pushBytes:
 740              	.LFB52:
 741              		.loc 1 190 0
 742              		.cfi_startproc
 743              		@ args = 0, pretend = 0, frame = 0
 744              		@ frame_needed = 0, uses_anonymous_args = 0
 745              		@ link register save eliminated.
 746              	.LVL68:
 747 0000 F0B4     		push	{r4, r5, r6, r7}
 748              		.cfi_def_cfa_offset 16
 749              		.cfi_offset 4, -16
 750              		.cfi_offset 5, -12
 751              		.cfi_offset 6, -8
 752              		.cfi_offset 7, -4
 753              		.loc 1 195 0
 754 0002 B0F802C1 		ldrh	ip, [r0, #258]
 755              	.LVL69:
 756              		.loc 1 190 0
 757 0006 0746     		mov	r7, r0
 758              		.loc 1 198 0
 759 0008 82B1     		cbz	r2, .L42
 760 000a 561E     		subs	r6, r2, #1
 761 000c F6B2     		uxtb	r6, r6
 762 000e 0FFA8CF0 		sxth	r0, ip
 763              	.LVL70:
 764 0012 0136     		adds	r6, r6, #1
 765 0014 3D18     		adds	r5, r7, r0
 766 0016 0023     		movs	r3, #0
 767              	.LVL71:
 768              	.L39:
 769              		.loc 1 200 0 discriminator 2
 770 0018 CC5C     		ldrb	r4, [r1, r3]	@ zero_extendqisi2
 771 001a EC54     		strb	r4, [r5, r3]
 772              	.LVL72:
 773 001c 0133     		adds	r3, r3, #1
 774              	.LVL73:
 775              		.loc 1 198 0 discriminator 2
 776 001e B342     		cmp	r3, r6
 777 0020 FAD1     		bne	.L39
 778              	.LVL74:
 779              	.L38:
 780              		.loc 1 205 0
 781 0022 6244     		add	r2, r2, ip
 782              	.LVL75:
ARM GAS  /tmp/ccsXekvW.s 			page 15


 783 0024 A7F80221 		strh	r2, [r7, #258]	@ movhi
 784              		.loc 1 207 0
 785 0028 F0BC     		pop	{r4, r5, r6, r7}
 786              	.LVL76:
 787 002a 7047     		bx	lr
 788              	.LVL77:
 789              	.L42:
 790 002c 0FFA8CF0 		sxth	r0, ip
 791              	.LVL78:
 792 0030 F7E7     		b	.L38
 793              		.cfi_endproc
 794              	.LFE52:
 795              		.size	weta_stack_pushBytes, .-weta_stack_pushBytes
 796 0032 00BFAFF3 		.section	.text.weta_stack_popBytes,"ax",%progbits
 796      0080AFF3 
 796      0080AFF3 
 796      0080
 797              		.align	2
 798              		.p2align 4,,15
 799              		.global	weta_stack_popBytes
 800              		.thumb
 801              		.thumb_func
 802              		.type	weta_stack_popBytes, %function
 803              	weta_stack_popBytes:
 804              	.LFB53:
 805              		.loc 1 211 0
 806              		.cfi_startproc
 807              		@ args = 0, pretend = 0, frame = 0
 808              		@ frame_needed = 0, uses_anonymous_args = 0
 809              		@ link register save eliminated.
 810              	.LVL79:
 811 0000 30B4     		push	{r4, r5}
 812              		.cfi_def_cfa_offset 8
 813              		.cfi_offset 4, -8
 814              		.cfi_offset 5, -4
 815              		.loc 1 216 0
 816 0002 B0F80241 		ldrh	r4, [r0, #258]
 817 0006 A41A     		subs	r4, r4, r2
 818 0008 A4B2     		uxth	r4, r4
 819 000a A0F80241 		strh	r4, [r0, #258]	@ movhi
 820              	.LVL80:
 821              		.loc 1 218 0
 822 000e 82B1     		cbz	r2, .L47
 823 0010 0023     		movs	r3, #0
 824 0012 01E0     		b	.L46
 825              	.LVL81:
 826              	.L48:
 827 0014 B0F80241 		ldrh	r4, [r0, #258]
 828              	.LVL82:
 829              	.L46:
 830              		.loc 1 219 0 discriminator 2
 831 0018 C518     		adds	r5, r0, r3
 832 001a 24B2     		sxth	r4, r4
 833 001c 2C5D     		ldrb	r4, [r5, r4]	@ zero_extendqisi2
 834 001e CC54     		strb	r4, [r1, r3]
 835              	.LVL83:
 836 0020 0133     		adds	r3, r3, #1
ARM GAS  /tmp/ccsXekvW.s 			page 16


 837              	.LVL84:
 838              		.loc 1 218 0 discriminator 2
 839 0022 DCB2     		uxtb	r4, r3
 840 0024 A242     		cmp	r2, r4
 841 0026 F5D8     		bhi	.L48
 842 0028 B0F80201 		ldrh	r0, [r0, #258]
 843              	.LVL85:
 844              	.L44:
 845              		.loc 1 222 0
 846 002c 00B2     		sxth	r0, r0
 847 002e 30BC     		pop	{r4, r5}
 848 0030 7047     		bx	lr
 849              	.LVL86:
 850              	.L47:
 851              		.loc 1 218 0
 852 0032 2046     		mov	r0, r4
 853              	.LVL87:
 854 0034 FAE7     		b	.L44
 855              		.cfi_endproc
 856              	.LFE53:
 857              		.size	weta_stack_popBytes, .-weta_stack_popBytes
 858 0036 00BFAFF3 		.section	.text.weta_stack_topBytes,"ax",%progbits
 858      0080AFF3 
 858      0080
 859              		.align	2
 860              		.p2align 4,,15
 861              		.global	weta_stack_topBytes
 862              		.thumb
 863              		.thumb_func
 864              		.type	weta_stack_topBytes, %function
 865              	weta_stack_topBytes:
 866              	.LFB54:
 867              		.loc 1 226 0
 868              		.cfi_startproc
 869              		@ args = 0, pretend = 0, frame = 0
 870              		@ frame_needed = 0, uses_anonymous_args = 0
 871              		@ link register save eliminated.
 872              	.LVL88:
 873              		.loc 1 231 0
 874 0000 B0F80231 		ldrh	r3, [r0, #258]
 875              		.loc 1 226 0
 876 0004 30B4     		push	{r4, r5}
 877              		.cfi_def_cfa_offset 8
 878              		.cfi_offset 4, -8
 879              		.cfi_offset 5, -4
 880              		.loc 1 231 0
 881 0006 9B1A     		subs	r3, r3, r2
 882              		.loc 1 226 0
 883 0008 0446     		mov	r4, r0
 884              		.loc 1 231 0
 885 000a 98B2     		uxth	r0, r3
 886              	.LVL89:
 887              		.loc 1 233 0
 888 000c 62B1     		cbz	r2, .L55
 889 000e 013A     		subs	r2, r2, #1
 890              	.LVL90:
 891 0010 D5B2     		uxtb	r5, r2
ARM GAS  /tmp/ccsXekvW.s 			page 17


 892 0012 00B2     		sxth	r0, r0
 893 0014 0135     		adds	r5, r5, #1
 894 0016 0444     		add	r4, r4, r0
 895              	.LVL91:
 896 0018 0023     		movs	r3, #0
 897              	.LVL92:
 898              	.L52:
 899              		.loc 1 234 0 discriminator 2
 900 001a E25C     		ldrb	r2, [r4, r3]	@ zero_extendqisi2
 901 001c CA54     		strb	r2, [r1, r3]
 902              	.LVL93:
 903 001e 0133     		adds	r3, r3, #1
 904              	.LVL94:
 905              		.loc 1 233 0 discriminator 2
 906 0020 AB42     		cmp	r3, r5
 907 0022 FAD1     		bne	.L52
 908              	.LVL95:
 909              	.L53:
 910              		.loc 1 237 0
 911 0024 30BC     		pop	{r4, r5}
 912 0026 7047     		bx	lr
 913              	.LVL96:
 914              	.L55:
 915 0028 00B2     		sxth	r0, r0
 916 002a FBE7     		b	.L53
 917              		.cfi_endproc
 918              	.LFE54:
 919              		.size	weta_stack_topBytes, .-weta_stack_topBytes
 920 002c AFF30080 		.section	.text.weta_stack_getBytes,"ax",%progbits
 921              		.align	2
 922              		.p2align 4,,15
 923              		.global	weta_stack_getBytes
 924              		.thumb
 925              		.thumb_func
 926              		.type	weta_stack_getBytes, %function
 927              	weta_stack_getBytes:
 928              	.LFB55:
 929              		.loc 1 241 0
 930              		.cfi_startproc
 931              		@ args = 0, pretend = 0, frame = 0
 932              		@ frame_needed = 0, uses_anonymous_args = 0
 933              		@ link register save eliminated.
 934              	.LVL97:
 935 0000 70B4     		push	{r4, r5, r6}
 936              		.cfi_def_cfa_offset 12
 937              		.cfi_offset 4, -12
 938              		.cfi_offset 5, -8
 939              		.cfi_offset 6, -4
 940              		.loc 1 247 0
 941 0002 4BB1     		cbz	r3, .L60
 942 0004 013B     		subs	r3, r3, #1
 943              	.LVL98:
 944 0006 DEB2     		uxtb	r6, r3
 945 0008 0136     		adds	r6, r6, #1
 946 000a 4518     		adds	r5, r0, r1
 947 000c 0023     		movs	r3, #0
 948              	.LVL99:
ARM GAS  /tmp/ccsXekvW.s 			page 18


 949              	.L59:
 950              		.loc 1 248 0 discriminator 2
 951 000e EC5C     		ldrb	r4, [r5, r3]	@ zero_extendqisi2
 952 0010 D454     		strb	r4, [r2, r3]
 953              	.LVL100:
 954 0012 0133     		adds	r3, r3, #1
 955              	.LVL101:
 956              		.loc 1 247 0 discriminator 2
 957 0014 B342     		cmp	r3, r6
 958 0016 FAD1     		bne	.L59
 959              	.LVL102:
 960              	.L60:
 961              		.loc 1 251 0
 962 0018 0846     		mov	r0, r1
 963              	.LVL103:
 964 001a 70BC     		pop	{r4, r5, r6}
 965 001c 7047     		bx	lr
 966              		.cfi_endproc
 967              	.LFE55:
 968              		.size	weta_stack_getBytes, .-weta_stack_getBytes
 969              		.section	.text.weta_stack_setBytes,"ax",%progbits
 970              		.align	2
 971              		.p2align 4,,15
 972              		.global	weta_stack_setBytes
 973              		.thumb
 974              		.thumb_func
 975              		.type	weta_stack_setBytes, %function
 976              	weta_stack_setBytes:
 977              	.LFB56:
 978              		.loc 1 255 0
 979              		.cfi_startproc
 980              		@ args = 0, pretend = 0, frame = 0
 981              		@ frame_needed = 0, uses_anonymous_args = 0
 982              		@ link register save eliminated.
 983              	.LVL104:
 984 0000 70B4     		push	{r4, r5, r6}
 985              		.cfi_def_cfa_offset 12
 986              		.cfi_offset 4, -12
 987              		.cfi_offset 5, -8
 988              		.cfi_offset 6, -4
 989              		.loc 1 261 0
 990 0002 4BB1     		cbz	r3, .L66
 991 0004 013B     		subs	r3, r3, #1
 992              	.LVL105:
 993 0006 DEB2     		uxtb	r6, r3
 994 0008 0136     		adds	r6, r6, #1
 995 000a 4518     		adds	r5, r0, r1
 996 000c 0023     		movs	r3, #0
 997              	.LVL106:
 998              	.L65:
 999              		.loc 1 262 0 discriminator 2
 1000 000e D45C     		ldrb	r4, [r2, r3]	@ zero_extendqisi2
 1001 0010 EC54     		strb	r4, [r5, r3]
 1002              	.LVL107:
 1003 0012 0133     		adds	r3, r3, #1
 1004              	.LVL108:
 1005              		.loc 1 261 0 discriminator 2
ARM GAS  /tmp/ccsXekvW.s 			page 19


 1006 0014 B342     		cmp	r3, r6
 1007 0016 FAD1     		bne	.L65
 1008              	.LVL109:
 1009              	.L66:
 1010              		.loc 1 264 0
 1011 0018 0846     		mov	r0, r1
 1012              	.LVL110:
 1013 001a 70BC     		pop	{r4, r5, r6}
 1014 001c 7047     		bx	lr
 1015              		.cfi_endproc
 1016              	.LFE56:
 1017              		.size	weta_stack_setBytes, .-weta_stack_setBytes
 1018              		.section	.text.weta_stack_pushUint8,"ax",%progbits
 1019              		.align	2
 1020              		.p2align 4,,15
 1021              		.global	weta_stack_pushUint8
 1022              		.thumb
 1023              		.thumb_func
 1024              		.type	weta_stack_pushUint8, %function
 1025              	weta_stack_pushUint8:
 1026              	.LFB57:
 1027              		.loc 1 270 0
 1028              		.cfi_startproc
 1029              		@ args = 0, pretend = 0, frame = 0
 1030              		@ frame_needed = 0, uses_anonymous_args = 0
 1031              		@ link register save eliminated.
 1032              	.LVL111:
 1033              		.loc 1 275 0
 1034 0000 B0F80221 		ldrh	r2, [r0, #258]
 1035              	.LVL112:
 1036              		.loc 1 270 0
 1037 0004 0346     		mov	r3, r0
 1038              		.loc 1 276 0
 1039 0006 10B2     		sxth	r0, r2
 1040              	.LVL113:
 1041              		.loc 1 277 0
 1042 0008 0132     		adds	r2, r2, #1
 1043              		.loc 1 276 0
 1044 000a 1954     		strb	r1, [r3, r0]
 1045              		.loc 1 277 0
 1046 000c A3F80221 		strh	r2, [r3, #258]	@ movhi
 1047              	.LVL114:
 1048              		.loc 1 280 0
 1049 0010 7047     		bx	lr
 1050              		.cfi_endproc
 1051              	.LFE57:
 1052              		.size	weta_stack_pushUint8, .-weta_stack_pushUint8
 1053 0012 00BFAFF3 		.section	.text.weta_stack_popUint8,"ax",%progbits
 1053      0080AFF3 
 1053      0080AFF3 
 1053      0080
 1054              		.align	2
 1055              		.p2align 4,,15
 1056              		.global	weta_stack_popUint8
 1057              		.thumb
 1058              		.thumb_func
 1059              		.type	weta_stack_popUint8, %function
ARM GAS  /tmp/ccsXekvW.s 			page 20


 1060              	weta_stack_popUint8:
 1061              	.LFB58:
 1062              		.loc 1 283 0
 1063              		.cfi_startproc
 1064              		@ args = 0, pretend = 0, frame = 0
 1065              		@ frame_needed = 0, uses_anonymous_args = 0
 1066              		@ link register save eliminated.
 1067              	.LVL115:
 1068              		.loc 1 288 0
 1069 0000 B0F80231 		ldrh	r3, [r0, #258]
 1070 0004 013B     		subs	r3, r3, #1
 1071 0006 9BB2     		uxth	r3, r3
 1072              		.loc 1 289 0
 1073 0008 1AB2     		sxth	r2, r3
 1074 000a 825C     		ldrb	r2, [r0, r2]	@ zero_extendqisi2
 1075              		.loc 1 288 0
 1076 000c A0F80231 		strh	r3, [r0, #258]	@ movhi
 1077              		.loc 1 289 0
 1078 0010 0A70     		strb	r2, [r1]
 1079              		.loc 1 292 0
 1080 0012 B0F90201 		ldrsh	r0, [r0, #258]
 1081              	.LVL116:
 1082 0016 7047     		bx	lr
 1083              		.cfi_endproc
 1084              	.LFE58:
 1085              		.size	weta_stack_popUint8, .-weta_stack_popUint8
 1086 0018 AFF30080 		.section	.text.weta_stack_topUint8,"ax",%progbits
 1086      AFF30080 
 1087              		.align	2
 1088              		.p2align 4,,15
 1089              		.global	weta_stack_topUint8
 1090              		.thumb
 1091              		.thumb_func
 1092              		.type	weta_stack_topUint8, %function
 1093              	weta_stack_topUint8:
 1094              	.LFB59:
 1095              		.loc 1 295 0
 1096              		.cfi_startproc
 1097              		@ args = 0, pretend = 0, frame = 0
 1098              		@ frame_needed = 0, uses_anonymous_args = 0
 1099              		@ link register save eliminated.
 1100              	.LVL117:
 1101              		.loc 1 295 0
 1102 0000 0346     		mov	r3, r0
 1103              		.loc 1 296 0
 1104 0002 B0F80201 		ldrh	r0, [r0, #258]
 1105              	.LVL118:
 1106 0006 0138     		subs	r0, r0, #1
 1107              	.LVL119:
 1108              		.loc 1 301 0
 1109 0008 00B2     		sxth	r0, r0
 1110              	.LVL120:
 1111 000a 1B5C     		ldrb	r3, [r3, r0]	@ zero_extendqisi2
 1112              	.LVL121:
 1113 000c 0B70     		strb	r3, [r1]
 1114              	.LVL122:
 1115              		.loc 1 303 0
ARM GAS  /tmp/ccsXekvW.s 			page 21


 1116 000e 7047     		bx	lr
 1117              		.cfi_endproc
 1118              	.LFE59:
 1119              		.size	weta_stack_topUint8, .-weta_stack_topUint8
 1120              		.section	.text.weta_stack_getUint8,"ax",%progbits
 1121              		.align	2
 1122              		.p2align 4,,15
 1123              		.global	weta_stack_getUint8
 1124              		.thumb
 1125              		.thumb_func
 1126              		.type	weta_stack_getUint8, %function
 1127              	weta_stack_getUint8:
 1128              	.LFB60:
 1129              		.loc 1 306 0
 1130              		.cfi_startproc
 1131              		@ args = 0, pretend = 0, frame = 0
 1132              		@ frame_needed = 0, uses_anonymous_args = 0
 1133              		@ link register save eliminated.
 1134              	.LVL123:
 1135              		.loc 1 311 0
 1136 0000 435C     		ldrb	r3, [r0, r1]	@ zero_extendqisi2
 1137              		.loc 1 313 0
 1138 0002 0846     		mov	r0, r1
 1139              	.LVL124:
 1140              		.loc 1 311 0
 1141 0004 1370     		strb	r3, [r2]
 1142              		.loc 1 313 0
 1143 0006 7047     		bx	lr
 1144              		.cfi_endproc
 1145              	.LFE60:
 1146              		.size	weta_stack_getUint8, .-weta_stack_getUint8
 1147 0008 AFF30080 		.section	.text.weta_stack_setUint8,"ax",%progbits
 1147      AFF30080 
 1148              		.align	2
 1149              		.p2align 4,,15
 1150              		.global	weta_stack_setUint8
 1151              		.thumb
 1152              		.thumb_func
 1153              		.type	weta_stack_setUint8, %function
 1154              	weta_stack_setUint8:
 1155              	.LFB61:
 1156              		.loc 1 316 0
 1157              		.cfi_startproc
 1158              		@ args = 0, pretend = 0, frame = 0
 1159              		@ frame_needed = 0, uses_anonymous_args = 0
 1160              		@ link register save eliminated.
 1161              	.LVL125:
 1162              		.loc 1 321 0
 1163 0000 4254     		strb	r2, [r0, r1]
 1164              		.loc 1 323 0
 1165 0002 0846     		mov	r0, r1
 1166              	.LVL126:
 1167 0004 7047     		bx	lr
 1168              		.cfi_endproc
 1169              	.LFE61:
 1170              		.size	weta_stack_setUint8, .-weta_stack_setUint8
 1171              		.section	.text.weta_stack_pushStackPtr,"ax",%progbits
ARM GAS  /tmp/ccsXekvW.s 			page 22


 1172              		.align	2
 1173              		.p2align 4,,15
 1174              		.global	weta_stack_pushStackPtr
 1175              		.thumb
 1176              		.thumb_func
 1177              		.type	weta_stack_pushStackPtr, %function
 1178              	weta_stack_pushStackPtr:
 1179              	.LFB62:
 1180              		.loc 1 326 0
 1181              		.cfi_startproc
 1182              		@ args = 0, pretend = 0, frame = 0
 1183              		@ frame_needed = 0, uses_anonymous_args = 0
 1184              		@ link register save eliminated.
 1185              	.LVL127:
 1186 0000 30B4     		push	{r4, r5}
 1187              		.cfi_def_cfa_offset 8
 1188              		.cfi_offset 4, -8
 1189              		.cfi_offset 5, -4
 1190              	.LBB156:
 1191              	.LBB157:
 1192              		.loc 1 195 0
 1193 0002 B0F80221 		ldrh	r2, [r0, #258]
 1194              	.LBE157:
 1195              	.LBE156:
 1196              		.loc 1 326 0
 1197 0006 0346     		mov	r3, r0
 1198              	.LVL128:
 1199              	.LBB159:
 1200              	.LBB158:
 1201              		.loc 1 200 0
 1202 0008 10B2     		sxth	r0, r2
 1203              	.LVL129:
 1204 000a C1F30725 		ubfx	r5, r1, #8, #8
 1205 000e 1C18     		adds	r4, r3, r0
 1206 0010 1954     		strb	r1, [r3, r0]
 1207              	.LVL130:
 1208              		.loc 1 205 0
 1209 0012 0232     		adds	r2, r2, #2
 1210              		.loc 1 200 0
 1211 0014 6570     		strb	r5, [r4, #1]
 1212              	.LVL131:
 1213              		.loc 1 205 0
 1214 0016 A3F80221 		strh	r2, [r3, #258]	@ movhi
 1215              	.LVL132:
 1216              	.LBE158:
 1217              	.LBE159:
 1218              		.loc 1 348 0
 1219 001a 30BC     		pop	{r4, r5}
 1220 001c 7047     		bx	lr
 1221              		.cfi_endproc
 1222              	.LFE62:
 1223              		.size	weta_stack_pushStackPtr, .-weta_stack_pushStackPtr
 1224 001e 00BF     		.section	.text.weta_stack_popStackPtr,"ax",%progbits
 1225              		.align	2
 1226              		.p2align 4,,15
 1227              		.global	weta_stack_popStackPtr
 1228              		.thumb
ARM GAS  /tmp/ccsXekvW.s 			page 23


 1229              		.thumb_func
 1230              		.type	weta_stack_popStackPtr, %function
 1231              	weta_stack_popStackPtr:
 1232              	.LFB63:
 1233              		.loc 1 351 0
 1234              		.cfi_startproc
 1235              		@ args = 0, pretend = 0, frame = 0
 1236              		@ frame_needed = 0, uses_anonymous_args = 0
 1237              		@ link register save eliminated.
 1238              	.LVL133:
 1239 0000 30B4     		push	{r4, r5}
 1240              		.cfi_def_cfa_offset 8
 1241              		.cfi_offset 4, -8
 1242              		.cfi_offset 5, -4
 1243              	.LBB160:
 1244              	.LBB161:
 1245              		.loc 1 216 0
 1246 0002 B0F80221 		ldrh	r2, [r0, #258]
 1247              		.loc 1 219 0
 1248 0006 4FF00003 		mov	r3, #0	@ movhi
 1249              	.LVL134:
 1250              		.loc 1 216 0
 1251 000a 023A     		subs	r2, r2, #2
 1252 000c 92B2     		uxth	r2, r2
 1253              		.loc 1 219 0
 1254 000e 14B2     		sxth	r4, r2
 1255 0010 055D     		ldrb	r5, [r0, r4]	@ zero_extendqisi2
 1256 0012 0444     		add	r4, r4, r0
 1257 0014 6478     		ldrb	r4, [r4, #1]	@ zero_extendqisi2
 1258 0016 65F30703 		bfi	r3, r5, #0, #8
 1259              	.LVL135:
 1260 001a 64F30F23 		bfi	r3, r4, #8, #8
 1261              		.loc 1 216 0
 1262 001e A0F80221 		strh	r2, [r0, #258]	@ movhi
 1263              	.LVL136:
 1264              	.LBE161:
 1265              	.LBE160:
 1266              		.loc 1 363 0
 1267 0022 0B80     		strh	r3, [r1]	@ movhi
 1268              		.loc 1 369 0
 1269 0024 B0F90201 		ldrsh	r0, [r0, #258]
 1270              	.LVL137:
 1271 0028 30BC     		pop	{r4, r5}
 1272 002a 7047     		bx	lr
 1273              		.cfi_endproc
 1274              	.LFE63:
 1275              		.size	weta_stack_popStackPtr, .-weta_stack_popStackPtr
 1276 002c AFF30080 		.section	.text.weta_stack_topStackPtr,"ax",%progbits
 1277              		.align	2
 1278              		.p2align 4,,15
 1279              		.global	weta_stack_topStackPtr
 1280              		.thumb
 1281              		.thumb_func
 1282              		.type	weta_stack_topStackPtr, %function
 1283              	weta_stack_topStackPtr:
 1284              	.LFB64:
 1285              		.loc 1 372 0
ARM GAS  /tmp/ccsXekvW.s 			page 24


 1286              		.cfi_startproc
 1287              		@ args = 0, pretend = 0, frame = 0
 1288              		@ frame_needed = 0, uses_anonymous_args = 0
 1289              		@ link register save eliminated.
 1290              	.LVL138:
 1291 0000 10B4     		push	{r4}
 1292              		.cfi_def_cfa_offset 4
 1293              		.cfi_offset 4, -4
 1294              		.loc 1 373 0
 1295 0002 B0F80221 		ldrh	r2, [r0, #258]
 1296              	.LBB162:
 1297              	.LBB163:
 1298              		.loc 1 234 0
 1299 0006 4FF00003 		mov	r3, #0	@ movhi
 1300              	.LVL139:
 1301              	.LBE163:
 1302              	.LBE162:
 1303              		.loc 1 373 0
 1304 000a 023A     		subs	r2, r2, #2
 1305              	.LVL140:
 1306              	.LBB165:
 1307              	.LBB164:
 1308              		.loc 1 234 0
 1309 000c 12B2     		sxth	r2, r2
 1310              	.LVL141:
 1311 000e 845C     		ldrb	r4, [r0, r2]	@ zero_extendqisi2
 1312 0010 1044     		add	r0, r0, r2
 1313              	.LVL142:
 1314 0012 4078     		ldrb	r0, [r0, #1]	@ zero_extendqisi2
 1315 0014 64F30703 		bfi	r3, r4, #0, #8
 1316              	.LVL143:
 1317 0018 60F30F23 		bfi	r3, r0, #8, #8
 1318              	.LVL144:
 1319              	.LBE164:
 1320              	.LBE165:
 1321              		.loc 1 386 0
 1322 001c 0B80     		strh	r3, [r1]	@ movhi
 1323              	.LVL145:
 1324              		.loc 1 391 0
 1325 001e 1046     		mov	r0, r2
 1326 0020 5DF8044B 		ldr	r4, [sp], #4
 1327 0024 7047     		bx	lr
 1328              		.cfi_endproc
 1329              	.LFE64:
 1330              		.size	weta_stack_topStackPtr, .-weta_stack_topStackPtr
 1331 0026 00BFAFF3 		.section	.text.weta_stack_getStackPtr,"ax",%progbits
 1331      0080AFF3 
 1331      0080
 1332              		.align	2
 1333              		.p2align 4,,15
 1334              		.global	weta_stack_getStackPtr
 1335              		.thumb
 1336              		.thumb_func
 1337              		.type	weta_stack_getStackPtr, %function
 1338              	weta_stack_getStackPtr:
 1339              	.LFB65:
 1340              		.loc 1 394 0
ARM GAS  /tmp/ccsXekvW.s 			page 25


 1341              		.cfi_startproc
 1342              		@ args = 0, pretend = 0, frame = 0
 1343              		@ frame_needed = 0, uses_anonymous_args = 0
 1344              		@ link register save eliminated.
 1345              	.LVL146:
 1346 0000 10B4     		push	{r4}
 1347              		.cfi_def_cfa_offset 4
 1348              		.cfi_offset 4, -4
 1349              	.LBB166:
 1350              	.LBB167:
 1351              		.loc 1 248 0
 1352 0002 445C     		ldrb	r4, [r0, r1]	@ zero_extendqisi2
 1353 0004 0844     		add	r0, r0, r1
 1354              	.LVL147:
 1355 0006 4078     		ldrb	r0, [r0, #1]	@ zero_extendqisi2
 1356 0008 4FF00003 		mov	r3, #0	@ movhi
 1357              	.LVL148:
 1358 000c 64F30703 		bfi	r3, r4, #0, #8
 1359              	.LVL149:
 1360 0010 60F30F23 		bfi	r3, r0, #8, #8
 1361              	.LVL150:
 1362              	.LBE167:
 1363              	.LBE166:
 1364              		.loc 1 407 0
 1365 0014 1380     		strh	r3, [r2]	@ movhi
 1366              		.loc 1 412 0
 1367 0016 0846     		mov	r0, r1
 1368 0018 5DF8044B 		ldr	r4, [sp], #4
 1369 001c 7047     		bx	lr
 1370              		.cfi_endproc
 1371              	.LFE65:
 1372              		.size	weta_stack_getStackPtr, .-weta_stack_getStackPtr
 1373 001e 00BF     		.section	.text.weta_stack_setStackPtr,"ax",%progbits
 1374              		.align	2
 1375              		.p2align 4,,15
 1376              		.global	weta_stack_setStackPtr
 1377              		.thumb
 1378              		.thumb_func
 1379              		.type	weta_stack_setStackPtr, %function
 1380              	weta_stack_setStackPtr:
 1381              	.LFB66:
 1382              		.loc 1 415 0
 1383              		.cfi_startproc
 1384              		@ args = 0, pretend = 0, frame = 0
 1385              		@ frame_needed = 0, uses_anonymous_args = 0
 1386              		@ link register save eliminated.
 1387              	.LVL151:
 1388 0000 10B4     		push	{r4}
 1389              		.cfi_def_cfa_offset 4
 1390              		.cfi_offset 4, -4
 1391              	.LBB168:
 1392              	.LBB169:
 1393              		.loc 1 262 0
 1394 0002 4318     		adds	r3, r0, r1
 1395 0004 C2F30724 		ubfx	r4, r2, #8, #8
 1396 0008 4254     		strb	r2, [r0, r1]
 1397              	.LVL152:
ARM GAS  /tmp/ccsXekvW.s 			page 26


 1398 000a 5C70     		strb	r4, [r3, #1]
 1399              	.LVL153:
 1400              	.LBE169:
 1401              	.LBE168:
 1402              		.loc 1 433 0
 1403 000c 0846     		mov	r0, r1
 1404              	.LVL154:
 1405 000e 5DF8044B 		ldr	r4, [sp], #4
 1406 0012 7047     		bx	lr
 1407              		.cfi_endproc
 1408              	.LFE66:
 1409              		.size	weta_stack_setStackPtr, .-weta_stack_setStackPtr
 1410 0014 AFF30080 		.section	.text.weta_stack_pushUint16,"ax",%progbits
 1410      AFF30080 
 1410      AFF30080 
 1411              		.align	2
 1412              		.p2align 4,,15
 1413              		.global	weta_stack_pushUint16
 1414              		.thumb
 1415              		.thumb_func
 1416              		.type	weta_stack_pushUint16, %function
 1417              	weta_stack_pushUint16:
 1418              	.LFB67:
 1419              		.loc 1 437 0
 1420              		.cfi_startproc
 1421              		@ args = 0, pretend = 0, frame = 0
 1422              		@ frame_needed = 0, uses_anonymous_args = 0
 1423              		@ link register save eliminated.
 1424              	.LVL155:
 1425 0000 30B4     		push	{r4, r5}
 1426              		.cfi_def_cfa_offset 8
 1427              		.cfi_offset 4, -8
 1428              		.cfi_offset 5, -4
 1429              	.LBB170:
 1430              	.LBB171:
 1431              		.loc 1 195 0
 1432 0002 B0F80221 		ldrh	r2, [r0, #258]
 1433              	.LBE171:
 1434              	.LBE170:
 1435              		.loc 1 437 0
 1436 0006 0346     		mov	r3, r0
 1437              	.LVL156:
 1438              	.LBB173:
 1439              	.LBB172:
 1440              		.loc 1 200 0
 1441 0008 10B2     		sxth	r0, r2
 1442              	.LVL157:
 1443 000a C1F30725 		ubfx	r5, r1, #8, #8
 1444 000e 1C18     		adds	r4, r3, r0
 1445 0010 1954     		strb	r1, [r3, r0]
 1446              	.LVL158:
 1447              		.loc 1 205 0
 1448 0012 0232     		adds	r2, r2, #2
 1449              		.loc 1 200 0
 1450 0014 6570     		strb	r5, [r4, #1]
 1451              	.LVL159:
 1452              		.loc 1 205 0
ARM GAS  /tmp/ccsXekvW.s 			page 27


 1453 0016 A3F80221 		strh	r2, [r3, #258]	@ movhi
 1454              	.LVL160:
 1455              	.LBE172:
 1456              	.LBE173:
 1457              		.loc 1 458 0
 1458 001a 30BC     		pop	{r4, r5}
 1459 001c 7047     		bx	lr
 1460              		.cfi_endproc
 1461              	.LFE67:
 1462              		.size	weta_stack_pushUint16, .-weta_stack_pushUint16
 1463 001e 00BF     		.section	.text.weta_stack_popUint16,"ax",%progbits
 1464              		.align	2
 1465              		.p2align 4,,15
 1466              		.global	weta_stack_popUint16
 1467              		.thumb
 1468              		.thumb_func
 1469              		.type	weta_stack_popUint16, %function
 1470              	weta_stack_popUint16:
 1471              	.LFB68:
 1472              		.loc 1 461 0
 1473              		.cfi_startproc
 1474              		@ args = 0, pretend = 0, frame = 0
 1475              		@ frame_needed = 0, uses_anonymous_args = 0
 1476              		@ link register save eliminated.
 1477              	.LVL161:
 1478 0000 30B4     		push	{r4, r5}
 1479              		.cfi_def_cfa_offset 8
 1480              		.cfi_offset 4, -8
 1481              		.cfi_offset 5, -4
 1482              	.LBB174:
 1483              	.LBB175:
 1484              		.loc 1 216 0
 1485 0002 B0F80221 		ldrh	r2, [r0, #258]
 1486              		.loc 1 219 0
 1487 0006 4FF00003 		mov	r3, #0	@ movhi
 1488              	.LVL162:
 1489              		.loc 1 216 0
 1490 000a 023A     		subs	r2, r2, #2
 1491 000c 92B2     		uxth	r2, r2
 1492              		.loc 1 219 0
 1493 000e 14B2     		sxth	r4, r2
 1494 0010 055D     		ldrb	r5, [r0, r4]	@ zero_extendqisi2
 1495 0012 0444     		add	r4, r4, r0
 1496 0014 6478     		ldrb	r4, [r4, #1]	@ zero_extendqisi2
 1497 0016 65F30703 		bfi	r3, r5, #0, #8
 1498              	.LVL163:
 1499 001a 64F30F23 		bfi	r3, r4, #8, #8
 1500              		.loc 1 216 0
 1501 001e A0F80221 		strh	r2, [r0, #258]	@ movhi
 1502              	.LVL164:
 1503              	.LBE175:
 1504              	.LBE174:
 1505              		.loc 1 473 0
 1506 0022 0B80     		strh	r3, [r1]	@ movhi
 1507              		.loc 1 479 0
 1508 0024 B0F90201 		ldrsh	r0, [r0, #258]
 1509              	.LVL165:
ARM GAS  /tmp/ccsXekvW.s 			page 28


 1510 0028 30BC     		pop	{r4, r5}
 1511 002a 7047     		bx	lr
 1512              		.cfi_endproc
 1513              	.LFE68:
 1514              		.size	weta_stack_popUint16, .-weta_stack_popUint16
 1515 002c AFF30080 		.section	.text.weta_stack_topUint16,"ax",%progbits
 1516              		.align	2
 1517              		.p2align 4,,15
 1518              		.global	weta_stack_topUint16
 1519              		.thumb
 1520              		.thumb_func
 1521              		.type	weta_stack_topUint16, %function
 1522              	weta_stack_topUint16:
 1523              	.LFB69:
 1524              		.loc 1 482 0
 1525              		.cfi_startproc
 1526              		@ args = 0, pretend = 0, frame = 0
 1527              		@ frame_needed = 0, uses_anonymous_args = 0
 1528              		@ link register save eliminated.
 1529              	.LVL166:
 1530 0000 10B4     		push	{r4}
 1531              		.cfi_def_cfa_offset 4
 1532              		.cfi_offset 4, -4
 1533              		.loc 1 483 0
 1534 0002 B0F80221 		ldrh	r2, [r0, #258]
 1535              	.LBB176:
 1536              	.LBB177:
 1537              		.loc 1 234 0
 1538 0006 4FF00003 		mov	r3, #0	@ movhi
 1539              	.LVL167:
 1540              	.LBE177:
 1541              	.LBE176:
 1542              		.loc 1 483 0
 1543 000a 023A     		subs	r2, r2, #2
 1544              	.LVL168:
 1545              	.LBB179:
 1546              	.LBB178:
 1547              		.loc 1 234 0
 1548 000c 12B2     		sxth	r2, r2
 1549              	.LVL169:
 1550 000e 845C     		ldrb	r4, [r0, r2]	@ zero_extendqisi2
 1551 0010 1044     		add	r0, r0, r2
 1552              	.LVL170:
 1553 0012 4078     		ldrb	r0, [r0, #1]	@ zero_extendqisi2
 1554 0014 64F30703 		bfi	r3, r4, #0, #8
 1555              	.LVL171:
 1556 0018 60F30F23 		bfi	r3, r0, #8, #8
 1557              	.LVL172:
 1558              	.LBE178:
 1559              	.LBE179:
 1560              		.loc 1 496 0
 1561 001c 0B80     		strh	r3, [r1]	@ movhi
 1562              	.LVL173:
 1563              		.loc 1 501 0
 1564 001e 1046     		mov	r0, r2
 1565 0020 5DF8044B 		ldr	r4, [sp], #4
 1566 0024 7047     		bx	lr
ARM GAS  /tmp/ccsXekvW.s 			page 29


 1567              		.cfi_endproc
 1568              	.LFE69:
 1569              		.size	weta_stack_topUint16, .-weta_stack_topUint16
 1570 0026 00BFAFF3 		.section	.text.weta_stack_getUint16,"ax",%progbits
 1570      0080AFF3 
 1570      0080
 1571              		.align	2
 1572              		.p2align 4,,15
 1573              		.global	weta_stack_getUint16
 1574              		.thumb
 1575              		.thumb_func
 1576              		.type	weta_stack_getUint16, %function
 1577              	weta_stack_getUint16:
 1578              	.LFB70:
 1579              		.loc 1 504 0
 1580              		.cfi_startproc
 1581              		@ args = 0, pretend = 0, frame = 0
 1582              		@ frame_needed = 0, uses_anonymous_args = 0
 1583              		@ link register save eliminated.
 1584              	.LVL174:
 1585 0000 10B4     		push	{r4}
 1586              		.cfi_def_cfa_offset 4
 1587              		.cfi_offset 4, -4
 1588              	.LBB180:
 1589              	.LBB181:
 1590              		.loc 1 248 0
 1591 0002 445C     		ldrb	r4, [r0, r1]	@ zero_extendqisi2
 1592 0004 0844     		add	r0, r0, r1
 1593              	.LVL175:
 1594 0006 4078     		ldrb	r0, [r0, #1]	@ zero_extendqisi2
 1595 0008 4FF00003 		mov	r3, #0	@ movhi
 1596              	.LVL176:
 1597 000c 64F30703 		bfi	r3, r4, #0, #8
 1598              	.LVL177:
 1599 0010 60F30F23 		bfi	r3, r0, #8, #8
 1600              	.LVL178:
 1601              	.LBE181:
 1602              	.LBE180:
 1603              		.loc 1 517 0
 1604 0014 1380     		strh	r3, [r2]	@ movhi
 1605              		.loc 1 522 0
 1606 0016 0846     		mov	r0, r1
 1607 0018 5DF8044B 		ldr	r4, [sp], #4
 1608 001c 7047     		bx	lr
 1609              		.cfi_endproc
 1610              	.LFE70:
 1611              		.size	weta_stack_getUint16, .-weta_stack_getUint16
 1612 001e 00BF     		.section	.text.weta_stack_setUint16,"ax",%progbits
 1613              		.align	2
 1614              		.p2align 4,,15
 1615              		.global	weta_stack_setUint16
 1616              		.thumb
 1617              		.thumb_func
 1618              		.type	weta_stack_setUint16, %function
 1619              	weta_stack_setUint16:
 1620              	.LFB71:
 1621              		.loc 1 525 0
ARM GAS  /tmp/ccsXekvW.s 			page 30


 1622              		.cfi_startproc
 1623              		@ args = 0, pretend = 0, frame = 0
 1624              		@ frame_needed = 0, uses_anonymous_args = 0
 1625              		@ link register save eliminated.
 1626              	.LVL179:
 1627 0000 10B4     		push	{r4}
 1628              		.cfi_def_cfa_offset 4
 1629              		.cfi_offset 4, -4
 1630              	.LBB182:
 1631              	.LBB183:
 1632              		.loc 1 262 0
 1633 0002 4318     		adds	r3, r0, r1
 1634 0004 C2F30724 		ubfx	r4, r2, #8, #8
 1635 0008 4254     		strb	r2, [r0, r1]
 1636              	.LVL180:
 1637 000a 5C70     		strb	r4, [r3, #1]
 1638              	.LVL181:
 1639              	.LBE183:
 1640              	.LBE182:
 1641              		.loc 1 543 0
 1642 000c 0846     		mov	r0, r1
 1643              	.LVL182:
 1644 000e 5DF8044B 		ldr	r4, [sp], #4
 1645 0012 7047     		bx	lr
 1646              		.cfi_endproc
 1647              	.LFE71:
 1648              		.size	weta_stack_setUint16, .-weta_stack_setUint16
 1649 0014 AFF30080 		.section	.text.weta_stack_pushUint32,"ax",%progbits
 1649      AFF30080 
 1649      AFF30080 
 1650              		.align	2
 1651              		.p2align 4,,15
 1652              		.global	weta_stack_pushUint32
 1653              		.thumb
 1654              		.thumb_func
 1655              		.type	weta_stack_pushUint32, %function
 1656              	weta_stack_pushUint32:
 1657              	.LFB72:
 1658              		.loc 1 547 0
 1659              		.cfi_startproc
 1660              		@ args = 0, pretend = 0, frame = 8
 1661              		@ frame_needed = 0, uses_anonymous_args = 0
 1662              		@ link register save eliminated.
 1663              	.LVL183:
 1664 0000 F0B4     		push	{r4, r5, r6, r7}
 1665              		.cfi_def_cfa_offset 16
 1666              		.cfi_offset 4, -16
 1667              		.cfi_offset 5, -12
 1668              		.cfi_offset 6, -8
 1669              		.cfi_offset 7, -4
 1670              	.LBB184:
 1671              	.LBB185:
 1672              		.loc 1 195 0
 1673 0002 B0F80271 		ldrh	r7, [r0, #258]
 1674              	.LBE185:
 1675              	.LBE184:
 1676              		.loc 1 547 0
ARM GAS  /tmp/ccsXekvW.s 			page 31


 1677 0006 82B0     		sub	sp, sp, #8
 1678              		.cfi_def_cfa_offset 24
 1679              		.loc 1 560 0
 1680 0008 02AC     		add	r4, sp, #8
 1681 000a 3EB2     		sxth	r6, r7
 1682 000c 8519     		adds	r5, r0, r6
 1683 000e 44F8041D 		str	r1, [r4, #-4]!
 1684              	.LVL184:
 1685              	.LBB187:
 1686              	.LBB186:
 1687              		.loc 1 195 0
 1688 0012 0023     		movs	r3, #0
 1689              	.LVL185:
 1690              	.L85:
 1691              		.loc 1 200 0
 1692 0014 E25C     		ldrb	r2, [r4, r3]	@ zero_extendqisi2
 1693 0016 EA54     		strb	r2, [r5, r3]
 1694              	.LVL186:
 1695 0018 0133     		adds	r3, r3, #1
 1696              	.LVL187:
 1697              		.loc 1 198 0
 1698 001a 042B     		cmp	r3, #4
 1699 001c FAD1     		bne	.L85
 1700              		.loc 1 205 0
 1701 001e 0437     		adds	r7, r7, #4
 1702              	.LVL188:
 1703 0020 A0F80271 		strh	r7, [r0, #258]	@ movhi
 1704              	.LBE186:
 1705              	.LBE187:
 1706              		.loc 1 568 0
 1707 0024 3046     		mov	r0, r6
 1708              	.LVL189:
 1709 0026 02B0     		add	sp, sp, #8
 1710              		@ sp needed
 1711 0028 F0BC     		pop	{r4, r5, r6, r7}
 1712              	.LVL190:
 1713 002a 7047     		bx	lr
 1714              		.cfi_endproc
 1715              	.LFE72:
 1716              		.size	weta_stack_pushUint32, .-weta_stack_pushUint32
 1717 002c AFF30080 		.section	.text.weta_stack_popUint32,"ax",%progbits
 1718              		.align	2
 1719              		.p2align 4,,15
 1720              		.global	weta_stack_popUint32
 1721              		.thumb
 1722              		.thumb_func
 1723              		.type	weta_stack_popUint32, %function
 1724              	weta_stack_popUint32:
 1725              	.LFB73:
 1726              		.loc 1 571 0
 1727              		.cfi_startproc
 1728              		@ args = 0, pretend = 0, frame = 8
 1729              		@ frame_needed = 0, uses_anonymous_args = 0
 1730              		@ link register save eliminated.
 1731              	.LVL191:
 1732 0000 30B4     		push	{r4, r5}
 1733              		.cfi_def_cfa_offset 8
ARM GAS  /tmp/ccsXekvW.s 			page 32


 1734              		.cfi_offset 4, -8
 1735              		.cfi_offset 5, -4
 1736              	.LBB188:
 1737              	.LBB189:
 1738              		.loc 1 216 0
 1739 0002 B0F80231 		ldrh	r3, [r0, #258]
 1740              	.LBE189:
 1741              	.LBE188:
 1742              		.loc 1 571 0
 1743 0006 0546     		mov	r5, r0
 1744              	.LVL192:
 1745              	.LBB192:
 1746              	.LBB190:
 1747              		.loc 1 216 0
 1748 0008 043B     		subs	r3, r3, #4
 1749 000a 9BB2     		uxth	r3, r3
 1750 000c 18B2     		sxth	r0, r3
 1751              	.LVL193:
 1752              	.LBE190:
 1753              	.LBE192:
 1754              		.loc 1 571 0
 1755 000e 82B0     		sub	sp, sp, #8
 1756              		.cfi_def_cfa_offset 16
 1757              	.LVL194:
 1758              	.LBB193:
 1759              	.LBB191:
 1760              		.loc 1 216 0
 1761 0010 A5F80231 		strh	r3, [r5, #258]	@ movhi
 1762              	.LVL195:
 1763 0014 01AC     		add	r4, sp, #4
 1764              	.LVL196:
 1765 0016 0544     		add	r5, r5, r0
 1766              	.LVL197:
 1767 0018 0023     		movs	r3, #0
 1768              	.LVL198:
 1769              	.L89:
 1770              		.loc 1 219 0
 1771 001a EA5C     		ldrb	r2, [r5, r3]	@ zero_extendqisi2
 1772 001c E254     		strb	r2, [r4, r3]
 1773              	.LVL199:
 1774 001e 0133     		adds	r3, r3, #1
 1775              	.LVL200:
 1776              		.loc 1 218 0
 1777 0020 042B     		cmp	r3, #4
 1778 0022 FAD1     		bne	.L89
 1779              	.LBE191:
 1780              	.LBE193:
 1781              		.loc 1 583 0
 1782 0024 019B     		ldr	r3, [sp, #4]
 1783              	.LVL201:
 1784 0026 0B60     		str	r3, [r1]
 1785              		.loc 1 589 0
 1786 0028 02B0     		add	sp, sp, #8
 1787              		@ sp needed
 1788 002a 30BC     		pop	{r4, r5}
 1789              	.LVL202:
 1790 002c 7047     		bx	lr
ARM GAS  /tmp/ccsXekvW.s 			page 33


 1791              		.cfi_endproc
 1792              	.LFE73:
 1793              		.size	weta_stack_popUint32, .-weta_stack_popUint32
 1794 002e 00BF     		.section	.text.weta_stack_topUint32,"ax",%progbits
 1795              		.align	2
 1796              		.p2align 4,,15
 1797              		.global	weta_stack_topUint32
 1798              		.thumb
 1799              		.thumb_func
 1800              		.type	weta_stack_topUint32, %function
 1801              	weta_stack_topUint32:
 1802              	.LFB74:
 1803              		.loc 1 592 0
 1804              		.cfi_startproc
 1805              		@ args = 0, pretend = 0, frame = 8
 1806              		@ frame_needed = 0, uses_anonymous_args = 0
 1807              		@ link register save eliminated.
 1808              	.LVL203:
 1809 0000 30B4     		push	{r4, r5}
 1810              		.cfi_def_cfa_offset 8
 1811              		.cfi_offset 4, -8
 1812              		.cfi_offset 5, -4
 1813 0002 0546     		mov	r5, r0
 1814              		.loc 1 593 0
 1815 0004 B0F80201 		ldrh	r0, [r0, #258]
 1816              	.LVL204:
 1817              		.loc 1 592 0
 1818 0008 82B0     		sub	sp, sp, #8
 1819              		.cfi_def_cfa_offset 16
 1820              		.loc 1 593 0
 1821 000a 0438     		subs	r0, r0, #4
 1822              	.LVL205:
 1823 000c 00B2     		sxth	r0, r0
 1824              	.LVL206:
 1825 000e 0544     		add	r5, r5, r0
 1826              	.LVL207:
 1827 0010 0023     		movs	r3, #0
 1828 0012 01AC     		add	r4, sp, #4
 1829              	.LVL208:
 1830              	.L93:
 1831              	.LBB194:
 1832              	.LBB195:
 1833              		.loc 1 234 0
 1834 0014 EA5C     		ldrb	r2, [r5, r3]	@ zero_extendqisi2
 1835 0016 E254     		strb	r2, [r4, r3]
 1836              	.LVL209:
 1837 0018 0133     		adds	r3, r3, #1
 1838              	.LVL210:
 1839              		.loc 1 233 0
 1840 001a 042B     		cmp	r3, #4
 1841 001c FAD1     		bne	.L93
 1842              	.LBE195:
 1843              	.LBE194:
 1844              		.loc 1 606 0
 1845 001e 019B     		ldr	r3, [sp, #4]
 1846              	.LVL211:
 1847 0020 0B60     		str	r3, [r1]
ARM GAS  /tmp/ccsXekvW.s 			page 34


 1848              		.loc 1 611 0
 1849 0022 02B0     		add	sp, sp, #8
 1850              		@ sp needed
 1851 0024 30BC     		pop	{r4, r5}
 1852              	.LVL212:
 1853 0026 7047     		bx	lr
 1854              		.cfi_endproc
 1855              	.LFE74:
 1856              		.size	weta_stack_topUint32, .-weta_stack_topUint32
 1857 0028 AFF30080 		.section	.text.weta_stack_getUint32,"ax",%progbits
 1857      AFF30080 
 1858              		.align	2
 1859              		.p2align 4,,15
 1860              		.global	weta_stack_getUint32
 1861              		.thumb
 1862              		.thumb_func
 1863              		.type	weta_stack_getUint32, %function
 1864              	weta_stack_getUint32:
 1865              	.LFB75:
 1866              		.loc 1 614 0
 1867              		.cfi_startproc
 1868              		@ args = 0, pretend = 0, frame = 8
 1869              		@ frame_needed = 0, uses_anonymous_args = 0
 1870              		@ link register save eliminated.
 1871              	.LVL213:
 1872 0000 50B4     		push	{r4, r6}
 1873              		.cfi_def_cfa_offset 8
 1874              		.cfi_offset 4, -8
 1875              		.cfi_offset 6, -4
 1876 0002 82B0     		sub	sp, sp, #8
 1877              		.cfi_def_cfa_offset 16
 1878              	.LVL214:
 1879 0004 0844     		add	r0, r0, r1
 1880              	.LVL215:
 1881              		.loc 1 614 0
 1882 0006 0023     		movs	r3, #0
 1883 0008 01AE     		add	r6, sp, #4
 1884              	.LVL216:
 1885              	.L97:
 1886              	.LBB196:
 1887              	.LBB197:
 1888              		.loc 1 248 0
 1889 000a C45C     		ldrb	r4, [r0, r3]	@ zero_extendqisi2
 1890 000c F454     		strb	r4, [r6, r3]
 1891              	.LVL217:
 1892 000e 0133     		adds	r3, r3, #1
 1893              	.LVL218:
 1894              		.loc 1 247 0
 1895 0010 042B     		cmp	r3, #4
 1896 0012 FAD1     		bne	.L97
 1897              	.LBE197:
 1898              	.LBE196:
 1899              		.loc 1 627 0
 1900 0014 019B     		ldr	r3, [sp, #4]
 1901              	.LVL219:
 1902              		.loc 1 632 0
 1903 0016 0846     		mov	r0, r1
ARM GAS  /tmp/ccsXekvW.s 			page 35


 1904              		.loc 1 627 0
 1905 0018 1360     		str	r3, [r2]
 1906              		.loc 1 632 0
 1907 001a 02B0     		add	sp, sp, #8
 1908              		@ sp needed
 1909 001c 50BC     		pop	{r4, r6}
 1910              	.LVL220:
 1911 001e 7047     		bx	lr
 1912              		.cfi_endproc
 1913              	.LFE75:
 1914              		.size	weta_stack_getUint32, .-weta_stack_getUint32
 1915              		.section	.text.weta_stack_setUint32,"ax",%progbits
 1916              		.align	2
 1917              		.p2align 4,,15
 1918              		.global	weta_stack_setUint32
 1919              		.thumb
 1920              		.thumb_func
 1921              		.type	weta_stack_setUint32, %function
 1922              	weta_stack_setUint32:
 1923              	.LFB76:
 1924              		.loc 1 635 0
 1925              		.cfi_startproc
 1926              		@ args = 0, pretend = 0, frame = 8
 1927              		@ frame_needed = 0, uses_anonymous_args = 0
 1928              		@ link register save eliminated.
 1929              	.LVL221:
 1930 0000 10B4     		push	{r4}
 1931              		.cfi_def_cfa_offset 4
 1932              		.cfi_offset 4, -4
 1933 0002 83B0     		sub	sp, sp, #12
 1934              		.cfi_def_cfa_offset 16
 1935              		.loc 1 647 0
 1936 0004 02AC     		add	r4, sp, #8
 1937 0006 0844     		add	r0, r0, r1
 1938              	.LVL222:
 1939 0008 44F8042D 		str	r2, [r4, #-4]!
 1940              	.LVL223:
 1941 000c 0023     		movs	r3, #0
 1942              	.LVL224:
 1943              	.L101:
 1944              	.LBB198:
 1945              	.LBB199:
 1946              		.loc 1 262 0
 1947 000e E25C     		ldrb	r2, [r4, r3]	@ zero_extendqisi2
 1948 0010 C254     		strb	r2, [r0, r3]
 1949              	.LVL225:
 1950 0012 0133     		adds	r3, r3, #1
 1951              	.LVL226:
 1952              		.loc 1 261 0
 1953 0014 042B     		cmp	r3, #4
 1954 0016 FAD1     		bne	.L101
 1955              	.LBE199:
 1956              	.LBE198:
 1957              		.loc 1 653 0
 1958 0018 0846     		mov	r0, r1
 1959 001a 03B0     		add	sp, sp, #12
 1960              		@ sp needed
ARM GAS  /tmp/ccsXekvW.s 			page 36


 1961 001c 5DF8044B 		ldr	r4, [sp], #4
 1962              	.LVL227:
 1963 0020 7047     		bx	lr
 1964              		.cfi_endproc
 1965              	.LFE76:
 1966              		.size	weta_stack_setUint32, .-weta_stack_setUint32
 1967 0022 00BFAFF3 		.section	.text.weta_stack_pushFloat,"ax",%progbits
 1967      0080AFF3 
 1967      0080AFF3 
 1967      0080
 1968              		.align	2
 1969              		.p2align 4,,15
 1970              		.global	weta_stack_pushFloat
 1971              		.thumb
 1972              		.thumb_func
 1973              		.type	weta_stack_pushFloat, %function
 1974              	weta_stack_pushFloat:
 1975              	.LFB77:
 1976              		.loc 1 659 0
 1977              		.cfi_startproc
 1978              		@ args = 0, pretend = 0, frame = 8
 1979              		@ frame_needed = 0, uses_anonymous_args = 0
 1980              		@ link register save eliminated.
 1981              	.LVL228:
 1982 0000 F0B4     		push	{r4, r5, r6, r7}
 1983              		.cfi_def_cfa_offset 16
 1984              		.cfi_offset 4, -16
 1985              		.cfi_offset 5, -12
 1986              		.cfi_offset 6, -8
 1987              		.cfi_offset 7, -4
 1988              	.LBB200:
 1989              	.LBB201:
 1990              		.loc 1 195 0
 1991 0002 B0F80271 		ldrh	r7, [r0, #258]
 1992              	.LBE201:
 1993              	.LBE200:
 1994              		.loc 1 659 0
 1995 0006 82B0     		sub	sp, sp, #8
 1996              		.cfi_def_cfa_offset 24
 1997              		.loc 1 672 0
 1998 0008 02AC     		add	r4, sp, #8
 1999 000a 3EB2     		sxth	r6, r7
 2000 000c 8519     		adds	r5, r0, r6
 2001 000e 44F8041D 		str	r1, [r4, #-4]!	@ float
 2002              	.LVL229:
 2003              	.LBB203:
 2004              	.LBB202:
 2005              		.loc 1 195 0
 2006 0012 0023     		movs	r3, #0
 2007              	.LVL230:
 2008              	.L105:
 2009              		.loc 1 200 0
 2010 0014 E25C     		ldrb	r2, [r4, r3]	@ zero_extendqisi2
 2011 0016 EA54     		strb	r2, [r5, r3]
 2012              	.LVL231:
 2013 0018 0133     		adds	r3, r3, #1
 2014              	.LVL232:
ARM GAS  /tmp/ccsXekvW.s 			page 37


 2015              		.loc 1 198 0
 2016 001a 042B     		cmp	r3, #4
 2017 001c FAD1     		bne	.L105
 2018              		.loc 1 205 0
 2019 001e 0437     		adds	r7, r7, #4
 2020              	.LVL233:
 2021 0020 A0F80271 		strh	r7, [r0, #258]	@ movhi
 2022              	.LBE202:
 2023              	.LBE203:
 2024              		.loc 1 680 0
 2025 0024 3046     		mov	r0, r6
 2026              	.LVL234:
 2027 0026 02B0     		add	sp, sp, #8
 2028              		@ sp needed
 2029 0028 F0BC     		pop	{r4, r5, r6, r7}
 2030              	.LVL235:
 2031 002a 7047     		bx	lr
 2032              		.cfi_endproc
 2033              	.LFE77:
 2034              		.size	weta_stack_pushFloat, .-weta_stack_pushFloat
 2035 002c AFF30080 		.section	.text.weta_stack_popFloat,"ax",%progbits
 2036              		.align	2
 2037              		.p2align 4,,15
 2038              		.global	weta_stack_popFloat
 2039              		.thumb
 2040              		.thumb_func
 2041              		.type	weta_stack_popFloat, %function
 2042              	weta_stack_popFloat:
 2043              	.LFB78:
 2044              		.loc 1 683 0
 2045              		.cfi_startproc
 2046              		@ args = 0, pretend = 0, frame = 8
 2047              		@ frame_needed = 0, uses_anonymous_args = 0
 2048              		@ link register save eliminated.
 2049              	.LVL236:
 2050 0000 30B4     		push	{r4, r5}
 2051              		.cfi_def_cfa_offset 8
 2052              		.cfi_offset 4, -8
 2053              		.cfi_offset 5, -4
 2054              	.LBB204:
 2055              	.LBB205:
 2056              		.loc 1 216 0
 2057 0002 B0F80231 		ldrh	r3, [r0, #258]
 2058              	.LBE205:
 2059              	.LBE204:
 2060              		.loc 1 683 0
 2061 0006 0546     		mov	r5, r0
 2062              	.LVL237:
 2063              	.LBB208:
 2064              	.LBB206:
 2065              		.loc 1 216 0
 2066 0008 043B     		subs	r3, r3, #4
 2067 000a 9BB2     		uxth	r3, r3
 2068 000c 18B2     		sxth	r0, r3
 2069              	.LVL238:
 2070              	.LBE206:
 2071              	.LBE208:
ARM GAS  /tmp/ccsXekvW.s 			page 38


 2072              		.loc 1 683 0
 2073 000e 82B0     		sub	sp, sp, #8
 2074              		.cfi_def_cfa_offset 16
 2075              	.LVL239:
 2076              	.LBB209:
 2077              	.LBB207:
 2078              		.loc 1 216 0
 2079 0010 A5F80231 		strh	r3, [r5, #258]	@ movhi
 2080              	.LVL240:
 2081 0014 01AC     		add	r4, sp, #4
 2082              	.LVL241:
 2083 0016 0544     		add	r5, r5, r0
 2084              	.LVL242:
 2085 0018 0023     		movs	r3, #0
 2086              	.LVL243:
 2087              	.L109:
 2088              		.loc 1 219 0
 2089 001a EA5C     		ldrb	r2, [r5, r3]	@ zero_extendqisi2
 2090 001c E254     		strb	r2, [r4, r3]
 2091              	.LVL244:
 2092 001e 0133     		adds	r3, r3, #1
 2093              	.LVL245:
 2094              		.loc 1 218 0
 2095 0020 042B     		cmp	r3, #4
 2096 0022 FAD1     		bne	.L109
 2097              	.LBE207:
 2098              	.LBE209:
 2099              		.loc 1 695 0
 2100 0024 019B     		ldr	r3, [sp, #4]	@ float
 2101              	.LVL246:
 2102 0026 0B60     		str	r3, [r1]	@ float
 2103              		.loc 1 701 0
 2104 0028 02B0     		add	sp, sp, #8
 2105              		@ sp needed
 2106 002a 30BC     		pop	{r4, r5}
 2107              	.LVL247:
 2108 002c 7047     		bx	lr
 2109              		.cfi_endproc
 2110              	.LFE78:
 2111              		.size	weta_stack_popFloat, .-weta_stack_popFloat
 2112 002e 00BF     		.section	.text.weta_stack_topFloat,"ax",%progbits
 2113              		.align	2
 2114              		.p2align 4,,15
 2115              		.global	weta_stack_topFloat
 2116              		.thumb
 2117              		.thumb_func
 2118              		.type	weta_stack_topFloat, %function
 2119              	weta_stack_topFloat:
 2120              	.LFB79:
 2121              		.loc 1 704 0
 2122              		.cfi_startproc
 2123              		@ args = 0, pretend = 0, frame = 8
 2124              		@ frame_needed = 0, uses_anonymous_args = 0
 2125              		@ link register save eliminated.
 2126              	.LVL248:
 2127 0000 30B4     		push	{r4, r5}
 2128              		.cfi_def_cfa_offset 8
ARM GAS  /tmp/ccsXekvW.s 			page 39


 2129              		.cfi_offset 4, -8
 2130              		.cfi_offset 5, -4
 2131 0002 0546     		mov	r5, r0
 2132              		.loc 1 705 0
 2133 0004 B0F80201 		ldrh	r0, [r0, #258]
 2134              	.LVL249:
 2135              		.loc 1 704 0
 2136 0008 82B0     		sub	sp, sp, #8
 2137              		.cfi_def_cfa_offset 16
 2138              		.loc 1 705 0
 2139 000a 0438     		subs	r0, r0, #4
 2140              	.LVL250:
 2141 000c 00B2     		sxth	r0, r0
 2142              	.LVL251:
 2143 000e 0544     		add	r5, r5, r0
 2144              	.LVL252:
 2145 0010 0023     		movs	r3, #0
 2146 0012 01AC     		add	r4, sp, #4
 2147              	.LVL253:
 2148              	.L113:
 2149              	.LBB210:
 2150              	.LBB211:
 2151              		.loc 1 234 0
 2152 0014 EA5C     		ldrb	r2, [r5, r3]	@ zero_extendqisi2
 2153 0016 E254     		strb	r2, [r4, r3]
 2154              	.LVL254:
 2155 0018 0133     		adds	r3, r3, #1
 2156              	.LVL255:
 2157              		.loc 1 233 0
 2158 001a 042B     		cmp	r3, #4
 2159 001c FAD1     		bne	.L113
 2160              	.LBE211:
 2161              	.LBE210:
 2162              		.loc 1 718 0
 2163 001e 019B     		ldr	r3, [sp, #4]	@ float
 2164              	.LVL256:
 2165 0020 0B60     		str	r3, [r1]	@ float
 2166              		.loc 1 723 0
 2167 0022 02B0     		add	sp, sp, #8
 2168              		@ sp needed
 2169 0024 30BC     		pop	{r4, r5}
 2170              	.LVL257:
 2171 0026 7047     		bx	lr
 2172              		.cfi_endproc
 2173              	.LFE79:
 2174              		.size	weta_stack_topFloat, .-weta_stack_topFloat
 2175 0028 AFF30080 		.section	.text.weta_stack_getFloat,"ax",%progbits
 2175      AFF30080 
 2176              		.align	2
 2177              		.p2align 4,,15
 2178              		.global	weta_stack_getFloat
 2179              		.thumb
 2180              		.thumb_func
 2181              		.type	weta_stack_getFloat, %function
 2182              	weta_stack_getFloat:
 2183              	.LFB80:
 2184              		.loc 1 726 0
ARM GAS  /tmp/ccsXekvW.s 			page 40


 2185              		.cfi_startproc
 2186              		@ args = 0, pretend = 0, frame = 8
 2187              		@ frame_needed = 0, uses_anonymous_args = 0
 2188              		@ link register save eliminated.
 2189              	.LVL258:
 2190 0000 50B4     		push	{r4, r6}
 2191              		.cfi_def_cfa_offset 8
 2192              		.cfi_offset 4, -8
 2193              		.cfi_offset 6, -4
 2194 0002 82B0     		sub	sp, sp, #8
 2195              		.cfi_def_cfa_offset 16
 2196              	.LVL259:
 2197 0004 0844     		add	r0, r0, r1
 2198              	.LVL260:
 2199              		.loc 1 726 0
 2200 0006 0023     		movs	r3, #0
 2201 0008 01AE     		add	r6, sp, #4
 2202              	.LVL261:
 2203              	.L117:
 2204              	.LBB212:
 2205              	.LBB213:
 2206              		.loc 1 248 0
 2207 000a C45C     		ldrb	r4, [r0, r3]	@ zero_extendqisi2
 2208 000c F454     		strb	r4, [r6, r3]
 2209              	.LVL262:
 2210 000e 0133     		adds	r3, r3, #1
 2211              	.LVL263:
 2212              		.loc 1 247 0
 2213 0010 042B     		cmp	r3, #4
 2214 0012 FAD1     		bne	.L117
 2215              	.LBE213:
 2216              	.LBE212:
 2217              		.loc 1 739 0
 2218 0014 019B     		ldr	r3, [sp, #4]	@ float
 2219              	.LVL264:
 2220              		.loc 1 744 0
 2221 0016 0846     		mov	r0, r1
 2222              		.loc 1 739 0
 2223 0018 1360     		str	r3, [r2]	@ float
 2224              		.loc 1 744 0
 2225 001a 02B0     		add	sp, sp, #8
 2226              		@ sp needed
 2227 001c 50BC     		pop	{r4, r6}
 2228              	.LVL265:
 2229 001e 7047     		bx	lr
 2230              		.cfi_endproc
 2231              	.LFE80:
 2232              		.size	weta_stack_getFloat, .-weta_stack_getFloat
 2233              		.section	.text.weta_stack_setFloat,"ax",%progbits
 2234              		.align	2
 2235              		.p2align 4,,15
 2236              		.global	weta_stack_setFloat
 2237              		.thumb
 2238              		.thumb_func
 2239              		.type	weta_stack_setFloat, %function
 2240              	weta_stack_setFloat:
 2241              	.LFB81:
ARM GAS  /tmp/ccsXekvW.s 			page 41


 2242              		.loc 1 747 0
 2243              		.cfi_startproc
 2244              		@ args = 0, pretend = 0, frame = 8
 2245              		@ frame_needed = 0, uses_anonymous_args = 0
 2246              		@ link register save eliminated.
 2247              	.LVL266:
 2248 0000 10B4     		push	{r4}
 2249              		.cfi_def_cfa_offset 4
 2250              		.cfi_offset 4, -4
 2251 0002 83B0     		sub	sp, sp, #12
 2252              		.cfi_def_cfa_offset 16
 2253              		.loc 1 759 0
 2254 0004 02AC     		add	r4, sp, #8
 2255 0006 0844     		add	r0, r0, r1
 2256              	.LVL267:
 2257 0008 44F8042D 		str	r2, [r4, #-4]!	@ float
 2258              	.LVL268:
 2259 000c 0023     		movs	r3, #0
 2260              	.LVL269:
 2261              	.L121:
 2262              	.LBB214:
 2263              	.LBB215:
 2264              		.loc 1 262 0
 2265 000e E25C     		ldrb	r2, [r4, r3]	@ zero_extendqisi2
 2266 0010 C254     		strb	r2, [r0, r3]
 2267              	.LVL270:
 2268 0012 0133     		adds	r3, r3, #1
 2269              	.LVL271:
 2270              		.loc 1 261 0
 2271 0014 042B     		cmp	r3, #4
 2272 0016 FAD1     		bne	.L121
 2273              	.LBE215:
 2274              	.LBE214:
 2275              		.loc 1 765 0
 2276 0018 0846     		mov	r0, r1
 2277 001a 03B0     		add	sp, sp, #12
 2278              		@ sp needed
 2279 001c 5DF8044B 		ldr	r4, [sp], #4
 2280              	.LVL272:
 2281 0020 7047     		bx	lr
 2282              		.cfi_endproc
 2283              	.LFE81:
 2284              		.size	weta_stack_setFloat, .-weta_stack_setFloat
 2285 0022 00BFAFF3 		.section	.text.weta_stack_pushDouble,"ax",%progbits
 2285      0080AFF3 
 2285      0080AFF3 
 2285      0080
 2286              		.align	2
 2287              		.p2align 4,,15
 2288              		.global	weta_stack_pushDouble
 2289              		.thumb
 2290              		.thumb_func
 2291              		.type	weta_stack_pushDouble, %function
 2292              	weta_stack_pushDouble:
 2293              	.LFB82:
 2294              		.loc 1 771 0
 2295              		.cfi_startproc
ARM GAS  /tmp/ccsXekvW.s 			page 42


 2296              		@ args = 0, pretend = 0, frame = 8
 2297              		@ frame_needed = 0, uses_anonymous_args = 0
 2298              		@ link register save eliminated.
 2299              	.LVL273:
 2300 0000 70B4     		push	{r4, r5, r6}
 2301              		.cfi_def_cfa_offset 12
 2302              		.cfi_offset 4, -12
 2303              		.cfi_offset 5, -8
 2304              		.cfi_offset 6, -4
 2305              	.LBB216:
 2306              	.LBB217:
 2307              		.loc 1 195 0
 2308 0002 B0F80251 		ldrh	r5, [r0, #258]
 2309              	.LBE217:
 2310              	.LBE216:
 2311              		.loc 1 771 0
 2312 0006 83B0     		sub	sp, sp, #12
 2313              		.cfi_def_cfa_offset 24
 2314              		.loc 1 784 0
 2315 0008 02A9     		add	r1, sp, #8
 2316 000a 2EB2     		sxth	r6, r5
 2317 000c 61E90223 		strd	r2, [r1, #-8]!
 2318              	.LVL274:
 2319 0010 8419     		adds	r4, r0, r6
 2320              	.LBB219:
 2321              	.LBB218:
 2322              		.loc 1 195 0
 2323 0012 0023     		movs	r3, #0
 2324              	.LVL275:
 2325              	.L125:
 2326              		.loc 1 200 0
 2327 0014 CA5C     		ldrb	r2, [r1, r3]	@ zero_extendqisi2
 2328 0016 E254     		strb	r2, [r4, r3]
 2329              	.LVL276:
 2330 0018 0133     		adds	r3, r3, #1
 2331              	.LVL277:
 2332              		.loc 1 198 0
 2333 001a 082B     		cmp	r3, #8
 2334 001c FAD1     		bne	.L125
 2335              		.loc 1 205 0
 2336 001e 0835     		adds	r5, r5, #8
 2337              	.LVL278:
 2338 0020 A0F80251 		strh	r5, [r0, #258]	@ movhi
 2339              	.LBE218:
 2340              	.LBE219:
 2341              		.loc 1 792 0
 2342 0024 3046     		mov	r0, r6
 2343              	.LVL279:
 2344 0026 03B0     		add	sp, sp, #12
 2345              	.LVL280:
 2346              		@ sp needed
 2347 0028 70BC     		pop	{r4, r5, r6}
 2348              	.LVL281:
 2349 002a 7047     		bx	lr
 2350              		.cfi_endproc
 2351              	.LFE82:
 2352              		.size	weta_stack_pushDouble, .-weta_stack_pushDouble
ARM GAS  /tmp/ccsXekvW.s 			page 43


 2353 002c AFF30080 		.section	.text.weta_stack_popDouble,"ax",%progbits
 2354              		.align	2
 2355              		.p2align 4,,15
 2356              		.global	weta_stack_popDouble
 2357              		.thumb
 2358              		.thumb_func
 2359              		.type	weta_stack_popDouble, %function
 2360              	weta_stack_popDouble:
 2361              	.LFB83:
 2362              		.loc 1 795 0
 2363              		.cfi_startproc
 2364              		@ args = 0, pretend = 0, frame = 8
 2365              		@ frame_needed = 0, uses_anonymous_args = 0
 2366              		@ link register save eliminated.
 2367              	.LVL282:
 2368 0000 10B4     		push	{r4}
 2369              		.cfi_def_cfa_offset 4
 2370              		.cfi_offset 4, -4
 2371              	.LBB220:
 2372              	.LBB221:
 2373              		.loc 1 216 0
 2374 0002 B0F80231 		ldrh	r3, [r0, #258]
 2375              	.LBE221:
 2376              	.LBE220:
 2377              		.loc 1 795 0
 2378 0006 0446     		mov	r4, r0
 2379              	.LVL283:
 2380              	.LBB224:
 2381              	.LBB222:
 2382              		.loc 1 216 0
 2383 0008 083B     		subs	r3, r3, #8
 2384 000a 9BB2     		uxth	r3, r3
 2385 000c 18B2     		sxth	r0, r3
 2386              	.LVL284:
 2387 000e A4F80231 		strh	r3, [r4, #258]	@ movhi
 2388              	.LBE222:
 2389              	.LBE224:
 2390              		.loc 1 795 0
 2391 0012 83B0     		sub	sp, sp, #12
 2392              		.cfi_def_cfa_offset 16
 2393              	.LVL285:
 2394 0014 0444     		add	r4, r4, r0
 2395              	.LVL286:
 2396              	.LBB225:
 2397              	.LBB223:
 2398              		.loc 1 216 0
 2399 0016 0023     		movs	r3, #0
 2400              	.LVL287:
 2401              	.L129:
 2402              		.loc 1 219 0
 2403 0018 E25C     		ldrb	r2, [r4, r3]	@ zero_extendqisi2
 2404 001a 0DF80320 		strb	r2, [sp, r3]
 2405              	.LVL288:
 2406 001e 0133     		adds	r3, r3, #1
 2407              	.LVL289:
 2408              		.loc 1 218 0
 2409 0020 082B     		cmp	r3, #8
ARM GAS  /tmp/ccsXekvW.s 			page 44


 2410 0022 F9D1     		bne	.L129
 2411              	.LBE223:
 2412              	.LBE225:
 2413              		.loc 1 807 0
 2414 0024 DDE90023 		ldrd	r2, [sp]
 2415 0028 C1E90023 		strd	r2, [r1]
 2416              		.loc 1 813 0
 2417 002c 03B0     		add	sp, sp, #12
 2418              	.LVL290:
 2419              		@ sp needed
 2420 002e 5DF8044B 		ldr	r4, [sp], #4
 2421 0032 7047     		bx	lr
 2422              		.cfi_endproc
 2423              	.LFE83:
 2424              		.size	weta_stack_popDouble, .-weta_stack_popDouble
 2425 0034 AFF30080 		.section	.text.weta_stack_topDouble,"ax",%progbits
 2425      AFF30080 
 2425      AFF30080 
 2426              		.align	2
 2427              		.p2align 4,,15
 2428              		.global	weta_stack_topDouble
 2429              		.thumb
 2430              		.thumb_func
 2431              		.type	weta_stack_topDouble, %function
 2432              	weta_stack_topDouble:
 2433              	.LFB84:
 2434              		.loc 1 816 0
 2435              		.cfi_startproc
 2436              		@ args = 0, pretend = 0, frame = 8
 2437              		@ frame_needed = 0, uses_anonymous_args = 0
 2438              		@ link register save eliminated.
 2439              	.LVL291:
 2440 0000 10B4     		push	{r4}
 2441              		.cfi_def_cfa_offset 4
 2442              		.cfi_offset 4, -4
 2443 0002 0446     		mov	r4, r0
 2444              		.loc 1 817 0
 2445 0004 B0F80201 		ldrh	r0, [r0, #258]
 2446              	.LVL292:
 2447              		.loc 1 816 0
 2448 0008 83B0     		sub	sp, sp, #12
 2449              		.cfi_def_cfa_offset 16
 2450              		.loc 1 817 0
 2451 000a 0838     		subs	r0, r0, #8
 2452              	.LVL293:
 2453 000c 00B2     		sxth	r0, r0
 2454              	.LVL294:
 2455 000e 0444     		add	r4, r4, r0
 2456              	.LVL295:
 2457 0010 0023     		movs	r3, #0
 2458              	.LVL296:
 2459              	.L133:
 2460              	.LBB226:
 2461              	.LBB227:
 2462              		.loc 1 234 0
 2463 0012 E25C     		ldrb	r2, [r4, r3]	@ zero_extendqisi2
 2464 0014 0DF80320 		strb	r2, [sp, r3]
ARM GAS  /tmp/ccsXekvW.s 			page 45


 2465              	.LVL297:
 2466 0018 0133     		adds	r3, r3, #1
 2467              	.LVL298:
 2468              		.loc 1 233 0
 2469 001a 082B     		cmp	r3, #8
 2470 001c F9D1     		bne	.L133
 2471              	.LBE227:
 2472              	.LBE226:
 2473              		.loc 1 830 0
 2474 001e DDE90023 		ldrd	r2, [sp]
 2475 0022 C1E90023 		strd	r2, [r1]
 2476              		.loc 1 835 0
 2477 0026 03B0     		add	sp, sp, #12
 2478              	.LVL299:
 2479              		@ sp needed
 2480 0028 5DF8044B 		ldr	r4, [sp], #4
 2481 002c 7047     		bx	lr
 2482              		.cfi_endproc
 2483              	.LFE84:
 2484              		.size	weta_stack_topDouble, .-weta_stack_topDouble
 2485 002e 00BF     		.section	.text.weta_stack_getDouble,"ax",%progbits
 2486              		.align	2
 2487              		.p2align 4,,15
 2488              		.global	weta_stack_getDouble
 2489              		.thumb
 2490              		.thumb_func
 2491              		.type	weta_stack_getDouble, %function
 2492              	weta_stack_getDouble:
 2493              	.LFB85:
 2494              		.loc 1 838 0
 2495              		.cfi_startproc
 2496              		@ args = 0, pretend = 0, frame = 8
 2497              		@ frame_needed = 0, uses_anonymous_args = 0
 2498              		@ link register save eliminated.
 2499              	.LVL300:
 2500 0000 30B4     		push	{r4, r5}
 2501              		.cfi_def_cfa_offset 8
 2502              		.cfi_offset 4, -8
 2503              		.cfi_offset 5, -4
 2504 0002 0844     		add	r0, r0, r1
 2505              	.LVL301:
 2506 0004 82B0     		sub	sp, sp, #8
 2507              		.cfi_def_cfa_offset 16
 2508              	.LVL302:
 2509              		.loc 1 838 0
 2510 0006 0023     		movs	r3, #0
 2511              	.LVL303:
 2512              	.L137:
 2513              	.LBB228:
 2514              	.LBB229:
 2515              		.loc 1 248 0
 2516 0008 C45C     		ldrb	r4, [r0, r3]	@ zero_extendqisi2
 2517 000a 0DF80340 		strb	r4, [sp, r3]
 2518              	.LVL304:
 2519 000e 0133     		adds	r3, r3, #1
 2520              	.LVL305:
 2521              		.loc 1 247 0
ARM GAS  /tmp/ccsXekvW.s 			page 46


 2522 0010 082B     		cmp	r3, #8
 2523 0012 F9D1     		bne	.L137
 2524              	.LBE229:
 2525              	.LBE228:
 2526              		.loc 1 851 0
 2527 0014 DDE90045 		ldrd	r4, [sp]
 2528              		.loc 1 856 0
 2529 0018 0846     		mov	r0, r1
 2530              		.loc 1 851 0
 2531 001a C2E90045 		strd	r4, [r2]
 2532              		.loc 1 856 0
 2533 001e 02B0     		add	sp, sp, #8
 2534              	.LVL306:
 2535              		@ sp needed
 2536 0020 30BC     		pop	{r4, r5}
 2537              	.LVL307:
 2538 0022 7047     		bx	lr
 2539              		.cfi_endproc
 2540              	.LFE85:
 2541              		.size	weta_stack_getDouble, .-weta_stack_getDouble
 2542 0024 AFF30080 		.section	.text.weta_stack_setDouble,"ax",%progbits
 2542      AFF30080 
 2542      AFF30080 
 2543              		.align	2
 2544              		.p2align 4,,15
 2545              		.global	weta_stack_setDouble
 2546              		.thumb
 2547              		.thumb_func
 2548              		.type	weta_stack_setDouble, %function
 2549              	weta_stack_setDouble:
 2550              	.LFB86:
 2551              		.loc 1 859 0
 2552              		.cfi_startproc
 2553              		@ args = 0, pretend = 0, frame = 8
 2554              		@ frame_needed = 0, uses_anonymous_args = 0
 2555              		@ link register save eliminated.
 2556              	.LVL308:
 2557 0000 10B4     		push	{r4}
 2558              		.cfi_def_cfa_offset 4
 2559              		.cfi_offset 4, -4
 2560 0002 83B0     		sub	sp, sp, #12
 2561              		.cfi_def_cfa_offset 16
 2562              		.loc 1 871 0
 2563 0004 02AC     		add	r4, sp, #8
 2564 0006 64E90223 		strd	r2, [r4, #-8]!
 2565              	.LVL309:
 2566 000a 0844     		add	r0, r0, r1
 2567              	.LVL310:
 2568 000c 0023     		movs	r3, #0
 2569              	.LVL311:
 2570              	.L141:
 2571              	.LBB230:
 2572              	.LBB231:
 2573              		.loc 1 262 0
 2574 000e E25C     		ldrb	r2, [r4, r3]	@ zero_extendqisi2
 2575 0010 C254     		strb	r2, [r0, r3]
 2576              	.LVL312:
ARM GAS  /tmp/ccsXekvW.s 			page 47


 2577 0012 0133     		adds	r3, r3, #1
 2578              	.LVL313:
 2579              		.loc 1 261 0
 2580 0014 082B     		cmp	r3, #8
 2581 0016 FAD1     		bne	.L141
 2582              	.LBE231:
 2583              	.LBE230:
 2584              		.loc 1 877 0
 2585 0018 0846     		mov	r0, r1
 2586 001a 03B0     		add	sp, sp, #12
 2587              	.LVL314:
 2588              		@ sp needed
 2589 001c 5DF8044B 		ldr	r4, [sp], #4
 2590              	.LVL315:
 2591 0020 7047     		bx	lr
 2592              		.cfi_endproc
 2593              	.LFE86:
 2594              		.size	weta_stack_setDouble, .-weta_stack_setDouble
 2595 0022 00BFAFF3 		.section	.text._weta_stack_pushChar,"ax",%progbits
 2595      0080AFF3 
 2595      0080AFF3 
 2595      0080
 2596              		.align	2
 2597              		.p2align 4,,15
 2598              		.global	_weta_stack_pushChar
 2599              		.thumb
 2600              		.thumb_func
 2601              		.type	_weta_stack_pushChar, %function
 2602              	_weta_stack_pushChar:
 2603              	.LFB87:
 2604              		.loc 1 884 0
 2605              		.cfi_startproc
 2606              		@ args = 0, pretend = 0, frame = 0
 2607              		@ frame_needed = 0, uses_anonymous_args = 0
 2608              		@ link register save eliminated.
 2609              	.LVL316:
 2610              		.loc 1 884 0
 2611 0000 0346     		mov	r3, r0
 2612              		.loc 1 889 0
 2613 0002 B0F80401 		ldrh	r0, [r0, #260]
 2614              	.LVL317:
 2615 0006 0138     		subs	r0, r0, #1
 2616 0008 80B2     		uxth	r0, r0
 2617              		.loc 1 890 0
 2618 000a 02B2     		sxth	r2, r0
 2619              		.loc 1 889 0
 2620 000c A3F80401 		strh	r0, [r3, #260]	@ movhi
 2621              		.loc 1 893 0
 2622 0010 1046     		mov	r0, r2
 2623              		.loc 1 890 0
 2624 0012 9954     		strb	r1, [r3, r2]
 2625              		.loc 1 893 0
 2626 0014 7047     		bx	lr
 2627              		.cfi_endproc
 2628              	.LFE87:
 2629              		.size	_weta_stack_pushChar, .-_weta_stack_pushChar
 2630 0016 00BFAFF3 		.section	.text._weta_stack_popChar,"ax",%progbits
ARM GAS  /tmp/ccsXekvW.s 			page 48


 2630      0080AFF3 
 2630      0080
 2631              		.align	2
 2632              		.p2align 4,,15
 2633              		.global	_weta_stack_popChar
 2634              		.thumb
 2635              		.thumb_func
 2636              		.type	_weta_stack_popChar, %function
 2637              	_weta_stack_popChar:
 2638              	.LFB88:
 2639              		.loc 1 896 0
 2640              		.cfi_startproc
 2641              		@ args = 0, pretend = 0, frame = 0
 2642              		@ frame_needed = 0, uses_anonymous_args = 0
 2643              		@ link register save eliminated.
 2644              	.LVL318:
 2645              		.loc 1 901 0
 2646 0000 B0F90431 		ldrsh	r3, [r0, #260]
 2647 0004 C35C     		ldrb	r3, [r0, r3]	@ zero_extendqisi2
 2648 0006 0B70     		strb	r3, [r1]
 2649              		.loc 1 902 0
 2650 0008 B0F80431 		ldrh	r3, [r0, #260]
 2651 000c 0133     		adds	r3, r3, #1
 2652 000e 9BB2     		uxth	r3, r3
 2653 0010 A0F80431 		strh	r3, [r0, #260]	@ movhi
 2654              		.loc 1 905 0
 2655 0014 18B2     		sxth	r0, r3
 2656              	.LVL319:
 2657 0016 7047     		bx	lr
 2658              		.cfi_endproc
 2659              	.LFE88:
 2660              		.size	_weta_stack_popChar, .-_weta_stack_popChar
 2661 0018 AFF30080 		.section	.text._setChar,"ax",%progbits
 2661      AFF30080 
 2662              		.align	2
 2663              		.p2align 4,,15
 2664              		.global	_setChar
 2665              		.thumb
 2666              		.thumb_func
 2667              		.type	_setChar, %function
 2668              	_setChar:
 2669              	.LFB89:
 2670              		.loc 1 908 0
 2671              		.cfi_startproc
 2672              		@ args = 0, pretend = 0, frame = 0
 2673              		@ frame_needed = 0, uses_anonymous_args = 0
 2674              		@ link register save eliminated.
 2675              	.LVL320:
 2676              		.loc 1 913 0
 2677 0000 4254     		strb	r2, [r0, r1]
 2678              		.loc 1 915 0
 2679 0002 0846     		mov	r0, r1
 2680              	.LVL321:
 2681 0004 7047     		bx	lr
 2682              		.cfi_endproc
 2683              	.LFE89:
 2684              		.size	_setChar, .-_setChar
ARM GAS  /tmp/ccsXekvW.s 			page 49


 2685              		.section	.text._weta_stack_pushString,"ax",%progbits
 2686              		.align	2
 2687              		.p2align 4,,15
 2688              		.global	_weta_stack_pushString
 2689              		.thumb
 2690              		.thumb_func
 2691              		.type	_weta_stack_pushString, %function
 2692              	_weta_stack_pushString:
 2693              	.LFB90:
 2694              		.loc 1 918 0
 2695              		.cfi_startproc
 2696              		@ args = 0, pretend = 0, frame = 0
 2697              		@ frame_needed = 0, uses_anonymous_args = 0
 2698              		@ link register save eliminated.
 2699              	.LVL322:
 2700 0000 F0B4     		push	{r4, r5, r6, r7}
 2701              		.cfi_def_cfa_offset 16
 2702              		.cfi_offset 4, -16
 2703              		.cfi_offset 5, -12
 2704              		.cfi_offset 6, -8
 2705              		.cfi_offset 7, -4
 2706              		.loc 1 922 0
 2707 0002 0D46     		mov	r5, r1
 2708 0004 00E0     		b	.L148
 2709              	.LVL323:
 2710              	.L154:
 2711 0006 1D46     		mov	r5, r3
 2712              	.LVL324:
 2713              	.L148:
 2714              		.loc 1 922 0 is_stmt 0 discriminator 1
 2715 0008 2B46     		mov	r3, r5
 2716 000a 13F8012B 		ldrb	r2, [r3], #1	@ zero_extendqisi2
 2717 000e 002A     		cmp	r2, #0
 2718 0010 F9D1     		bne	.L154
 2719              		.loc 1 929 0 is_stmt 1 discriminator 1
 2720 0012 A942     		cmp	r1, r5
 2721 0014 88BF     		it	hi
 2722 0016 B0F80401 		ldrhhi	r0, [r0, #260]
 2723              	.LVL325:
 2724 001a 19D8     		bhi	.L150
 2725 001c B0F804C1 		ldrh	ip, [r0, #260]
 2726              		.loc 1 922 0
 2727 0020 1746     		mov	r7, r2
 2728 0022 0CF1FF3C 		add	ip, ip, #-1
 2729 0026 1FFA8CFC 		uxth	ip, ip
 2730              		.loc 1 929 0
 2731 002a 6346     		mov	r3, ip
 2732 002c 2C46     		mov	r4, r5
 2733 002e 01E0     		b	.L152
 2734              	.LVL326:
 2735              	.L155:
 2736 0030 14F8017D 		ldrb	r7, [r4, #-1]!	@ zero_extendqisi2
 2737              	.LVL327:
 2738              	.L152:
 2739              	.LBB232:
 2740              	.LBB233:
 2741              		.loc 1 889 0
ARM GAS  /tmp/ccsXekvW.s 			page 50


 2742 0034 9AB2     		uxth	r2, r3
 2743              		.loc 1 890 0
 2744 0036 16B2     		sxth	r6, r2
 2745 0038 013B     		subs	r3, r3, #1
 2746              	.LBE233:
 2747              	.LBE232:
 2748              		.loc 1 929 0
 2749 003a 8C42     		cmp	r4, r1
 2750              	.LBB235:
 2751              	.LBB234:
 2752              		.loc 1 889 0
 2753 003c A0F80421 		strh	r2, [r0, #260]	@ movhi
 2754 0040 9BB2     		uxth	r3, r3
 2755              		.loc 1 890 0
 2756 0042 8755     		strb	r7, [r0, r6]
 2757              	.LVL328:
 2758              	.LBE234:
 2759              	.LBE235:
 2760              		.loc 1 929 0
 2761 0044 F4D1     		bne	.L155
 2762 0046 2C1B     		subs	r4, r5, r4
 2763              	.LVL329:
 2764 0048 C4EB0C0C 		rsb	ip, r4, ip
 2765 004c 1FFA8CF0 		uxth	r0, ip
 2766              	.LVL330:
 2767              	.L150:
 2768              		.loc 1 933 0
 2769 0050 00B2     		sxth	r0, r0
 2770 0052 F0BC     		pop	{r4, r5, r6, r7}
 2771 0054 7047     		bx	lr
 2772              		.cfi_endproc
 2773              	.LFE90:
 2774              		.size	_weta_stack_pushString, .-_weta_stack_pushString
 2775 0056 00BFAFF3 		.section	.text._weta_stack_popString,"ax",%progbits
 2775      0080AFF3 
 2775      0080
 2776              		.align	2
 2777              		.p2align 4,,15
 2778              		.global	_weta_stack_popString
 2779              		.thumb
 2780              		.thumb_func
 2781              		.type	_weta_stack_popString, %function
 2782              	_weta_stack_popString:
 2783              	.LFB91:
 2784              		.loc 1 936 0
 2785              		.cfi_startproc
 2786              		@ args = 0, pretend = 0, frame = 0
 2787              		@ frame_needed = 0, uses_anonymous_args = 0
 2788              		@ link register save eliminated.
 2789              	.LVL331:
 2790 0000 B0F80431 		ldrh	r3, [r0, #260]
 2791 0004 01E0     		b	.L160
 2792              	.LVL332:
 2793              	.L157:
 2794              		.loc 1 943 0 discriminator 1
 2795 0006 511C     		adds	r1, r2, #1
 2796 0008 0AD0     		beq	.L162
ARM GAS  /tmp/ccsXekvW.s 			page 51


 2797              	.LVL333:
 2798              	.L160:
 2799              	.LBB236:
 2800              	.LBB237:
 2801              		.loc 1 901 0 discriminator 1
 2802 000a 1AB2     		sxth	r2, r3
 2803              	.LBE237:
 2804              	.LBE236:
 2805              		.loc 1 943 0 discriminator 1
 2806 000c 815C     		ldrb	r1, [r0, r2]	@ zero_extendqisi2
 2807 000e 0133     		adds	r3, r3, #1
 2808              	.LVL334:
 2809 0010 9BB2     		uxth	r3, r3
 2810              	.LVL335:
 2811 0012 1AB2     		sxth	r2, r3
 2812 0014 0029     		cmp	r1, #0
 2813 0016 F6D1     		bne	.L157
 2814 0018 A0F80431 		strh	r3, [r0, #260]	@ movhi
 2815              		.loc 1 945 0
 2816 001c 1046     		mov	r0, r2
 2817              	.LVL336:
 2818 001e 7047     		bx	lr
 2819              	.LVL337:
 2820              	.L162:
 2821 0020 A0F80421 		strh	r2, [r0, #260]	@ movhi
 2822 0024 1046     		mov	r0, r2
 2823              	.LVL338:
 2824 0026 7047     		bx	lr
 2825              		.cfi_endproc
 2826              	.LFE91:
 2827              		.size	_weta_stack_popString, .-_weta_stack_popString
 2828 0028 AFF30080 		.section	.text._weta_stack_topString,"ax",%progbits
 2828      AFF30080 
 2829              		.align	2
 2830              		.p2align 4,,15
 2831              		.global	_weta_stack_topString
 2832              		.thumb
 2833              		.thumb_func
 2834              		.type	_weta_stack_topString, %function
 2835              	_weta_stack_topString:
 2836              	.LFB92:
 2837              		.loc 1 948 0
 2838              		.cfi_startproc
 2839              		@ args = 0, pretend = 0, frame = 0
 2840              		@ frame_needed = 0, uses_anonymous_args = 0
 2841              		@ link register save eliminated.
 2842              	.LVL339:
 2843              	.LBB238:
 2844              	.LBB239:
 2845              		.loc 1 177 0
 2846 0000 B0F90431 		ldrsh	r3, [r0, #260]
 2847              	.LBE239:
 2848              	.LBE238:
 2849              		.loc 1 949 0
 2850 0004 1844     		add	r0, r0, r3
 2851              	.LVL340:
 2852 0006 0860     		str	r0, [r1]
ARM GAS  /tmp/ccsXekvW.s 			page 52


 2853              		.loc 1 951 0
 2854 0008 1846     		mov	r0, r3
 2855 000a 7047     		bx	lr
 2856              		.cfi_endproc
 2857              	.LFE92:
 2858              		.size	_weta_stack_topString, .-_weta_stack_topString
 2859 000c AFF30080 		.section	.text._weta_stack_getString,"ax",%progbits
 2860              		.align	2
 2861              		.p2align 4,,15
 2862              		.global	_weta_stack_getString
 2863              		.thumb
 2864              		.thumb_func
 2865              		.type	_weta_stack_getString, %function
 2866              	_weta_stack_getString:
 2867              	.LFB93:
 2868              		.loc 1 954 0
 2869              		.cfi_startproc
 2870              		@ args = 0, pretend = 0, frame = 0
 2871              		@ frame_needed = 0, uses_anonymous_args = 0
 2872              		@ link register save eliminated.
 2873              	.LVL341:
 2874              		.loc 1 955 0
 2875 0000 0844     		add	r0, r0, r1
 2876              	.LVL342:
 2877 0002 1060     		str	r0, [r2]
 2878              		.loc 1 957 0
 2879 0004 0846     		mov	r0, r1
 2880 0006 7047     		bx	lr
 2881              		.cfi_endproc
 2882              	.LFE93:
 2883              		.size	_weta_stack_getString, .-_weta_stack_getString
 2884 0008 AFF30080 		.section	.text._weta_stack_setString,"ax",%progbits
 2884      AFF30080 
 2885              		.align	2
 2886              		.p2align 4,,15
 2887              		.global	_weta_stack_setString
 2888              		.thumb
 2889              		.thumb_func
 2890              		.type	_weta_stack_setString, %function
 2891              	_weta_stack_setString:
 2892              	.LFB94:
 2893              		.loc 1 960 0
 2894              		.cfi_startproc
 2895              		@ args = 0, pretend = 0, frame = 0
 2896              		@ frame_needed = 0, uses_anonymous_args = 0
 2897              		@ link register save eliminated.
 2898              	.LVL343:
 2899 0000 30B4     		push	{r4, r5}
 2900              		.cfi_def_cfa_offset 8
 2901              		.cfi_offset 4, -8
 2902              		.cfi_offset 5, -4
 2903              		.loc 1 961 0
 2904 0002 0B46     		mov	r3, r1
 2905              	.LVL344:
 2906              	.L167:
 2907              		.loc 1 964 0 discriminator 1
 2908 0004 1478     		ldrb	r4, [r2]	@ zero_extendqisi2
ARM GAS  /tmp/ccsXekvW.s 			page 53


 2909 0006 5D1C     		adds	r5, r3, #1
 2910              	.LBB240:
 2911              	.LBB241:
 2912              		.loc 1 913 0 discriminator 1
 2913 0008 C454     		strb	r4, [r0, r3]
 2914              	.LBE241:
 2915              	.LBE240:
 2916              		.loc 1 966 0 discriminator 1
 2917 000a 12F8014B 		ldrb	r4, [r2], #1	@ zero_extendqisi2
 2918              	.LVL345:
 2919 000e 2BB2     		sxth	r3, r5
 2920              	.LVL346:
 2921 0010 002C     		cmp	r4, #0
 2922 0012 F7D1     		bne	.L167
 2923              		.loc 1 969 0
 2924 0014 0846     		mov	r0, r1
 2925              	.LVL347:
 2926 0016 30BC     		pop	{r4, r5}
 2927              	.LVL348:
 2928 0018 7047     		bx	lr
 2929              		.cfi_endproc
 2930              	.LFE94:
 2931              		.size	_weta_stack_setString, .-_weta_stack_setString
 2932 001a 00BFAFF3 		.section	.text.weta_stack_pushString,"ax",%progbits
 2932      0080
 2933              		.align	2
 2934              		.p2align 4,,15
 2935              		.global	weta_stack_pushString
 2936              		.thumb
 2937              		.thumb_func
 2938              		.type	weta_stack_pushString, %function
 2939              	weta_stack_pushString:
 2940              	.LFB95:
 2941              		.loc 1 973 0
 2942              		.cfi_startproc
 2943              		@ args = 0, pretend = 0, frame = 0
 2944              		@ frame_needed = 0, uses_anonymous_args = 0
 2945              		@ link register save eliminated.
 2946              	.LVL349:
 2947 0000 F0B4     		push	{r4, r5, r6, r7}
 2948              		.cfi_def_cfa_offset 16
 2949              		.cfi_offset 4, -16
 2950              		.cfi_offset 5, -12
 2951              		.cfi_offset 6, -8
 2952              		.cfi_offset 7, -4
 2953              		.loc 1 973 0
 2954 0002 0546     		mov	r5, r0
 2955              	.LVL350:
 2956 0004 0846     		mov	r0, r1
 2957              	.LVL351:
 2958 0006 00E0     		b	.L170
 2959              	.LVL352:
 2960              	.L176:
 2961              	.LBB242:
 2962              	.LBB243:
 2963              		.loc 1 922 0
 2964 0008 1846     		mov	r0, r3
ARM GAS  /tmp/ccsXekvW.s 			page 54


 2965              	.LVL353:
 2966              	.L170:
 2967 000a 0346     		mov	r3, r0
 2968 000c 13F8012B 		ldrb	r2, [r3], #1	@ zero_extendqisi2
 2969 0010 002A     		cmp	r2, #0
 2970 0012 F9D1     		bne	.L176
 2971              		.loc 1 929 0
 2972 0014 8142     		cmp	r1, r0
 2973 0016 88BF     		it	hi
 2974 0018 B5F80441 		ldrhhi	r4, [r5, #260]
 2975 001c 18D8     		bhi	.L172
 2976 001e B5F804C1 		ldrh	ip, [r5, #260]
 2977              		.loc 1 922 0
 2978 0022 1746     		mov	r7, r2
 2979 0024 0CF1FF3C 		add	ip, ip, #-1
 2980 0028 1FFA8CFC 		uxth	ip, ip
 2981              		.loc 1 929 0
 2982 002c 6346     		mov	r3, ip
 2983 002e 0446     		mov	r4, r0
 2984 0030 01E0     		b	.L174
 2985              	.LVL354:
 2986              	.L177:
 2987 0032 14F8017D 		ldrb	r7, [r4, #-1]!	@ zero_extendqisi2
 2988              	.LVL355:
 2989              	.L174:
 2990              	.LBB244:
 2991              	.LBB245:
 2992              		.loc 1 889 0
 2993 0036 9AB2     		uxth	r2, r3
 2994              		.loc 1 890 0
 2995 0038 16B2     		sxth	r6, r2
 2996 003a 013B     		subs	r3, r3, #1
 2997              	.LBE245:
 2998              	.LBE244:
 2999              		.loc 1 929 0
 3000 003c 8C42     		cmp	r4, r1
 3001              	.LBB247:
 3002              	.LBB246:
 3003              		.loc 1 889 0
 3004 003e A5F80421 		strh	r2, [r5, #260]	@ movhi
 3005 0042 9BB2     		uxth	r3, r3
 3006              		.loc 1 890 0
 3007 0044 AF55     		strb	r7, [r5, r6]
 3008              	.LVL356:
 3009              	.LBE246:
 3010              	.LBE247:
 3011              		.loc 1 929 0
 3012 0046 F4D1     		bne	.L177
 3013 0048 041B     		subs	r4, r0, r4
 3014              	.LVL357:
 3015 004a C4EB0C04 		rsb	r4, r4, ip
 3016 004e A4B2     		uxth	r4, r4
 3017              	.LVL358:
 3018              	.L172:
 3019              	.LBE243:
 3020              	.LBE242:
 3021              	.LBB248:
ARM GAS  /tmp/ccsXekvW.s 			page 55


 3022              	.LBB249:
 3023              	.LBB250:
 3024              	.LBB251:
 3025              		.loc 1 195 0
 3026 0050 B5F80231 		ldrh	r3, [r5, #258]
 3027              	.LVL359:
 3028              		.loc 1 200 0
 3029 0054 C4F30721 		ubfx	r1, r4, #8, #8
 3030              	.LVL360:
 3031 0058 18B2     		sxth	r0, r3
 3032 005a 2A18     		adds	r2, r5, r0
 3033 005c 2C54     		strb	r4, [r5, r0]
 3034              	.LVL361:
 3035              		.loc 1 205 0
 3036 005e 0233     		adds	r3, r3, #2
 3037              		.loc 1 200 0
 3038 0060 5170     		strb	r1, [r2, #1]
 3039              	.LVL362:
 3040              		.loc 1 205 0
 3041 0062 A5F80231 		strh	r3, [r5, #258]	@ movhi
 3042              	.LVL363:
 3043              	.LBE251:
 3044              	.LBE250:
 3045              	.LBE249:
 3046              	.LBE248:
 3047              		.loc 1 983 0
 3048 0066 F0BC     		pop	{r4, r5, r6, r7}
 3049              	.LVL364:
 3050 0068 7047     		bx	lr
 3051              		.cfi_endproc
 3052              	.LFE95:
 3053              		.size	weta_stack_pushString, .-weta_stack_pushString
 3054 006a 00BFAFF3 		.section	.text.weta_stack_popString,"ax",%progbits
 3054      0080
 3055              		.align	2
 3056              		.p2align 4,,15
 3057              		.global	weta_stack_popString
 3058              		.thumb
 3059              		.thumb_func
 3060              		.type	weta_stack_popString, %function
 3061              	weta_stack_popString:
 3062              	.LFB96:
 3063              		.loc 1 986 0
 3064              		.cfi_startproc
 3065              		@ args = 0, pretend = 0, frame = 0
 3066              		@ frame_needed = 0, uses_anonymous_args = 0
 3067              		@ link register save eliminated.
 3068              	.LVL365:
 3069 0000 B0F80431 		ldrh	r3, [r0, #260]
 3070 0004 01E0     		b	.L182
 3071              	.LVL366:
 3072              	.L179:
 3073              	.LBB252:
 3074              	.LBB253:
 3075              		.loc 1 943 0
 3076 0006 4A1C     		adds	r2, r1, #1
 3077 0008 10D0     		beq	.L184
ARM GAS  /tmp/ccsXekvW.s 			page 56


 3078              	.LVL367:
 3079              	.L182:
 3080              	.LBB254:
 3081              	.LBB255:
 3082              		.loc 1 901 0
 3083 000a 1AB2     		sxth	r2, r3
 3084              	.LBE255:
 3085              	.LBE254:
 3086              		.loc 1 943 0
 3087 000c 825C     		ldrb	r2, [r0, r2]	@ zero_extendqisi2
 3088 000e 0133     		adds	r3, r3, #1
 3089              	.LVL368:
 3090 0010 9BB2     		uxth	r3, r3
 3091              	.LVL369:
 3092 0012 19B2     		sxth	r1, r3
 3093 0014 002A     		cmp	r2, #0
 3094 0016 F6D1     		bne	.L179
 3095 0018 A0F80431 		strh	r3, [r0, #260]	@ movhi
 3096              	.L181:
 3097              	.LVL370:
 3098              	.LBE253:
 3099              	.LBE252:
 3100              	.LBB256:
 3101              	.LBB257:
 3102              	.LBB258:
 3103              	.LBB259:
 3104              		.loc 1 216 0
 3105 001c B0F80231 		ldrh	r3, [r0, #258]
 3106 0020 023B     		subs	r3, r3, #2
 3107 0022 9BB2     		uxth	r3, r3
 3108 0024 A0F80231 		strh	r3, [r0, #258]	@ movhi
 3109              	.LVL371:
 3110              	.LBE259:
 3111              	.LBE258:
 3112              	.LBE257:
 3113              	.LBE256:
 3114              		.loc 1 990 0
 3115 0028 18B2     		sxth	r0, r3
 3116              	.LVL372:
 3117 002a 7047     		bx	lr
 3118              	.LVL373:
 3119              	.L184:
 3120 002c A0F80411 		strh	r1, [r0, #260]	@ movhi
 3121 0030 F4E7     		b	.L181
 3122              		.cfi_endproc
 3123              	.LFE96:
 3124              		.size	weta_stack_popString, .-weta_stack_popString
 3125 0032 00BFAFF3 		.section	.text.weta_stack_topString,"ax",%progbits
 3125      0080AFF3 
 3125      0080AFF3 
 3125      0080
 3126              		.align	2
 3127              		.p2align 4,,15
 3128              		.global	weta_stack_topString
 3129              		.thumb
 3130              		.thumb_func
 3131              		.type	weta_stack_topString, %function
ARM GAS  /tmp/ccsXekvW.s 			page 57


 3132              	weta_stack_topString:
 3133              	.LFB97:
 3134              		.loc 1 994 0
 3135              		.cfi_startproc
 3136              		@ args = 0, pretend = 0, frame = 0
 3137              		@ frame_needed = 0, uses_anonymous_args = 0
 3138              		@ link register save eliminated.
 3139              	.LVL374:
 3140 0000 10B4     		push	{r4}
 3141              		.cfi_def_cfa_offset 4
 3142              		.cfi_offset 4, -4
 3143              	.LBB260:
 3144              	.LBB261:
 3145              		.loc 1 373 0
 3146 0002 B0F80221 		ldrh	r2, [r0, #258]
 3147              	.LBE261:
 3148              	.LBE260:
 3149              		.loc 1 994 0
 3150 0006 0346     		mov	r3, r0
 3151              	.LVL375:
 3152              	.LBB265:
 3153              	.LBB264:
 3154              		.loc 1 373 0
 3155 0008 023A     		subs	r2, r2, #2
 3156              	.LBB262:
 3157              	.LBB263:
 3158              		.loc 1 234 0
 3159 000a 12B2     		sxth	r2, r2
 3160 000c 9C5C     		ldrb	r4, [r3, r2]	@ zero_extendqisi2
 3161 000e 1A44     		add	r2, r2, r3
 3162 0010 5278     		ldrb	r2, [r2, #1]	@ zero_extendqisi2
 3163 0012 4FF00000 		mov	r0, #0	@ movhi
 3164              	.LVL376:
 3165 0016 64F30700 		bfi	r0, r4, #0, #8
 3166              	.LVL377:
 3167 001a 62F30F20 		bfi	r0, r2, #8, #8
 3168              	.LVL378:
 3169              	.LBE263:
 3170              	.LBE262:
 3171              	.LBE264:
 3172              	.LBE265:
 3173              	.LBB266:
 3174              	.LBB267:
 3175              	.LBB268:
 3176              	.LBB269:
 3177              		.loc 1 177 0
 3178 001e 00B2     		sxth	r0, r0
 3179              	.LVL379:
 3180              	.LBE269:
 3181              	.LBE268:
 3182              		.loc 1 955 0
 3183 0020 0344     		add	r3, r3, r0
 3184              	.LVL380:
 3185 0022 0B60     		str	r3, [r1]
 3186              	.LBE267:
 3187              	.LBE266:
 3188              		.loc 1 1007 0
ARM GAS  /tmp/ccsXekvW.s 			page 58


 3189 0024 5DF8044B 		ldr	r4, [sp], #4
 3190 0028 7047     		bx	lr
 3191              		.cfi_endproc
 3192              	.LFE97:
 3193              		.size	weta_stack_topString, .-weta_stack_topString
 3194 002a 00BFAFF3 		.section	.text.weta_stack_getString,"ax",%progbits
 3194      0080
 3195              		.align	2
 3196              		.p2align 4,,15
 3197              		.global	weta_stack_getString
 3198              		.thumb
 3199              		.thumb_func
 3200              		.type	weta_stack_getString, %function
 3201              	weta_stack_getString:
 3202              	.LFB98:
 3203              		.loc 1 1010 0
 3204              		.cfi_startproc
 3205              		@ args = 0, pretend = 0, frame = 0
 3206              		@ frame_needed = 0, uses_anonymous_args = 0
 3207              		@ link register save eliminated.
 3208              	.LVL381:
 3209 0000 30B4     		push	{r4, r5}
 3210              		.cfi_def_cfa_offset 8
 3211              		.cfi_offset 4, -8
 3212              		.cfi_offset 5, -4
 3213              	.LBB270:
 3214              	.LBB271:
 3215              	.LBB272:
 3216              	.LBB273:
 3217              		.loc 1 248 0
 3218 0002 4418     		adds	r4, r0, r1
 3219 0004 455C     		ldrb	r5, [r0, r1]	@ zero_extendqisi2
 3220 0006 6478     		ldrb	r4, [r4, #1]	@ zero_extendqisi2
 3221              	.LBE273:
 3222              	.LBE272:
 3223              	.LBE271:
 3224              	.LBE270:
 3225              		.loc 1 1010 0
 3226 0008 0346     		mov	r3, r0
 3227              	.LVL382:
 3228              	.LBB277:
 3229              	.LBB276:
 3230              	.LBB275:
 3231              	.LBB274:
 3232              		.loc 1 248 0
 3233 000a 4FF00000 		mov	r0, #0	@ movhi
 3234              	.LVL383:
 3235 000e 65F30700 		bfi	r0, r5, #0, #8
 3236              	.LVL384:
 3237 0012 64F30F20 		bfi	r0, r4, #8, #8
 3238              	.LVL385:
 3239              	.LBE274:
 3240              	.LBE275:
 3241              	.LBE276:
 3242              	.LBE277:
 3243              	.LBB278:
 3244              	.LBB279:
ARM GAS  /tmp/ccsXekvW.s 			page 59


 3245              	.LBB280:
 3246              	.LBB281:
 3247              		.loc 1 177 0
 3248 0016 00B2     		sxth	r0, r0
 3249              	.LVL386:
 3250              	.LBE281:
 3251              	.LBE280:
 3252              		.loc 1 955 0
 3253 0018 0344     		add	r3, r3, r0
 3254              	.LVL387:
 3255 001a 1360     		str	r3, [r2]
 3256              	.LBE279:
 3257              	.LBE278:
 3258              		.loc 1 1026 0
 3259 001c 0846     		mov	r0, r1
 3260              	.LVL388:
 3261 001e 30BC     		pop	{r4, r5}
 3262 0020 7047     		bx	lr
 3263              		.cfi_endproc
 3264              	.LFE98:
 3265              		.size	weta_stack_getString, .-weta_stack_getString
 3266 0022 00BFAFF3 		.section	.text.weta_stack_setString,"ax",%progbits
 3266      0080AFF3 
 3266      0080AFF3 
 3266      0080
 3267              		.align	2
 3268              		.p2align 4,,15
 3269              		.global	weta_stack_setString
 3270              		.thumb
 3271              		.thumb_func
 3272              		.type	weta_stack_setString, %function
 3273              	weta_stack_setString:
 3274              	.LFB99:
 3275              		.loc 1 1029 0
 3276              		.cfi_startproc
 3277              		@ args = 0, pretend = 0, frame = 0
 3278              		@ frame_needed = 0, uses_anonymous_args = 0
 3279              		@ link register save eliminated.
 3280              	.LVL389:
 3281 0000 30B4     		push	{r4, r5}
 3282              		.cfi_def_cfa_offset 8
 3283              		.cfi_offset 4, -8
 3284              		.cfi_offset 5, -4
 3285              	.LBB282:
 3286              	.LBB283:
 3287              	.LBB284:
 3288              	.LBB285:
 3289              		.loc 1 248 0
 3290 0002 4418     		adds	r4, r0, r1
 3291 0004 455C     		ldrb	r5, [r0, r1]	@ zero_extendqisi2
 3292 0006 4FF00003 		mov	r3, #0	@ movhi
 3293              	.LVL390:
 3294 000a 6478     		ldrb	r4, [r4, #1]	@ zero_extendqisi2
 3295 000c 65F30703 		bfi	r3, r5, #0, #8
 3296              	.LVL391:
 3297 0010 64F30F23 		bfi	r3, r4, #8, #8
 3298              	.LVL392:
ARM GAS  /tmp/ccsXekvW.s 			page 60


 3299              	.L190:
 3300              	.LBE285:
 3301              	.LBE284:
 3302              		.loc 1 407 0
 3303 0014 9BB2     		uxth	r3, r3
 3304              	.LVL393:
 3305              	.LBE283:
 3306              	.LBE282:
 3307              	.LBB286:
 3308              	.LBB287:
 3309              		.loc 1 964 0
 3310 0016 1578     		ldrb	r5, [r2]	@ zero_extendqisi2
 3311              	.LBB288:
 3312              	.LBB289:
 3313              		.loc 1 913 0
 3314 0018 1CB2     		sxth	r4, r3
 3315 001a 0555     		strb	r5, [r0, r4]
 3316              	.LBE289:
 3317              	.LBE288:
 3318              		.loc 1 966 0
 3319 001c 12F8014B 		ldrb	r4, [r2], #1	@ zero_extendqisi2
 3320              	.LVL394:
 3321 0020 0133     		adds	r3, r3, #1
 3322              	.LVL395:
 3323 0022 9BB2     		uxth	r3, r3
 3324              	.LVL396:
 3325 0024 002C     		cmp	r4, #0
 3326 0026 F5D1     		bne	.L190
 3327              	.LBE287:
 3328              	.LBE286:
 3329              		.loc 1 1045 0
 3330 0028 0846     		mov	r0, r1
 3331              	.LVL397:
 3332 002a 30BC     		pop	{r4, r5}
 3333              	.LVL398:
 3334 002c 7047     		bx	lr
 3335              		.cfi_endproc
 3336              	.LFE99:
 3337              		.size	weta_stack_setString, .-weta_stack_setString
 3338 002e 00BF     		.section	.rodata.str1.4,"aMS",%progbits,1
 3339              		.align	2
 3340              	.LC0:
 3341 0000 53746163 		.ascii	"Stack dump (Top = %d):\015\012\000"
 3341      6B206475 
 3341      6D702028 
 3341      546F7020 
 3341      3D202564 
 3342 0019 000000   		.space	3
 3343              	.LC1:
 3344 001c 456E6420 		.ascii	"End of stack dump\015\012\000"
 3344      6F662073 
 3344      7461636B 
 3344      2064756D 
 3344      700D0A00 
 3345              	.LC2:
 3346 0030 25303278 		.ascii	"%02x\015\012\000"
 3346      0D0A00
ARM GAS  /tmp/ccsXekvW.s 			page 61


 3347 0037 00       		.section	.bss.stacks,"aw",%nobits
 3348              		.align	2
 3349              		.set	.LANCHOR0,. + 0
 3350              		.type	stacks, %object
 3351              		.size	stacks, 262
 3352              	stacks:
 3353 0000 00000000 		.space	262
 3353      00000000 
 3353      00000000 
 3353      00000000 
 3353      00000000 
 3354 0106 0000     		.text
 3355              	.Letext0:
 3356              		.file 2 "/usr/include/newlib/machine/_default_types.h"
 3357              		.file 3 "/usr/include/newlib/stdint.h"
 3358              		.file 4 "./weta_vm/weta_platform.h"
 3359              		.file 5 "/usr/lib/gcc/arm-none-eabi/4.8.2/include/stddef.h"
 3360              		.file 6 "./weta_vm/weta_stack.h"
 3361              		.file 7 "../../os/ports/GCC/ARMCMx/chtypes.h"
 3362              		.file 8 "../../os/kernel/include/chlists.h"
 3363              		.file 9 "../../os/kernel/include/chthreads.h"
 3364              		.file 10 "../../os/ports/GCC/ARMCMx/chcore_v7m.h"
 3365              		.file 11 "../../os/kernel/include/chmtx.h"
 3366              		.file 12 "../../os/kernel/include/chevents.h"
 3367              		.file 13 "../../os/kernel/include/chqueues.h"
 3368              		.file 14 "../../os/kernel/include/chioch.h"
 3369              		.file 15 "../../os/hal/platforms/AT91SAM3/at91lib/SAM3N.h"
 3370              		.file 16 "../../os/hal/include/serial.h"
 3371              		.file 17 "./weta_vm/./hw/hw_serial.h"
 3372              		.file 18 "/usr/include/newlib/stdio.h"
 3373              		.file 19 "/usr/include/newlib/string.h"
 3374              		.file 20 "../../os/hal/platforms/AT91SAM3/core_cm3.h"
 3375              		.file 21 "../../os/hal/platforms/AT91SAM3/serial_lld.h"
