:020000040020DA
:1000000000600020111A2000501B2000501B20000F
:10001000501B2000501B2000501B2000501B2000B4
:10002000501B2000501B2000501B2000711B200083
:10003000501B2000501B2000501B2000511C200092
:10004000501B2000501B2000501B2000501B200084
:10005000501B2000501B2000501B2000501B200074
:10006000412B2000612B2000501B2000501B200042
:10007000501B2000501B2000501B2000501B200054
:10008000501B2000501B2000501B2000501B200044
:10009000501B2000501B2000501B2000501B200034
:1000A000501B2000501B2000501B2000501B200024
:1000B000501B2000618D2000501B2000501B200091
:1000C00000B591B009F014F808F0E2FA40F690019A
:1000D000002201A8C2F2000103F08AFC44F630615C
:1000E00001A8C0F2210103F073FC01A808F070F927
:1000F000002011B05DF804FBAFF30080AFF3008087
:1001000081F0004102E000BF83F0004330B54FEAC8
:1001100041044FEA430594EA050F08BF90EA020F35
:100120001FBF54EA000C55EA020C7FEA645C7FEAC8
:10013000655C00F0E2804FEA5454D4EB5555B8BFEB
:100140006D420CDD2C4480EA020281EA030382EA5C
:10015000000083EA010180EA020281EA0303362DEE
:1001600088BF30BD11F0004F4FEA01314FF4801CC1
:100170004CEA113102D0404261EB410113F0004FD3
:100180004FEA03334CEA133302D0524263EB43038A
:1001900094EA050F00F0A780A4F10104D5F1200E28
:1001A0000DDB02FA0EFC22FA05F2801841F1000183
:1001B00003FA0EF2801843FA05F359410EE0A5F157
:1001C00020050EF1200E012A03FA0EFC28BF4CF088
:1001D000020C43FA05F3C01851EBE37101F000453E
:1001E00007D54FF0000EDCF1000C7EEB00006EEB4B
:1001F0000101B1F5801F1BD3B1F5001F0CD34908D5
:100200005FEA30004FEA3C0C04F101044FEA44522B
:1002100012F5800F80F09A80BCF1004F08BF5FEAB2
:10022000500C50F1000041EB045141EA050130BD92
:100230005FEA4C0C404141EB010111F4801FA4F135
:100240000104E9D191F0000F04BF01460020B1FA8A
:1002500081F308BF2033A3F10B03B3F120020CDAC2
:100260000C3208DD02F1140CC2F10C0201FA0CF0A0
:1002700021FA02F10CE002F11402D8BFC2F1200C05
:1002800001FA02F120FA0CFCDCBF41EA0C019040BB
:10029000E41AA2BF01EB0451294330BD6FEA040404
:1002A0001F3C1CDA0C340EDC04F11404C4F12002EF
:1002B00020FA04F001FA02F340EA030021FA04F301
:1002C00045EA030130BDC4F10C04C4F1200220FA58
:1002D00002F001FA04F340EA0300294630BD21FA96
:1002E00004F0294630BD94F0000F83F4801306BF5C
:1002F00081F480110134013D4EE77FEA645C18BF50
:100300007FEA655C29D094EA050F08BF90EA020FE6
:1003100005D054EA000C04BF1946104630BD91EADE
:10032000030F1EBF0021002030BD5FEA545C05D1E1
:100330004000494128BF41F0004130BD14F5800420
:100340003CBF01F5801130BD01F0004545F0FE4194
:1003500041F470014FF0000030BD7FEA645C1ABFC9
:10036000194610467FEA655C1CBF0B46024650EA00
:10037000013406BF52EA033591EA030F41F400212C
:1003800030BD00BF90F0000F04BF0021704730B5B2
:100390004FF4806404F132044FF000054FF0000187
:1003A00050E700BF90F0000F04BF0021704730B548
:1003B0004FF4806404F1320410F0004548BF40421D
:1003C0004FF000013EE700BF42004FEAE2014FEA72
:1003D00031014FEA02701FBF12F07F4393F07F4F4D
:1003E00081F06051704792F0000F14BF93F07F4F7F
:1003F000704730B54FF4607401F0004521F00041C2
:1004000020E700BF50EA010208BF704730B54FF047
:1004100000050AE050EA010208BF704730B511F04C
:10042000004502D5404261EB41014FF4806404F184
:1004300032045FEA915C3FF4DCAE4FF003025FEA06
:10044000DC0C18BF03325FEADC0C18BF033202EB8E
:10045000DC02C2F1200300FA03FC20FA02F001FAE8
:1004600003FE40EA0E0021FA02F11444C1E600BF87
:1004700070B54FF0FF0C4CF4E06C1CEA11541DBF3A
:100480001CEA135594EA0C0F95EA0C0F00F0DEF805
:100490002C4481EA030621EA4C5123EA4C5350EAEA
:1004A000013518BF52EA033541F4801143F480133B
:1004B00038D0A0FB02CE4FF00005E1FB02E506F0CC
:1004C0000042E0FB03E54FF00006E1FB03569CF021
:1004D000000F18BF4EF0010EA4F1FF04B6F5007F27
:1004E00064F5407404D25FEA4E0E6D4146EB060699
:1004F00042EAC62141EA55514FEAC52040EA5E5022
:100500004FEACE2EB4F1FD0C88BFBCF5E06F1ED8CB
:10051000BEF1004F08BF5FEA500E50F1000041EB02
:10052000045170BD06F0004646EA010140EA0200AF
:1005300081EA0301B4EB5C04C2BFD4EB0C0541EAD1
:10054000045170BD41F480114FF0000E013C00F3E6
:10055000AB8014F1360FDEBF002001F0004170BD0A
:10056000C4F10004203C35DA0C341BDC04F1140423
:10057000C4F1200500FA05F320FA04F001FA05F2AF
:1005800040EA020001F0004221F0004110EBD3707C
:1005900021FA04F642EB06015EEA430E08BF20EAA8
:1005A000D37070BDC4F10C04C4F1200500FA04F34B
:1005B00020FA05F001FA04F240EA020001F00041DD
:1005C00010EBD37041F100015EEA430E08BF20EA50
:1005D000D37070BDC4F1200500FA05F24EEA020E98
:1005E00020FA04F301FA05F243EA020321FA04F0C7
:1005F00001F0004121FA04F220EA020000EBD3707E
:100600005EEA430E08BF20EAD37070BD94F0000F7D
:100610000FD101F00046400041EB010111F4801FB1
:1006200008BF013CF7D041EA060195F0000F18BF62
:10063000704703F00046520043EB030313F4801F9E
:1006400008BF013DF7D043EA0603704794EA0C0F58
:100650000CEA135518BF95EA0C0F0CD050EA41066E
:1006600018BF52EA4306D1D181EA030101F00041EB
:100670004FF0000070BD50EA410606BF1046194613
:1006800052EA430619D094EA0C0F02D150EA01361F
:1006900013D195EA0C0F05D152EA03361CBF104660
:1006A00019460AD181EA030101F0004141F0FE41FF
:1006B00041F470014FF0000070BD41F0FE4141F483
:1006C000780170BD70B54FF0FF0C4CF4E06C1CEA83
:1006D00011541DBF1CEA135594EA0C0F95EA0C0F38
:1006E00000F0A7F8A4EB050481EA030E52EA0335F3
:1006F0004FEA013100F088804FEA03334FF0805514
:1007000045EA131343EA12634FEA022245EA111540
:1007100045EA10654FEA00260EF000419D4208BFF1
:10072000964244F1FD0404F5407402D25B084FEA9E
:100730003202B61A65EB03055B084FEA32024FF44A
:1007400080104FF4002CB6EB020E75EB030E22BFA7
:10075000B61A754640EA0C005B084FEA3202B6EB67
:10076000020E75EB030E22BFB61A754640EA5C0016
:100770005B084FEA3202B6EB020E75EB030E22BFA6
:10078000B61A754640EA9C005B084FEA3202B6EBA7
:10079000020E75EB030E22BFB61A754640EADC0066
:1007A00055EA060E18D04FEA051545EA16754FEAC8
:1007B00006164FEAC30343EA52734FEAC2025FEAE6
:1007C0001C1CC0D111F4801F0BD141EA00014FF075
:1007D00000004FF0004CB6E711F4801F04BF014346
:1007E0000020B4F1FD0C88BFBCF5E06F3FF6AFAE62
:1007F000B5EB030C04BFB6EB020C5FEA500C50F1F2
:10080000000041EB045170BD0EF0004E4EEA113174
:1008100014EB5C04C2BFD4EB0C0541EA045170BD7B
:1008200041F480114FF0000E013C90E645EA060EBF
:100830008DE60CEA135594EA0C0F08BF95EA0C0FED
:100840003FF43BAF94EA0C0F0AD150EA01347FF435
:1008500034AF95EA0C0F7FF425AF104619462CE70C
:1008600095EA0C0F06D152EA03353FF4FDAE10466F
:10087000194622E750EA410618BF52EA43067FF4C0
:10088000C5AE50EA41047FF40DAF52EA43057FF450
:10089000EBAE12E7000000000000000000000000C6
:1008A0004FF0FF3C06E000BF4FF0010C02E000BF3C
:1008B0004FF0010C4DF804CD4FEA410C7FEA6C5C1F
:1008C0004FEA430C18BF7FEA6C5C1BD001B050EAC2
:1008D000410C0CBF52EA430C91EA030F02BF90EAAD
:1008E000020F0020704710F1000F91EA030F58BF6C
:1008F000994208BF90422CBFD8176FEAE37040F0CE
:10090000010070474FEA410C7FEA6C5C02D150EA6B
:10091000013C07D14FEA430C7FEA6C5CD6D152EA26
:10092000033CD3D05DF8040B704700BF84461046EB
:1009300062468C461946634600E000BF01B5FFF7EA
:10094000B7FF002848BF10F1000F01BD4DF808EDBA
:10095000FFF7F4FF0CBF012000205DF808FB00BF8B
:100960004DF808EDFFF7EAFF34BF012000205DF8E5
:1009700008FB00BF4DF808EDFFF7E0FF94BF012032
:1009800000205DF808FB00BF4DF808EDFFF7CEFF33
:1009900094BF012000205DF808FB00BF4DF808ED72
:1009A000FFF7C4FF34BF012000205DF808FB00BF43
:1009B0004FEA410212F5001215D211D56FF4787387
:1009C000B3EB625212D94FEAC12343F0004343EA2A
:1009D000505311F0004F23FA02F018BF4042704705
:1009E0004FF00000704750EA013005D111F000408F
:1009F00008BF6FF0004070474FF00000704700BF25
:100A00004A0011D212F5001211D20DD56FF478738D
:100A1000B3EB62520ED44FEAC12343F0004343EAE2
:100A2000505323FA02F070474FF00000704750EA2D
:100A3000013002D14FF0FF3070474FF00000704797
:100A40004FEA4102B2F1E04324BFB3F5001CDCF1F0
:100A5000FE5C0DD901F0004C4FEAC0024CEA507028
:100A6000B2F1004F40EB830008BF20F00100704757
:100A700011F0804F21D113F13872BCBF01F000405A
:100A8000704741F480114FEA5252C2F11802C2F18C
:100A9000200C10FA0CF320FA02F018BF40F001000D
:100AA0004FEAC1234FEAD32303FA0CFC40EA0C00BF
:100AB00023FA02F34FEA4303CCE77FEA625307D1FC
:100AC00050EA01331EBF4FF0FE4040F44000704733
:100AD00001F0004040F0FE4040F40000704700BFCD
:100AE00080F0004002E000BF81F0004142001FBFE3
:100AF0005FEA410392EA030F7FEA226C7FEA236CEC
:100B00006AD04FEA1262D2EB1363C1BFD2184140E0
:100B100048404140B8BF5B42192B88BF704710F076
:100B2000004F40F4000020F07F4018BF404211F019
:100B3000004F41F4000121F07F4118BF494292EA81
:100B4000030F3FD0A2F1010241FA03FC10EB0C00AD
:100B5000C3F1200301FA03F100F0004302D549423A
:100B600060EB4000B0F5000F13D3B0F1807F06D3E7
:100B700040084FEA310102F10102FE2A51D2B1F1DF
:100B8000004F40EBC25008BF20F0010040EA0300D4
:100B90007047490040EB000010F4000FA2F1010281
:100BA000EDD1B0FA80FCACF1080CB2EB0C0200FA0B
:100BB0000CF0AABF00EBC25052421843BCBFD04059
:100BC0001843704792F0000F81F4000106BF80F4D3
:100BD00000000132013BB5E74FEA41037FEA226C96
:100BE00018BF7FEA236C21D092EA030F04D092F061
:100BF000000F08BF0846704790EA010F1CBF002095
:100C0000704712F07F4F04D1400028BF40F00040F1
:100C1000704712F100723CBF00F50000704700F011
:100C2000004343F0FE4040F4000070477FEA226238
:100C300016BF08467FEA23630146420206BF5FEA09
:100C4000412390EA010F40F4800070474FF0000309
:100C500004E000BF10F0004348BF40425FEA000CD0
:100C600008BF704743F0964301464FF000001CE078
:100C700050EA010208BF70474FF000030AE000BFCE
:100C800050EA010208BF704711F0004302D540420C
:100C900061EB41015FEA010C02BF8446014600207E
:100CA00043F0B64308BFA3F18053A3F50003BCFA99
:100CB0008CF2083AA3EBC25310DB01FA02FC634446
:100CC00000FA02FCC2F12002BCF1004F20FA02F24D
:100CD00043EB020008BF20F00100704702F1200240
:100CE00001FA02FCC2F1200250EA4C0021FA02F2A1
:100CF00043EB020008BF20EADC70704700000000F0
:100D00004FF0FF0C1CEAD0521EBF1CEAD15392EAEE
:100D10000C0F93EA0C0F6FD01A4480EA010C4002CA
:100D200018BF5FEA41211ED04FF0006343EA501024
:100D300043EA5111A0FB01310CF00040B1F5000F66
:100D40003EBF490041EAD3715B0040EA010062F115
:100D50007F02FD2A1DD8B3F1004F40EBC25008BFFF
:100D600020F00100704790F0000F0CF0004C08BF1D
:100D700049024CEA502040EA51207F3AC2BFD2F1EA
:100D8000FF0340EAC250704740F400004FF00003F8
:100D9000013A5DDC12F1190FDCBF00F00040704732
:100DA000C2F10002410021FA02F1C2F1200200FA70
:100DB00002FC5FEA310040F1000053EA4C0308BF37
:100DC00020EADC70704792F0000F00F0004C02BF88
:100DD000400010F4000F013AF9D040EA0C0093F003
:100DE000000F01F0004C02BF490011F4000F013B5D
:100DF000F9D041EA0C018FE70CEAD15392EA0C0FCB
:100E000018BF93EA0C0F0AD030F0004C18BF31F035
:100E1000004CD8D180EA010000F00040704790F00B
:100E2000000F17BF90F0004F084691F0000F91F0AF
:100E3000004F14D092EA0C0F01D142020FD193EA75
:100E40000C0F03D14B0218BF084608D180EA0100FD
:100E500000F0004040F0FE4040F40000704740F0D9
:100E6000FE4040F4400070474FF0FF0C1CEAD052A7
:100E70001EBF1CEAD15392EA0C0F93EA0C0F69D003
:100E8000A2EB030280EA010C49024FEA402037D06E
:100E90004FF0805343EA111143EA10130CF0004065
:100EA0008B4238BF5B0042F17D024FF4000C8B4255
:100EB00024BF5B1A40EA0C00B3EB510F24BFA3EB35
:100EC000510340EA5C00B3EB910F24BFA3EB910305
:100ED00040EA9C00B3EBD10F24BFA3EBD10340EA5F
:100EE000DC001B0118BF5FEA1C1CE0D1FD2A3FF6A5
:100EF00050AF8B4240EBC25008BF20F0010070475A
:100F00000CF0004C4CEA50207F32C2BFD2F1FF03FC
:100F100040EAC250704740F400004FF00003013A2D
:100F200037E792F0000F00F0004C02BF400010F4D1
:100F3000000F013AF9D040EA0C0093F0000F01F0E5
:100F4000004C02BF490011F4000F013BF9D041EA07
:100F50000C0195E70CEAD15392EA0C0F08D142023A
:100F60007FF47DAF93EA0C0F7FF470AF084676E70D
:100F700093EA0C0F04D14B023FF44CAF08466EE7E6
:100F800030F0004C18BF31F0004CCAD130F00042B4
:100F90007FF45CAF31F000437FF43CAF5FE700BF0C
:100FA0004FF0FF3C06E000BF4FF0010C02E000BF35
:100FB0004FF0010C4DF804CD4FEA40024FEA4103D7
:100FC0007FEA226C18BF7FEA236C11D001B052EA8D
:100FD000530C18BF90EA010F58BFB2EB030088BF53
:100FE000C81738BF6FEAE17018BF40F001007047C2
:100FF0007FEA226C02D15FEA402C05D17FEA236CA4
:10100000E4D15FEA412CE1D05DF8040B704700BFEA
:10101000844608466146FFE70FB5FFF7C9FF002881
:1010200048BF10F1000F0FBD4DF808EDFFF7F4FFBA
:101030000CBF012000205DF808FB00BF4DF808ED53
:10104000FFF7EAFF34BF012000205DF808FB00BF76
:101050004DF808EDFFF7E0FF94BF012000205DF898
:1010600008FB00BF4DF808EDFFF7D2FF94BF012049
:1010700000205DF808FB00BF4DF808EDFFF7C8FF42
:1010800034BF012000205DF808FB00BF0000000015
:1010900042000ED2B2F1FE4F0BD34FF09E03B3EBE2
:1010A000126209D44FEA002343F0004323FA02F00E
:1010B00070474FF00000704712F1610F01D14202FA
:1010C00002D14FF0FF3070474FF00000704700BF73
:1010D00040EA010C1CF0070F27D1BDF1100DCDE93E
:1010E0000245CDE900676FF000064FF0000700BF32
:1010F000F0E80223F1E80245A242A2F1013C2CEA09
:10110000020C0CF0803C08BFBCF1000F40F0E58001
:10111000AB42A3F1013C2CEA030C0CF0803C08BF6D
:10112000BCF1000F40F0D680E2E710F0030C21D0B4
:1011300020F0030050F8042B5FEACC7C08D00FD2DB
:1011400011F801CB5FFA92F3B3EB0C0C10D17BB129
:1011500011F801CB5FFAA2F3B3EB0C0C08D13BB151
:1011600011F801CB5FFAB2F3B3EB0C0C00D10BB961
:1011700060467047BDF1100DCDE90245CDE900672D
:101180006FF000064FF0000711F0030C33D110F0A0
:10119000040F0FD050F8042B51F8044BA242A2F1D7
:1011A000013C2CEA020C0CF0803C08BFBCF1000FA3
:1011B00040F0938011F0040F99D051F8045B00BF08
:1011C000F0E80223AA42A2F1013C2CEA020C0CF046
:1011D000803C08BFBCF1000F79D1F1E80245A34281
:1011E000A3F1013C2CEA030C0CF0803C08BFBCF1DD
:1011F000000F69D1E4E721F00301BCF1020F20D018
:101200003FDA51F8045B00BF50F8043B4FEA152564
:10121000A3F1013C2CEA030C0CF0803CB7EB0C2F43
:1012200003EA162208BFAA4251D151F8045BBCF16F
:10123000000F82EA03034FEA056208BF934240D1E0
:10124000E2E751F8045B00BF50F8043B4FEA154554
:10125000A3F1013C2CEA030C0CF0803CB7EB0C4FE3
:1012600003EA164208BFAA4231D151F8045BBCF12F
:10127000000F82EA03034FEA054208BF934220D1E0
:10128000E2E751F8045B00BF50F8043B4FEA1565F4
:10129000A3F1013C2CEA030C0CF0803CB7EB0C6F83
:1012A00003EA166208BFAA4211D151F8045BBCF1EF
:1012B000000F82EA03034FEA052208BF934200D1E0
:1012C000E2E719BA12BA0AE019BA22BA07E011BA6B
:1012D0002ABA04E019BA2ABA01E011BA22BA9CFA71
:1012E0008CF0DDE90067DDE902451DF1100D38B134
:1012F000B0FA80F0C0F1180021FA00F122FA00F2F1
:101300000120914298BF8041704700BF000000005B
:10131000844641EA000313F0030349D1403A23D342
:101320000B6803604B6843608B688360CB68C36065
:101330000B6903614B6943618B698361CB69C3614D
:101340000B6A03624B6A43628B6A8362CB6AC36235
:101350000B6B03634B6B43638B6B8363CB6BC3631D
:1013600040304031403ADBD230320BD30B6803605F
:101370004B6843608B688360CB68C360103010316A
:10138000103AF3D20C3205D351F8043B40F8043B39
:10139000043AF9D2043208D0D2071CBF11F8013B3D
:1013A00000F8013B01D30B8803806046704700BF03
:1013B000082A13D38B07B1D010F00303AED0C3F1CA
:1013C0000403D21ADB071CBF11F8013B00F8013BF4
:1013D000A4D331F8023B20F8023B9FE7043AD9D36B
:1013E000013A11F8013B00F8013BF9D20B78037088
:1013F0004B7843708B788370604670470000000024
:101400004BB942B9002908BF002802D04FF0FF3184
:10141000084600F03DB882B0EC462DE9005000F0DF
:101420001FF8DDF804E002B00CBC704700000000BB
:101430002DE9F843089C1546984606460F4600F0ED
:101440002FF805FB01F9A5FB002300FB089C634472
:10145000B21A67EB0303C4E90023BDE8F88300BFB9
:101460002DE9F843089E1746804689461D4600F040
:1014700077F900FB05F3A0FB074507FB01373D4467
:10148000B8EB040469EB0505C6E90045BDE8F8833F
:10149000704700BF000000000000000000000000D6
:1014A00000292DE9F00FA8BF0026C0F2AB80002B69
:1014B000C0F2A380894690469C46144605460F46D6
:1014C000002B48D18A425CD9B2FA82F353B1C3F1FE
:1014D000200201FA03F720FA02F208FA03F400FAF4
:1014E00003F51743210CB7FBF1F201FB1277A0B211
:1014F00000FB02F34FEA154C4CEA0747BB4209D9FF
:101500003F1902F1FF3C04D2BB4284BF023A3F19AB
:1015100000D86246FF1AB7FBF1F301FB137100FB21
:1015200003F0ADB245EA0141884208D9091903F137
:10153000FF3703D2884288BF023B00D83B4643EACC
:10154000024300221846114616B1404261EB4101A8
:10155000BDE8F00F70478B4284BF00221346F1D8DC
:10156000BCFA8CF1002940F09580CC4528BF80451D
:101570008CBF002201229CBF01230A46E2D91346F8
:10158000E0E712B90123B3FBF2F4B4FA84F3002BC1
:101590003ED13F1B200C1FFA84FC0122B7FBF0F167
:1015A00000FB11770CFB01F34FEA154848EA0747A7
:1015B000BB420AD93F1901F1FF3880F0C780BB4216
:1015C00084BF02393F1940F2C180FF1AB7FBF0F324
:1015D00000FB13700CFB03FCADB245EA00408445F0
:1015E00008D9001903F1FF3703D2844588BF023BB5
:1015F00000D83B4643EA0143A4E7F643524263EB7B
:10160000430357E7404261EB41014FF0FF364EE79D
:101610009C40C3F1200927FA09F125FA09F99F40F6
:10162000200CB1FBF0F200FB12111FFA84FC0CFB42
:1016300002F849EA07094FEA194747EA0141884594
:1016400005FA03F509D9091902F1FF3380F0848006
:10165000884584BF023A09197ED9C8EB0101B1FB64
:10166000F0F300FB13170CFB03F81FFA89F949EAA2
:101670000747B84509D93F1903F1FF3104D2B845EE
:1016800084BF023B3F1900D80B46C8EB070743EA6B
:10169000024283E7C1F1200328FA03F20CFA01FCAD
:1016A00029FA03F420FA03F309FA01F942EA0C0CCF
:1016B0004FEA1C4AB4FBFAF70AFB17441FFA8CFBEB
:1016C0000BFB07F043EA09094FEA194343EA0444D4
:1016D000A04208FA01F209D914EB0C0407F1FF3318
:1016E00038D2A04284BF023F644433D9201AB0FBF1
:1016F000FAF30AFB13000BFB03FB1FFA89F949EA13
:101700000040834509D910EB0C0003F1FF341FD2D0
:10171000834584BF023B60441AD943EA0747A7FBCD
:101720000223CBEB000098420DD305FA01F114BF60
:101730000023012391422CBF002203F001023B460B
:10174000002A3FF4FFAE7B1E0022FBE641463CE749
:101750002346E2E71F46C9E71A467EE7000000007D
:101760002DE9F003144605460E46002B42D18A426D
:1017700055D9B2FA82F34BB1C3F12006994020FA51
:1017800006F602FA03F400FA03F50E43220CB6FB48
:10179000F2F002FB1066A7B207FB00F34FEA154C0C
:1017A0004CEA0646B34209D9361900F1FF3104D29A
:1017B000B34284BF0238361900D80846F61AB6FB81
:1017C000F2F302FB136207FB03F7ADB245EA0242F4
:1017D000974209D9121903F1FF3180F0ED80974249
:1017E00088BF023B40F2E88043EA00400021BDE8A8
:1017F000F00370478B4284BF00210846F7D8B3FA44
:1018000083F4002C4AD18B4228BF82428CBF002136
:1018100001219CBF01202146E9D90846E7E712B91A
:101820000124B4FBF2F4B4FA84F7002F40F0848072
:101830000B1B260CA7B20121B3FBF6F006FB1033FD
:1018400007FB00F24FEA154C4CEA03439A420AD9CF
:101850001B1900F1FF3C80F0B1809A4284BF02382E
:101860001B1940F2AB809B1AB3FBF6F206FB123356
:1018700007FB02F7ADB245EA0345AF4209D92C197F
:1018800002F1FF3380F09C80A74288BF023A40F209
:101890009780BDE8F00342EA00407047C4F120059C
:1018A00022FA05F7A34021FA05F620FA05F5A14032
:1018B0003B434FEA1348B6FBF8FC08FB1C661FFAD3
:1018C00083F909FB0CF729430D0C45EA0646B7429C
:1018D00002FA04F204D9F6180CF1FF3578D3AC46BD
:1018E000F61BB6FBF8F708FB176609FB07F989B288
:1018F00041EA0645A94504D9ED1807F1FF3161D346
:101900000F4647EA0C47A7FB0223C9EB05059D429A
:101910000DD300FA04F114BF0025012591422CBF1C
:10192000002105F00101384600293FF460AF781E20
:101930000021BDE8F0037047BC40C7F1200321FA45
:1019400003FC20FA03F3B940260CBCFBF6F806FBB7
:1019500018CC1FFA84F909FB08F219430B0C43EA6F
:101960000C4C624500FA07F50AD91CEB040C08F18F
:10197000FF3334D2624584BFA8F10208A4442ED9B3
:10198000C2EB0C0CBCFBF6F206FB12C309FB02F027
:1019900089B241EA0343984209D91B1902F1FF3188
:1019A00004D2984284BF023A1B1900D80A461B1A77
:1019B00042EA08414F463FE70B4615E7604652E7CB
:1019C0001A4666E7A94584BF023FED1899D897E704
:1019D000B74284BFACF1020CF61881D87FE7984675
:1019E000CEE700BF00000000000000000000000083
:1019F000704700BFAFF30080AFF30080AFF300800B
:101A0000FEE700BFAFF30080AFF30080AFF30080CC
:101A100072B640F60004C2F2000484F3098802237F
:101A200083F31488BFF36F8F01F04AF940F200038B
:101A300040F20042C2F20003C2F2000293420BD213
:101A4000D943114421F0030119444FF05532043BAE
:101A500043F8042F8B42FBD140F20043C2F2000353
:101A6000A3420CD236491A1D891A21F003011944E8
:101A70004FF05532043B43F8042F8B42FBD140F624
:101A8000000141F25C13C2F20001C2F2000399426C
:101A90000ED2CC431C4424F0030445F2B830043485
:101AA000C0F221000023C258CA500433A342FAD125
:101AB00041F2601341F2F842C2F20003C2F20002A6
:101AC00093420AD2D943114421F003011944002260
:101AD000043B43F8042F8B42FBD1FFF789FF40F210
:101AE000C00540F2C003C0F22005C0F220039D42B1
:101AF0000BD2EE431E44B6080136043D00240134E7
:101B000055F8043F9847B442F9D1FEF7D9FA40F2AC
:101B1000C00540F2C003C0F22005C0F220039D4280
:101B20000BD2EE431E44B6080136043D00240134B6
:101B300055F8043F9847B442F9D1FFF761FF00BF61
:101B400003080020AFF30080AFF30080AFF3008004
:101B5000FEE700BFAFF30080AFF30080AFF300807B
:101B600000F066FA00DF00BFAFF30080AFF3008043
:101B7000EFF30983203383F30988002383F311886B
:101B8000704700BFAFF30080AFF30080AFF3008079
:101B900008B500224FF46D43CEF200031146C0F2A7
:101BA000FA5299600720DA60102100F099F80A20B3
:101BB0004FF4007100F094F8BDE808400B2080213C
:101BC00000F08EB8AFF30080AFF30080AFF3008079
:101BD000202383F311884FF46D43CEF200035B683A
:101BE00013F400631FD0EFF30982A2F1200383F303
:101BF000098841F27823C2F2000399694FF080709E
:101C000042F8040C91B11968DB6989689B689942B4
:101C100094BF002301239BB141F66133C0F220033E
:101C200042F8083C704783F3118870471968DB69F4
:101C300089689B68994234BF00230123002BEBD1B4
:101C400041F66433C0F2200342F8083C704700BFFD
:101C500008B5202383F3118800F0A2F8002383F352
:101C60001188BDE80840FFF7B3BF00BFAFF30080A5
:101C70002DE9F04FC1F80CD0D0F80CD0BDE8F08FB2
:101C8000002383F311882846A04700F0A1FA70478B
:101C900000F0030330B4DB00FF259D409940012292
:101CA00000F01F039A4020F0030404F1604404F59F
:101CB0006144D4F800334009800023EA050300F1B1
:101CC000604000F561400B43C4F80033C0F8802148
:101CD00030BC0260704700BFAFF30080AFF30080FC
:101CE00000F00303DB00FF229A40994020F003003C
:101CF00000F1604000F56D40836923EA02030B4365
:101D000083617047AFF30080AFF30080AFF30080D2
:101D100041F27823C2F20003DA6944F2C073C0F2E0
:101D200021039361FEE700BFAFF30080AFF30080B3
:101D300010B582B0FFF72CFF00F0DAF800F060F881
:101D400000F0DEFB00F014FC41F260104021C2F212
:101D5000000000F095F941F27823C2F2000301225D
:101D6000D8610023027783F3118862B641F27823A9
:101D7000C2F20003DC6944F2C872C0F22102002101
:101D800041F2A81041F61153A261C0F22003009164
:101D90000122C021C2F2000000F09AF902B010BD89
:101DA00038B541F27823C2F200039A6941F26824FF
:101DB000002AC4BF02F1FF329A61DB69C2F200045B
:101DC0001A6A01321A62E26823680132A342E260B1
:101DD0000ED09D68013D9D6055B91A68D968186993
:101DE000DD6022605460884723689A68002AF4D036
:101DF00038BD00BFAFF30080AFF30080AFF30080C9
:101E000041F26823C2F200034FF0FF3100225B6011
:101E10001B609960DA607047AFF30080AFF3008019
:101E200070B441F26826C2F200063468A568036106
:101E3000A942C26004D92468491BA5688D42FAD31F
:101E40006368B442046043606060186081601EBFD4
:101E5000A368C1EB0301A16070BC7047AFF30080C1
:101E6000036841F26822C2F2000293421FBF9968E0
:101E7000826852189A6042680021136003685A60B1
:101E8000C1607047AFF30080AFF30080AFF3008014
:101E9000037F10B40D2B11D8DFE803F023101007D7
:101EA000100B101010101010100B436A9A680132BA
:101EB0009A6090E80C001A60026853604FF0FF349B
:101EC000002241F27823816844620277C2F2000363
:101ED0001B689A688A42FBD25A6803604260586065
:101EE00010605DF8044B7047AFF30080AFF30080E3
:101EF00041F27823C2F20003002114225B601B60D0
:101F00005B611B6199609A61704700BFAFF300800D
:101F1000002241F27823816810B4C2F20003044623
:101F200002771B689A688A42FBD25A68204623606F
:101F300062605C6014605DF8044B7047AFF3008032
:101F400041F27823C2F2000370B41A68D9691468A8
:101F50001426012508779E616360DA6115771C609D
:101F6000104670BCFFF784BEAFF30080AFF3008073
:101F700030B54B1C87B0054617D041F27824C2F229
:101F8000000441F69162E36901A8C0F22002FFF764
:101F900047FF2846FFF7D4FF049B13B101A8FFF7C2
:101FA0005FFFE369586A07B030BDFFF7C9FF41F230
:101FB0007824C2F20004E369586A07B030BD00BF5C
:101FC000F0B441F27827C2F20007D7F81CC0856848
:101FD000DCF808400646A54241620DD800223B4687
:101FE00002771B689A689542FBD95A683360726021
:101FF0005E601660F0BC704700238CF81C303B46D6
:102000001B689A689442FBD95A680124CCF80030C6
:10201000CCF80420C3F804C0C2F800C01423FE6149
:1020200034773046BB616146F0BCFFF721BE00BF8C
:1020300041F27822C2F200021068F0B40368D56958
:10204000142701260021AC68136097615A60D061A3
:1020500003460677297700E01B689A68A242FBD204
:102060005A6829462B606A605D601560F0BCFFF716
:10207000FFBD00BFAFF30080AFF30080AFF300807F
:102080002DE9F00141F27822C2F2000255690024E4
:1020900000F12C064FF0020800F128074FF0010C68
:1020A00045610261816080F81C804477C463846369
:1020B000046284610164506180F81EC028618762F7
:1020C0000663C662BDE8F001704700BFAFF3008051
:1020D0002DE9F84F9C460446202383F3118841F2F2
:1020E0007826C2F20006D6F814E0A1F124000A9B7B
:1020F00041F681410025271804F12C0BC0F2200184
:102100004FF0020A4FF0010904F12808E76044F893
:1021100000C07B6039622046A2602661C4F814E0EA
:10212000226484F81CA084F81E9065777461E563CE
:10213000A5632562A5612946CEF81040C4F8288021
:10214000C4F830B0C4F82CB0FFF73AFF2B4683F345
:1021500011882046BDE8F88FAFF30080AFF3008010
:1021600008B50146202383F311880620FFF700FFFE
:10217000002383F3118808BDAFF30080AFF3008024
:1021800038B541F27823C2F20003DC69254655F8E0
:10219000283F6062AB4207D01A681846A262FFF778
:1021A000B7FEA36AAB42F7D1637F9B0704D12269D4
:1021B00063691A61226953610E20BDE83840FFF758
:1021C000BFBE00BFAFF30080AFF30080AFF300806D
:1021D000202383F31188FFF7D3BF00BFAFF3008044
:1021E0000023406000608360704700BFAFF3008051
:1021F00008B5826B037F1143082B81630BD0092B39
:1022000000D008BD436A19408B42FAD1FFF780FE27
:102210000023436208BD436A1942F7D108BD00BFDD
:1022200070B504680546A0420E4607D0A1686068F4
:102230003143FFF7DDFF2468A542F7D170BD00BF31
:1022400010B4024679B141F27823C2F20003DB698F
:102250000D205A62546883E81400536023605DF8CF
:10226000044BFFF785BE4FF0FF305DF8044B70471D
:1022700010B40A440024846002614060006041613F
:102280008161C160C3615DF8044B7047AFF30080AA
:1022900003464269806910B582429C6818D0501C80
:1022A000013458619C6011701A695969186891422B
:1022B00024BFDA685A61984208D002681A605360F5
:1022C000FFF726FE00234362184610BD002010BD14
:1022D000002CE4D06FF0030010BD00BFAFF300800E
:1022E00070B5202304460E4683F31188C3692BB1D1
:1022F000984703E0FFF7A4FF002815DBA5682046F8
:102300003146002DF6D0A2692169531C8B42A3618E
:1023100005F1FF3528BFE368A560107828BFA361E9
:10232000002383F3118870BD2B4683F3118870BDA1
:102330002DE9F0471E460446D0F81C80202383F385
:1023400011884FF0000901EB020A4F1CB8F1000F91
:1023500005D02046C04702E0FFF772FFF0B9A5683C
:1023600020463146002DF7D0A369013D5A1CA261D9
:10237000A5601B7807F8013C2369A2699A4224BF33
:10238000E368A361002383F31188574509F101092C
:1023900007D0202383F311880137D7E72B4683F337
:1023A00011884846BDE8F087AFF30080AFF30080A6
:1023B00010B48C18046140600060826041618161EA
:1023C000C160C3615DF8044B704700BFAFF300808C
:1023D000F8B504460F461646202383F3118803E020
:1023E000FFF72EFF002819DBA56820463146002D97
:1023F000F6D06369013D5A1C6261A5601F702369B4
:1024000062699A4224BFE3686361E3690BB12046C5
:102410009847002383F311880020F8BD2B4683F3EF
:102420001188F8BDAFF30080AFF30080AFF30080F8
:102430008269416938B591420346806815D01C69AC
:10244000511C0130A142986099611578186824BF29
:10245000DA689A61984206D002681A605360FFF702
:1024600057FD00234362284638BD0028E7D06FF0AF
:10247000020038BDAFF30080AFF30080AFF30080FF
:102480002DE9F84F9A4604460E461746D0F81C90A0
:10249000202383F311884FF00008A56806F1010B93
:1024A00020466B1EDDB16269A360531C6361337803
:1024B0001370236962699A4224BFE3686361B9F1CA
:1024C000000F00D0C847002383F31188013F08F1B3
:1024D00001080DD0202383F311885E46DDE72046F6
:1024E0005146FFF7ADFE0028D7D02B4683F3118865
:1024F0004046BDE8F88F00BFAFF30080AFF3008027
:1025000046F200010848C2F2000141F2982241F26D
:102510009C2321F00701C2F2000220F00700C2F262
:102520000003116018607047FF140020AFF30080B3
:10253000202383F3118841F29C2341F29822C2F2B6
:102540000003C2F2000219681268073020F0070089
:10255000521A90429BBF4018186000200846002382
:1025600083F31188704700BFAFF30080AFF30080A2
:1025700041F2A023C2F2000342F231520021C0F224
:10258000200203F110001A609960D960FFF728BE9D
:1025900008B500F0C5F844F61000C0F2210000F0C4
:1025A000E7F900F055F8BDE8084000F099BB00BF1E
:1025B000806BD0F1010038BF00207047AFF300807E
:1025C0008069D0F1010038BF00207047AFF3008070
:1025D0000246202383F31188002180680B46916016
:1025E00083F31188704700BFAFF30080AFF3008022
:1025F0001030FFF79DBE00BFAFF30080AFF3008047
:1026000010304FF0FF33FFF793BE00BFAFF30080F1
:102610003030FFF735BF00BFAFF30080AFF300806D
:1026200030304FF0FF33FFF72BBF00BFAFF3008018
:102630001030FFF755BE00BFAFF30080AFF300804E
:102640003030FFF7C5BE00BFAFF30080AFF30080AE
:1026500000F096BAAFF30080AFF30080AFF30080D4
:102660002DE9F04144F2D075C0F22105044600275F
:1026700040F8045B01260B461546606004F15001EA
:1026800004F11000A76026731022FFF7F1FD2B461E
:1026900004F1300004F160011022BDE8F041FFF7C1
:1026A00087BE00BFAFF30080AFF30080AFF30080C0
:1026B00010B52023044683F3118800F099FA022311
:1026C0002373002383F3118810BD00BFAFF3008094
:1026D00038B5836904460D463BB1294604F1100024
:1026E000FFF7D6FD00280FDB38BD8268194642F09F
:1026F000040282600430FFF793FD294604F11000C4
:10270000FFF7C6FD0028EFDAA368201D43F0800321
:10271000A3600021BDE83840FFF782BDAFF3008021
:1027200008B500F025F80B200821FFF7D9FA40F68C
:102730000003C2F20003186844F6D353C1F26203E7
:10274000A3FB00204EF210038009CEF200030138F3
:1027500000210722586099601A6008BDAFF300801D
:1027600000F0A6B8AFF30080AFF30080AFF30080B5
:102770004FF48062C4F20E02136B03F00303022BCA
:1027800052D0032B49D0012B29D041F21043C4F27F
:102790000E035B6913F0800F40F60003C2F20003E2
:1027A00014BF4FF400404FF4FA4018604FF48062B9
:1027B000C4F20E02116BC1F30211072917BF126B8D
:1027C0004AF6AB22C2F30212D04001BFCAF6AA22D7
:1027D000A2FB001252081A6018BF18607047106AF6
:1027E00040F6000310F080704FD14FF41061C2F238
:1027F0000003C0F23D011960126AC2F30112022AFD
:1028000050D0032A36D0012A02BF4FF49050C0F2B4
:102810007A001860CAD00846C8E740F60003C2F242
:10282000000300201860C1E7136ADB0124D440F6DE
:1028300000034FF41060C2F20003C0F23D001860C4
:10284000116AC1F30111012927D04FF4D852C0F207
:10285000B70202290CBF114601464FF48062C4F250
:102860000E02906A926AC0F30A4000FB0111D2B2D4
:10287000B1FBF2F0186099E74FF4D85140F600032D
:10288000C0F2B701C2F20003E7E74FF4D850C2F23A
:102890000003C0F2B700186088E74FF49051C0F20F
:1028A0007A01DAE74FF4D850C0F2B70018607DE73C
:1028B0004FF420624FF480634FF4864040F60901E4
:1028C00030B4C4F20E03C4F20E024FF40074C5F229
:1028D0004D00C0F237111460C3F8E4001A461962C3
:1028E000936E9B03FCD54FF48061C4F20E018A6E97
:1028F0004FF48063D507C4F20E03F8D548F20162A5
:10290000C2F20F029A6219468A6E4FF480639407EE
:10291000C4F20E03F8D51A6B194622F0700242F089
:1029200020021A638A6E4FF480631007C4F20E030C
:10293000F8D522221A6319468A6E4FF48063120773
:10294000C4F20E03F8D544F2013141F250420025A1
:102950004FF4E054C5F24D01C4F20E024FF40040B2
:102960001D601C61C3F8E41030BC5060704700BFAC
:102970004FF480634FF4864144F2013270B4C4F2E4
:102980000E03C5F24D010124C5F24D02C3F8E41057
:102990001C61C3F8E42081684FF460624FF0FF339C
:1029A000C4F20E02CC435166146613600168002421
:1029B000916345684FF48051EE431561566153624F
:1029C0005364536514675467C2F8A0304269C4F277
:1029D0000E01D5434A660D660B60C5684FF49052F0
:1029E0008D630569C4F20E02EE430D614E614B62C8
:1029F0004B644B650C674C67C1F8A030016ACD434E
:102A000051661566136081699163C169C84311619C
:102A1000506153625364536514675467C2F8A03021
:102A200070BC7047AFF30080AFF30080AFF300805D
:102A300002F01F02072A08D8DFE802F010080D1084
:102A4000070D090441660161016570470163016674
:102A500001614165704701664161704741664161AE
:102A6000704700BFAFF30080AFF30080AFF300808A
:102A70004FF4C063C4F20E0302229A60704700BF95
:102A80004FF40063C4F20E0302229A60704700BF45
:102A900070B5056F06466C69E20726D42B699B0763
:102AA00001D5A0072CD414F0E0041DD0A4B214F07A
:102AB000200F14BF80220022210648BF42F02002CE
:102AC000630648BF42F04002202383F31188B368B5
:102AD000301D1A43B2600021FFF7A2FB002383F3ED
:102AE00011884FF480732B6070BD202383F311880D
:102AF000A969C9B2FFF7ECFD002383F31188CDE784
:102B0000202383F3118806F13000FFF791FC0028A1
:102B1000A8BFE86103DB002383F31188C3E7B36830
:102B2000301D43F00803B3600021FFF779FB022357
:102B3000EB60F0E7AFF30080AFF30080AFF300800D
:102B400008B541F2C020C2F20000FFF7A1FFBDE8C6
:102B50000840FFF73DB800BFAFF30080AFF300803F
:102B600008B541F23430C2F20000FFF791FFBDE832
:102B70000840FFF72DB800BFAFF30080AFF300802F
:102B800038B541F2C025C2F2000542F6712228464E
:102B9000C0F220020021FFF763FD41F234344FF40C
:102BA000C0604FF46063C4F20E034FF4C061C4F21E
:102BB0000E00C2F2000442F681222867C0F2200211
:102BC0005960204619660021FFF74AFD4FF4006165
:102BD0004FF48053C4F20E030C22C4F20E0121679D
:102BE0005A601A6638BD00BFAFF30080AFF30080B3
:102BF00044F60003027BC0F2210370B5002914BF24
:102C00000D461D46012A044619D0246FFFF7B0FD7A
:102C100040F600032A68C2F200031B6868681201CC
:102C2000B3FBF2F24FF0FF364FF486755021E323E9
:102C3000E6602560226260602160A36070BD41F2A1
:102C4000C023C2F2000398421DD041F23433C2F2D5
:102C500000039842D9D14FF480634FF4864144F287
:102C60000132C4F20E03C5F24D014FF40076C5F2F5
:102C70004D02C3F8E41009201E61C021C3F8E4200E
:102C8000FFF706F8C1E74FF486410A444FF480632A
:102C9000C4F20E03C5F24D014FF48076C5F24D0229
:102CA000C3F8E41008201E61C021C3F8E420FEF739
:102CB000EFFFAAE7AFF30080AFF30080AFF300802F
:102CC00041F25043C4F20E034FF400425A60FFF742
:102CD00047BD00BFAFF30080AFF30080AFF30080CB
:102CE00010B54FF46064C4F20E044FF40001216388
:102CF00020460622FFF79CFE4FF48050C4F20E00DF
:102D00004FF4006101630622FFF792FE4FF000715D
:102D1000216320460622FFF78BFE012161632046D6
:102D20000622FFF785FE20464FF4C0310322BDE89E
:102D30001040FFF77DBE00BFAFF30080AFF300800F
:102D4000162303604FF0FF30704700BFAFF30080E1
:102D500000207047AFF30080AFF30080AFF3008036
:102D600018467047AFF30080AFF30080AFF30080E8
:102D700000207047AFF30080AFF30080AFF3008016
:102D800010B504460846FFF7D3FB00B110BD0C2375
:102D900023604FF0FF3010BDAFF30080AFF3008031
:102DA00010B51046144600213C220CF011FD4FF4E2
:102DB00000536360002010BDAFF30080AFF30080CC
:102DC00001207047AFF30080AFF30080AFF30080C5
:102DD00000207047AFF30080AFF30080AFF30080B6
:102DE000FEE700BFAFF30080AFF30080AFF30080D9
:102DF0004FF0FF30704700BFAFF30080AFF30080AB
:102E000070B44FF480634FF4864144F20132C4F24F
:102E10000E034FF0005601250024C5F24D01C5F206
:102E20004D02C3F8E4101E61C3F8E420056044605D
:102E300070BC7047AFF30080AFF30080AFF3008049
:102E40004368090401F47021120292B20B43134348
:102E500043607047AFF30080AFF30080AFF30080B2
:102E60004368436843689A0604D5436843685B0631
:102E700048BF4368704700BFAFF30080AFF30080E6
:102E80000346D0F8040110B410B9D3F8140170B19E
:102E9000D3F8140138B9C3F810110120C3F8142174
:102EA0005DF8044B704700205DF8044B7047012427
:102EB000C3F800112046C3F80421C3F820415DF88F
:102EC000044B7047AFF30080AFF30080AFF3008096
:102ED000F0B544F290748DB0C0F2210401AF054604
:102EE0000E460FCC0FC70FCC0FC794E80700B542B2
:102EF00087E8070024D2019A0023B6FBF2F2B2FB66
:102F0000F5F2FF2A18D90133DBB20CA901EB8302D9
:102F100052F82C2CB6FBF2F2B2FBF5F2FF2A94BF6A
:102F2000002401240A2B88BF0024002CEBD10A2B9B
:102F300088BF204602D81B021A4390B20DB0F0BDE4
:102F400044F6600044F6400244F67803C0F22100E3
:102F5000C0F22102C0F221036A210CF029F900BF5E
:102F60004FF480634FF4864144F20132C4F20E0301
:102F7000C5F24D014FF00040C5F24D02C3F8E41018
:102F80001861C3F8E4207047AFF30080AFF300800E
:102F90000B2970B51BD832F4807436D133F4007429
:102FA00024D1012585400026C4F20206F46825429A
:102FB00018BFB56002D0F4682542FCD11A43103026
:102FC000002411434001C4F20204215070BD44F6B4
:102FD000600044F6401244F68803C0F22100C0F2BB
:102FE0002102C0F22103A1210CF0E2F844F66000B6
:102FF00044F6401244F6D403C0F22100C0F221028C
:10300000C0F22103A3210CF0D3F844F6600044F68B
:10301000401244F6A803C0F22100C0F22102C0F21F
:103020002103A2210CF0C4F8AFF30080AFF30080BD
:1030300070B50D461646044628B9CDB90023C4F232
:1030400002031C6070BD1146FFF742FF04460028D2
:10305000F3D144F6600044F6601244F60013C0F267
:103060002100C0F22102C0F22103C1210CF0A0F81E
:1030700028463146FFF72CFF44EA00440028DDD102
:1030800044F6600044F6601244F60013C0F22100DA
:10309000C0F22102C0F22103C9210CF089F800BF5F
:1030A000012282400023C4F20203DB6840011A427D
:1030B0001DBF00F1804303F50033D3F8002200F177
:1030C00080400FBF00F50030184642F48062C3F81C
:1030D00000220CBFC0F80812C0F81012704700BFE1
:1030E00038B5440104F1804303F50033D3F80852A6
:1030F0000022A942C4F2020219D801258540D268F3
:1031000015420CD004F1804404F50034D4F80022B8
:1031100022F48062C4F80022C3F8101238BD4FF4C4
:1031200000734001C4F202030344596038BD44F601
:10313000600044F6801244F60C13C0F22100C0F285
:103140002102C0F22103F6210CF032F8AFF3008027
:10315000012303FA00F00023C4F202035860704711
:103160001F2808B50CD8012303FA00F04FF4806340
:10317000C4F20E039A690240904218BF186108BD5C
:1031800044F6C01044F6A01244F6D813C0F2210051
:10319000C0F22102C0F221033E210CF009F800BF69
:1031A00070B50D4600F10C0431B314F8033C062B46
:1031B00000F29D80DFE803F0705A88422204040088
:1031C00014F8020C54F8082C54F80C1C00F00406F7
:1031D000F6B2C00751644CBF51661166002E40F034
:1031E00084805165062B0CBF11635163013D116151
:1031F00004F10C041160D8D1012070BD14F8040C46
:10320000FFF7AEFF14F8021C54F8083C54F80C2CDD
:10321000CE075A644CBF5A661A6611F00A0F14BFE3
:103220001A625A62880748BFC3F8802003D40E0789
:1032300048BFC3F884205A611A6011E014F8021CD8
:1032400054F8083C54F80C2CC9075A644CBF5A6611
:103250001A66196F11431967596F114359675A60FC
:10326000013D04F10C04A0D1012070BD14F8021C32
:1032700054F8083C54F80C2CCE075A644CBF5A66DC
:103280001A66196F11431967596F586F014021EA87
:10329000020159675A60E3E714F8021C54F8083C2D
:1032A00054F80C2CC9075A644CBF5A661A66186F3A
:1032B0001E6FD143304008401867586F5E6F304032
:1032C000014059675A60CBE714F8021C54F8083CD7
:1032D00054F80C2CC8075A644CBF5A661A66196F0A
:1032E000186F014021EA0201B5E711657AE7002075
:1032F00070BD00BFAFF30080AFF30080AFF300807C
:103300004FF480634FF4864144F20132C4F20E035D
:10331000C5F24D014FF40020C5F24D02C3F8E41090
:103320001861C3F8E4207047AFF30080AFF300806A
:1033300070B510B34900102480230460B2FBF1F291
:103340000360036B043A002322FA03F120260825C8
:103350000424FF2906600560046004D9013322FAC1
:1033600003F1FF29FAD8072B16D80A0242EA0343D1
:10337000194300230361016170BD44F6402044F607
:10338000202244F65823C0F22100C0F22102C0F2EC
:10339000210375210BF00CFF44F6402044F6202257
:1033A00044F66023C0F22100C0F22102C0F22103E2
:1033B00093210BF0FDFE00BFAFF30080AFF3008060
:1033C00008B510B10223036008BD44F6402044F65E
:1033D000403244F69C23C0F22100C0F22102C0F228
:1033E0002103BF210BF0E4FEAFF30080AFF30080B8
:1033F00038B590B10C063DD412F07F442BD1032B8D
:103400001AD81B0243F4805343EA0141012544606A
:103410004160C460C260056038BD44F6402044F697
:10342000503244F69C23C0F22100C0F22102C0F2C7
:103430002103D2210BF0BCFE44F6402044F650326A
:1034400044F6E023C0F22100C0F22102C0F22103C1
:10345000D5210BF0ADFE44F6402044F6503244F640
:10346000C023C0F22100C0F22102C0F22103D42106
:103470000BF09EFE44F6402044F6503244F6A8235A
:10348000C0F22100C0F22102C0F22103D3210BF0CF
:103490008FFE00BFAFF30080AFF30080AFF300807A
:1034A00008B508B1416308BD44F6402044F6F01267
:1034B00044F69C23C0F22100C0F22102C0F2210395
:1034C000F9210BF075FE00BFAFF30080AFF3008071
:1034D00010B570B10C063CD412F07F4429D1032BF7
:1034E00017D81B0243EA014144604160C460C260D6
:1034F00010BD44F6402044F6002244F69C23C0F25E
:103500002100C0F22102C0F2210340F20D110BF0A4
:103510004FFE44F6402044F6002244F6E023C0F279
:103520002100C0F22102C0F221034FF488710BF098
:103530003FFE44F6402044F6002244F6C023C0F289
:103540002100C0F22102C0F2210340F20F110BF062
:103550002FFE44F6402044F6002244F6A823C0F291
:103560002100C0F22102C0F221034FF487710BF059
:103570001FFE00BFAFF30080AFF30080AFF3008009
:10358000006A00F001007047AFF30080AFF30080E5
:10359000006AC0F3C0307047AFF30080AFF3008023
:1035A000006AC0F380307047AFF30080AFF3008053
:1035B00008B530B121F4776323F007038BB941627A
:1035C00008BD44F6402044F6103244F69C23C0F275
:1035D0002100C0F22102C0F221034FF4AD710BF0C3
:1035E000E7FD44F6402044F6103244F6EC23C0F2E6
:1035F0002100C0F22102C0F2210340F25B110BF066
:10360000D7FD00BFAFF30080AFF30080AFF30080C1
:1036100008B520B1036843F00203036008BD44F617
:10362000402044F6203244F69C23C0F22100C0F230
:103630002102C0F2210340F295110BF0B9FD00BF49
:103640000346D0F80C0110B410B9D3F81C0170B1C6
:10365000D3F81C0138B9C3F818110120C3F81C2194
:103660005DF8044B704700205DF8044B70474FF441
:103670008074C3F808110120C3F80C21C3F820415D
:103680005DF8044B704700BFAFF30080AFF30080DC
:103690000346D0F8040110B410B9D3F8140170B186
:1036A000D3F8140138B9C3F810110120C3F814215C
:1036B0005DF8044B704700205DF8044B704701240F
:1036C000C3F800112046C3F80421C3F820415DF877
:1036D000044B7047AFF30080AFF30080AFF300807E
:1036E00008B538B102224FF40073C0F82021C0F8A9
:1036F000203108BD44F6402044F6102244F69C23B5
:10370000C0F22100C0F22102C0F221034FF4F37194
:103710000BF04EFDAFF30080AFF30080AFF30080FD
:10372000002380E80A007047AFF30080AFF3008009
:103730002DE9F0410E4682B0054604684168300626
:103740000A9F00F1838012F07F4F70D1032B5FD866
:10375000012011B102B0BDE8F081099901294BD0D7
:10376000D7B16F60089D4FF00008BD60099DFF2133
:103770003970FD60C7F81080204602210192009345
:10378000FFF716FF20463146019A009BFFF730FEF7
:10379000404602B0BDE8F0813146099E2046751EC4
:1037A000FFF726FE2A4620460899FFF771FF2046BC
:1037B000FFF7F6FE0028FAD02046FFF791FF2046DB
:1037C000FFF7FEFD0899204629440122FFF760FF1C
:1037D0002046FFF7E5FE0028FAD02046FFF780FFDD
:1037E0004CF2503501E0013D10D02046FFF7C8FEF5
:1037F0000028F8D00020ADE7204601920093FFF7A3
:10380000DFFD009B019A002FABD1C5E72846A1E759
:1038100044F6803044F6603244F6E023C0F22100E2
:10382000C0F22102C0F22103BF210BF0C1FC44F61B
:10383000803044F6603244F6C023C0F22100C0F26A
:103840002102C0F22103BE210BF0B2FC44F680300D
:1038500044F6603244F6A823C0F22100C0F22102EF
:10386000C0F22103BD210BF0A3FC00BFAFF3008029
:10387000F8B590E8600011F0800F0446089F52D11F
:1038800012F07F4F3FD1032B5DD80EB10120F8BD60
:10389000D7B16760069C4FF0FF0CBC60079C4FF0EF
:1038A000010E87F800C0C7F810E02846FC60FFF75B
:1038B0000FFE069B28461978FFF7F2FD28460421E3
:1038C000FFF776FE3046F8BD2846FFF701FE284692
:1038D0000699079AFFF7B4FE2846FFF759FE00281D
:1038E000FAD02846FFF7FCFE2846FFF791FE4CF27F
:1038F000503401E0013C04D02846FFF741FE002887
:10390000F8D00020F8BD44F6803044F6703244F61A
:10391000C023C0F22100C0F22102C0F2210340F214
:103920001F110BF045FC44F6803044F6703244F62B
:10393000A823C0F22100C0F22102C0F221034FF4FB
:103940008F710BF035FC44F6803044F6703244F64B
:10395000E023C0F22100C0F22102C0F221034FF4A3
:1039600090710BF025FC00BFAFF30080AFF3008037
:10397000027B012302F0DF0263F3020270B5002331
:10398000044602F0E7028068FF2697254FF6FF7194
:1039900063F38612A674E574A18322732382A3774E
:1039A000E37708B104F09CFE04F08AFE44F6A031EF
:1039B00044F6A83244F6AC33C0F22101C0F2210231
:1039C000C0F22103A06021636263A36370BD00BFE6
:1039D00038B5054608460C460BF0AAFF2146C2B290
:1039E000E86ABDE8384005F02BBE00BFAFF30080A9
:1039F00038B50D4604461146284605F081FB6B6834
:103A000025601A680020A2625B6844F6B031A0808D
:103A1000E3622046C0F22101FFF7DAFF2046BDE84D
:103A20003840FFF7A5BF00BFAFF30080AFF30080C1
:103A30002DE9F04F037B012243F04003002762F39E
:103A4000C40389B004460373B846B9463E463D46B2
:103A50004FF0020A07E00A2005F0CAFE237BC3F3F9
:103A6000C103022B32D0A06A05F0FAFD0028F2D083
:103A7000A06A05F0DDFD03460146A06A8DF8073017
:103A800005F0E6FD237B5A062BD59DF80750A5F1DE
:103A90008303042B31D8DFE803F01C1C1C0B03004C
:103AA000237B01266FF386132373C3F3C103D8E787
:103AB00044F6C031C0F221012046FFF789FF237B85
:103AC000022243F0200362F3C403237309B0BDE86C
:103AD000F08F237B02266FF386132373C3F3C10396
:103AE000BFE7A5F18302042A07D8DFE802F04B44C0
:103AF0000E060300012E00F09180237B022262F368
:103B0000C403237309B0BDE8F08F022E62D0012EEA
:103B100000F08980002F65D04F4609F101091FFA96
:103B200089F90DF1080B9DF80710A06AC943C9B2C5
:103B300005F08EFD44F60C413A469DF80730C0F280
:103B4000210158460BF0CCFE20465946FFF740FFB6
:103B5000206A218A9DF8072004F0FAFC08F1FF385A
:103B60001FFA88F82082B8F1000F64D0237B012768
:103B7000C3F3C10375E7022E2CD0012E6BD0C3F323
:103B8000C1036EE7022E1DD09DF80720237B49EA72
:103B900002096AF3C4030DF1080B44F6D83123730C
:103BA0004A46C0F22101A4F8049058460BF098FE52
:103BB00020465946FFF70CFF237B013EF6B2C3F3C4
:103BC000C1034EE79DF80790C3F3C1034FEA0929EB
:103BD000012646E79DF80780C3F3C1034FEA082892
:103BE00001263EE70DF1080B44F6F0314246C0F2E3
:103BF000210158460BF074FE20465946FFF7E8FEB7
:103C0000236841461868484404F062FC206200289A
:103C10003FF473AF27824FF0010984E7A06A372190
:103C200005F016FD69E79DF80720C3F3C10348EAD4
:103C30000208002615E7A4F81080206A04F060FC52
:103C4000206A04F075FC237B022262F3C403C4F8EB
:103C5000208023733AE723689DF80720186848EA14
:103C60000208484404F014FC206200283FF445AFE9
:103C700000212182B8F1000F02D13EE7206A218A9B
:103C80000DF1070204F06CFC08F1FF389DF80710F5
:103C90002082A06A05F0DCFC1FFA88F8E06A9DF833
:103CA000071005F0D5FCB8F1000FE7D125E700BFFC
:103CB00010B50446A17F806804F0AAFDA068E17FEA
:103CC000BDE8104004F0A4BDAFF30080AFF3008066
:103CD00010B5044604F11F01806804F0A9FDA06836
:103CE00004F11E01BDE8104004F0A2BDAFF3008056
:103CF00070B5837C82B0262B044600F0FA8016D87B
:103D0000232B00F0AB8030D8082B00F08380132BDE
:103D100040F000810DF10301806804F089FD0DF190
:103D20000301A06A012205F08BFC01203CE0762B08
:103D300000F0C48040F2A380812B4AD0A32B40F036
:103D4000E9800DF10301806804F072FDA06804F0C1
:103D500057FD216B05469DF803200BF0C1FD294658
:103D6000A06804F05DFF01201EE0242B1ED0252B4F
:103D700040F0D08001A9806804F08AFD0DF10601B1
:103D8000A06804F085FD0DF10301A06804F050FD6A
:103D9000BDF80610BDF80430A068194409B29DF8BA
:103DA000032004F05DFD012002B070BD01A9806810
:103DB00004F06EFDA068BDF904100DF1030204F0DB
:103DC00047FDA0689DF8031004F022FD012002B019
:103DD00070BD0DF10601806804F0BAFD01A9A0686C
:103DE00004F056FDA0680DF1020104F021FDA37F4F
:103DF000E27F1A40934200F010829DF80230002BBF
:103E000040F0D781A37FE17F5A0821EA0303E377DB
:103E1000A277DBE70DF10301806804F009FDA38AB6
:103E2000A068A3F1090109B2083B0DF10602ADF843
:103E3000043004F00DFD9DF806301BB10133DBB2F8
:103E40008DF80630BDF80410A0680139C91A09B20E
:103E50009DF8032004F004FD0120A5E701A9806876
:103E600004F016FD0DF10301A06804F0E1FCA06868
:103E7000BDF904109DF8032004F0F2FCA6E7733BA3
:103E8000012B47D80DF10601806804F0D1FC01A98F
:103E9000A06804F0CDFC9DF90630002BB5BF9DF85D
:103EA00004109DF804205B4202FA03F1B6BF1941E9
:103EB000A068A068C9B204F0ABFC87E70DF103016C
:103EC000806804F0B5FC01A9A06804F0B1FC0DF114
:103ED0000601A06804F0DCFCBDF90610A06804F03F
:103EE00087FC9DF803200146A06A05F0A9FB01208C
:103EF0005AE701A9806804F0CBFC0DF10601A06827
:103F000004F0C6FCBDF80610BDF80430A0681944E2
:103F100009B252E7A0680DF1030104F089FCA37C0B
:103F2000862B00F06A81872B7CD0722B00F06C818D
:103F3000A06801A904F07CFCA37C173B6E2B00F267
:103F40003681DFE813F029011E0112010701F90093
:103F5000ED00E000D30034013401340134013401B8
:103F600034013401340134013401340134013401A9
:103F70003401340134013401340134013401340199
:103F80003401340134013401340134013401340189
:103F90003401340134013401340134013401340179
:103FA0003401340134013401340134013401340169
:103FB0003401340134013401340134013401340159
:103FC0003401340134013401340134013401340149
:103FD0003401340134013401340134013401C600A8
:103FE000B900AD003401340134013401340134012D
:103FF000340134013401A30099008F0034013401ED
:104000003401340134013401340134013401340108
:1040100034013401340134013401340134013401F8
:10402000840078009DF80310A0684942C9B204F0EA
:10403000EFFB0120B8E69DF803109DF80430A0685E
:10404000994238BF194604F0E3FB0120ACE69DF825
:1040500003109DF80430A068994228BF194604F067
:10406000D7FBB3E69DF803109DF80430A0685940D3
:1040700004F0CEFB012097E69DF803109DF8043074
:10408000A068194304F0C4FB01208DE69DF80310DD
:104090009DF80430A068194004F0BAFB012083E6C3
:1040A0009DF804109DF80330A068C91A18BF0121BB
:1040B00004F0AEFB012077E69DF804109DF8033074
:1040C000A068994234BF0021012104F0A1FB012026
:1040D0006AE69DF804109DF80330A06899428CBFF1
:1040E0000021012104F094FB01205DE69DF80410FD
:1040F0009DF80330A06899422CBF0021012104F0F3
:1041000087FB012050E69DF804109DF80330A0685D
:10411000994294BF0021012104F07AFB012043E67B
:104120009DF804109DF80330A068CC1A61426141EB
:1041300004F06EFB012037E69DF804209DF8033063
:10414000A068B2FBF3F103FB1121C9B204F060FBDC
:10415000012029E69DF804109DF80330A068B1FB0A
:10416000F3F104F055FB01201EE69DF803109DF8C5
:104170000430A06801FB03F1C9B204F049FB01203F
:1041800012E69DF804109DF80330A068C91AC9B260
:1041900004F03EFB012007E69DF803109DF8043073
:1041A000A0681944C9B204F033FB0120FCE50020EB
:1041B000FAE5A568BDF80460284604F011FB421E2C
:1041C00031B212B2284604F0A3FB9DF80230BDF8CC
:1041D0000620013BDBB219462282A0688DF802302E
:1041E00004F016FBBDF90410A06804F041FBA068C0
:1041F000BDF8061004F09CFBE8E5A0689DF80310EC
:1042000004F006FB0120CFE59DF80310A068C94328
:10421000C9B204F0FDFA0120C6E5A0680DF1030162
:1042200004F006FBE9E500BFAFF30080AFF30080C8
:1042300070B5837C82B0262B044600F0FE8016D831
:10424000232B00F0AC8030D8082B00F08480132B97
:1042500040F004810DF10301806804F0E9FA0DF1EA
:104260000301A06A012205F0EBF901203CE0762B66
:1042700000F0C88040F2A580812B4AD0A32B40F0EB
:10428000ED800DF10301806804F0D2FAA06804F01B
:10429000B7FA616B05469DF903200BF021FB294617
:1042A000A06804F0BDFC01201EE0242B1ED0252BAD
:1042B00040F0D48001A9806804F0EAFA0DF106010B
:1042C000A06804F0E5FA0DF10301A06804F0B0FA6B
:1042D000BDF80610BDF80430A068194409B29DF875
:1042E000032004F0BDFA012002B070BD01A980686E
:1042F00004F0CEFAA068BDF904100DF1030204F039
:10430000A7FAA0689DF8031004F082FA012002B019
:1043100070BD0DF10601806804F01AFB01A9A068C8
:1043200004F0B6FAA0680DF1020104F081FAA37F4F
:10433000E27F1A40934200F01C829DF80230002B6D
:1043400040F0DF81A37FE17F5A0821EA0303E3778E
:10435000A2770120C8E70DF10301806804F068FA34
:10436000A38AA068A3F1090109B2083B0DF1060276
:10437000ADF8043004F06CFA9DF806301BB101333F
:10438000DBB28DF80630BDF80410A0680139C91AF7
:1043900009B29DF8032004F063FA0120A4E701A903
:1043A000806804F075FA0DF10301A06804F040FA8A
:1043B000A068BDF904109DF8032004F051FA012013
:1043C00092E7733B012B49D80DF10301806804F09B
:1043D0002FFA0DF10601A06804F02AFA9DF90330C6
:1043E000002BB5BF9DF906109DF906205B4202FA2D
:1043F00003F1B6BF1941A068A068C9B204F008FA79
:10440000012071E70DF10301806804F011FA01A9A0
:10441000A06804F00DFA0DF10601A06804F038FA66
:10442000BDF90610A06804F0E3F99DF803200146E9
:10443000A06A05F005F9012056E701A9806804F09B
:1044400027FA0DF10601A06804F022FABDF8061063
:10445000BDF80430A068194409B24EE7A0680DF118
:10446000030104F0E5F9A37C862B00F06E81872B15
:104470007DD0722B00F07481A0680DF1060104F06C
:10448000D7F9A37C173B6E2B00F23981DFE813F0DC
:104490002C01210115010901FB00EF00E200D5000C
:1044A000370137013701370137013701370137014C
:1044B000370137013701370137013701370137013C
:1044C000370137013701370137013701370137012C
:1044D000370137013701370137013701370137011C
:1044E000370137013701370137013701370137010C
:1044F00037013701370137013701370137013701FC
:1045000037013701370137013701370137013701EB
:1045100037013701370137013701370137013701DB
:104520003701370137013701C800BB00AF00370141
:1045300037013701370137013701370137013701BB
:10454000A5009B0091003701370137013701370182
:10455000370137013701370137013701370137019B
:1045600037013701370137013701840078009DF8A2
:104570000310A0684942C9B204F04AF90120B3E629
:104580009DF903109DF90630A0689942B8BF1946FD
:10459000C9B204F03DF9DCE69DF903109DF906303F
:1045A000A0689942A8BF1946C9B204F031F90120A8
:1045B0009AE69DF803109DF80630A068594004F073
:1045C00027F9012090E69DF803109DF80630A068B9
:1045D000194304F01DF9012086E69DF803109DF8AB
:1045E0000630A068194004F013F901207CE69DF91B
:1045F00006109DF90330A068C91A18BF012104F004
:1046000007F9012070E69DF906109DF90330A068B6
:104610009942B4BF0021012104F0FAF8012063E6B9
:104620009DF906109DF90330A0689942CCBF002186
:10463000012104F0EDF8012056E69DF906109DF9E0
:104640000330A0689942ACBF0021012104F0E0F8DA
:10465000012049E69DF906109DF90330A0689942B2
:10466000D4BF0021012104F0D3F801203CE69DF9DC
:1046700006109DF90330A068CD1A6942694104F023
:10468000C7F8012030E69DF906209DF90330A068A7
:1046900092FBF3F103FB1121C9B204F0B9F8012038
:1046A00022E69DF906109DF90330A06891FBF3F115
:1046B000C9B204F0ADF8012016E69DF803109DF88C
:1046C0000630A06801FB03F1C9B204F0A1F8012093
:1046D0000AE69DF806109DF80330A068C91AC9B211
:1046E00004F096F80120FFE59DF803109DF80630D0
:1046F000A0681944C9B204F08BF80120F4E5002049
:10470000F2E5A568BDF80460284604F069F8421E89
:1047100031B212B2284604F0FBF89DF80230BDF821
:104720000620013BDBB219462282A0688DF80230D8
:1047300004F06EF8BDF90410A06804F099F8A068C0
:10474000BDF8061004F0F4F803E69DF90310A06824
:104750000029B8BF4942C9B204F05AF80120C3E5A4
:104760009DF80310A068C943C9B204F051F80120B4
:10477000BAE5A0680DF1030104F05AF8DDE500BFC9
:1047800070B5837C84B0742B044629D8732B80F0D9
:10479000D980232B68D040F29380252B75D0C0F0B0
:1047A0009981262B40F00D8102A9806804F070F8F1
:1047B00003A9A06804F06CF8BDF90C10BDF808302E
:1047C000A06803EB410109B20DF10A0204F0F0F810
:1047D000A068BDF80A1004F0ABF8012004B070BD69
:1047E000A12B00F07F8125D8762B7ED0812B40F045
:1047F000E8800DF10A01806804F0AAF802A9A06817
:1048000004F046F8A0680DF1070104F011F8A37F49
:10481000E27F1A40934200F0C1829DF80730002BDE
:1048200040F08882A37FE17F5A0821EA0303E377FF
:10483000A277D2E7A22B00F08A81A32B40F0C1809F
:104840000DF10A01806804F083F8A06803F0D8FF36
:10485000616B0546BDF80A200BF042F82946A068B6
:1048600004F0DEF90120B9E702A9806804F010F82D
:104870000DF10A01A06804F06BF8A068BDF90810FA
:10488000BDF80A2004F0A4F8A7E702A9806803F0A5
:10489000FFFF03A9A06803F0FBFF0DF10A01A06868
:1048A00004F056F8BDF90C10BDF80830A06803EB11
:1048B000410109B2BDF80A2004F08AF801208DE711
:1048C000082B5BD0132B7CD10DF10A01806804F01A
:1048D0003FF803A9BDF80A0004F072FC03A9A06A1E
:1048E000022204F0ADFE012078E70DF10601806898
:1048F00003F09EFF0DF10701A06803F099FF03A9E3
:10490000A06803F0C5FFA068BDF90C1003F070FFAC
:104910009DF8063006460025002B3FF45EAF36F8C2
:10492000023B02A91846ADF80A3004F049FCA06A1F
:1049300002A9022204F084FE9DF806300135AB4244
:10494000EDDC4AE70DF10A01806803F071FF03A96D
:10495000A06803F0FDFF9DF90A30002BB5BFBDF83C
:104960000C10BDF80C205B4202FA03F1B6BF1941EE
:10497000A068A06889B203F0DBFF2EE70DF10A0101
:10498000806803F0E5FFA38AA068A3F1090109B2DA
:10499000083B03AAADF8083003F05AFF9DF80C302D
:1049A0001BB10133DBB28DF80C30BDF80820A068D4
:1049B000023AD11A09B2BDF80A2004F009F8012020
:1049C0000CE7A0680DF10A0103F0C2FFA37C862B5F
:1049D00000F0D481872B00F0E480722B00F0D581A9
:1049E000A06803A903F0B4FFA37C173B6E2B00F271
:1049F0009F81DFE813F0920187017B017001620162
:104A0000560149013C019D019D019D019D019D01B2
:104A10009D019D019D019D019D019D019D019D01A6
:104A20009D019D019D019D019D019D019D019D0196
:104A30009D019D019D019D019D019D019D019D0186
:104A40009D019D019D019D019D019D019D019D0176
:104A50009D019D019D019D019D019D019D019D0166
:104A60009D019D019D019D019D019D019D019D0156
:104A70009D019D019D019D019D019D019D019D0146
:104A80009D019D019D019D019D019D019D012F01A4
:104A9000220116019D019D019D019D019D019D0128
:104AA0009D019D019D010C010101F6009D019D01EB
:104AB0009D019D019D019D019D019D019D019D0106
:104AC0009D019D019D019D019D019D019D019D01F6
:104AD000EB00DF0002A9806803F0DAFEA068BDF9F0
:104AE000081071E602A9806803F0D2FE0DF10A01F8
:104AF000A06803F09DFEBDF90810A06803F078FEE1
:104B00009DF80A200646551EADB22BB2591C00F086
:104B10004A8136F8130003A904F052FB013D9DF8C9
:104B20000D10A06803F074FEADB2A0689DF80C10E3
:104B300003F06EFE2BB25A1CEBD19DF80A1049000F
:104B400001F0FE01A06803F063FE012046E602A921
:104B5000806803F09DFE03A9A06803F069FEA068C9
:104B6000BDF9081003F044FE9DF80C200646951E82
:104B7000ADB228B20028C0F21881304404F078FBAE
:104B8000023D0146ADB2A06803F0D2FE28B2002873
:104B9000F3DA9DF80C10A068490803F039FE0120F3
:104BA0001CE6BDF80A10A068494289B203F0C0FEB5
:104BB000012013E6BDF80A10BDF80C30A068994238
:104BC00038BF194603F0B4FE012007E6BDF80A100D
:104BD000BDF80C30A068994228BF194603F0A8FE22
:104BE000FBE5BDF80A10BDF80C30A068594089B249
:104BF00003F09EFE0120F1E5BDF80A10BDF80C306F
:104C0000A068194389B203F093FE0120E6E5BDF8E0
:104C10000C30BDF80A10A068194003F089FE01208D
:104C2000DCE5BDF80C10BDF80A30A068C91A18BF41
:104C3000012103F0EDFD0120D0E5BDF80C10BDF819
:104C40000A30A068994234BF0021012103F0E0FD41
:104C50000120C3E5BDF80C10BDF80A30A0689942E8
:104C60008CBF0021012103F0D3FD0120B6E5BDF882
:104C70000C10BDF80A30A06899422CBF0021012118
:104C800003F0C6FD0120A9E5BDF80C10BDF80A30FF
:104C9000A068994294BF0021012103F0B9FD0120D1
:104CA0009CE5BDF80C10BDF80A30A068CE1A714220
:104CB000714103F0ADFD012090E5BDF80C20BDF879
:104CC0000A30A068B2FBF3F103FB112189B203F0B3
:104CD0002FFE012082E5BDF80C10BDF80A30A06857
:104CE000B1FBF3F103F024FE012077E5BDF80A30B3
:104CF000BDF80C10A06801FB03F189B203F018FEA7
:104D000001206BE5BDF80C10BDF80A30A068C91A87
:104D100089B203F00DFE012060E5BDF80A10BDF870
:104D20000C30A068194489B203F002FE012055E559
:104D3000002053E5A568BDF80860284603F050FD43
:104D4000821E31B212B2284603F0E2FD9DF8073010
:104D5000BDF80A20013BDBB219462282A0688DF81B
:104D6000073003F055FDBDF90810A06803F080FD81
:104D7000A068BDF80A1003F0DBFD2EE5A068BDF8C1
:104D80000A1003F0D5FD012028E5BDF80A10A0683F
:104D9000C94389B203F0CCFD01201FE5A06803A937
:104DA00003F0D6FD39E51146C9E61146F3E600BF2A
:104DB000F0B5837C85B0742B044628D8732B80F023
:104DC000D380232B65D040F28E80252B71D0C0F08C
:104DD0009081262B40F0058101A9806803F058FDE1
:104DE00003A9A06803F054FDBDF90C10BDF8043010
:104DF000A06803EB410109B202AA03F0D9FDA06843
:104E0000BDF8081003F094FD012005B0F0BDA12B02
:104E100000F0778124D8762B79D0812B40F0E18087
:104E200002A9806803F094FD01A9A06803F030FD99
:104E3000A0680DF1030103F0FBFCA37FE27F1A40A1
:104E4000934200F0CB829DF80330002B40F08E821D
:104E5000A37FE17F5A0821EA0303E377A277D3E730
:104E6000A22B00F08D81A32B40F0BB8002A98068AB
:104E700003F06EFDA06803F0C3FC616B0546BDF94D
:104E800008200AF02DFD2946A06803F0C9FE012084
:104E9000BBE701A9806803F0FBFC02A9A06803F04E
:104EA00057FDA068BDF90410BDF8082003F090FD7F
:104EB000AAE701A9806803F0EBFC03A9A06803F04E
:104EC000E7FC02A9A06803F043FDBDF90C10BDF892
:104ED0000430A06803EB410109B2BDF8082003F0DB
:104EE00077FD012091E7082B59D0132B79D102A926
:104EF000806803F02DFD03A9BDF9080004F058F9FE
:104F000003A9A06A022204F09BFB01207DE70DF1BA
:104F10000201806803F08CFC0DF10301A06803F02E
:104F200087FC03A9A06803F0B3FCA068BDF90C10CE
:104F300003F05EFC9DF8023006460025002B3FF48E
:104F400063AF36F8023B01A918B2ADF8083004F09F
:104F50002FF9A06A01A9022204F072FB9DF8023029
:104F60000135AB42EDDC4FE702A9806803F060FC3D
:104F700003A9A06803F0ECFC9DF90830002BB5BF35
:104F8000BDF90C10BDF90C205B4202FA03F1B6BF6B
:104F90001941A068A06889B203F0CAFC34E702A9ED
:104FA000806803F0D5FCA38AA068A3F1090109B2C7
:104FB000083B03AAADF8043003F04AFC9DF80C301E
:104FC0001BB10133DBB28DF80C30BDF80420A068B2
:104FD000023AD11A09B2BDF8082003F0F9FC012009
:104FE00013E7A06802A903F0B3FCA37C862B00F0B2
:104FF000E181872B00F0EE80722B00F0E681A06843
:1050000003A903F0A5FCA37C173B6E2B00F2AC8137
:10501000DFE813F09F01940188017C016E016201B9
:1050200055014801AA01AA01AA01AA01AA01AA01DF
:10503000AA01AA01AA01AA01AA01AA01AA01AA0118
:10504000AA01AA01AA01AA01AA01AA01AA01AA0108
:10505000AA01AA01AA01AA01AA01AA01AA01AA01F8
:10506000AA01AA01AA01AA01AA01AA01AA01AA01E8
:10507000AA01AA01AA01AA01AA01AA01AA01AA01D8
:10508000AA01AA01AA01AA01AA01AA01AA01AA01C8
:10509000AA01AA01AA01AA01AA01AA01AA01AA01B8
:1050A000AA01AA01AA01AA01AA01AA013B012E0193
:1050B0002201AA01AA01AA01AA01AA01AA01AA0120
:1050C000AA01AA0118010D010201AA01AA01AA015F
:1050D000AA01AA01AA01AA01AA01AA01AA01AA0178
:1050E000AA01AA01AA01AA01AA01AA01AA01F6001D
:1050F000E90001A9806803F0CBFBA068BDF90410AA
:105100007AE601A9806803F0C3FBA0680DF10301F2
:1051100003F08EFB9DF803604FF6FF73771EBFB25E
:105120009F4200F0608106F5FF467F367600B6B2FA
:1051300001370025BDF8041003AA314409B2A06864
:1051400003F036FCBDF90C0002A904F031F89DF81B
:105150000910A06803F05CFB0135A0689DF80810F9
:1051600003F056FB023EBD42B6B2E3D19DF80310F8
:10517000490001F0FE01A06803F04AFB012044E66B
:1051800001A9806803F084FB03A9A06803F050FB29
:10519000A068BDF9041003F02BFB9DF80C20064617
:1051A000951EADB228B20028C0F21F81304404F031
:1051B00057F8023D81B2ADB2A06803F0B9FB28B246
:1051C0000028F3DA9DF80C10A068490803F020FBD2
:1051D00001201AE6BDF80810A068494289B203F020
:1051E000A7FB012011E6BDF90810BDF90C30A0683D
:1051F0009942B8BF194689B203F09AFB012004E630
:10520000BDF90810BDF90C30A0689942A8BF194635
:1052100089B203F08DFBF7E5BDF80810BDF80C303E
:10522000A068594089B203F083FB0120EDE5BDF889
:105230000810BDF80C30A068194389B203F078FB60
:105240000120E2E5BDF80C30BDF80810A068194057
:1052500003F06EFB0120D8E5BDF90C10BDF9083054
:10526000A068C91A18BF012103F0D2FA0120CCE5C9
:10527000BDF90C10BDF90830A0689942B4BF0021F7
:10528000012103F0C5FA0120BFE5BDF90C10BDF9FD
:105290000830A0689942CCBF0021012103F0B8FA80
:1052A0000120B2E5BDF90C10BDF90830A0689942A3
:1052B000ACBF0021012103F0ABFA0120A5E5BDF947
:1052C0000C10BDF90830A0689942D4BF002101211B
:1052D00003F09EFA012098E5BDF90C10BDF90830E5
:1052E000A068CC1A6142614103F092FA01208CE57A
:1052F000BDF90C20BDF90830A06892FBF3F103FB67
:10530000112189B203F014FB01207EE5BDF90C10D8
:10531000BDF90830A06891FBF3F189B203F008FBF6
:10532000012072E5BDF80830BDF80C10A06801FB43
:1053300003F189B203F0FCFA012066E5BDF80C1018
:10534000BDF80830A068C91A89B203F0F1FA01204B
:105350005BE5BDF80810BDF80C30A068194489B2AF
:1053600003F0E6FA012050E500204EE5A568BDF8FF
:105370000460284603F034FA821E31B212B2284685
:1053800003F0C6FA9DF80330BDF80820013BDBB2FC
:1053900019462282A0688DF8033003F039FABDF96E
:1053A0000410A06803F064FAA068BDF8081003F0C8
:1053B000BFFA29E5BDF90810A0680029B8BF494225
:1053C00089B203F0B5FA01201FE5BDF80810A06806
:1053D000C94389B203F0ACFA012016E5A06803A91D
:1053E00003F0B6FA2FE53146C2E61146ECE600BFFF
:1053F00070B5837C82B0252B044600F0EB801CD96D
:10540000762B00F0A2806AD9812B45D0A32B40F0E7
:10541000B88080680DF1030103F00AFA9DF80330AB
:10542000002B00F0F38044F62441A068C0F2210173
:1054300003F0F6FB012002B070BD132B00F0BC801E
:105440005CD9232B15D0242B40F09B8001A98068C8
:1054500003F01EFAA068BDF904100DF1030203F079
:10546000F7F9A0689DF8031003F0D2F9012002B00B
:1054700070BD01A9806803F00BFA0DF10301A0686B
:1054800003F0D6F9A068BDF904109DF8032003F0DD
:10549000E7F9012002B070BD0DF10601806803F04C
:1054A00057FA01A9A06803F0F3F9A0680DF1020111
:1054B00003F0BEF9A37FE27F1A40934200F0E08040
:1054C0009DF80230002B40F0B780A37FE17F5A089F
:1054D00021EA0303E377A277012002B070BD262BF7
:1054E0004FD10DF10601806803F0D2F9BDF8061026
:1054F000BDF80430A068194409B2AEE7082B40D1CA
:105500000DF10301806803F093F9A38AA068A3F169
:10551000090109B2083B0DF10602ADF8043003F0B1
:1055200097F99DF806301BB10133DBB28DF80630D8
:10553000BDF80410A0680139C91A09B29DF803200A
:1055400003F08EF9012002B070BD0DF103018068F7
:1055500003F06EF901A9A06803F06AF90DF10601E4
:10556000A06803F095F9BDF90610A06803F040F9B2
:105570009DF803200146A06A04F062F8012002B001
:1055800070BD0DF10301A06803F052F9A0680DF1A0
:10559000060103F04DF9A37C1C2B42D0652B3ED1B4
:1055A0009DF806109DF80330A068C91A18BF0121A4
:1055B00003F02EF901203EE70DF10301806803F0AE
:1055C00037F90DF10301A06A012204F039F8012036
:1055D00002B070BD01A9806803F05AF90DF106010F
:1055E000A06803F055F90DF10301A06803F020F95C
:1055F000BDF80610BDF80430A068194409B29DF842
:10560000032003F02DF9012002B070BD44F62C41B7
:10561000A068C0F2210103F003FB01200BE700208A
:1056200009E79DF806109DF80330A068CD1A69427D
:10563000694103F0EDF84FE7A568BDF8046028461E
:1056400003F0CEF8421E31B212B2284603F060F9E0
:105650009DF80230BDF80620013BDBB219462282DC
:10566000A0688DF8023003F0D3F8BDF90410A068EB
:1056700003F0FEF8A068BDF8061003F059F92BE717
:10568000A0680DF1030103F0D3F819E7AFF3008030
:1056900070B5837C82B0252B044600F0A28008D927
:1056A000812B59D0A32B2ED0262B74D0002002B0F2
:1056B00070BD232B00F081803AD8082BF6D10DF174
:1056C0000601806803F0E4F8A38AA068A3F1090149
:1056D00009B2083B01AAADF8023003F0B9F89DF811
:1056E00004301BB10133DBB28DF80430BDF8022069
:1056F000A068023AD11A09B2BDF9062003F008F9F0
:10570000012002B070BD0DF10601806803F0C0F801
:10571000A06803F075F8216B0546BDF906200AF074
:10572000DFF82946A06803F07BFA012002B070BDC3
:105730000DF10201806803F0ABF8A068BDF902101A
:105740000DF1060203F0D4F8A068BDF9061003F0CD
:105750008FF8012002B070BD01A9806803F0F8F84D
:105760000DF10201A06803F093F8A0680DF10101AA
:1057700003F05EF8A37FE27F1A40934272D09DF857
:105780000130002B4AD1A37FE17F5A0821EA0303AD
:10579000E377A277DDE70DF10201806803F078F886
:1057A00001A9A06803F074F8BDF90410BDF8023037
:1057B000A06803EB410109B2C2E70DF10201806864
:1057C00003F066F80DF10601A06803F061F8A06827
:1057D000BDF90210BDF9062003F09AF8012002B0CD
:1057E00070BD0DF10201806803F052F801A9A068B4
:1057F00003F04EF80DF10601A06803F049F8BDF979
:105800000410BDF80230A06803EB410109B2BDF9F4
:10581000062003F07DF8012002B070BDA568BDF838
:105820000260284602F0DCFF821E31B212B2284626
:1058300003F06EF89DF80130BDF80420013BDBB2A7
:1058400019462282A0688DF8013002F0E1FFBDF90F
:105850000210A06803F00CF8A068BDF8041003F073
:1058600067F876E7A0680DF1060103F011F886E706
:1058700070B5837C84B0262B044600F0008117D8D5
:10588000232B00F084802FD8082B5FD0132B40F0FF
:10589000088102A9806803F0C3F803A9029803F005
:1058A000A7FC03A9A06A042203F0CAFE012039E084
:1058B000762B00F0B88040F29B80812B77D0A32B11
:1058C00040F0EF8002A9806803F0AAF8A06802F017
:1058D00097FF616B0546029A0AF002F82946A06814
:1058E00003F09EF901201DE0242B1DD0252B40F054
:1058F000D8800DF10601806802F0CAFF03A9A068F4
:1059000002F0C6FF02A9A06803F08AF8BDF90C10E6
:10591000BDF80630A06803EB810109B2029A03F0DA
:10592000A7F8012004B070BD0DF10601806802F0F7
:10593000AFFFA068BDF9061002AA03F089F8A068BD
:10594000029903F055F8012004B070BD02A98068E7
:1059500003F066F8A38AA068A3F1090109B2083B25
:1059600003AAADF8063002F073FF9DF80C301BB1AE
:105970000133DBB28DF80C30BDF80620A068043A84
:10598000D11A09B2029A03F073F80120CAE70DF1A7
:105990000601806802F07CFF02A9A06803F040F8CD
:1059A000A068BDF90610029A03F062F8CBE702A9DD
:1059B000806802F0CDFF0DF10601A06802F068FFDB
:1059C000A0680DF1050102F033FFA37FE27F1A40CA
:1059D000934200F0C2819DF80530002B40F0898190
:1059E000A37FE17F5A0821EA0303E377A277AAE7BE
:1059F000733B012B55D802A9806802F019FF03A957
:105A0000A06803F00DF89DF90830002BADBF039995
:105A1000039A5942A068AEBF9940A06822FA01F1EA
:105A200002F0E6FF8FE701A9806802F001FF0DF1A7
:105A30000501A06802F0FCFE0DF10601A06802F06D
:105A400027FFA068BDF9061002F0D2FE9DF80430D1
:105A500006460025002B3FF476AF56F8043B03A919
:105A60001846029303F0C4FBA06A03A9042203F0C2
:105A7000E7FD9DF804300135AB42EEDC63E70DF144
:105A80000601806802F004FF03A9A06802F000FF8D
:105A9000BDF90C10BDF80630A06803EB810109B216
:105AA0004AE7A06802A902F0BBFFA37C862B00F0A6
:105AB0004481872B7CD0722B00F04881A06803A919
:105AC00002F0AEFFA37C173B6E2B00F21081DFE8E3
:105AD00013F00601FE00F500EC00E100D700CC0059
:105AE000C1000E010E010E010E010E010E010E018C
:105AF0000E010E010E010E010E010E010E010E012E
:105B00000E010E010E010E010E010E010E010E011D
:105B10000E010E010E010E010E010E010E010E010D
:105B20000E010E010E010E010E010E010E010E01FD
:105B30000E010E010E010E010E010E010E010E01ED
:105B40000E010E010E010E010E010E010E010E01DD
:105B50000E010E010E010E010E010E010E010E01CD
:105B60000E010E010E010E010E01B600AB00A100E8
:105B70000E010E010E010E010E010E010E010E01AD
:105B80000E019900910089000E010E010E010E0117
:105B90000E010E010E010E010E010E010E010E018D
:105BA0000E010E010E010E010E010E0180007600A5
:105BB0000299A068494202F01BFF0120B2E6029957
:105BC000039BA068994238BF194602F011FF0120DB
:105BD000A8E60299039BA068994228BF194602F0E3
:105BE00007FFB0E60299039BA068594002F000FF4E
:105BF000012097E60299039BA068194302F0F8FE82
:105C000001208FE60299039BA068194002F0F0FE84
:105C1000012087E60399029BA068C91A18BF0121D9
:105C200002F0F6FD01207DE60399029BA0689942EF
:105C300034BF0021012102F0EBFD012072E603993F
:105C4000029BA06899428CBF0021012102F0E0FD77
:105C5000012067E60399029BA06899422CBF0021AE
:105C6000012102F0D5FD01205CE60399029BA068AA
:105C7000994294BF0021012102F0CAFD012051E6A2
:105C80000399029BA068CE1A7142714102F0C0FDD7
:105C9000012047E6039A029BA068B2FBF3F103FBE5
:105CA000112102F0A5FE01203CE60399029BA068A9
:105CB000B1FBF3F102F09CFE012033E6029B039955
:105CC000A06801FB03F102F093FE01202AE603998C
:105CD000029BA068C91A02F08BFE012022E60299FD
:105CE000039BA068194402F083FE01201AE60020FD
:105CF00018E6A568BDF80660284602F071FD021F8F
:105D000031B212B2284602F003FE9DF80530BDF80C
:105D10000820013BDBB219462282A0688DF80530CD
:105D200002F076FDBDF90610A06802F0A1FDA068A2
:105D3000BDF8081002F0FCFD05E60299A0680029F4
:105D4000B8BF494202F054FE0120EBE50299A06879
:105D5000C94302F04DFE0120E4E5A06803A902F06A
:105D60005FFE38E6AFF30080AFF30080AFF3008052
:105D70002DE9F047837C84B0742B044629D8732B1B
:105D800080F0D380232B66D040F28F80252B72D0F9
:105D9000C0F08C81262B40F001810DF10601806856
:105DA00002F076FD03A9A06802F072FDBDF90C10A7
:105DB000BDF80630A06803EB810109B202AA02F027
:105DC00047FEA068029902F013FE012004B0BDE86E
:105DD000F087A12B00F0738125D8762B78D0812B0A
:105DE00040F0DC8002A9806802F0B2FD0DF10601EE
:105DF000A06802F04DFDA0680DF1050102F018FD4C
:105E0000A37FE27F1A40934200F0A4829DF8053000
:105E1000002B40F06B82A37FE17F5A0821EA030345
:105E2000E377A277D1E7A22B00F09481A32B40F077
:105E3000B58002A9806802F0F3FDA06802F0E0FCE2
:105E4000616B0546029A09F04BFD2946A06802F0F5
:105E5000E7FE0120BAE70DF10601806802F018FDA7
:105E600002A9A06802F0DCFDA068BDF90610029A44
:105E700002F0FEFDA9E70DF10601806802F008FDC1
:105E800003A9A06802F004FD02A9A06802F0C8FD01
:105E9000BDF90C10BDF80630A06803EB810109B212
:105EA000029A02F0E5FD012090E7082B55D0132B54
:105EB00074D102A9806802F0B3FD03A9029803F02F
:105EC00087F903A9A06A042203F0BAFB01207DE749
:105ED00001A9806802F0ACFC0DF10501A06802F098
:105EE000A7FC0DF10601A06802F0D2FCA068BDF984
:105EF000061002F07DFC9DF804300646002503AF35
:105F0000002B3FF462AF56F8043B39461846029323
:105F100003F05EF9A06A3946042203F091FB9DF874
:105F200004300135AB42EEDC4FE702A9806802F095
:105F30007FFC03A9A06802F073FD9DF90830002BD7
:105F4000ADBF0399039A5942A068AEBF9940A068BB
:105F500042FA01F102F04CFD37E702A9806802F035
:105F60005FFDA38AA068A3F1090109B2083B03AA57
:105F7000ADF8063002F06CFC9DF80C301BB101331B
:105F8000DBB28DF80C30BDF80610A0680439C91AD0
:105F900009B2029A02F06CFD012017E7A06802A97D
:105FA00002F03EFDA37C862B00F0C481872B00F01D
:105FB000FC80722B00F0C781A06803A902F030FDBD
:105FC000A37C173B6E2B00F28F81DFE813F0850175
:105FD0007D0174016B01600156014B0140018D018F
:105FE0008D018D018D018D018D018D018D018D0141
:105FF0008D018D018D018D018D018D018D018D0131
:106000008D018D018D018D018D018D018D018D0120
:106010008D018D018D018D018D018D018D018D0110
:106020008D018D018D018D018D018D018D018D0100
:106030008D018D018D018D018D018D018D018D01F0
:106040008D018D018D018D018D018D018D018D01E0
:106050008D018D018D018D018D018D018D018D01D0
:106060008D018D018D0135012A0120018D018D01E8
:106070008D018D018D018D018D018D018D01180125
:10608000100108018D018D018D018D018D018D01A2
:106090008D018D018D018D018D018D018D018D0190
:1060A0008D018D018D018D01FF00F5000DF10601BF
:1060B000806802F0EDFBA068BDF906107EE60DF1E8
:1060C0000601806802F0E4FBA0680DF1050102F012
:1060D000AFFB9DF805904FF6FF7309F1FF3A1FFAE9
:1060E0008AFA9A4500F03B8109F57F5909F13F0989
:1060F0004FEA89091FFA89F90AF1010A4FF00008ED
:1061000003AF0DF10B06BDF8061002AA494409B20F
:10611000A06802F09DFC0298394603F059F80DF191
:106120000F0515F80119A06802F072FBB542F8D10D
:1061300008F10108A9F10409D0451FFA89F9E2D153
:106140009DF80510890001F0FC01A06802F060FBD9
:1061500001203BE60DF10601806802F099FB03A9DE
:10616000A06802F065FBA068BDF9061002F040FBD4
:106170009DF80C200646151FADB228B20028C0F2CB
:10618000F080304403F07CF8043D0146ADB2A068D5
:1061900002F02EFC28B20028F3DA9DF80C10A0685B
:1061A000890802F035FB012010E60299A0684942F7
:1061B00002F01EFC012009E60299039BA0689942A7
:1061C000B8BF194602F014FC0120FFE50299039BB9
:1061D000A0689942A8BF194602F00AFCF5E50299A9
:1061E000039BA068594002F003FC0120EEE50299F0
:1061F000039BA068194302F0FBFB0120E6E502992E
:10620000039BA068194002F0F3FB0120DEE503992F
:10621000029BA068C91A18BF012102F0F9FA0120F7
:10622000D4E50399029BA0689942B4BF00210121E3
:1062300002F0EEFA0120C9E50399029BA068994299
:10624000CCBF0021012102F0E3FA0120BEE5039951
:10625000029BA0689942ACBF0021012102F0D8FA4C
:106260000120B3E50399029BA0689942D4BF0021A5
:10627000012102F0CDFA0120A8E50399029BA06854
:10628000CF1A7942794102F0C3FA01209EE5039AC0
:10629000029BA06892FBF3F103FB112102F0A8FB23
:1062A000012093E50399029BA06891FBF3F102F0B2
:1062B0009FFB01208AE5039B0299A06801FB03F183
:1062C00002F096FB012081E50399029BA068C91AA0
:1062D00002F08EFB012079E50399029BA068194426
:1062E00002F086FB012071E500206FE5A568BDF88E
:1062F0000660284602F074FA021F31B212B2284634
:1063000002F006FB9DF80530BDF80820013BDBB22A
:1063100019462282A0688DF8053002F079FABDF99D
:106320000610A06802F0A4FAA068BDF8081002F0F8
:10633000FFFA4AE50299A0680029B8BF494202F075
:1063400057FB012042E50299A068C94302F050FBC7
:1063500001203BE5A06803A902F062FB56E549462F
:10636000F0E611461BE700BFAFF30080AFF30080FB
:106370002DE9F047837C84B0262B064600F074811B
:106380001AD8232B00F0818044D8082B00F04B81D1
:10639000132B40F0B68002A9806802F099FB03A994
:1063A000029802F035FF03A9B06A042203F048F90D
:1063B000012004B0BDE8F087A12B00F07A8148D815
:1063C000762B00F0C181812B40F09B8002A9806870
:1063D00002F0BEFA0DF10601B06802F059FAB06899
:1063E0000DF1050102F024FAB37FF27F1A409342C7
:1063F00000F002849DF80530002B40F0D983B37F74
:10640000F17F5A0821EA0303F377B277012004B041
:10641000BDE8F087242B00F04381252B71D10DF1CD
:106420000601806802F034FA03A9B06802F030FA7D
:1064300002A9B06802F04CFBBDF90C10BDF80630A3
:10644000B06803EB810109B2029A02F069FB0120F6
:10645000AFE7A22B2AD0A32B53D102A9806802F068
:1064600037FBB06802F0CCF904460298F9F7ACFFAC
:10647000B56B02460B462046294609F031FA214603
:10648000B06802F0CDFB012093E70DF106018068B2
:1064900002F0FEF902A9B06802F01AFBB068BDF97B
:1064A0000610029A02F03CFB012082E70DF1060182
:1064B000806802F0EDF903A9B06802F0B9F9B0689C
:1064C000BDF9061002F094F99DF80C200546141F42
:1064D000A4B220B20028C0F29783284402F0F0FE54
:1064E000043C0146A4B2B06802F0DAFA20B20028F7
:1064F000F3DA9DF80C10B068890802F089F90120E0
:1065000057E7B06802A902F0E3FAB37C013B862B9F
:1065100000F2F481DFE813F0E701E001D901D201D4
:10652000CB01C401BD01B601AF01F201A801A10177
:106530008501F2017E0177016D019A018C019301C1
:1065400062015501F201F201F201F201F201F201E0
:10655000F201F201F201F201F201F201F201F201A3
:10656000F201F201F201F201F201F201F201F20193
:10657000F201F201F201F201F201F201F201F20183
:10658000F201F201F201F201F201F201F201F20173
:10659000F201F201F201F201F201F201F201F20163
:1065A000F201F201F201F201F201F201F201F20153
:1065B000F201F201F201F201F201F201F201F20143
:1065C000F201F201F201F201F201F201F201F20133
:1065D000F201F201F201F201F201F201F201F20123
:1065E000F201F201F201F201F201F201F201F20113
:1065F000F201F201F201F201F201F201F201F20103
:10660000F201F201F201F201F201F201F201F201F2
:10661000F201F201F201F201F201F201F201F201E2
:10662000F2014D01450102A9806802F051FAB38AD6
:10663000B068A3F1090109B2083B03AAADF806301E
:1066400002F006F99DF80C301BB10133DBB28DF876
:106650000C30BDF80610B0680439C91A09B2029AA4
:1066600002F05EFA0120A4E60DF10601806802F056
:106670000FF903A9B06802F00BF9BDF90C10BDF8D1
:106680000630B06803EB810109B202AA02F038FAC1
:10669000B068029902F004FA012004B0BDE8F08766
:1066A0000DF10601806802F0F3F8B068BDF906103C
:1066B000EBE70DF10601806802F0EAF8B0680DF131
:1066C000050102F0B5F89DF805904FF6FF7309F14A
:1066D000FF3A1FFA8AFA9A4500F0948209F57F5929
:1066E00009F13F094FEA89091FFA89F90AF1010AFC
:1066F0004FF0000803AF0DF10B05BDF8061002AA1C
:10670000494409B2B06802F0FBF90298394602F038
:106710007FFD0DF10F0414F80119B06802F078F84C
:10672000AC42F8D108F10108A9F10409D0451FFADB
:1067300089F9E2D19DF80510890001F0FC01B068EB
:1067400002F066F8012034E601A9806802F070F8D2
:106750000DF10501B06802F06BF80DF10601B068AB
:1067600002F096F8B068BDF9061002F041F89DF805
:1067700004300546002403AF002B3FF447AE55F824
:10678000043B39461846029302F042FDB06A39468E
:10679000042202F055FF9DF804300134A342EEDCE0
:1067A00034E6029BB06803F1004102F079F9012060
:1067B000FFE5029BB06823F0004102F071F901206F
:1067C000F7E50298F9F700FEB46803F0A9FB012889
:1067D0000CD00021204602F063F917E60298B46855
:1067E000F9F7F2FD03F09CFB0028F2D14FF07E5147
:1067F000F0E70298F9F7E8FD03F0BAFBB468FAF79E
:106800001FF90146E6E70298F9F7DEFDB46804F0E7
:1068100027F8F4E70298F9F7D7FDB46803F0A8FF6A
:10682000EDE70298F9F7D0FD03F07AFCB468E6E7EB
:106830000298F9F7C9FD03F0A3FAB468DFE70298FC
:10684000F9F7C2FD03F0B4F9B468D8E70298F9F794
:10685000BBFD03F0FDFCB468D1E70298F9F7B4FD85
:10686000B46803F0DDFDCAE70298F9F7ADFDB4683E
:1068700004F006FAC3E70298F9F7A6FD02F0D0FF8C
:10688000B468BCE70298F9F79FFDB46803F010FD07
:10689000B5E70298F9F798FDB46803F061FDAEE73B
:1068A0000298F9F791FD03F003FCB468A7E702989A
:1068B000F9F78AFD03F00CFAB468A0E70298F9F73B
:1068C00083FD03F0A5FBB46899E70298F9F77CFD16
:1068D000B46803F005FE92E70298F9F775FDB46815
:1068E00004F036FA8BE70298B4680146FAF708FA22
:1068F0000146204602F0D4F801205AE5B06803A909
:1069000002F0E6F8B37C852B00F28081DFE813F01B
:1069100040017E017E017E017E017E017E017E01BD
:106920007E017E0130017E017E017E0120017E011B
:106930007E017E017E017E017E017E017E011601C7
:106940000C010201F800E800DF00D600CD007E0156
:106950007E017E017E017E017E017E017E017E013F
:106960007E017E017E017E017E017E017E017E012F
:106970007E017E017E017E017E017E017E017E011F
:106980007E017E017E017E017E017E017E017E010F
:106990007E017E017E017E017E017E017E017E01FF
:1069A0007E017E017E017E017E017E017E017E01EF
:1069B0007E017E017E017E017E017E017E017E01DF
:1069C0007E017E017E017E017E017E017E017E01CF
:1069D0007E017E017E01C400BB00AB007E017E0112
:1069E0007E017E017E017E017E017E017E017E01AF
:1069F0007E017E017E017E017E017E017E017E019F
:106A00007E017E017E017E017E017E017E017E018E
:106A10007E017E017E017E019C0086000398F9F7CD
:106A2000D3FC044602980D46F9F7CEFC02460B460D
:106A30002046294603F034FAFAF702F80146B06816
:106A400002F02EF80120B4E40398F9F7BDFC0446E7
:106A500002980D46F9F7B8FC02460B462046294637
:106A600003F03EFAE8E7039802994FF00104FAF7C1
:106A7000DBFA08B14FF00004B06804F0010101F046
:106A8000C7FE012095E4039802994FF00104FAF73C
:106A9000E9FA0028F0D1EDE7039802994FF00104DC
:106AA000FAF7D6FA0028E7D1E4E7039802994FF005
:106AB0000104FAF7C3FA0028DED1DBE70398029954
:106AC0004FF00104FAF7D8FA0028D5D1D2E703989D
:106AD00002994FF00104FAF7A7FA0028CCD1C9E7D0
:106AE0000398F9F771FC044602980D46F9F76CFC1F
:106AF00002460B4620462946B46803F079FD7EE63F
:106B000002990398FAF7B0F90146B06801F0C8FF9E
:106B100001204EE402990398FAF7F2F80146B068B2
:106B200001F0BEFF012044E402990398F9F7DCFF6D
:106B30000146B06801F0B4FF01203AE402990398DD
:106B4000F9F7D4FF0146B06801F0AAFF012030E454
:106B50000398F9F739FC044602980D46F9F734FC1E
:106B600002460B4620462946B46803F0A1FD46E6DE
:106B70000398F9F729FC044602980D46F9F724FC1E
:106B800002460B4620462946B46803F041FC36E62F
:106B90000398F9F719FC044602980D46F9F714FC1E
:106BA00002460B4620462946B46803F0D1FE26E68D
:106BB000B468BDF80650204601F012FE021F29B24B
:106BC00012B2204601F0A4FE9DF80530BDF8082061
:106BD000013BDBB219463282B0688DF8053001F016
:106BE00017FEBDF90610B06801F042FEB068BDF8AE
:106BF000081001F09DFE09E4B06803A901F068FFE8
:106C0000FFF7F8BB494697E5114674E40020FFF70B
:106C1000D0BB00BFAFF30080AFF30080AFF30080C4
:106C20002DE9F047837C86B0262B064600F0F680DF
:106C30001AD8232B7DD045D8082B00F0CD80132BFC
:106C400040F0B68002A9806801F09AFFDDE90201F8
:106C500004AA02F0EDFA04A9B06A082202F0F0FCDE
:106C6000012006B0BDE8F087A12B00F0FD8049D8D7
:106C7000762B00F04281812B40F09A8002A9806837
:106C800001F066FE0DF10601B06801F001FEB0688A
:106C90000DF1050101F0CCFDB37FF27F1A40934264
:106CA00000F096829DF80530002B40F06C82B37F97
:106CB000F17F5A0821EA0303F377B277012006B087
:106CC000BDE8F087242B00F0C680252B70D10DF194
:106CD0000601806801F0DCFD04A9B06801F0D8FD70
:106CE00002A9B06801F04CFFDDE90223BDF91040B4
:106CF000BDF80610B06801EBC40109B201F078FFDD
:106D00000120AEE7A22B26D0A32B51D102A9806887
:106D100001F036FFB06801F073FDDDE9022304469F
:106D2000B16B08F0DDFD2146B06801F079FF01206C
:106D300097E70DF10601806801F0AAFD02A9B0688D
:106D400001F01EFFDDE90223B068BDF9061001F075
:106D50004FFF012085E70DF10601806801F098FDE5
:106D600004A9B06801F064FDB068BDF9061001F037
:106D70003FFD9DF810200546A2F10804A4B220B200
:106D80000028C0F22A82284402F0AAFA083C0246EF
:106D90000B46B068A4B201F0DBFE20B20028F2DAA4
:106DA0009DF81010B068C90801F032FD012058E7C5
:106DB000B06802A901F0E4FEB37C862B00F0DA8112
:106DC000872B40F0CB800399029AB06801F1004311
:106DD00001F0BEFE012044E702A9806801F0D0FE68
:106DE000B38AB068A3F1090109B2083B04AAADF85F
:106DF000063001F02DFD9DF810301BB10133DBB2E0
:106E00008DF81030BDF80620B068083AD11A09B2E2
:106E1000DDE9022301F0ECFE012022E70DF106017D
:106E2000806801F035FD04A9B06801F031FDBDF9BD
:106E30001010BDF80630B06803EBC10109B202AA18
:106E400001F0BEFEDDE90223B06801F081FE012001
:106E500006B0BDE8F0870DF10601806801F018FD6D
:106E6000B068BDF90610EAE70DF10601806801F08F
:106E70000FFDB0680DF1050101F0DAFC9DF8053059
:106E80004FF6FF7203F1FF3A1FFA8AFA92452CD0AF
:106E900003F5FF531F33DB001FFA83F90AF1010AE0
:106EA0004FF0000804AF0DF10F05BDF8061002AA5F
:106EB000494409B2B06801F083FEDDE902013A46B7
:106EC00002F0B6F90DF1170414F80119B06801F0D9
:106ED0009FFCAC42F8D108F10108A9F10809D0459E
:106EE0001FFA89F9E1D19DF80530D90001F0F801C8
:106EF000B06801F08DFC0120B3E601A9806801F0C3
:106F000097FC0DF10501B06801F092FC0DF106014E
:106F1000B06801F0BDFCB068BDF9061001F068FC76
:106F20009DF8043081464FF0000804AF002B3FF479
:106F3000C5AEF9E802453A4620462946CDE9024564
:106F400002F076F9B06A3946082202F079FB9DF822
:106F5000043008F101084345EBDCAFE6B06804A952
:106F600001F00EFEB37C173B6E2B00F20181DFE8CF
:106F700013F0F700EF00E700DF00D100C500B90013
:106F8000AD00FF00FF00FF00FF00FF00FF00FF005B
:106F9000FF00FF00FF00FF00FF00FF00FF00FF00F9
:106FA000FF00FF00FF00FF00FF00FF00FF00FF00E9
:106FB000FF00FF00FF00FF00FF00FF00FF00FF00D9
:106FC000FF00FF00FF00FF00FF00FF00FF00FF00C9
:106FD000FF00FF00FF00FF00FF00FF00FF00FF00B9
:106FE000FF00FF00FF00FF00FF00FF00FF00FF00A9
:106FF000FF00FF00FF00FF00FF00FF00FF00FF0099
:10700000FF00FF00FF00FF00FF00A10095008200CD
:10701000FF00FF00FF00FF00FF00FF00FF00FF0078
:10702000FF00FF00FF00FF00FF00FF00FF00FF0068
:10703000FF00FF00FF00FF00FF00FF00FF00FF0058
:10704000FF00FF00FF00FF00FF00FF007B006F005C
:10705000DDE90401DDE9022302F022FF02460B46CE
:10706000B06801F075FD29E6DDE90401DDE90223E0
:1070700002F036FFF2E7DDE90401DDE90223B5683D
:107080004FF00104F9F762FC08B14FF00004284604
:1070900004F0010101F0BCFB0120E2E5DDE904019F
:1070A000DDE90223B5684FF00104F9F76DFC002813
:1070B000EDD1EAE7DDE90401DDE90223B5684FF02F
:1070C0000104F9F757FC0028E1D1DEE7DDE904010E
:1070D000DDE90223B5684FF00104F9F741FC00280F
:1070E000D5D1D2E7DDE90401DDE90223B5684FF02F
:1070F0000104F9F753FC0028C9D1C6E7DDE9040112
:10710000DDE90223B5684FF00104F9F71FFC002800
:10711000BDD1BAE7DDE90401DDE90223B46803F07B
:1071200067FA02460B46204601F012FD012098E561
:10713000DDE90401DDE90223B468F9F7C3FAF0E7F9
:10714000DDE90401DDE90223B468F9F791F9E8E724
:10715000DDE90401DDE90223B468F8F7D5FFE0E7D3
:10716000DDE90401DDE90223B468F8F7CFFFD8E7D1
:10717000002076E50399029AB06821F0004301F0FF
:10718000E7FC01206DE5B468BDF80650204601F02B
:1071900027FBA0F1080229B212B2204601F0B8FB89
:1071A0009DF80530BDF80820013BDBB2194632825C
:1071B000B0688DF8053001F02BFBBDF90610B06802
:1071C00001F056FBB068BDF8081001F0B1FB75E5A1
:1071D000B06804A901F0D4FC64E51146E2E500BF03
:1071E00070B5837C84B01C2B044600F0918008D9D4
:1071F000242B1DD0812B6CD0232B2BD0002004B04E
:1072000070BD082B3BD0132BF8D102A9806801F088
:107210005FFDA06801F03CFD029D284608F088FB58
:107220002946C2B2A06A02F00BFA012004B070BD78
:107230000DF10601806801F02BFBBDF9061002AAD2
:10724000A06801F05DFDA068029901F0E9FC012051
:1072500004B070BD0DF10601806801F019FB02A9B0
:10726000A06801F035FDBDF90610029AA06801F092
:107270005FFDA06801F00CFD012004B070BD02A903
:10728000806801F01DFB03A9A06801F021FDA06842
:1072900001F0FEFCA38A0DF10502A3F10901A0682B
:1072A000083B09B2ADF8063001F0D2FA9DF805307E
:1072B000BDF806100133DBB20239C91AA06809B261
:1072C000BDF908208DF8053001F022FB012004B043
:1072D00070BD03A9806801F03BFB0DF10601A068B9
:1072E00001F0D6FAA06802A901F0A2FAA37FE27F1A
:1072F0001A4093424DD09DF8083033BBA37FE17F05
:107300005A0821EA0303E377A277012004B070BD95
:1073100002A9806801F0DCFCA06801F0B9FC03A9B7
:10732000A06801F0D5FCA06801F0B2FC02990398B6
:10733000F9F7CEFE10F0FF0F14BF00210121A06865
:1073400001F066FA012004B070BDA568BDF80660C2
:10735000284601F045FA821E31B212B2284601F0E9
:10736000D7FA9DF80830BDF80C20013BDBB2194676
:107370002282A0688DF8083001F04AFABDF90610A3
:10738000A06801F075FAA068BDF80C1001F0D0FA01
:10739000BBE7A06801F07CFCADE700BFAFF3008065
:1073A000C37C953B0A2B1DD8DFE803F0080A0C0EBE
:1073B00010121416181A0600FEF76AB9FCF738BF47
:1073C000FCF796BCFDF7F4BCFDF7DAB9FEF7D0BCCC
:1073D000FEF74EBAFEF7CCBFFFF722BCFEF708B8A7
:1073E000FFF7FEBE00207047AFF30080AFF30080D0
:1073F000F0B544F6344104469BB0C0F22101FCF7DD
:10740000E7FA2368A2881868104401F041F805469D
:107410002062002800F0B98700220346228204F18E
:107420001205217B18468B0640F1CE80218A2A4620
:1074300001F096F8A37C2082C22B00F2E986DFE8F7
:1074400013F0D906A906CC06B606E106E706E7065C
:107450006306E7066F06490625061A06E706C00416
:107460000206F805ED05D205E706E706E706BF05C3
:10747000E706E706E706E706E706E706E706E706A4
:10748000D705A8058F058005E706E706E706E706A6
:10749000C004C004C004C004C004E706E706E70651
:1074A000E706E70679055D0556054F0548054205DF
:1074B000310531051E051E0512050B05E706E70619
:1074C000E706E706E706E706E706E706E706E70654
:1074D000E706E706FF04FF04FF04FF04FF04FF04C0
:1074E000EC04EC04EC04EC04EC04EC04E404DC0434
:1074F000C304C004C004B504B204AF046504160498
:1075000011040D04F503E706E706E706E706E706BC
:10751000EA03DF03E706E706B703A703CA039203FC
:10752000E706E706E706E706E706E7068003E7065D
:10753000E706E7065D03510347033D0327033203D4
:107540001903DC02E706D002E706E706E706E706CE
:10755000E706C102A906CC06B602B602AB029F023C
:10756000830277026B025C024C02A9064A024A02BD
:107570004A024A024A024A024A024A024A024A02AB
:107580004A02E706E706E706E7063C022C0221026C
:1075900017020902FA01F001E601D801C901BF0191
:1075A000B501AB019D018F018001710167015D0192
:1075B00050014301350127011A010D010001F200BC
:1075C000E400D600C7000B0600F0B2FF1BB0F0BD10
:1075D00008A9A06801F0D4FADDE90801F9F710FA6A
:1075E000A5680146284601F003FA236A17E708A9AF
:1075F000A06801F0C5FADDE90801F9F701FAA3680E
:1076000081B2184601F094F9EFE708A9A06801F0EB
:10761000B7FADDE90801F9F7F3F9A368C1B2184632
:1076200001F0F6F8E1E708A9A06801F051FA08981E
:10763000F8F7CAFEA56802460B46284601F088FA0C
:10764000D3E708A9A06801F043FA0898F9F720FDEC
:10765000A5680146284601F0CBF9C6E708A9A0684D
:1076600001F036FA0898F9F713FDA36881B21846BD
:1076700001F05EF9B9E708A9A06801F029FA0898B5
:10768000F9F706FDA368C1B2184601F0C1F8ACE7EE
:1076900008A9A06801F0C4F90898F8F773FEA56876
:1076A00002460B46284601F053FA9EE708A9A06857
:1076B00001F0B6F90898F8F775FEA56802460B4682
:1076C000284601F045FA90E708A9A06801F0A8F95A
:1076D0000898F9F7BBFAA5680146284601F0E0F9D9
:1076E00083E708A9A06801F09BF90898F9F7B2FAB6
:1076F000A5680146284601F0D3F976E708A9A068F5
:1077000001F08EF9A068BDF8201001F011F96CE7C6
:1077100008A9A06801F084F9A0689DF8201001F084
:1077200077F862E708A9A06801F082F8BDF82000A8
:10773000F8F728FEA56802460B46284601F008FA2D
:1077400053E708A9A06801F003F9BDF92000F8F794
:1077500029FEA56802460B46284601F0F9F944E7E0
:1077600008A9A06801F0F4F8BDF82000F9F76EFA56
:10777000A5680146284601F093F936E708A9A068F4
:1077800001F0E6F8BDF92000F9F764FAA5680146B2
:10779000284601F085F928E708A9A06801F0D8F883
:1077A000A068BDF8201001F023F91EE708A9A06821
:1077B00001F0CEF8A068BDF9201001F019F914E726
:1077C00008A9A06801F0C4F8A0689DF8201001F095
:1077D0001FF80AE708A9A06801F02AF89DF8200020
:1077E000F8F7D0FDA56802460B46284601F0B0F92F
:1077F000FBE608A9A06801F01BF89DF82000F9F746
:1078000025FAA5680146284601F04AF9EDE608A9DF
:10781000A06801F00DF8A0689DF8201001F0E8F8CC
:10782000E3E608A9A06801F003F8A0689DF820101D
:1078300001F07EF8D9E608A9A06800F0F9FF9DF9EB
:107840002000F8F7AFFDA56802460B46284601F078
:107850007FF9CAE608A9A06800F0EAFF9DF92000B8
:10786000F9F7F8F9A5680146284601F019F9BCE6D0
:1078700008A9A06800F0DCFFA0689DF9201001F0C5
:10788000B7F8B2E608A9A06800F0D2FF9DF9201071
:10789000A06889B201F04CF8A7E608A9A06801F039
:1078A00017FA089808F044F80546A06801F0F0F9C6
:1078B000E9B2A06800F0ACFF97E608A9A06801F063
:1078C00007FA089BA0681D7801F0E2F92946A06834
:1078D00000F09EFF89E6E37487E6014608AA206A65
:1078E00000F046FEA18ABDF820300939C91A20826D
:1078F00009B2A06800F0BCFF77E6014608AA206A3A
:1079000000F036FEBDF82020A38A2082D11809B2EB
:10791000A06800F0ADFF68E6014608AA206A00F002
:1079200027FEBDF920102082A06800F0A1FF5CE6D0
:10793000014608AA206A00F01BFEBDF82010208234
:10794000A06800F0F5FF50E6A06800F059FF4FF680
:10795000FF75074608AE3246206A218A00F000FE15
:107960000135ADB29DF820202BB22082FA549DF84B
:107970002030002BEFD13946A06801F051F934E6F0
:10798000014608AA206A00F04BFEDDE908232082A8
:10799000A06801F0DDF828E6014608AA206A00F098
:1079A0001FFE08992082A06801F07AF81DE60146C2
:1079B00008AA206A00F0F4FD08992082A06801F06E
:1079C00017F812E6014608AA206A00F0C9FD9DF8E2
:1079D00020102082003118BF0121A06800F018FF9C
:1079E00003E6B4F91C10A06808AA00F0E1FFA06843
:1079F000BDF8201000F09CFFF7E50DF11601A0681E
:107A000000F0A6FF06A9A06800F0A2FF0DF11A0180
:107A1000A06800F09DFF07A9A06800F099FF0DF194
:107A20001E01A06800F034FFBDF91E1008AAA0686E
:107A300000F0BEFFA37FE27F03EA02018B4200F069
:107A40006E84BDF91800BDF81C100028ADF8201098
:107A5000BDF91A0009B240F375848842B4BF002111
:107A60000121002940F0298422EA03025B08E27721
:107A7000A377BAE5A37F002B40F0E1830123A3772E
:107A8000033085B22946A06800F052FF2582ACE59C
:107A900004F118052946A06800F052FE2946A068A6
:107AA00000F046FEA1E504F118052946A06800F0A3
:107AB00037FE2946A06800F05BFE96E508A9A0689D
:107AC00000F0B6FEA0689DF8201000F081FE8CE565
:107AD00008A9A06800F0ACFEA0689DF8201000F096
:107AE0006FFE82E508A9A06800F032FFA068218A35
:107AF00000F01EFFBDF82030238276E508A9A068BB
:107B000000F026FF0DF11E01A06800F021FFBDF975
:107B10001E30BDF92060A568F61A07F0B9FE00FB1B
:107B200006F00122C4F2000282FB0032BDF81E10F2
:107B3000C317C3EB62731944284689B200F0F8FEFC
:107B400053E50DF11E01A06800F072FE9DF81E3095
:107B5000A06808A9002B00F0678300F011FFBDF8B2
:107B60002030238241E50DF11E01A06800F060FE87
:107B700008A9A06800F05CFE9DF820202068003273
:107B800018BF01229DF81E101C3001F0F1FB2CE5FE
:107B90000DF11E01A06800F04BFE08A9A06800F0DE
:107BA00047FE9DF81E009DF8201001F0F9FA1CE533
:107BB0000DF11E01A06800F03BFE002308A99DF80E
:107BC0001E00ADF8203001F0CBFAA068BDF82010FF
:107BD00000F0AEFE09E50DF11E01A06800F028FEE0
:107BE000206800239DF81E1008AA1C308DF8203054
:107BF00001F0AEFBA0689DF8201000F009FEF4E44F
:107C000004F114052946A06800F08AFD2946A06801
:107C100000F0AEFDE9E404F114052946A06800F087
:107C20008FFD2946A06800F083FDDEE408A9A06866
:107C300000F0FEFD44F670419DF820200AA8C0F235
:107C4000210107F04DFE20460AA9FBF7C1FE20687E
:107C50009DF82010143001F01BFDC6E42046FBF710
:107C600087FEC2E4A068002100F0C2FEBDE444F635
:107C7000C041C0F221012046FBF7AAFE002306A95D
:107C8000A068089300F0D4FDA0680DF11A0100F07F
:107C9000CFFD9DF81A30012B00F05F83022B00F01E
:107CA0006183042B00F068830DF11E01A06800F0D1
:107CB0004FFE07A9A06800F0BBFDBDF91E10A0682B
:107CC00000F096FD9DF81C60054608999DF81A2065
:107CD0002B4600969DF8180001F082FB9DF81A30A3
:107CE00044F6D04100932E789DF81C5003909DF8E7
:107CF0001820089B019602950AA8C0F2210107F0FE
:107D0000EFFD20460AA9FBF763FE6EE4002306A9F7
:107D1000A068089300F08CFDA0680DF11A0100F036
:107D200087FD9DF81A30012B00F01283022B00F022
:107D30001E83033BDBB2012B40F23C830DF11E019D
:107D4000A06800F005FE07A9A06800F071FDBDF96C
:107D50001E10A06800F04CFD9DF81C6005460899B7
:107D60009DF81A202B4600969DF8180001F028FB7C
:107D70009DF81A3044F6984100932E789DF81C50D7
:107D800003909DF81820089B019602950AA8C0F25E
:107D9000210107F0A5FD20460AA9FBF719FE24E4FE
:107DA00001F006FB21E401F0FBFA1EE408A9A0683B
:107DB00000F03EFD20689DF820100C3001F028FBFB
:107DC00013E4236AFFF72DBB08A9A06800F0C0FDEB
:107DD00044F68441BDF920200AA8C0F2210107F031
:107DE0007FFD20460AA9FBF7F3FD2068BDF92010AE
:107DF000143001F0C5FCFFF7F8BB20680421002215
:107E00001C3001F0B5FAFFF7F0BB20680421012215
:107E10001C3001F0ADFAFFF7E8BB1AAE2068002273
:107E2000A3F1480106F8482DC9B232461C3001F0D2
:107E30008FFAA0689DF8201000F0EAFCFFF7D5BB90
:107E40001AAE0022A3F1470026F8482D3146C0B2F1
:107E500001F086F9FFF7C9BB206801210C3001F061
:107E60004FFBFFF7C2BB08A9A06800F0E1FC206847
:107E70009DF820100C3001F0A3FBFFF7B6BB1AAE43
:107E800020680022A3F1340106F8482DC9B2324619
:107E90001C3001F05DFAA0689DF8201000F0B8FCDD
:107EA000FFF7A3BB00221AAEA3F1370026F8482D36
:107EB0003146C0B201F054F9A068BDF8201000F0BE
:107EC00037FDFFF792BB20680C3001F059FBFFF73C
:107ED0008CBB206801210C3001F032FBFFF785BB21
:107EE000206800210C3001F02BFBFFF77EBB2068DF
:107EF00000210C3001F0E4FAFFF777BB08A9A06875
:107F000000F026FD206801210C3001F0D9FABDF8FF
:107F100020304FF6FC7003EB830303EB83039B00DD
:107F2000184001F065FC206800210C3001F0C8FA0F
:107F3000FFF75BBB206801210C3001F0C1FAFFF7AD
:107F400054BB08A9A06800F073FC9DF82010A0683D
:107F5000D1F1010138BF002100F05AFCFFF745BB09
:107F60000DF11E01A06800F063FCA06808A900F0F4
:107F70005FFC9DF82030A068002B40F04E819DF8FA
:107F80001E30002B40F04E81002100F041FCFFF735
:107F90002CBB0DF11E01A06800F04AFC08A9A068E6
:107FA00000F046FC9DF82030A068012123B99DF81F
:107FB0001E10003118BF012100F02AFCFFF715BB8D
:107FC000A56807F065FC0123C0EBC030C4F20003D4
:107FD00083FB0023C217C2EB6371284689B200F00D
:107FE000A7FCFFF702BB01F013FC6062FFF7FDBACC
:107FF0000DF11E01A06800F01BFC08A9A06800F0AC
:1080000017FC9DF82010A06821B19DF81E100031CA
:1080100018BF012100F0FCFBFFF7E7BAA56801F0EB
:10802000F7FB636AC11A89B2284600F081FCFFF7AA
:10803000DCBAA06808A900F08BFCBDF8200001F0B4
:10804000D7FBFFF7D2BAA06808A900F099FCBDF8E9
:1080500020302382FFF7C9BA08A9A06800F090FD7C
:10806000DDE90801F8F7ECFCA5680146284600F0B8
:1080700017FDFFF7BABA44F66441C0F22101204669
:10808000FBF7A6FC01F07CF8FFF7AFBA0DF11E017B
:10809000A06800F05DFCA27FE17F530821EA0201A5
:1080A000CAB202EA03008342A377E27700F0DE80DF
:1080B00008A9A06800F04CFC07A9A06800F0B8FB74
:1080C0009DF81C10002900F0E880BDF820302382C4
:1080D000FFF78BBAA37FE27F03EA02018B4200F035
:1080E000CC8008A9A06800F033FCA0680DF11E0147
:1080F00000F09EFB9DF81E30002B00F0C580BDF8FF
:1081000020302382FFF771BA2046FBF7E1FDA0681B
:1081100008A900F01DFCBDF820302382FFF765BAE6
:1081200007A9A06800F014FCA0680DF11E0100F082
:108130000FFCA37FE27F1A40934200F0E38001230B
:108140001946A068ADF8203000F0F2FBA06800F0FE
:1081500047FBB4F91C100546A06800F089FBBDF888
:108160002020A583BDF81E30A06893426AD3B4F9DD
:108170001C1000F02DFCBDF81E10A06800F0D8FB0C
:10818000A068BDF81C1000F0D3FBBDF81C302382A2
:10819000FFF72BBA014608AA206A00F0E1F99DF822
:1081A00020102082A06800F033FBFFF71EBAA37FE7
:1081B000002B58D10123A377811C89B2A06800F05D
:1081C000B7FB08AA206A218A00F0D2F9238ABDF8F9
:1081D000202013442382FFF708BA014608AA206A28
:1081E00000F0C6F9BDF820102082A06800F0A0FBC6
:1081F000FFF7FBB92046FBF75BFD0023A377E3778E
:10820000FFF7F3B9E37FA27F1343E377FFF7EDB9FD
:108210002046FFF7C5F8FFF7E8B99DF81E30002BA0
:108220007FF4B2AE0121B0E600F092FBA37FE17FC4
:108230005A0821EA0303E377A277FFF7D6B95B0078
:10824000A3771DE404F11C0100F022FB08A9A0683B
:1082500000F07EFBA37FE17F5A0821EA0303E37766
:10826000A277FFF7C2B95B00A377A5E721EA030174
:108270005B08E177A377FFF7B8B922EA03025B084E
:10828000E277A377FFF7B1B9A37FE17F5A0821EA2C
:108290000303E377A277FFF7A8B9BDF81E30A06803
:1082A000238200F045FBE27FA37F1A43E277002B95
:1082B00067D10123A377FFF798B9BDF82020BDF956
:1082C0001E10A06800F084FBBDF81630BDF91E102A
:1082D0002382A06800F0CCFABDF81C10A06800F062
:1082E00027FBBDF81A10A06800F022FBBDF818109B
:1082F000A06800F01DFBA068BDF8161000F018FB88
:10830000FFF773B908AAA068B4F91C1000F050FB7D
:10831000BDF82020013292B2ADF8202022E7BDF84E
:108320001800BDF8205001B20029BDF91A6029B229
:1083300045DD8E42D4BF002101212844ADF8200044
:10834000FFF78FBB8842CCBF00210121FFF789BB1B
:10835000A06808A900F06CFAF0E4A06808A900F091
:1083600067FAA1E4A06808A900F0F2FA9CE4A0680A
:1083700008A900F0EDFAE1E4A06808A900F050FBBC
:1083800092E45B00A377FFF730B944F64446C0F2AD
:1083900021060AAF0FCE0FC796E80F0087E80F003F
:1083A0000AA92046FBF714FB237B65F345132373CF
:1083B000FFF70CB9A06808A900F032FBBEE48E42BA
:1083C000ACBF00210121B8E7AFF30080AFF300801C
:1083D000037B2DE9F04143F02003037304464FF083
:1083E000030803F0070302270025FF26022B0ED007
:1083F000032B28D0012BF9D1A06A01F031F9237B9E
:1084000098B99A0636D403F00703022BF0D1204620
:10841000FBF70EFB237B012262F302032373A06AA6
:1084200001F01EF9237B0028EBD067F3020344F62A
:10843000F8412373C0F221012046FBF7C9FA237BE0
:1084400003F00703D2E797224FF6FF73E274A3838A
:10845000A0682582A674A577E57700F001F920468B
:10846000FEF7C6FF237B012262F302036FF345137D
:108470002373C1E768F3020344F618512373C0F273
:1084800021012046FBF7A4FA237BBCE7AFF3008071
:1084900038B505460C2006F0D3FE04462560284674
:1084A00000F0E6FE03462381023006F0C9FE0022FA
:1084B0006060134600E0606815F8011B01338154C9
:1084C00021899BB202318B421A46F4D3204638BD33
:1084D00070B506460C200D4606F0B2FE0446266036
:1084E000A81C258106F0ACFE0346014663602846C1
:1084F00000F066FE204670BDAFF30080AFF3008051
:1085000010B40022134690E81200A45C01338C548E
:1085100001899BB202318B421A46F4D318465DF8AA
:10852000044B7047AFF30080AFF30080AFF30080DF
:1085300010B50446406806F08BFE2046BDE81040AA
:1085400006F086BEAFF30080AFF30080AFF300808B
:108550004368481C0B449A7080B27047AFF30080A8
:108560004368481C0B449B7880B21370704700BF6F
:1085700070B543680231581845788CB2585C4FF694
:10858000FF7382B09C4216468DF805508DF80400AA
:1085900003D001A800F06CFE3080204602B070BD10
:1085A000D0B546688B1C82B01E441746002301A834
:1085B000F45CC4540133042BFAD104318CB24FF66D
:1085C000FF739C4202D000F06BFE3860204602B080
:1085D000D0BD00BFAFF30080AFF30080AFF30080E9
:1085E000D0B546688B1C82B01E441746002301A8F4
:1085F000F45CC4540133042BFAD104318CB24FF62D
:10860000FF739C4202D000F05BFE3860204602B04F
:10861000D0BD00BFAFF30080AFF30080AFF30080A8
:10862000F0B5446883B08B1C1C4417460DF1FF3332
:108630000DF1070614F8015B03F8015FB342F9D1AD
:1086400001F10804A4B24FF6FF739C4204D06846BF
:1086500000F046FEC7E90001204603B0F0BD00BFB0
:10866000002210B44FF480710124134680F80041B9
:10867000A0F80411A0F80221C2540133B3F5807FA1
:10868000FAD15DF8044B7047AFF30080AFF3008080
:1086900041F2A832C2F200024FF48073012000219F
:1086A000A2F8043182F80001A2F80211531EFF3231
:1086B00003F8011F9342FBD1704700BFAFF3008066
:1086C00041F2A833C2F2000393F8000100B97047E9
:1086D000002283F800211846F9E700BFAFF30080BD
:1086E00041F2A833C2F20003984200D07047012241
:1086F0004FF48073002180F80021A0F80431A0F825
:108700000211431E00F1FF0203F8011F9342FBD147
:10871000ECE700BFAFF30080AFF30080AFF3008061
:108720000A884B88A0F80221A0F80431704700BFE6
:10873000B0F80221B0F804310A804B80704700BFC6
:1087400070B4B0F802410A8823B2C518C2F30726F4
:10875000C254A4B26E704A88A31C1BB2C2F3072590
:10876000C1180434C2544D70A0F8024170BC704767
:10877000B0F8022130B4023A92B214B2055D04445A
:1087800064784FF0000365F3070364F30F23A0F848
:1087900002214B80B0F802214FF00003023A92B25E
:1087A00014B2055D0444647865F3070364F30F2392
:1087B000A0F8022130BC0B80704700BFAFF30080EF
:1087C000B0F80231194489B2A0F8021108B270471A
:1087D000B0F80231591A89B2A0F8021108B27047F4
:1087E000B0F90201704700BFAFF30080AFF3008023
:1087F00008447047AFF30080AFF30080AFF3008010
:10880000B0F9023118447047AFF30080AFF3008035
:10881000B0F80221034610B201321954A3F8022124
:10882000704700BFAFF30080AFF30080AFF300806C
:10883000B0F80231013B9BB21AB2825CA0F802315F
:108840000A70B0F902017047AFF30080AFF3008007
:10885000435C084613707047AFF30080AFF30080AD
:1088600042540846704700BFAFF30080AFF300806A
:1088700030B4B0F80221034610B2C1F307251C182A
:10888000195402326570A3F8022130BC704700BF52
:1088900030B4B0F802214FF00003023A92B214B2A1
:1088A000055D0444647865F3070364F30F23A0F8BF
:1088B00002210B80B0F9020130BC7047AFF3008099
:1088C00010B4B0F802214FF00003023A12B2845CF7
:1088D0001044407864F3070360F30F230B801046C5
:1088E0005DF8044B704700BFAFF30080AFF300802A
:1088F00010B4445C084440784FF0000364F307036D
:1089000060F30F23138008465DF8044B704700BFE7
:1089100010B44318C2F3072442545C7008465DF853
:10892000044B7047AFF30080AFF30080AFF30080DB
:1089300030B4B0F80221034610B2C1F307251C1869
:10894000195402326570A3F8022130BC704700BF91
:1089500030B4B0F802214FF00003023A92B214B2E0
:10896000055D0444647865F3070364F30F23A0F8FE
:1089700002210B80B0F9020130BC7047AFF30080D8
:1089800010B4B0F802214FF00003023A12B2845C36
:108990001044407864F3070360F30F230B80104604
:1089A0005DF8044B704700BFAFF30080AFF3008069
:1089B00010B4445C084440784FF0000364F30703AC
:1089C00060F30F23138008465DF8044B704700BF27
:1089D00010B44318C2F3072442545C7008465DF893
:1089E000044B7047AFF30080AFF30080AFF300801B
:1089F000F0B4B0F8027182B002AC3EB2851944F80E
:108A0000041D0023E25CEA540133042BFAD104373D
:108A1000A0F80271304602B0F0BC7047AFF300809E
:108A200030B4B0F802310546043B9BB218B282B0B4
:108A3000A5F8023101AC05440023EA5CE25401339D
:108A4000042BFAD1019B0B6002B030BC704700BF11
:108A500050B482B00844002301AEC45CF454013326
:108A6000042BFAD1019B0846136002B050BC70473A
:108A700010B483B002AC084444F8042D0023E25C37
:108A8000C2540133042BFAD1084603B05DF8044BFD
:108A9000704700BFAFF30080AFF30080AFF30080FA
:108AA000F0B4B0F8027182B002AC3EB2851944F85D
:108AB000041D0023E25CEA540133042BFAD104378D
:108AC000A0F80271304602B0F0BC7047AFF30080EE
:108AD00030B4B0F802310546043B9BB218B282B004
:108AE000A5F8023101AC05440023EA5CE2540133ED
:108AF000042BFAD1019B0B6002B030BC704700BF61
:108B000050B482B00844002301AEC45CF454013375
:108B1000042BFAD1019B0846136002B050BC704789
:108B200010B483B002AC084444F8042D0023E25C86
:108B3000C2540133042BFAD1084603B05DF8044B4C
:108B4000704700BFAFF30080AFF30080AFF3008049
:108B500070B4B0F8025183B002A92EB261E90223C9
:108B600084190023CA5CE2540133082BFAD108357A
:108B7000A0F80251304603B070BC7047AFF30080DC
:108B800010B4B0F802310446083B9BB218B2A4F806
:108B9000023183B004440023E25C0DF8032001336A
:108BA000082BF9D1DDE90023C1E9002303B05DF80A
:108BB000044B7047AFF30080AFF30080AFF3008049
:108BC00030B4084482B00023C45C0DF80340013384
:108BD000082BF9D1DDE900450846C2E9004502B09D
:108BE00030BC7047AFF30080AFF30080AFF300807C
:108BF00010B483B002AC64E9022308440023E25CB1
:108C0000C2540133082BFAD1084603B05DF8044B77
:108C1000704700BFAFF30080AFF30080AFF3008078
:108C2000F0B40546084600E01846034613F8012B49
:108C3000002AF9D1814288BFB5F8044118D8B5F8A7
:108C400004C117460CF1FF3C1FFA8CFC6346044636
:108C500001E014F8017D9AB216B2013B8C42A5F8EE
:108C600004219BB2AF55F4D1041BC4EB0C04A4B295
:108C7000B5F80231C4F3072118B22A182C54023374
:108C80005170A5F80231F0BC704700BFAFF300800F
:108C9000B0F8043101E04A1C10D01AB2825C0133F2
:108CA0009BB219B2002AF6D1A0F80431B0F8023113
:108CB000023B9BB2A0F8023118B27047A0F8041131
:108CC000F4E700BFAFF30080AFF30080AFF30080A4
:108CD00010B4B0F802210346023A12B29C5C1A4466
:108CE00052784FF0000064F3070062F30F2000B2E7
:108CF00003440B605DF8044B704700BFAFF3008086
:108D000030B44418455C647803464FF0000065F3C6
:108D1000070064F30F2000B203441360084630BC20
:108D2000704700BFAFF30080AFF30080AFF3008067
:108D300030B44418455C4FF00003647865F30703D2
:108D400064F30F239BB215781CB2055512F8014B42
:108D500001339BB2002CF5D1084630BC704700BFF0
:108D60004FF40040C4F20300036B10B5DB000CD5D8
:108D7000012441F2B84341F2BC41C2F20003224651
:108D8000C2F200011C70FAF77BF8BDE81040F8F75A
:108D90001FBF00BFAFF30080AFF30080AFF30080D0
:108DA000704700BFAFF30080AFF30080AFF30080E7
:108DB000704700BFAFF30080AFF30080AFF30080D7
:108DC00044F6405010B50221C0F22100FAF7E8F94C
:108DD000FAF7C6F84FF4D4504FF4D842C0F2060068
:108DE000C0F2DC220021FAF723F94FF480724FF42D
:108DF000007300200B21FAF7CBF800206421FAF76A
:108E00004FF900200146FAF76BF90020FAF7A0F9B4
:108E10004FF480724FF4007301200B21FAF7B8F879
:108E200001206421FAF73CF94FF46064002101202D
:108E3000FAF756F9C4F20E040120FAF789F9204630
:108E400004210622F9F7F4FD204620210622BDE880
:108E50001040F9F7EDBD00BFAFF30080AFF3008025
:108E6000032903D8DFE801F0130906037047114610
:108E7000FAF736B90021FAF733B901284FF46063E5
:108E8000C4F20E030CBF202204225A63704701284B
:108E90004FF46063C4F20E030CBF202204221A6355
:108EA000704700BFAFF30080AFF30080AFF30080E6
:108EB00010B544F660504FF40044C4F2030404219A
:108EC000C0F22100FAF76CF92046F9F799FF0B225E
:108ED00020460F21F9F7B4FF4FF4D8412046C0F2E5
:108EE000DC21F9F7BDFF1D205021F8F7D1FE4FF02E
:108EF0008053636210BD00BFAFF30080AFF300800A
:108F0000032870B50D4632D8012202FA00F04FF462
:108F10000044C4F20304022641F2BC412061C2F2C3
:108F2000000120462660F9F7ABFF236BDA0641F219
:108F3000B84348BF2660C2F200031A780AB1002283
:108F40001A7041F2BC43C2F20003B3F9003064224C
:108F500002FB03F340F60302C8F2200282FB031275
:108F6000D9171344C1EB63232B80012070BD00206F
:108F700070BD00BFAFF30080AFF30080AFF300809F
:108F8000012303FA01F1F9F753BD00BFAFF30080ED
:108F9000C36B012023FA01F101EA0003137070474B
:108FA000012303FA01F112B9416301207047016303
:108FB00001207047AFF30080AFF30080AFF3008073
:108FC00044F6B05008B50221C0F22100FAF7E8F8E3
:108FD0004FF480724FF4007302200B21F9F7D8FF91
:108FE00002204FF47A61FAF75BF800210220FAF7C9
:108FF00077F80220FAF7ACF84FF400734FF4807260
:1090000003200B21F9F7C4FF03204FF47A61FAF72C
:1090100047F803200021FAF763F8BDE80840032071
:10902000FAF796B8AFF30080AFF30080AFF300809B
:109030000230C0B2FAF754B8AFF30080AFF300804B
:1090400010B544F690500221C0F221004FF40044C4
:10905000FAF7A6F8C4F20104FAF752F94FF4D45122
:109060004FF4D8422046C0F20601C0F2DC22FAF7E3
:109070005FF941F2B0402146C2F20000BDE8104065
:10908000FAF74EBBAFF30080AFF30080AFF3008080
:10909000F0B585B09DF8286086460F461546002439
:1090A00041F2B0408DE8480071463A462B460294A2
:1090B000C2F20000FAF7DCFB05B0F0BDAFF30080B0
:1090C000F0B585B09DF8286086460F461546002409
:1090D00041F2B0408DE8480071463A462B46029472
:1090E000C2F20000FAF724FB05B0F0BDAFF3008038
:1090F00008B5F9F74DFABDE80840F8F719BE00BF0A
:1091000038B5054608460C4600F072FA281D00F0F6
:1091100077FA214605F11C0000F002F9204600F024
:1091200017F8204600F034F8204600F069F9204690
:1091300000F0A6FA204600F02BF92046BDE83840A2
:1091400000F016B8AFF30080AFF30080AFF30080FB
:10915000FFF7AEBEAFF30080AFF30080AFF3008047
:10916000FFF7CEBEAFF30080AFF30080AFF3008017
:10917000FFF716BEAFF30080AFF30080AFF30080BF
:10918000FFF716BEAFF30080AFF30080AFF30080AF
:10919000704700BFAFF30080AFF30080AFF30080F3
:1091A00000207047AFF30080AFF30080AFF3008082
:1091B000C0F3072348700B70704700BFAFF3008007
:1091C000030A48700B707047AFF30080AFF3008064
:1091D00010B4020C040E030A0C70C8704A708B7035
:1091E0005DF8044B704700BFAFF30080AFF3008021
:1091F00010B4020C040E030A0C70C8704A708B7015
:109200005DF8044B704700BFAFF30080AFF3008000
:1092100010B4C0F30742C0F30764C0F307230C7017
:10922000C8704A708B705DF8044B7047AFF30080D4
:10923000F0B4C1F3076CC1F30747C1F30726C0F3CD
:109240000765C0F30744C0F3072357709670157184
:109250005471D170D07182F800C09371F0BC704726
:109260000278437803EB022000B27047AFF300802E
:109270000278437803EB022080B27047AFF300809E
:1092800043780178C2781B0403EB016380781344B0
:1092900003EB0020704700BFAFF30080AFF3008006
:1092A00043780178C2781B0403EB01638078134490
:1092B00003EB0020704700BFAFF30080AFF30080E6
:1092C00001784278002361F31F63817862F31743CA
:1092D000C27861F30F2362F307031846704700BF9B
:1092E00010B404784178002364F31F63847861F339
:1092F0001743C17864F30F23047961F30703002255
:10930000417964F31F62847961F31742C17964F390
:109310000F2261F30702104619465DF8044B7047AF
:1093200038B50379054683B100242A6804EB44016B
:1093300002EB810352F8210059689A68FFF720FE7A
:1093400001342B79E4B2A342EFD838BDAFF30080EB
:1093500003798B4201D80020704701EB410100687E
:109360008B00C1184968C058FFF712BEAFF30080E8
:1093700003798B4201D80020704701EB410100685E
:109380008B00C1184968C058FFF70ABEAFF30080D0
:10939000FFF756BEAFF30080AFF30080AFF300805D
:1093A00001207047AFF30080AFF30080AFF300807F
:1093B000704700BFAFF30080AFF30080AFF30080D1
:1093C00010B49DF80440C9B201945DF8044BFFF756
:1093D0005FBE00BFAFF30080AFF30080AFF300804B
:1093E00010B49DF80440C9B201945DF8044BFFF736
:1093F00067BE00BFAFF30080AFF30080AFF3008023
:10940000FFF7DEBCAFF30080AFF30080AFF3008066
:10941000037970B493B1002405682246234641FACB
:1094200004F615F81340013266F3041405F81340EE
:10943000D2B2067953B2B3421C46F0DB70BC70471F
:10944000F8B50179054681B30024234609E00321DC
:109450000022FFF705FD29790134E4B263B28B42A3
:1094600023DA2A685E0012F81330DA06F4D5C3F363
:109470004012C3F38017CAB183F0800103F00F00DC
:10948000C9093A46002FE2D1FFF7EAFC2B68032115
:10949000985D1E4400F00F0072780134FFF7E0FC85
:1094A000E4B2297963B28B42DBDBF8BD022103F021
:1094B0000F00FFF7D5FC2979CEE700BFAFF300809E
:1094C000F0B40679BEB100220568134615F81340C2
:1094D0005F0014F0100F09D061F3451405F8134034
:1094E00019B1EB5D6FF38613EB5506790132D2B2F9
:1094F00053B2B342EADBF0BCFFF7A2BFAFF3008088
:10950000F0B40679BEB100220568134615F8134081
:109510005F0014F0100F09D061F3861405F81340B2
:1095200019B1EB5D6FF34513EB5506790132D2B2F9
:1095300053B2B342EADBF0BCFFF782BFAFF3008067
:1095400070B4057995B100220668134616F81340E9
:10955000013214F0100F1CBF61F3C71406F813405A
:10956000D2B218BF057953B2AB42EFDB70BCFFF744
:1095700067BF00BFAFF30080AFF30080AFF30080A0
:1095800030B40479ACB100220568134615F8131005
:109590005B0011F0100F07D0CC090CBF41F0800127
:1095A0006FF3C711E95404790132D2B253B2A34226
:1095B000ECDB30BCFFF744BFAFF30080AFF30080BB
:1095C000F0B406798EB100220468134614F81350E3
:1095D00004EB4307ED0648BF797002F10102D2B2F5
:1095E00048BF067953B2B342F0DBF0BCFFF728BFA7
:1095F000704700BFAFF30080AFF30080AFF300808F
:1096000008B541F2C020C2F200000021F9F750F87D
:10961000BDE8084041F23430C2F200000021F9F701
:1096200047B800BFAFF30080AFF30080AFF3008016
:1096300008B503684FF0FF315B699847C0B208BDB9
:1096400010B504684FF0FF33A469A047C0B210BD45
:1096500008B503684FF0FF321B69984708BD00BF8B
:1096600008B50368DB689847D0F1010038BF0020D7
:1096700008BD00BFAFF30080AFF30080AFF3008000
:10968000FFF79EBCAFF30080AFF30080AFF3008024
:10969000037970B49BB1002406682246234641FA40
:1096A00004F403EB430304F0010406EB83035C7052
:1096B0000132D2B2057953B2AB421C46EFDB70BC2B
:1096C000704700BFAFF30080AFF30080AFF30080BE
:1096D0002DE9F041017988B08046002949D046F251
:1096E0006767C6F26667002403E00134E4B2A14272
:1096F0003FD904EB4405D8F80030AE0033445A7823
:10970000002AF2D044F6D051B3F90230C0F2210160
:109710002246684606F0E4F8684606F009F9C2B247
:1097200041F234306946C2F20000FFF789FFD8F8F1
:1097300000301E44B6F90200B6F90A20F18800FB99
:1097400002F287FB02E0D217C2EBA0020A44B18802
:1097500092B28A4213F8250003D331898A4238BF76
:109760001146FFF765FC013498F80410E4B2A142F9
:10977000BFD808B0BDE8F081AFF30080AFF3008040
:10978000F0B50646007991B00F46002420B925E0D7
:109790000134E4B2A04221D9326804EB440502EB63
:1097A00085025578002DF3D044F6F451C0F2210122
:1097B0003B4657806846224606F092F8684606F017
:1097C000B7F8C2B241F23430C2F200006946FFF786
:1097D00037FF01343079E4B2A042DDD83046FFF7DC
:1097E00077FF11B0F0BD00BFAFF30080AFF3008092
:1097F0004FF47A7303FB00F044F6D353A0F57A706C
:10980000C1F26203A3FB002398090130F8F7A8BC5A
:1098100041F26823C2F20003D8687047AFF30080BA
:109820002DE9F04F4FF6FF7321F00048C4F20F43CB
:10983000984583B083468A460F4623DD0021C7F64C
:10984000F071884500F3D18014BF00230123002864
:109850000CBF002203F00102002A40F0C68042F251
:10986000FB1A5346C3F6F973CBF6F97A42F6185B46
:10987000002FC8BF9A46C5F2444B5846514603B024
:10988000BDE8F08F4FF6FF73C3F6DB73984500F326
:10989000CC804FF6FF73C3F61F63984540F3B28048
:1098A0004FF0FF3C5A46534658465146CDF804C047
:1098B000F6F7DEFD02460B4680468946F6F7D8FDF0
:1098C000A1A3D3E9002304460D46F6F7D1FDA0A3DA
:1098D000D3E90023F6F71AFC22462B46F6F7C8FD1B
:1098E0009DA3D3E90023F6F711FC22462B46F6F799
:1098F000BFFD9BA3D3E90023F6F708FC22462B46C5
:10990000F6F7B6FD98A3D3E90023F6F7FFFB22464E
:109910002B46F6F7ADFD96A3D3E90023F6F7F6FB49
:1099200042464B46F6F7A4FD93A3D3E900238046B5
:10993000894620462946F6F79BFD91A3D3E90023EB
:10994000F6F7E2FB22462B46F6F792FD8EA3D3E90B
:109950000023F6F7D9FB22462B46F6F789FD8CA3A8
:10996000D3E90023F6F7D0FB22462B46F6F780FD1D
:1099700089A3D3E90023F6F7C7FB22462B46F6F767
:1099800077FDDDF804C00246BCF1FF3F0B467AD0FC
:10999000404649464FEACC04F6F7B8FB5A465346D0
:1099A000F6F766FD44F6606CC0F2210CA444DCE9D5
:1099B0000023F6F7A9FB5A465346F6F7A5FB44F6F3
:1099C0008065C0F22105254402460B46D5E9000119
:1099D000F6F79AFB002F8A468346B8BF01F1004A8A
:1099E0005846514603B0BDE8F08F584651465A4696
:1099F0005346F6F78BFB83468A465846514603B0DA
:109A0000BDE8F08F66A3D3E90023F6F77FFB0023C0
:109A10000022C3F6F073F6F7C1FF00283FF440AF11
:109A20005846514603B0BDE8F08F00F0A1F94FF65B
:109A3000FF73C3F6F273984504460D4634DC4FF6C7
:109A4000FF73C3F6E573984562DC02460B46F6F7F2
:109A50005DFB00230022C3F6F073F6F755FB0022EE
:109A6000804689464FF0804320462946F6F74EFB54
:109A700002460B4640464946F6F724FE4FF0000CDE
:109A800083468A460EE740464946F6F73FFB5A466C
:109A90005346F6F7EDFC02460B4658465146F6F79C
:109AA00033FB83468A46A8E747F6FF73C4F20303F5
:109AB000984520DC00230022C3F6F873F6F724FB58
:109AC0000023804689460022C3F6F87320462946C3
:109AD000F6F7CEFC00230022C3F6F073F6F716FB70
:109AE00002460B4640464946F6F7ECFD4FF0020CA5
:109AF00083468A46D6E60B4600210246CBF6F07135
:109B00000020F6F7DFFD4FF0030C83468A46C9E6D6
:109B100000230022C3F6F073F6F7F6FA002380461E
:109B200089460022C3F6F07320462946F6F7EEFA7E
:109B300002460B4640464946F6F7C4FD4FF0010C7D
:109B400083468A46AEE600BF11DA22E33AAD903F83
:109B5000EB0D76244B7BA93F513DD0A0660DB13F64
:109B60006E204CC5CD45B73FFF8300922449C23FCC
:109B70000D5555555555D53F2F6C6A2C44B4A2BF91
:109B80009AFDDE522DDEAD3F6D9A74AFF2B0B33F59
:109B9000711623FEC671BC3FC4EB98999999C93FD1
:109BA0009C7500883CE4377E000000000000000047
:109BB0002DE9F84FC1F30A57A7F2FF36132E0246DC
:109BC0000B4604460D4689468A46804625DC002E13
:109BD00057DB4FF6FF77C0F20F07374107EA010C5A
:109BE0005CEA000C1ED038A3D3E90023F6F78EFA06
:109BF00000220023F6F7D2FE58B1002DC2BF4FF469
:109C0000801A4AFA06F606EB050A2AEA07094FF017
:109C1000000840464946BDE8F88F332E06DDB6F50C
:109C2000806F47D010461946BDE8F88FA7F2134C55
:109C30004FF0FF3B2BFA0CFB1BEA000FF2D022A3E4
:109C4000D3E90023F6F762FA00220023F6F7A6FE16
:109C50000028DED0002D0DDD142E09D0C7F5866753
:109C600003374FF0010808FA07F818EB040801D38E
:109C700005F1010A28EA0B08D14640464946BDE8ED
:109C8000F88F11A3D3E90023F6F740FA002200234E
:109C9000F6F784FE0028BCD0002D0FDB55EA04083F
:109CA00008BFC146B5D04FF00009C3F6F0794FF0B8
:109CB0000008AEE7F6F72AFABDE8F88F4FF0000883
:109CC0004FF00049A5E700BF9C7500883CE4377E53
:109CD00030B542F2FB1421F00045C3F6E974A54209
:109CE00087B002460B461CDD4FF6FF74C7F6EF74D3
:109CF000A54203DDF6F708FA07B030BD02AA03F06B
:109D00003FFB00F0030001281AD002280FD008B34F
:109D100001230093DDE90201DDE9042304F020FCC6
:109D2000EAE70022002303F0F3FE07B030BDDDE9CF
:109D30000201DDE9042303F0EBFE01F10041DBE762
:109D40000090DDE90423DDE9020104F009FC01F1E2
:109D50000041D1E7DDE90201DDE9042303F0D8FE8B
:109D6000CAE700BF00000000000000000000000083
:109D700021F00041704700BF00000000000000001B
:109D80002DE9F84FC1F30A57A7F2FF36132E02460A
:109D90000B4604460D4689468A46804625DC002E41
:109DA00049DB4FF6FF77C0F20F07374107EA010C96
:109DB0005CEA000C1ED038A3D3E90023F6F7A6F91D
:109DC00000220023F6F7EAFD58B1002DBEBF4FF484
:109DD000801A4AFA06F606EB050A2AEA07094FF046
:109DE000000840464946BDE8F88F332E06DDB6F53B
:109DF000806F3CD010461946BDE8F88FA7F2134C8F
:109E00004FF0FF3B2BFA0CFB1BEA000FF2D022A312
:109E1000D3E90023F6F77AF900220023F6F7BEFD16
:109E20000028DED0002D26DB28EA0B08D14640466C
:109E30004946BDE8F88F18A3D3E90023F6F766F981
:109E400000220023F6F7AAFD0028CAD0002DA4BFE7
:109E50004FF00008C146C4DA25F000420023224337
:109E6000CBF6F07318BF99464FF00008B9E7F6F744
:109E70004DF9BDE8F88F142E09D0C7F58667033772
:109E80004FF0010808FA07F818EB0408CCD305F1E5
:109E9000010AC9E7AFF300809C7500883CE4377E77
:109EA000F8B514461D4606460F4600F039F810B9BD
:109EB00020462946F8BD2046294600F031F838B141
:109EC0003046394622462B46F6F768FD0028EFD08B
:109ED00030463946F8BD00BF000000000000000019
:109EE000F8B514461D4606460F4600F019F810B99D
:109EF00020462946F8BD2046294600F011F838B121
:109F00003046394622462B46F6F72AFD0028EFD088
:109F100030463946F8BD00BF0000000000000000D8
:109F200050EA010301D102207047D0F1010338BF8C
:109F30000023B1F1004F08BF0028F4D021F0004108
:109F40004FF6FF72A1F58010C7F6DF72904201D87C
:109F500004207047B1F5801F01D203207047002014
:109F6000C7F6F070814214BF002003F00100704773
:109F7000F8B5C1F30A57A7F2FF36132E02460B4677
:109F80000D468C4616DC002E31DB4FF6FF7CC0F20E
:109F90000F0C4CFA06FC0CEA010101430FD04FF400
:109FA000002343FA06F62E4426EA0C0C002108464C
:109FB0006146F8BD332E05DDB6F5806F23D010461F
:109FC0001946F8BDA7F213414FF0FF30C8401042C8
:109FD000F5D0C7F5866702370121B940891828BF37
:109FE00003F1010C21EA000108466146F8BD01F0C9
:109FF000004C013602BF4CF07F5C4CF4401C002149
:10A00000D5D00021D3E7F6F781F8F8BD00000000B5
:10A0100030B542F2FB1421F00045C3F6E974A542C5
:10A0200087B002460B461CDD4FF6FF74C7F6EF748F
:10A03000A54203DDF6F768F807B030BD02AA03F0C9
:10A040009FF900F0030001281ED0022811D010B3A0
:10A05000DDE90201DDE9042303F05AFD01F10041CD
:10A06000EAE7002300930022002304F079FA07B006
:10A0700030BD01230093DDE90201DDE9042304F092
:10A080006FFA01F10041D7E7DDE90201DDE90423C0
:10A0900003F03EFDD0E701230093DDE90201DDE995
:10A0A000042304F05DFAC7E7000000000000000090
:10A0B00030B542F2FB1421F00045C3F6E974A54225
:10A0C00087B002460B461CDD4FF6FF74C7F6EF74EF
:10A0D000A54203DDF6F718F807B030BD02AA03F079
:10A0E0004FF9DDE90245DDE9042300F001004100FC
:10A0F000C1F1010100912046294604F0E9FA07B0B8
:10A1000030BD012300930022002304F0E1FA07B0E0
:10A1100030BD00BF00000000000000000000000093
:10A120002DE9F8434FF6FF7321F00042C7F6EF73B5
:10A130009A4206460F460D4617DD0B46002F4FF09C
:10A1400000010246C3F6F0714FF0000047DBF6F75E
:10A15000B9FA00230022C3F6F073F5F7D7FF0246E1
:10A160000B4610461946BDE8F8834FF6FF73C4F25C
:10A1700035039A420BDD0023C3F6F0730022002D55
:10A18000B8BF03F1004310461946BDE8F883B2F1A9
:10A19000725F32DB4FF6FF73C3F6EF739A4239DD1D
:10A1A000FFF7E6FD02460B46F5F7B0FF04F080FC32
:10A1B00000224FF08043F5F7A9FF02460B4600202E
:10A1C0004FF08041F6F77EFA0B4600210246C3F6B7
:10A1D000F0710020F5F798FF02460B46CFE7F6F73F
:10A1E00071FA00230022C3F6F073F5F78DFF0246E3
:10A1F0000B4610461946BDE8F88300230022C3F63B
:10A20000F073F5F783FF32463B46F6F731F9024625
:10A210000B46A6E7FFF7ACFD00224FF04043F6F7F0
:10A2200027F904F045FC00224FF0804380460E469B
:10A23000F5F76CFF06F1004902460B4640464946D9
:10A24000F6F740FA02460B4699E700BF000000000F
:10A25000F8B5C1F30A57A7F2FF36132E02460B4694
:10A260000D460EDC002E01F000421ADB4FF6FF73A4
:10A27000C0F20F03334125EA030343EA0201002041
:10A28000F8BD332E03DDB6F5806F0DD0F8BD4FF06D
:10A29000FF33A7F2134723FA07F7294622EA0700FC
:10A2A000F8BD11460020F8BDF5F730FFF8BD00BF3E
:10A2B0002DE9F0418AB004460D4600F0A1FD40F6BC
:10A2C000B808C2F2000898F90030064601330F467C
:10A2D00004D020462946FFF723FE20B930463946F0
:10A2E0000AB0BDE8F08120462946FFF741FD002372
:10A2F0000022C3F6F073F6F751FB0028EED044F6C7
:10A30000A06344F65460C0F2210301210022C0F290
:10A3100021008DE80A00CDE90445CDE90245089207
:10A3200004F01EFE98F90030CDE90601022B0AD098
:10A33000684604F00DFE30B1089B4BB9DDE906011B
:10A340000AB0BDE8F08104F05BFF21230360F3E76E
:10A3500004F056FF089B0360F0E700BF0000000018
:10A360002DE9F0418AB004460D4600F0B1FF40F6F9
:10A37000B808C2F2000898F90030064601330F46CB
:10A3800004D020462946FFF7CBFD20B93046394698
:10A390000AB0BDE8F08120462946FFF7E9FC00231A
:10A3A0000022C3F6F073F6F7F9FA0028EED044F66F
:10A3B000B06344F65460C0F2210301210022C0F2D0
:10A3C00021008DE80A00CDE90445CDE90245089257
:10A3D00004F0C6FD98F90030CDE90601022B0AD041
:10A3E000684604F0B5FD30B1089B4BB9DDE90601C4
:10A3F0000AB0BDE8F08104F003FF21230360F3E716
:10A4000004F0FEFE089B0360F0E700BF00000000C0
:10A4100001F09EB9000000000000000000000000F4
:10A420002DE9F0418AB004460D4601F091FA40F65C
:10A43000B808C2F2000898F90030064601330F460A
:10A4400004D020462946FFF76BFD20B93046394637
:10A450000AB0BDE8F08120462946FFF789FC1EA31B
:10A46000D3E90023F6F79AFA0028EFD044F6C06348
:10A4700098F80010C0F2210303200022CDE9044522
:10A48000CDE902458DE80900089291B94FF6FF73B6
:10A490004FF06042C4F2EF73CDE90623684604F042
:10A4A00057FD70B1089B8BB9DDE906010AB0BDE824
:10A4B000F08100230022C7F6F0730229CDE90623BC
:10A4C000ECD104F09DFE22230360EBE704F098FE3C
:10A4D000089B0360E8E700BF7DF8B98FCE33864064
:10A4E0002DE9F0438BB004460D4601F0E9FA40F641
:10A4F000B808C2F2000898F90030064601330F464A
:10A500003CD02046294604F01BFD002836D02046CA
:10A51000294631A3D3E90023F6F740FA8146002803
:10A5200031D1204629462EA3D3E90023F6F718FAA5
:10A5300020B398F9000044F6D061C0F2210104264E
:10A54000002200230228CDF82090CDE90445CDE972
:10A55000024501910096CDE9062335D0684604F006
:10A56000F7FC002830D0089B1BB104F049FE089B83
:10A570000360DDE906010BB0BDE8F08330463946E3
:10A580000BB0BDE8F08344F6D06398F80010C0F239
:10A59000210303200022CDE90445CDE902458DE8E1
:10A5A0000900089241B94FF6FF734FF06042C4F2C0
:10A5B000EF73CDE90623D1E700230022C7F6F0733D
:10A5C0000229CDE90623C9D104F01AFE2223036033
:10A5D000C9E700BFAFF30080EF39FAFE422E864094
:10A5E00051302DD5104987C0000000000000000048
:10A5F0002DE9F0478AB01F4680468946164601F08D
:10A60000E7FB40F6B80AC2F2000A9AF900300446A5
:10A6100001330D4604D030463946FFF781FC20B99E
:10A62000204629460AB0BDE8F08740464946FFF774
:10A6300077FC0028F4D03046394600220023F6F794
:10A6400085F90028ECD044F6E0639AF80040C0F2A7
:10A65000210301210022CDE90289CDE904678DE8BB
:10A660000A00089294B10020002102460B46F6F73A
:10A6700029F8022CCDE906010AD104F0C1FD2123FD
:10A680000360089B53B9DDE90601CBE7CDE90689F4
:10A69000684604F05DFC0028F3D1EEE704F0B0FD5D
:10A6A000089B0360EFE700BF00000000000000000F
:10A6B0002DE9F04F8BB0994606460F46904601F0C3
:10A6C000DFFC40F6B80AC2F2000A9AF900300446EC
:10A6D00001330D4603D004F033FC834620B12046FD
:10A6E00029460BB0BDE8F08F3046394604F028FC0F
:10A6F0000028F4D04046494604F022FC0028EED061
:10A7000044F6F0639AF80010C0F221030322CDF85A
:10A7100020B0CDE90267CDE904898DE80C00A1B92C
:10A720004FF6FF734FF06042C4F2EF73CDE906239A
:10A73000684604F00DFC80B1089B1BB104F060FD7D
:10A74000089B0360DDE90601CBE700230022C7F682
:10A75000F0730229CDE90623EAD104F051FD22234A
:10A760000360E9E7000000000000000000000000B6
:10A770002DE9F0418AB004460D4601F0B9FD40F6DE
:10A78000B808C2F2000898F90030064601330F46B7
:10A790000BD020462946FFF7C3FB30B1204629469F
:10A7A00000220023F6F7FAF820B1304639460AB005
:10A7B000BDE8F08144F6007398F80060C0F2210310
:10A7C0000890CDE90245CDE90445019376BB4FF6EB
:10A7D000FF734FF06042CCF2EF73CDE906232046C1
:10A7E000294600220023F6F7B1F870B102239E42F9
:10A7F000009327D0684604F0ABFB18B3089B33BB2B
:10A80000DDE906010AB0BDE8F0810123022E0093C4
:10A8100013D0684604F09CFB78B144F65460C0F253
:10A82000210004F09DFBCDE90601E7E700230022AB
:10A83000CFF6F073CDE90623D1E704F0E1FC212344
:10A840000360EAE704F0DCFC22230360D6E704F0AF
:10A85000D7FC089B0360D3E7000000000000000065
:10A860002DE9F0418AB004460D4601F041FF40F663
:10A87000B808C2F2000898F90030064601330F46C6
:10A880000BD020462946FFF74BFB30B12046294626
:10A8900000220023F6F76EF820B9304639460AB098
:10A8A000BDE8F08144F6107398F80060C0F221030F
:10A8B0000022CDE90245CDE904450193089276BB1B
:10A8C0004FF6FF734FF06042CCF2EF73CDE90623F1
:10A8D0002046294600220023F6F738F870B10223FB
:10A8E0009E42009327D0684604F032FB18B3089BC1
:10A8F00033BBDDE906010AB0BDE8F0810123022E79
:10A90000009313D0684604F023FB78B144F65460FA
:10A91000C0F2210004F024FBCDE90601E7E70023A3
:10A920000022CFF6F073CDE90623D1E704F068FCEE
:10A9300021230360EAE704F063FC22230360D6E7E7
:10A9400004F05EFC089B0360D3E700BF000000003A
:10A950002DE9F04F8BB01D4680468946144601F024
:10A9600057FF40F6B80AC2F2000A9AF900300646CC
:10A9700001330F4604D020462946FFF7D1FA20B90B
:10A98000304639460BB0BDE8F08F40464946FFF7E8
:10A99000C7FA834630BB2046294600220023F5F73C
:10A9A000D5FF0028ECD09AF9000044F6207100236E
:10A9B000C0F2210101260022C3F6F073B0F1FF3F7F
:10A9C00018BF0228CDF820B0CDE90289CDE90445B1
:10A9D00001910096CDE9062330D1DDE906010BB0E7
:10A9E000BDE8F08F0022002340464946F5F7AEFF50
:10A9F000002830D02046294600220023F5F7A6FF84
:10AA00008346002864D044F620739AF90020CDE9EB
:10AA10000445C0F221030120002100240025CDE9D6
:10AA20000289CDE906458DE80900089132B100237D
:10AA30000022C3F6F073CDE90623CEE7684604F0A2
:10AA400087FA002873D0089B002BC6D004F0D8FBEF
:10AA5000089B0360C1E73046394604F071FA83462B
:10AA6000002869D00022002330463946F5F76EFFF2
:10AA7000002885D04046494604F062FA00283FF499
:10AA80007FAF2046294604F05BFA00283FF478AFF8
:10AA90009AF9002044F62073CDE90445C0F2210361
:10AAA0000420002100240025022ACDE90289CDE9F5
:10AAB00006458DE80900089100F09080684604F092
:10AAC00047FA002800F08A80089B002B85D0BDE75C
:10AAD0002046294604F034FA00283FF451AF2046BE
:10AAE000294600220023F5F73BFF00283FF448AF3A
:10AAF00044F620739AF80010C0F2210301228DE879
:10AB00000C00CDF820B0CDE90289CDE90445002242
:10AB10000023002936D1CDE90623684604F018FA4F
:10AB20000028D1D104F06CFB21230360CCE704F0B2
:10AB300067FB2123036086E74046494604F000FA9C
:10AB400000288FD02046294604F0FAF9002889D041
:10AB500030463946FFF7E4F9D8B944F620739AF83D
:10AB60000060C0F2210301220890CDE90289CDE9FD
:10AB700004458DE80C00002E35D100240025CDE9D8
:10AB80000645CAE7CFF6F0730229CDE90623C9D0FE
:10AB9000C3E744F620739AF900200321C0F2210391
:10ABA0008DE80A00CDF820B0CDE90289CDE9044551
:10ABB0004046494612BB4FF6FF774FF06046C4F25D
:10ABC000EF7700220023CDE90667F5F7C9FE0028DC
:10ABD00039D19AF90030022B7FF470AF04F010FBEA
:10ABE0002223036070E70020002102460B46F5F7A0
:10ABF00069FD022ECDE9060194D08EE700270026DC
:10AC0000C7F6F07700220023CDE90667F5F7A8FE26
:10AC10000028DED000230022C3F6E0732046294638
:10AC2000F5F726FC04460D4604F0A2F922462B4611
:10AC3000F5F78CFE0028CCD100230022CFF6F0736C
:10AC4000CDE90623C5E700230022C3F6E0732046C2
:10AC50002946F5F70DFC04460D4604F089F9224615
:10AC60002B46F5F773FE0028B3D14FF6FF734FF074
:10AC70006042CCF2EF73CDE90623AAE700000000A2
:10AC80002DE9F0438BB006460F4602F0A9FD40F6D1
:10AC9000B808C2F2000898F90030044601330D46A6
:10ACA00003D004F04DF9814620B1204629460BB06F
:10ACB000BDE8F0833046394604F042F90028F4D06C
:10ACC00044F6307398F80040C0F2210303228DE867
:10ACD0000C00CDF82090CDE90467CDE9026730463D
:10ACE000394600220023BCB1F5F758FE00220023AC
:10ACF00018B3C7F6F073022CCDE9062317D104F080
:10AD00007FFA22230360089B1BB104F079FA089BA9
:10AD10000360DDE90601CAE7F5F740FE4FF0604247
:10AD20004FF6FF7360B1C4F2EF73CDE906236846B6
:10AD300004F00EF90028E6D1E1E7CFF6F073DAE788
:10AD4000CCF2EF73F1E700BF00000000000000004C
:10AD50002DE9F0478AB004460D4602F019FE40F690
:10AD6000B80AC2F2000A9AF90030064601330F46CB
:10AD70000FD020462946FFF7D3F850B14FF0000816
:10AD80004FF0000942464B4620462946F5F7E8FDBC
:10AD900020B9304639460AB0BDE8F08744F6407322
:10ADA0009AF80060C0F2210301210022CDE9044598
:10ADB000CDE902458DE80A00089266B9CDE9068919
:10ADC000684604F0C5F880B1089B9BB9DDE906012F
:10ADD0000AB0BDE8F0874046494642464B46F5F783
:10ADE00071FC022ECDE90601EAD104F009FA212313
:10ADF0000360E9E704F004FA089B0360E6E700BF9C
:10AE00002DE9F84F4FF6FF7721F00046C3F6EF77B4
:10AE1000BE4204460D460EDD06F1404606F5801C96
:10AE20005CEA000C40F0C680002940F3518100200C
:10AE30000021BDE8F88F4FF6FF77C3F6DF77BE42FB
:10AE400040F3AE800029C0F27F810B46002102460C
:10AE5000C3F6F0710020F5F757F900230022C3F67E
:10AE6000E073F5F705FB04460D4602F091FD9CA347
:10AE7000D3E900238946804629462046F5F7F8FAAB
:10AE800099A3D3E90023F5F741F922462B46F5F7BC
:10AE9000EFFA97A3D3E90023F5F736F922462B46BC
:10AEA000F5F7E6FA94A3D3E90023F5F72FF9224644
:10AEB0002B46F5F7DDFA92A3D3E90023F5F724F941
:10AEC00022462B46F5F7D4FA8FA3D3E90023F5F7F2
:10AED0001DF922462B46F5F7CBFA8DA3D3E90023C3
:10AEE00082468B4620462946F5F7C2FA8AA3D3E963
:10AEF0000023F5F709F922462B46F5F7B9FA88A39E
:10AF0000D3E90023F5F702F922462B46F5F7B0FA0C
:10AF100085A3D3E90023F5F7F7F822462B46F5F78A
:10AF2000A7FA00230022C3F6F073F5F7EFF8024604
:10AF30000B4650465946F5F7C5FB42464B46F5F7DA
:10AF400097FA002682468B4632464B4630464946A3
:10AF5000F5F78EFA02460B4620462946F5F7D4F857
:10AF6000324604460D464B4640464946F5F7CEF874
:10AF700002460B4620462946F5F7A4FB02460B463F
:10AF800050465946F5F7C2F802460B463046494648
:10AF9000F5F7BCF802460B46F5F7B8F8BDE8F88FB0
:10AFA0000023C3F660439E420EDC61A1D1E900019B
:10AFB000BDE8F88F02460B46F5F7A6F802460B46A9
:10AFC000F5F780FBBDE8F88F02460B46F5F750FA1F
:10AFD00043A3D3E9002306460F46F5F749FA42A3F7
:10AFE000D3E90023F5F792F832463B46F5F740FAED
:10AFF0003FA3D3E90023F5F787F832463B46F5F740
:10B0000037FA3DA3D3E90023F5F780F832463B46F3
:10B01000F5F72EFA3AA3D3E90023F5F775F832468F
:10B020003B46F5F725FA38A3D3E90023F5F76EF888
:10B0300032463B46F5F71CFA35A3D3E90023804698
:10B04000894630463946F5F713FA33A3D3E900238E
:10B05000F5F75AF832463B46F5F70AFA30A3D3E93A
:10B060000023F5F753F832463B46F5F701FA2EA3D5
:10B07000D3E90023F5F748F832463B46F5F7F8F9EF
:10B0800000230022C3F6F073F5F740F802460B46A2
:10B0900040464946F5F716FB02460B462046294630
:10B0A000F5F7E6F902460B4623A1D1E90001F5F7D1
:10B0B0002BF802460B4620462946F5F725F80246AE
:10B0C0000B461BA1D1E90001F5F71EF8BDE8F88F8A
:10B0D0001BA1D1E90001BDE8F88F00BFAFF30080EC
:10B0E00009F7FD0DE13D023F88B20175E0EF493FF0
:10B0F0003B8F68B52882A43F5544880E55C1C93F8F
:10B100007D6FEB0312D6D43F555555555555C53F68
:10B1100082922EB1C5B8B33F59018D1B6C06E63F34
:10B12000C88A599CE52A00404B2D8A1C273A0340C7
:10B13000182D4454FB21F93F075C143326A6913C9B
:10B14000182D4454FB21094000230022C3F6F0735C
:10B15000F4F7DCFF00230022C3F6E073F5F788F96B
:10B1600043A3D3E9002304460D46F5F781F942A332
:10B17000D3E90023F4F7CAFF22462B46F5F778F906
:10B180003FA3D3E90023F4F7BFFF22462B46F5F790
:10B190006FF93DA3D3E90023F4F7B8FF22462B460D
:10B1A000F5F766F93AA3D3E90023F4F7ADFF224699
:10B1B0002B46F5F75DF938A3D3E90023F4F7A6FF92
:10B1C00022462B46F5F754F9804689462046294603
:10B1D00002F0DEFB32A3D3E9002306460F462046E9
:10B1E0002946F5F745F930A3D3E90023F4F78CFF9E
:10B1F00022462B46F5F73CF92DA3D3E90023F4F7BB
:10B2000085FF22462B46F5F733F92BA3D3E900231C
:10B21000F4F77AFF22462B46F5F72AF9002300229D
:10B22000C3F6F073F4F772FF02460B4640464946F8
:10B23000F5F748FA32463B46F5F71AF920A3D3E969
:10B240000023F4F761FF02460B4630463946F4F717
:10B250005DFF02460B46F4F759FF02460B461AA162
:10B26000D1E90001F4F750FFBDE8F88FAFF300809B
:10B2700009F7FD0DE13D023F88B20175E0EF493F5E
:10B280003B8F68B52882A43F5544880E55C1C93FFD
:10B290007D6FEB0312D6D43F555555555555C53FD7
:10B2A00082922EB1C5B8B33F59018D1B6C06E63FA3
:10B2B000C88A599CE52A00404B2D8A1C273A034036
:10B2C000075C143326A6913C182D4454FB210940F9
:10B2D0002DE9F04F4FF6FF7321F00048C3F6EF73EE
:10B2E000984587B0824689460F4616DD08F14048EA
:10B2F00008F5801858EA000800F00D8102460B4658
:10B30000F4F702FF02460B46F5F7DCF98246894660
:10B310005046494607B0BDE8F08F4FF6FF73C3F6BD
:10B32000DF73984510DCB8F1795F80F26D819AA3E4
:10B33000D3E90023F4F7EAFE00230022C3F6F073FA
:10B34000F5F72CFB0028E3D150464946FEF710FDE7
:10B350000B4600210246C3F6F0710020F4F7D4FE3C
:10B3600000230022C3F6E073F5F782F88CA3D3E93B
:10B37000002304460D46F5F77BF88BA3D3E90023A1
:10B38000F4F7C4FE22462B46F5F772F888A3D3E9FA
:10B390000023F4F7B9FE22462B46F5F769F886A399
:10B3A000D3E90023F4F7B2FE22462B46F5F760F806
:10B3B00083A3D3E90023F4F7A7FE22462B46F5F733
:10B3C00057F881A3D3E90023F4F7A0FE22462B46C9
:10B3D000F5F74EF87EA3D3E90023CDE9000120461E
:10B3E0002946F5F745F87CA3D3E90023F4F78CFE52
:10B3F00022462B46F5F73CF879A3D3E90023F4F76E
:10B4000085FE22462B46F5F733F877A3D3E90023D0
:10B41000F4F77AFE22462B46F5F72AF80023C3F606
:10B42000F0730022F4F772FECDE9020120462946AE
:10B4300002F0AEFA43F23233C3F6EF739845824618
:10B440008B4600F3838002460B46F4F75FFEDDE98E
:10B450000223CDE90401DDE90001F5F733F90246E5
:10B460000B46DDE90401F5F703F84FF00008CDE9DC
:10B47000000142465B4640465946F4F7F9FF024652
:10B480000B4620462946F4F73FFE424604460D4649
:10B4900050465B465946F4F739FE02460B462046B5
:10B4A0002946F5F70FF902460B46F4F72FFE024640
:10B4B0000B464FA1D1E90001F4F726FE02460B46E8
:10B4C000DDE90001F4F720FE424604460D465B46E6
:10B4D00040465946F4F71AFE02460B4646A1D1E90A
:10B4E0000001F4F711FE02460B4620462946F4F708
:10B4F0000BFE02460B4640A1D1E90001F4F704FE21
:10B5000082468946002FD8BF09F100495046494676
:10B5100007B0BDE8F08F3AA3D3E90023F4F7A8FF02
:10B5200033A3D3E9002304460D4650464946F4F7B9
:10B530009FFF02460B4620462946F4F7E7FD824668
:10B5400089465046494607B0BDE8F08FDDE9022341
:10B55000DDE90001F5F7B6F802460B4650465946BC
:10B56000F4F786FF52465B46F4F7D0FD02460B46E1
:10B57000F4F7CCFD1EA3D3E90023F4F7C5FD024682
:10B580000B461FA1D1E90001F4F7BEFD82468946B2
:10B59000B8E700BFAFF300809C7500883CE4377EBD
:10B5A00009F7FD0DE13D023F88B20175E0EF493F2B
:10B5B0003B8F68B52882A43F5544880E55C1C93FCA
:10B5C0007D6FEB0312D6D43F555555555555C53FA4
:10B5D00082922EB1C5B8B33F59018D1B6C06E63F70
:10B5E000C88A599CE52A00404B2D8A1C273A034003
:10B5F000075C143326A6913C182D4454FB21E93FE7
:10B60000182D4454FB21F93F02460B46F4F730FF56
:10B610003BA3D3E9002304460D46F4F729FF3AA3E0
:10B62000D3E90023F4F772FD22462B46F4F720FFFE
:10B6300037A3D3E90023F4F767FD22462B46F4F73E
:10B6400017FF35A3D3E90023F4F760FD22462B460C
:10B65000F4F70EFF32A3D3E90023F4F755FD224699
:10B660002B46F4F705FF30A3D3E90023F4F74EFD92
:10B6700022462B46F4F7FCFE2DA3D3E90023064611
:10B680000F4620462946F4F7F3FE2BA3D3E9002307
:10B69000F4F73AFD22462B46F4F7EAFE28A3D3E955
:10B6A0000023F4F733FD22462B46F4F7E1FE26A3F0
:10B6B000D3E90023F4F728FD22462B46F4F7D8FE01
:10B6C00000230022C3F6F073F4F720FD02460B4678
:10B6D00030463946F4F7F6FF02460B4650464946D7
:10B6E000F4F7C6FE52464B46F4F710FD82468946F3
:10B6F0005046494607B0BDE8F08F00BFAFF3008069
:10B7000009F7FD0DE13D023F88B20175E0EF493FC9
:10B710003B8F68B52882A43F5544880E55C1C93F68
:10B720007D6FEB0312D6D43F555555555555C53F42
:10B7300082922EB1C5B8B33F59018D1B6C06E63F0E
:10B74000C88A599CE52A00404B2D8A1C273A0340A1
:10B750002DE9F047C2F1000949EA020923F0004847
:10B760004FF0000C48EAD979C7F6F07C82B0E14589
:10B7700014461D46CDE900010F464ED8C0F1000A1F
:10B780004AEA000A21F0004949EADA7AE24544D857
:10B7900003F1404C0CF5801C5CEA020C53D04FEADC
:10B7A000A37A0AF0020A4AEAD17A59EA00013DD0A6
:10B7B00058EA040141D00021C7F6F071884556D0FF
:10B7C0000021C7F6F071894537D0C8EB09084FEA68
:10B7D0002858B8F13C0F46DC18F13C0FACBF4FF0D5
:10B7E00000084FF0010818EAD5781CBF002000219E
:10B7F00069D0BAF1010F63D0BAF1020F53D0BAF198
:10B80000000F10D040A3D3E90023F4F77DFC40A340
:10B81000D3E90023F4F778FC05E010461946DDE98A
:10B820000023F4F773FC02B0BDE8F087BAF1030F10
:10B83000BED8DFE80AF00D0D1410002F2FDB36A163
:10B84000D1E90001EFE702B0BDE8F047FDF7E8BF3E
:10B85000DDE90001E7E732A1D1E90001E3E72CA12E
:10B86000D1E90001DFE72CA1D1E90001C1E7C14521
:10B8700032D0BAF1030FA3D801A151F82AF000BFCA
:10B8800099B8200091B820005FB8200057B8200078
:10B8900000204FF00041C6E700200021C3E722A1AD
:10B8A000D1E90001BFE718A3D3E90023F4F72CFC8A
:10B8B00002460B4616A1D1E90001F4F725FCB2E7D8
:10B8C00001F10041AFE7DDE90001F4F7FBFEFEF70F
:10B8D0004FFAFDF7A5FF8CE7BAF1030FADD8DFE80B
:10B8E0000AF006020E0A12A1D1E900019BE712A19B
:10B8F000D1E9000197E712A1D1E9000193E712A174
:10B90000D1E900018FE700BF075C143326A6A13CF4
:10B91000182D4454FB210940182D4454FB21F93FB4
:10B92000182D4454FB2109C0182D4454FB21F9BFA4
:10B93000182D4454FB21E9BF182D4454FB21E93F45
:10B94000D221337F7CD902C0D221337F7CD90240FF
:10B950002DE9F0414FF6FF7421F00048C7F6EF746F
:10B96000A04502460B4643DC42F64264C3F6D67459
:10B97000A04541DD4FF6FF74C4F23504A04568DDF3
:10B9800042F64164C4F28604A04540F3828043F24B
:10B99000CD34C4F28604A04514DD43F2CE344FF614
:10B9A0007D01C4F28604C8F6B971814228BFA04562
:10B9B00008D03FA1D1E9000102460B46F4F758FD3B
:10B9C000BDE8F08110461946FEF7D2F900230022A7
:10B9D000C3F6E073F4F74CFD00F072F80023044660
:10B9E0000D460022C3F6E073F4F742FD22462B46D3
:10B9F000F4F73EFDBDE8F081FEF7BAF903F058F820
:10BA000000230022C3F6F07306460F46F4F77EFBD0
:10BA1000B8F1725F04460D4639DB32463B4630468C
:10BA20003946F4F725FD224606460F462B462046AA
:10BA30002946F4F76BFB02460B4630463946F4F7CD
:10BA400041FE00230022C3F6F073F4F75FFBBDE86C
:10BA5000F081FEF78DF900F033F800230022C3F6E1
:10BA6000E07306460F46F4F703FD0D460021044639
:10BA700032463B460020C3F6E071F4F723FE02464F
:10BA80000B4620462946F4F741FBBDE8F081BDE8AE
:10BA9000F081FEF76DF900F013F800230022C3F6E1
:10BAA000E073F4F7E5FCBDE8F08100BFAFF3008080
:10BAB0009C7500883CE4377E000000000000000018
:10BAC0002DE9F04F42F6416C21F00047C4F2860C9C
:10BAD000674583B004460D4602460B464FEAD176D1
:10BAE0000FD94FF6FF7CC7F6EF7C674530D9C1F31D
:10BAF0001307074327D1002E40F0348103B0BDE87F
:10BB0000F08F42F64263C3F6D6739F4200F2E080A4
:10BB10004FF6FF73C3F62F639F4200F2F88096A39F
:10BB2000D3E90023F4F7F2FA00230022C3F6F073FE
:10BB3000F4F734FF002800F01A810023204629463C
:10BB40000022C3F6F073F4F7E1FA03B0BDE8F08F1A
:10BB50008BA3D3E90023F4F721FF002840F0DA801B
:10BB60002046294688A3D3E90023F4F7F9FE0028EC
:10BB700040F0F88044F65078C0F2210808EBC6087F
:10BB800083A3D3E9002320462946F4F771FCD8E9C2
:10BB90000023F4F7BBFAF4F70BFF8046F4F702FC3E
:10BBA0007DA3D3E9002306460F46F4F761FC024665
:10BBB0000B4620462946F4F7A7FA79A3D3E90023D8
:10BBC000CDE9000130463946F4F752FC82468B46F7
:10BBD000DDE9000152465B46F4F796FA04460D464D
:10BBE00022462B4620462946F4F742FC6EA3D3E9B1
:10BBF000002306460F46F4F73BFC6DA3D3E9002370
:10BC0000F4F782FA32463B46F4F732FC6AA3D3E9F2
:10BC10000023F4F77BFA32463B46F4F729FC68A38D
:10BC2000D3E90023F4F770FA32463B46F4F720FCE0
:10BC300065A3D3E90023F4F769FA32463B46F4F7EB
:10BC400017FC02460B4620462946F4F75DFA0646E5
:10BC50000F462046294632463B46B8F1000F61D0D8
:10BC6000F4F706FC324604460D463B4600204FF0F2
:10BC70008041F4F749FA02460B4620462946F4F77C
:10BC800021FD02460B4650465946F4F73DFADDE9E0
:10BC90000023F4F739FA0B4600210246C3F6F0718F
:10BCA0000020F4F731FA6FF47F739845A4BF0B4678
:10BCB00003EB0851BFF622AF08F57A7801EB085183
:10BCC00000224FF0B873F4F7D3FB03B0BDE8F08F58
:10BCD0004AF2B123C3F6F0739F423FF64BAF44F6EE
:10BCE0007073F400C0F221032344D3E90023F4F776
:10BCF0000BFA44F66073C0F221032344C6F1010835
:10BD0000CDE90001D3E900ABC6EB080860E74FF0CE
:10BD1000000865E718A1D1E9000102460B46F4F7D7
:10BD2000A7FBEBE6F4F7A4FB0022804689463046E9
:10BD300039464FF08043F4F7E7F902460B46404698
:10BD40004946F4F7BFFC22462B46F4F7DDF90B46D3
:10BD500000210246C3F6F0710020F4F7D5F903B0D4
:10BD6000BDE8F08F0020002103B0BDE8F08F8046D1
:10BD700036E700BFAFF300809C7500883CE4377E57
:10BD8000EF39FAFE422E864051302DD5104987C03A
:10BD9000FE822B654715F73F0000E0FE422EE63F8E
:10BDA000763C7935EF39EA3DD0A4BE726937663EFC
:10BDB000F16BD2C541BDBB3E2CDE25AF6A56113FAB
:10BDC00093BDBE166CC1663F3E5555555555C53F92
:10BDD0002DE9F04F23F0004C83B05CEA0208CDE976
:10BDE000002304461746064600F0F88001F0004A9A
:10BDF0004FF6FF798AEA0108C7F6EF79C84500F3E4
:10BE0000ED80C2F1000B4BEA020B4FF000094CEA47
:10BE1000DB7BC7F6F079CB4500F2E080E0450FDC34
:10BE2000ACBF4FF000094FF00109904238BF49F014
:10BE30000109B9F1000F40F0D980904200F0D9809B
:10BE4000B8F5801FA4BF4FEA2850A0F2FF300FDAE8
:10BE5000B8F1000F40F0E6804FF6ED30002C21469F
:10BE6000CFF6FF7004DD4900002900F1FF30FADC55
:10BE7000BCF5801FA4BF4FEA2C59A9F2FF390FDA95
:10BE8000BCF1000F40F0C2804FF6ED39002A114698
:10BE9000CFF6FF7904DD4900002909F1FF39FADC0A
:10BEA0004FF60241CFF6FF718842A4BFC8F31304D6
:10BEB00044F480141ADA4FF60246CFF6FF76361AAB
:10BEC0001F2ECBBF4FF6E23100F21E41CFF6FF71BD
:10BED00008FA06F8D3BF24FA01F1C0EB01018C4047
:10BEE00004FA06F6CCBF002648EA01044FF60241E8
:10BEF000CFF6FF718945A4BFC3F3130242F4801249
:10BF00001BDA4FF60247CFF6FF77C9EB07071F2F63
:10BF1000CBBF4FF6E23309F21E43CFF6FF730CFAA4
:10BF200007FCD3BF22FA03F3C9EB03039A4002FADA
:10BF300007F7CCBF00274CEA0302C9EB000011E071
:10BF4000BE4238BF03F1FF33002BBEBFF30F03EB3C
:10BF50004404760005DB53EA01044AD005EB4304B0
:10BF60004E000138F11BA31ACD0F0028E8D1B742CB
:10BF70001A4688BF03F1FF32002AACBFC7EB0606A2
:10BF8000224652EA060834D04FF6FF71C0F20F0184
:10BF90008A4208DCF30F03EB42028A4209F1FF39BF
:10BFA0004FEA4606F6DD4FF60243CFF6FF7399459A
:10BFB00047DA4FF60243CFF6FF73C9EB0303142BA6
:10BFC00049DC09F21E41DE4002FA01F142FA03F3B4
:10BFD00041EA060243EA0A01104607E0DDE90023D0
:10BFE000F4F746FA02460B46F4F76CFB03B0BDE8E3
:10BFF000F08F44F680734FEADA7AC0F2210303EB44
:10C00000CA03D3E9000103B0BDE8F08F4FF602493F
:10C01000CFF6FF794FEACC214900002909F1FF3919
:10C02000FADC3DE74FEAC8214FF602400029CFF67F
:10C03000FF707FF71DAF4900002900F1FF30FADCE7
:10C0400016E7A2F5801242EA0A0A09F2FF394AEA23
:10C0500009513046CAE71F2BDDBF09F21E49DE40F9
:10C0600002FA09F24FF6E233C3BFCFF6FF73C9EB12
:10C0700003031A415346D4BF32435346AAE700BFD5
:10C080002DE9F04F21F0004723F00046B742BDBF35
:10C090003C46374626461446C6EB0701A4BF024677
:10C0A0002046B1F1707F89B004469246B946804679
:10C0B000B34600F3AD800023C5F630739F4200F312
:10C0C0008580002401944FF6FF73C2F2AF039E42B5
:10C0D00020DCB6F5801F80F2FD804346334300F03C
:10C0E000908000250024C7F6D075224640462B4696
:10C0F0003146F4F7BDF92246019C8E4680464946FA
:10C1000050462B46A4F2FE340194F346F4F7B0F9FE
:10C110008246894642465B4650464946F3F7F4FF5D
:10C120000C4605460246594640462346F4F718FC9D
:10C1300000287AD000243B46394622462046F4F7B0
:10C1400097F94246CDE902015B4640460BF10041BA
:10C15000F4F78EF93D4606460F4622462B465046DA
:10C160004946F3F7D3FF2246CDE904012B4650465A
:10C170004946F3F7C9FF02460B46DDE90401F4F72F
:10C1800077F902460B4630463946F3F7BDFF0246C3
:10C190000B46DDE90201F3F7B7FF01F0F9FB019C63
:10C1A00084460E466CB1260506F17F5606F540150D
:10C1B000002402460B4620462946F4F759F98446E6
:10C1C0000E466046314609B0BDE8F08F4FF6FF736A
:10C1D000C7F6EF739F4271DDC7F31307174307D00C
:10C1E0005046494622463346F3F790FF8246894639
:10C1F00086F0FF4282F4E0024346134308BFC44680
:10C20000DFD0D4464E466046314609B0BDE8F08FD7
:10C210003346104639462246F3F778FF84460E46E9
:10C220006046314609B0BDE8F08F07F580131F4620
:10C2300000203146CDE902010B460246394606464A
:10C24000F4F716F92A46CDE904012346284604F1FD
:10C250000041F4F70DF9DDE90223CDE9060140467E
:10C260005946F3F751FF02460B4630463946F4F77C
:10C27000FFF8524604460D464B4650464946F3F7F2
:10C2800045FF32463B46F3F73FFF42465B46F4F735
:10C29000EFF802460B4620462946F3F737FF0246E1
:10C2A0000B46DDE90601F3F72FFF02460B46DDE9F9
:10C2B0000401F3F729FF01F06BFB70E7A7F11657B4
:10C2C000A6F116564FF4167480469246B946B34608
:10C2D0000194F8E6019C07F1165706F11656A4F5ED
:10C2E00016740194B946B34614E700BF000000007D
:10C2F0002DE9F04FB1F5801F87B002460B460F467F
:10C3000063DA21F00046064300F002810029C0F202
:10C31000838100230022C4F25033F4F7A9F80F46BA
:10C320000B464FF6FF71C7F6EF718F4202466FF072
:10C33000350552DCC7F3130606F5152404F66474BC
:10C3400004F4801484F07F5181F4401141EA060323
:10C35000194600231046C3F6F0730022F3F7D4FE0B
:10C360004FEA2758B31CA8F2FF38C3F31303A844BD
:10C37000022B08EB145882468B464FF0000233DC48
:10C380000023F4F7E3FA002800F0CD80002000211C
:10C39000B8F1000F25D04046F4F704F8A2A3D3E982
:10C3A000002306460F46F4F763F8A1A3D3E9002360
:10C3B00004460D4630463946F4F75AF802460B4615
:10C3C00020462946F3F7A2FE0BE04FF6FF71C7F6B1
:10C3D000EF718F424FF00005ACDD10461946F3F7C0
:10C3E00095FE07B0BDE8F08F4FF08043F3F78EFE67
:10C3F00002460B4650465946F4F764F9CDE902016E
:10C400004046F3F7CFFFCDE90401DDE90201024622
:10C410000B46F4F72DF802460B46CDE90001F4F780
:10C4200027F885A3D3E9002304460D46F4F720F846
:10C4300083A3D3E90023F3F769FE22462B46F4F7E2
:10C4400017F881A3D3E90023F3F760FE22462B46B9
:10C45000F4F70EF87EA3D3E90023F3F757FEDDE9E6
:10C460000023F4F705F87CA3D3E90023CDE900010C
:10C4700020462946F3F7FCFF79A3D3E90023F3F71D
:10C4800045FE22462B46F3F7F3FF77A3D3E90023BB
:10C49000F3F73CFE22462B46F3F7EAFF02460B4633
:10C4A000DDE90001F3F732FEA6F5C227C6F5D7266F
:10C4B000A7F27A4751363743002F04460D465CDD1C
:10C4C00000230022C3F6E07350465946F3F7D0FF2D
:10C4D00052465B46F3F7CCFF06460F46B8F1000F15
:10C4E00067D122462B46F3F711FEDDE90223F3F76D
:10C4F000BFFF02460B4630463946F3F705FE0246BB
:10C500000B4650465946F3F7FFFD07B0BDE8F08FE4
:10C510000021002200230020CCF25031F4F7D2F8A1
:10C5200007B0BDE8F08F52465B4650465946F3F7D8
:10C530009FFF4FA3D3E9002304460D4650465946BA
:10C54000F3F796FF0B4600210246C3F6E071002088
:10C55000F3F7DAFD02460B4620462946F3F788FF3B
:10C5600004460D46B8F1000F40F08680504659460B
:10C5700022462B46F3F7C8FD33E7B8F1000F00F071
:10C580009F8029A3D3E90023DDE90401F3F770FFBD
:10C5900022462B4606460F4650465946F3F7B4FD51
:10C5A000DDE90223F3F764FF04460D46DDE90401EB
:10C5B00070E01DA3D3E90023DDE90401F3F758FF80
:10C5C0002246804689462B4630463946F3F79EFD83
:10C5D000DDE90223F3F74CFF15A3D3E9002304465A
:10C5E0000D46DDE90401F3F743FF02460B46204602
:10C5F0002946F3F78BFD02460B4630463946F3F7E2
:10C6000083FD52465B46F3F77FFD02460B464046EC
:10C610004946F3F779FDE4E6F3F776FD00220023BF
:10C62000F4F750F8DDE600BF0000E0FE422EE63FE2
:10C63000763C7935EF39EA3D44523EDF12F1C23F94
:10C64000DE03CB966446C73F599322942449D23FD8
:10C65000935555555555E53F9FC678D0099AC33F28
:10C66000AF788E1DC571CC3F04FA97999999D93F3F
:10C67000555555555555D53F4046F3F793FE16A3EE
:10C68000D3E9002380468946F3F7F2FE06460F46BB
:10C690004046494612A3D3E90023F3F7E9FE0246D8
:10C6A0000B4620462946F3F72FFD52465B46F3F72B
:10C6B0002BFD02460B4630463946F3F725FD90E642
:10C6C00002460B4650465946F3F71EFDDDE90223AC
:10C6D000F3F7CEFE13E700BF0000E0FE422EE63F78
:10C6E000763C7935EF39EA3D00000000000000009B
:10C6F000B1F5801F2DE9F84306460F460B461EDABA
:10C7000021F00043034362D000296ADB00230022AA
:10C71000C4F25033F3F7ACFE4FF6FF720B46C7F688
:10C72000EF7293420F4606466FF035010FDD30463B
:10C73000394632463B46F3F7E9FCBDE8F8834FF64D
:10C74000FF72C7F6EF7293424FF00001EFDC1A154B
:10C75000A2F2FF3250184FEAD0784044C3F31309D5
:10C76000F3F720FEC8F57F7808F1030849EA085777
:10C7700004460D4630463946FFF7BAFD1EA3D3E9FD
:10C7800000238046894620462946F3F771FE1CA304
:10C79000D3E9002306460F4620462946F3F768FEF4
:10C7A00019A3D3E9002304460D4640464946F3F752
:10C7B0005FFE02460B4620462946F3F7A7FC0246D9
:10C7C0000B4630463946F3F7A1FCBDE8F88300215B
:10C7D000002200230020CCF25031F3F773FFBDE8B4
:10C7E000F88302460B46F3F78FFC00220023F3F791
:10C7F00069FFBDE8F88300BF00609F501344D33F3A
:10C80000362BF111F3FE593D0EE526157BCBDB3FB0
:10C810002DE9F04F9A4694462AF000488146064694
:10C8200058EA0C0093B014461D468B460F4600F0A4
:10C830008A80002221F00040C7F6F07290420290F8
:10C8400012DDDDF8088008F1404C0CF5801C5CEA34
:10C85000060640F082804FF0000BC3F6F07B3046B6
:10C86000594613B0BDE8F08F14BF00230123B9F17E
:10C87000000F0CBF002103F001010029E1D1904518
:10C88000DFDC14BF00210121BCF1000F0CBF00222E
:10C8900001F00102002AD4D1002F67DB0492A4B971
:10C8A000002940F088800022C3F6F072904500F025
:10C8B000B980B5F1804F04BF484659463CD00022AC
:10C8C000C3F6E072954200F0FF8348465946019353
:10C8D000CDF800C0FDF74CFA019BDDF800C056B959
:10C8E000029A002A08BF43F00103002B7CD1C3F653
:10C8F000F0739A4278D0FB0F049F013B1F430A93C9
:10C9000000F08B800023C4F2E013984540F3A4802C
:10C910000023C4F2F033984540F346844FF6FF738A
:10C92000DDF80880C3F6EF73984540F3D783002DF8
:10C9300057DD47A1D1E9000102460B46F3F798FD08
:10C9400006468B468BE74FF0000B0646C3F6F07B9E
:10C950003046594613B0BDE8F08F44F65460C0F23B
:10C96000210013B0BDE8F04F02F0FABA4FF6FF70A5
:10C97000C4F23F30804565DC4FF6FF70C3F6EF70C0
:10C9800080458BDD4FEA285240F21340824240F34B
:10C990008C84C2F5866203322CFA02F000FA02F2AD
:10C9A000624502BF00F00100C0F1020004903FF4B4
:10C9B00076AF002272E7DDF8088008F1404303F506
:10C9C00080131E433FF447AF4FF6FF73C3F6EF7378
:10C9D000984540F3B683002DA4BF6646D346BFF604
:10C9E0003EAF0026B3463AE7002DC0F25484002F34
:10C9F000A6DA029E049F06F1404303F580131F430D
:10CA000040F06B8402460B46F3F77EFB02460B4672
:10CA1000F3F758FE06468B4621E7484659464A46F4
:10CA20005B46F1E7002DA8BF4E46BFF618AF0021C8
:10CA30005B464A460020C3F6F071F3F743FE064614
:10CA40008B460CE702200490002C3FF429AF3CE712
:10CA50009C7500883CE4377E029FB7F5801FA8BF15
:10CA600000250CDA00230022C4F24033CDF800C0C8
:10CA7000F3F7FEFCDDF800C002916FF03405DDF83D
:10CA8000088049F68E024FEA2854C8F31303C0F217
:10CA90000302A4F2FF3693422E4443F07F54D8BFE2
:10CAA0000025119644F44014D8BFAB4610DD4BF27C
:10CAB0007962C0F20B029342C1BF00250136119684
:10CAC000A4F58014CEBFAB464FF480254FF0010B88
:10CAD00044F6B071024623464FEACB0BC0F2210167
:10CAE000CDE9082301EB0B03D3E90067DDE9080179
:10CAF00032463B46CDF800C0CDE90C67F3F704FBA6
:10CB0000DDE90C2306460F46DDE90801F3F7FEFADE
:10CB10000B4600210246C3F6F0710020F3F7D2FD68
:10CB2000CDE90E01DDE90E2330463946F3F7A0FCCE
:10CB3000CDE90601DDE906896110002041F00051D0
:10CB4000CDE9028901F500210290DDE902896B1827
:10CB500000224046494614461D46F3F789FC02462A
:10CB60000B4630463946F3F7CFFADDE90C2306468B
:10CB70000F4620462946F3F7C7FA02460B46DDE981
:10CB80000801F3F7C1FA02460B4640464946F3F75F
:10CB90006FFC02460B4630463946F3F7B5FADDE93D
:10CBA0000E23F3F765FC06460F46DDE90601024653
:10CBB0000B46F3F75DFC02460B4604460D46F3F7C1
:10CBC00057FC7FA3D3E90023CDE90801204629467D
:10CBD000F3F74EFC7CA3D3E90023F3F797FA224640
:10CBE0002B46F3F745FC7AA3D3E90023F3F78EFA3B
:10CBF00022462B46F3F73CFC77A3D3E90023F3F757
:10CC000085FA22462B46F3F733FC75A3D3E90023BC
:10CC1000F3F77CFA22462B46F3F72AFC72A3D3E9FA
:10CC20000023F3F773FA02460B46DDE90801F3F738
:10CC30001FFCDDE9062304460D4640464946F3F74E
:10CC400065FA32463B46F3F713FC22462B46F3F7D0
:10CC50005DFA4246CDE908014B4640464946F3F7A6
:10CC600007FC00230022C4F20803CDE90C01F3F70E
:10CC70004DFADDE90823F3F749FA02980D46044618
:10CC800022462B4640464946F3F7F2FB22468046B1
:10CC900089462B4630463946F3F7EAFB0023064621
:10CCA0000F46204629460022C4F20803F3F72CFA67
:10CCB000DDE90C23F3F728FA02460B46DDE908010B
:10CCC000F3F722FADDE90623F3F7D2FB02460B461F
:10CCD00030463946F3F71AFA06460F4632463B46C7
:10CCE00040464946F3F712FA41A3D3E900230298DC
:10CCF0000D460446F3F7BCFB3FA3D3E90023CDE97F
:10CD0000080120462946F3F7B3FB4246CDE9060168
:10CD10004B4620462946F3F7F7F902460B463046C4
:10CD20003946F3F7F1F936A3D3E90023F3F7A0FB73
:10CD300002460B46DDE90601F3F7E8F944F6A07375
:10CD4000C0F221035B44D3E90023F3F7DFF9804607
:10CD500011988946F3F726FB44F69073C0F221033D
:10CD60005B44D3E9006704460D464246DDE908010D
:10CD70004B46CDE90667F3F7C9F9DDE90623F3F77A
:10CD8000C5F922462B46F3F7C1F9029822462B46F5
:10CD900006460F46F3F7B8F9DDE90623F3F7B4F9D1
:10CDA000DDE90823F3F7B0F902460B464046494651
:10CDB000F3F7AAF9CDE90601DDF800C024E000BFD1
:10CDC000EF4E454A287ECA3F65DBC9934A86CD3F70
:10CDD00001411DA96074D13F4D268F515555D53F56
:10CDE000FFAB6FDBB66DDB3F033333333333E33FEE
:10CDF000000000E009C7EE3FF5015B14E02F3EBEE6
:10CE0000FD033ADC09C7EE3FDDF81080DDF828901D
:10CE100008F1FF3353EA090962464FF0000953460F
:10CE20004FF000000CBFCBF6F079C3F6F079CDE9F6
:10CE300002234FF000080290CDE90A89DDE902895A
:10CE40006046514642464B46CDF800C0F3F75CF9C8
:10CE50003B463246F3F70CFBDDE90623DDF800C064
:10CE600004460D4660465146F3F702FB02460B4668
:10CE700020462946F3F74AF93B46CDE904013246FC
:10CE800040464946F3F7F4FA04460D462B46DDE9E1
:10CE900004012246F3F73AF94FF6FF73C4F28F0309
:10CEA000994282468B460F4640F31C8101F13F4375
:10CEB00003F5E003034340F01A82A7A3D3E900235C
:10CEC000DDE90401F3F722F92246804689462B4624
:10CED00050465946F3F718F902460B464046494674
:10CEE000F3F75CFDD846002840F015824FEA28533E
:10CEF000A3F2FE334FF4801119413944C1F30A53B0
:10CF00004FF6FF72A3F2FF36C0F20F02C3F5826044
:10CF1000C1F3130A42FA06F603304AF4801A4AFAB9
:10CF200000FA21EA0603002F4FF0000220462946AE
:10CF3000B8BFCAF1000AF3F7E7F804460D462246E7
:10CF4000DDE904012B46F3F7E1F84FEA0A5B00261E
:10CF500083A3D3E9002330460F46F3F789FA22462C
:10CF6000804689462B4630463946F3F7CDF80246CF
:10CF70000B46DDE90401F3F7C7F87BA3D3E90023EF
:10CF8000F3F776FA7AA3D3E9002304460D46304638
:10CF90003946F3F76DFA02460B4620462946F3F769
:10CFA000B5F804460D4622462B4640464946F3F75F
:10CFB000ADF842464B4606460F46F3F7A5F8024643
:10CFC0000B4620462946F3F79FF8324680468946AD
:10CFD0003B4630463946F3F74BFA67A3D3E90023C3
:10CFE00004460D46F3F744FA65A3D3E90023F3F7AB
:10CFF0008BF822462B46F3F73BFA63A3D3E90023D1
:10D00000F3F784F822462B46F3F732FA60A3D3E90C
:10D010000023F3F779F822462B46F3F729FA5EA3AB
:10D02000D3E90023F3F772F822462B46F3F720FAF0
:10D0300002460B4630463946F3F766F804460D467D
:10D0400022462B4630463946F3F712FA0022CDE944
:10D0500002014FF0804320462946F3F755F8024677
:10D060000B46DDE90201F3F72DFB424604460D466F
:10D070004B4630463946F3F7FBF942464B46F3F749
:10D0800045F802460B4620462946F3F73DF832465E
:10D090003B46F3F739F80B4600210246C3F6F07120
:10D0A0000020F3F731F88B44BBF5801F0B46024696
:10D0B000A8BF5B46C0F23B81DDE90A01F3F7D8F96E
:10D0C00006468B46FFF7CBBB002FFFF6FEAB48466C
:10D0D000594613B0BDE8F04F00F05ABC002DBFF622
:10D0E00080AC26E44CF6FF33C4F2900321F00048F4
:10D0F000984540F3E88001F17D5303F53C1303F5B7
:10D100005053034340F00D8122462B46F2F7FCFFBB
:10D1100002460B46DDE90401F3F72CFC00283FF43E
:10D12000E5AEDDE90A011EA3D3E90023F3F7A0F978
:10D130001BA3D3E90023F3F79BF906468B46FFF7C1
:10D140008EBB002DBCBF66460AF1004BBFF649AC52
:10D15000FFF785BBAFF30080FE822B654715973C38
:10D1600000000000432EE63FEF39FAFE422EE63F74
:10D17000396CA80C615C20BED0A4BE726937663ED3
:10D18000F16BD2C541BDBB3E2CDE25AF6A56113FC7
:10D1900093BDBE166CC1663F3E5555555555C53FAE
:10D1A00059F3F8C21F6EA5014FF6FE73DDF8089023
:10D1B000C3F6EF73994591DD0023029EC3F6F07329
:10D1C0009E423FF7B4AB00230022C3F6F073CDF8C4
:10D1D00000C0F2F799FF5CA3D3E9002304460D4693
:10D1E000F3F746F95AA3D3E900238046894620463F
:10D1F0002946F3F73DF92246CDE902012B462046A8
:10D200002946F3F735F9002306460F4620462946FE
:10D210000022C3F6D073F3F72BF902460B464EA15A
:10D22000D1E90001F2F770FF22462B46F3F720F90F
:10D230000B4600210246C3F6E0710020F2F764FFBE
:10D2400002460B4630463946F3F712F944A3D3E9B8
:10D250000023F3F70DF902460B46DDE90201F2F770
:10D2600053FF04460D4622462B4640464946F2F7F8
:10D270004DFF002042464B4606460F46F2F744FF5C
:10D2800002460B4620462946F2F73EFFDDF800C075
:10D29000CDE90601B8E50B4600210246C3F6F07160
:10D2A0000020F3F70FFAFFF7A2BB84BBC2F582623E
:10D2B000033248FA02F000FA02F242453DD0002261
:10D2C0000492FFF7EDBA0023C3F6E07398453FF7E9
:10D2D0000DAEDDF808B0DA4639E6049E012E08BF2F
:10D2E00001F1004B06467FF42CABFFF7B8BA1EA342
:10D2F000D3E90023DDE90A01F3F7BAF81AA3D3E969
:10D300000023F3F7B5F806468B46FFF7A8BA0020CE
:10D310000490FFF7DABADDE90A0113A3D3E9002389
:10D32000EAE713A3D3E90023DDE90A01FEE652464A
:10D3300001F0AEFE02460B46BEE600F00100C0F171
:10D3400002000490FFF7ACBA000000604715F73FF9
:10D3500044DF5DF80BAE543E555555555555D53FF8
:10D36000FE822B654715F73F9C7500883CE4377EAD
:10D3700059F3F8C21F6EA501000000000000000074
:10D380002DE9F04F42F2FB1321F00047C3F6E97399
:10D390009F4291B004460D468B46904640F3A480D0
:10D3A0004DF67B13C4F202039F4229DC98A3D3E914
:10D3B0000023002940F3B881F2F7A6FE42F2FB13E6
:10D3C000C3F6F9739F4204460D4600F0A28092A373
:10D3D000D3E90023F2F798FE02460B46C8E9002382
:10D3E00020462946F2F790FE8BA3D3E90023F2F7FB
:10D3F0008BFE0126C8E90201304611B0BDE8F08F6E
:10D4000042F2FB13C4F239139F4240F39F804FF660
:10D41000FF73C7F6EF739F4271DC4FEA2759A9F2F9
:10D420001649A7EB095529460446F3F7C1FAF2F766
:10D43000B9FF06460F4602460B4620462946CDE96F
:10D440000A67F2F761FE00230022C4F27013F3F7BB
:10D450000FF80F460646F3F7ABFAF2F7A3FF0246C2
:10D460000B4604460D4630463946CDE90C45F2F7E9
:10D470004BFE00230022C4F27013F2F7F9FF0023E1
:10D480000022CDE90E01F3F761FA032348B100232E
:10D49000204629460022F3F759FA002814BF012339
:10D4A000022345F24001C0F2210102244A460191C3
:10D4B00000940AA8414600F05BFCBBF1000FBDBF21
:10D4C000D8F80420D8F80C3046420646BCBF02F11A
:10D4D000004203F100433046BCBFC8F80420C8F83E
:10D4E0000C3011B0BDE8F08F00220023C8E90045E0
:10D4F000C8E902230026304611B0BDE8F08F02468D
:10D500000B46F2F701FE0026C8E90201C8E9000156
:10D51000F1E743A3D3E90023F2F7F6FD42A3D3E9F1
:10D52000002304460D46F2F7EFFD02460B46C8E91C
:10D53000002320462946F2F7E7FD3BA3D3E9002369
:10D54000F2F7E2FD0126C8E90201D4E7FCF710FC7E
:10D5500037A3D3E9002304460D46F2F789FF0023E1
:10D560000022C3F6E073F2F7D1FDF3F721FA064685
:10D57000F2F718FF26A3D3E90023CDE90601F2F75D
:10D5800077FF02460B4620462946F2F7BDFD22A34F
:10D59000D3E90023CDE90201DDE90601F2F768FFD6
:10D5A0001F2ECDE90401DDE9020145DC44F6C0731C
:10D5B000C0F22103721E53F82230BB423CD0DDE999
:10D5C0000423F2F7A1FD02460B46C8E900230546F5
:10D5D0000C462A462346DDE90201F2F795FDDDE916
:10D5E0000423F2F791FDBBF1000F02460B46C8E998
:10D5F000022380DA04F1004401F10041C8F804403C
:10D60000C8F80C10C8F80050C8F80800764272E755
:10D6100000004054FB21F93F3163621A61B4D03DF0
:10D620000000601A61B4D03D7370032E8A19A33BC9
:10D6300083C8C96D305FE43FDDE90423F2F764FD80
:10D640003F150C46C1F30A51791A024623461029A8
:10D650000546C8E90023BCDD55A3D3E90023DDE975
:10D660000601F2F705FF04460D4622462B46DDE98A
:10D670000201F2F749FDCDE90801DDE90823DDE902
:10D680000201F2F741FD22462B46F2F73DFD4AA387
:10D69000D3E9002304460D46DDE90601F2F7E8FE72
:10D6A00022462B46F2F730FDCDE90401DDE90423E3
:10D6B000DDE90801F2F728FD0C46C1F30A517F1A93
:10D6C00002462346312F0546C8E900236BDD3CA303
:10D6D000D3E90023DDE90601F2F7CAFE04460D4650
:10D6E00022462B46DDE90801F2F70EFDCDE90201E5
:10D6F000DDE90223DDE90801F2F706FD22462B46AB
:10D70000F2F702FD30A3D3E9002304460D46DDE91C
:10D710000601F2F7ADFE22462B46F2F7F5FCCDE905
:10D720000401DDE902014AE7F2F7F0FC42F2FB13E3
:10D73000C3F6F9739F4204460D4616D024A3D3E9DD
:10D740000023F2F7E3FC02460B46C8E9002320461B
:10D750002946F2F7D9FC1EA3D3E90023F2F7D6FC41
:10D760004FF0FF36C8E90201C5E611A3D3E9002353
:10D77000F2F7CCFC10A3D3E9002304460D46F2F7E0
:10D78000C5FC02460B46C8E9002320462946F2F7AD
:10D79000BBFC09A3D3E90023F2F7B8FC4FF0FF3636
:10D7A000C8E90201A7E6DDE90823CDE9022310E775
:10D7B0000000601A61B4D03D7370032E8A19A33B38
:10D7C0000000002E8A19A33BC14920259A837B398A
:10D7D0003163621A61B4D03D000000000000000017
:10D7E0002DE9F84F4FF6FF7421F00048C7F6EF74AB
:10D7F000A04506460F4602460B4646DC4FF6FF7331
:10D8000000294FF00005C4F23503ACBFC3F6E07544
:10D81000CBF6E07598454FF0000415DC4FF6FF732A
:10D82000C3F62F6398457FDC55A3D3E90023F2F7B5
:10D830006DFC00230022C3F6F073F3F7AFF840B39A
:10D8400030463946BDE8F88F42F64163C4F286039C
:10D85000984540F38B8043F2CD31C4F28601884570
:10D8600049DD43F2CE314FF67D03C4F28601C8F69E
:10D87000B973B34228BF88453DD041A3D3E9002303
:10D880003946F2F7F5FDBDE8F88FF2F73FFCBDE849
:10D89000F88F30463946FCF76BFA01F009F9064675
:10D8A0000F4632463B4630463946F2F72FFC3246A9
:10D8B00082468B463B4630463946F2F7D9FD002377
:10D8C00080468946304639460022C3F6F073F2F7A7
:10D8D0001DFC02460B4640464946F2F7F3FE02465F
:10D8E0000B4650465946F2F70FFC22462B46F2F7FC
:10D8F000BFFDBDE8F88F3946FCF73AFA0023002255
:10D90000C3F6E073F2F7B4FDFEF7DAF806460F4609
:10D9100032463B4620462946F2F7AAFD32463B46B0
:10D92000F2F7A6FDBDE8F88FFCF722FA01F0C0F887
:10D930004FF6FF73C3F6EF73984506460F46B0DD0A
:10D9400000230022C3F6F073F2F7E0FB02460B4619
:10D9500030463946F2F7B6FE32463B46F2F7D6FB82
:10D9600022462B46F2F784FDBDE8F88FFCF700FA5B
:10D97000FEF7A6F822462B46F2F77AFDBDE8F88FAF
:10D980003374AC3C1F7BAC7F000000000000000043
:10D9900021F0004C2DE9F8434FEA1C5C4FF00008E1
:10D9A0004FEA0C5CC7F6F078C44506460F460B46B6
:10D9B000024600F09280002972DD0F157BD0A7F29D
:10D9C000FF37F907C3F3130348BFD10F43F48013A4
:10D9D00044BF520001EB43034FF0000CD10F01EBA9
:10D9E00043037F105200604616244FF4001145187F
:10D9F0009D424FEAD276DEBFC5EB030368188C4424
:10DA0000013C4FEA420206EB43034FEA5101EED1DB
:10DA1000A04620264FF0004111E081461B1A954296
:10DA200088BF03F1FF33521B0C444846D50F013E1B
:10DA30004FEA510105EB43034FEA420215D09842E9
:10DA400001EB080503DB954298BF8342EED105F058
:10DA50000049B9F1004F05EB0108DED1B8F1000F24
:10DA6000A8BF00F10109D9DAD7E7134307D0631C37
:10DA700008BF0CF1010C03D004F001031C4466083C
:10DA80004FEA6C031CF0010F03F17F5303F5001301
:10DA900018BF46F0004603EB07513046BDE8F88357
:10DAA00021F00043034322D039BB0F46D30A153F70
:10DAB0005205002BFAD013F480111AD15B00D80262
:10DAC00001F10101FAD5C1F10100C1F1200422FAEE
:10DAD00004F407448A40234371E702460B46F2F7F9
:10DAE000C7FC32463B46F2F711FBBDE8F883BDE8C0
:10DAF000F883202401200021E9E702460B46F2F7D3
:10DB000003FB02460B46F2F7DDFDBDE8F88300BFDC
:10DB10002DE9F04F21F00049B9F1795F85B0064653
:10DB20000F4692469B466FDAF2F742FF002800F05C
:10DB3000FD8032463B4630463946F2F799FC80A3D9
:10DB4000D3E9002304460D46F2F792FC7EA3D3E905
:10DB50000023F2F7DBFA22462B46F2F789FC7CA37E
:10DB6000D3E90023F2F7D0FA22462B46F2F780FCE5
:10DB700079A3D3E90023F2F7C9FA22462B46F2F73C
:10DB800077FC77A3D3E90023F2F7BEFA22462B46AF
:10DB9000F2F76EFC74A3D3E90023F2F7B7FA22463A
:10DBA0002B46F2F765FCCDE900010023204629460B
:10DBB0000022C3F6E073F2F75BFCDDE90023804648
:10DBC000894620462946F2F753FC524604460D4644
:10DBD0005B4630463946F2F74BFC02460B46204680
:10DBE0002946F2F791FA02460B4640464946F2F7BB
:10DBF0008BFA0B4600210246C3F6F0710020F2F7C3
:10DC000083FA05B0BDE8F08F02460B46F2F730FC10
:10DC10004BA3D3E9002304460D46F2F729FC4AA39F
:10DC2000D3E90023F2F772FA22462B46F2F720FCE2
:10DC300047A3D3E90023F2F767FA22462B46F2F70F
:10DC400017FC45A3D3E90023F2F760FA22462B46DE
:10DC5000F2F70EFC42A3D3E90023F2F755FA22466D
:10DC60002B46F2F705FC40A3D3E90023F2F74EFA66
:10DC70002B462246F2F7FCFB43F23233C3F6D37352
:10DC80009945CDE9000190DD0023C3F6E97399457C
:10DC90004FF000024FF000033DDC0021A9F5001316
:10DCA00000220020C3F6F07190469946F2F72CFA54
:10DCB000CDE902010023204629460022C3F6E07385
:10DCC000F2F7D6FB42464B46F2F71EFADDE9002397
:10DCD0008046894620462946F2F7CAFB524604464A
:10DCE0000D465B4630463946F2F7C2FB02460B460C
:10DCF00020462946F2F708FA02460B4640464946B6
:10DD0000F2F702FA02460B46DDE90201F2F7FCF9EE
:10DD100005B0BDE8F08FC3F6E7734FF00009CDE919
:10DD200002234FF00008C3F6D279C3E70021002098
:10DD3000C3F6F07105B0BDE8F08F00BFAFF300800F
:10DD4000D43888BEE9FAA8BDC4B1B4BD9EEE213E68
:10DD5000AD529C804F7E923E9015CB19A001FA3EA9
:10DD60007751C1166CC1563F4C5555555555A53F79
:10DD70002DE9F04F4AF6AB25D41EC2F6AA2585FB45
:10DD80000465E417C4EBA505ADF51D7D25EAE57531
:10DD90000E95994645F25014EB43A69DC0F221041E
:10DDA00054F8254009F1FF360C9404960E9C079018
:10DDB000049D0C9803EB430302EBC303A61B2C1832
:10DDC0000B910A9317D4A798344401340DF18808B5
:10DDD00000EB8605002709E0E859F2F7E3FA01367F
:10DDE000A642E8E9020107F1040704D0002EF3DAA5
:10DDF00000200021F3E70C9C002C2DDB0C9D74AE61
:10DE000006EBC50B24A800EBC90A0DF5E478CDF8A4
:10DE10000CB0049C002CC0F2A181079D5746A5F1CF
:10DE2000080B00240025002677E90223FBE9020104
:10DE3000F2F71EFB02460B4620462946F2F766F92A
:10DE400001364E4504460D46EED1E8E90245039CF5
:10DE50000AF1080AA045DCD10C9D10AC04EB850644
:10DE600002940F960395039E9CABF60033440696EE
:10DE7000039E53E92845002E32DD069E0DF5E87A13
:10DE8000B244039E0DF13C0B0BEB860B0DF13C08ED
:10DE900000230022C3F6706320462946F2F7E8FA11
:10DEA000F2F786FDF2F77EFA00230022C4F2701327
:10DEB00006460F46F2F7DCFA02460B462046294694
:10DEC000F2F722F9F2F774FD324648F8040F3B46A8
:10DED0007AE90201F2F71AF9D84504460D46D7D17E
:10DEE000204629460A9A01F0D3F800224FF07F53CA
:10DEF00004460D46F2F7BCFAFBF742FF002300226E
:10DF0000C4F22003F2F7B4FA02460B462046294633
:10DF1000F2F7FAF804460D46F2F74AFD8246F2F7A8
:10DF200041FA02460B4620462946F2F7EDF80A9CD4
:10DF30000646002C0F4640F3EC80039D10A8691E96
:10DF400050F82130C4F1180043FA00F202FA00F050
:10DF5000C4F117051B1A43FA05F510AC44F821303B
:10DF60009244002D34DD039C0AF1010A002C40F399
:10DF7000F38010AB03EB8401002407E0C2F1807052
:10DF800012B143F8040C01248B420DD053F8042B3A
:10DF9000002CF3D0C2F1FF1202F57F428B4243F80E
:10DFA000042C4FF00104F1D10A9800280DDD01285E
:10DFB00000F0B780022808D1039910A84B1E50F832
:10DFC0002320C2F3150240F82320022D00F08480A4
:10DFD0003046394600220023F2F7B8FC002800F052
:10DFE000C080039C0C9E04F1FF3846450DDC10A850
:10DFF00000EB84030F98002253F8041D834242EA89
:10E000000102F9D1002A40F064820C9C10AD621E1E
:10E0100055F82230002B40F0748205EB8202012378
:10E0200052F8041D01330029FAD0039E039C1E44BC
:10E03000631CB3420D9649DC049D0E9E2B44214681
:10E0400022460D9D3244494424AE03F1FF3B2B1B75
:10E0500006EBC1040994A79D069C06EBCB0B74AE9E
:10E0600005EB8202DB0026440392089306964FF0EC
:10E070000008039D08F1080855F8040F0395F2F70E
:10E0800091F9049EEBE90201002E22DB079C099F17
:10E09000A4F1080A474400240025002677E902235A
:10E0A000FAE90201F2F7E4F902460B462046294656
:10E0B000F2F72CF801364E4504460D46EED1069E89
:10E0C000E6E90245089C0696A045D2D10D9D039530
:10E0D000C9E600240025F2E7002132463B46002035
:10E0E000C3F6F071F2F710F806460F46002C3FF425
:10E0F0006FAF00210A9A0020C3F6F07100F0C8FF4C
:10E1000002460B4630463946F1F7FEFF06460F46FB
:10E110005EE710D1039D10A86B1E50F82350ED153B
:10E120001FE7039910A84B1E50F82320C2F31602D4
:10E1300040F8232049E700230022C3F6E073F2F7FA
:10E1400023FC054600283FF443AF039C0225002C26
:10E150000AF1010A3FF70DAF002425E7002400254E
:10E1600073E606950A9D30466A423946CDF81CA0F2
:10E1700000F08EFF00230022C4F2701304460D4607
:10E18000F2F702FC002800F0D28100230022C3F63F
:10E19000706320462946F2F76BF9F2F709FC064650
:10E1A000F2F700F900230022C4F27013F2F760F9CD
:10E1B00002460B4620462946F1F7A6FFF2F7F8FB88
:10E1C000039C0A9D10A904F10108183541F82400A8
:10E1D0000A9541F8286000210A9A0020C3F6F071E0
:10E1E00000F056FFB8F1000F04460D465EDB08F163
:10E1F000010610A874A9039600EB860701EBC6067A
:10E2000057F8040DF2F7CEF822462B46F2F730F914
:10E21000002366E90201002220462946C3F6706306
:10E22000F2F726F9029A044697420D46E8D108F122
:10E23000005B0BF1FF3B74AB0DF5987ACDF82080B5
:10E24000DDF8308003EBCB0B4FF00009CDF810A0C8
:10E25000B8F1000FBCBF0024002519DBDFF8F0A2E5
:10E260005F4600240025002601E04E4510DCF7E95A
:10E270000223FAE90201F2F7FBF802460B462046B8
:10E280002946F1F743FF0136B04504460D46ECDA66
:10E29000049EABF1080B06EBC903C3E90045039CE0
:10E2A00009F10109A145D3D1DDF82080A69D032DF8
:10E2B00000F2E380DFE815F0E8009C009C00040019
:10E2C000B8F1000FDEBF002426460DF5987A6FDD09
:10E2D0000DF5987A08F101030AEBC3034FEAC80B66
:10E2E000039399460AEB0B030DF59C7CD3E9006779
:10E2F00001E026462F4659E9044532463B46204672
:10E300002946CDF804C0CDE90445F1F7FFFE0446E7
:10E310000D4622462B46DDE90401F1F7F5FE3246B3
:10E320003B46F1F7F3FE69E90201DDF804C049E973
:10E330000245E145DDD1B8F1010FDCBF00242646DE
:10E3400036DDDDF80CC00AEB0B03CDF810A00AF1A6
:10E35000100BD3E90045E24601E034463D465AE958
:10E36000048922462B4640464946F1F7CFFE064631
:10E370000F4632463B4640464946F1F7C5FE224627
:10E380002B46F1F7C3FE6AE90201DA454AE9026762
:10E39000E3D10024DDF810A0039D26462046314637
:10E3A00075E90223F1F7B2FEAB4504460E46F5D1FE
:10E3B000069D002D00F0A7800B9DDAF8040006F101
:10E3C0000046DAF80C106E61079EDAF80020DAF8E1
:10E3D000083000F1004001F10041686006F00700DC
:10E3E0002C61E9602A60AB600DF51D7DBDE8F08F02
:10E3F000B8F1000FBEBF002634460DF5987A11DB48
:10E400000DF5987A08F1010500260AEBC50534469A
:10E410003046214675E90223F1F778FE5545064658
:10E420000C46F5D1069D04F1004305B9234630465C
:10E4300032460B9E1946C6E90001DAE9000123467F
:10E44000F1F762FEB8F1000F04460B460BDD0AEB54
:10E45000C80820461946FAE90223F1F757FEC245DB
:10E4600004460B46F5D1069D03F10041002D6DD009
:10E470000B9E22460B46C6E90223079E06F00700C4
:10E480000DF51D7DBDE8F08FB8F1000F5BDB08F1E5
:10E4900001054CAE002406EBC5052346204619466F
:10E4A00075E90223F1F732FEB54204460B46F5D179
:10E4B000069D03F10041002D43D00B9E22460B46E2
:10E4C000C6E90023079E06F007000DF51D7DBDE897
:10E4D000F08F0A9C10A850F82830183CCDF81CA0EA
:10E4E00006950A94002B7FF476AE00EB8803224653
:10E4F00053F8041D08F1FF38183A0029F8D00A92A1
:10E5000069E6012391E533460B9E2246C6E90423C2
:10E51000DAE90201DAE90023C6E90201C6E90023CB
:10E52000079E06F007000DF51D7DBDE8F08F204623
:10E530002946F2F73DFADDF80C8010AA42F82800CF
:10E5400049E61946B9E700242346B1E719468FE7A3
:10E5500058512100000000000000000000000000F1
:10E560002DE9F04F21F00046B6F1795F85B0044601
:10E570000D469046994604DAF2F71AFA002800F0A0
:10E58000868022462B4620462946F1F771FF224617
:10E590002B4606460F46F1F76BFF3FA3D3E9002356
:10E5A00082468B4630463946F1F762FF3CA3D3E9F9
:10E5B0000023F1F7A9FD32463B46F1F759FF3AA394
:10E5C000D3E90023F1F7A2FD32463B46F1F750FFB5
:10E5D00037A3D3E90023F1F797FD32463B46F1F725
:10E5E00047FF35A3D3E90023F1F790FD0E9BCDE95A
:10E5F0000201002B35D00023404649460022C3F6D5
:10E60000E073F1F735FFDDE90223CDE90001504663
:10E610005946F1F72DFF02460B46DDE90001F1F7FF
:10E6200073FD32463B46F1F723FF42464B46F1F776
:10E630006BFD23A3D3E9002306460F4650465946F7
:10E64000F1F716FF02460B4630463946F1F75EFDFC
:10E6500002460B4620462946F1F756FD05B0BDE8B7
:10E66000F08FDDE9022330463946F1F701FF14A3AC
:10E67000D3E90023F1F748FD52465B46F1F7F8FE77
:10E6800022462B46F1F742FD05B0BDE8F08F20464B
:10E69000294605B0BDE8F08F7CD5CF5A3AD9E53D83
:10E6A000EB9C2B8AE6E55A3E7DFEB157E31DC73E43
:10E6B000D561C119A0012A3FA6F810111111813F9F
:10E6C000495555555555C53F000000000000000054
:10E6D0002DE9F04F8BB0CDE90401814605980C4639
:10E6E0004FF6FF7120F00045C3F62F618D42029274
:10E6F000984621DC48462146F2F75AF9002844D1D1
:10E70000149A45EA0905531C2B4300F0BE81149B63
:10E71000012B08BFA04600F02D8100214A46234668
:10E720000020CBF6F071F1F7CDFF814688464846D0
:10E7300041460BB0BDE8F08F49F22743C3F6E573BD
:10E740009D4222DD05984A460028B8BF04F10044E6
:10E7500023468BA1D1E90001B8BF08F10048F1F7C9
:10E76000D3FC029A434606460F4687A1D1E9000131
:10E77000F1F7CAFC02460B4630463946F1F7C6FCB3
:10E780000022029281460C4690464A46234648465D
:10E790002146F1F76DFE02460B4682468B46F1F7A5
:10E7A00067FE4A4606460F46234650465946F1F74D
:10E7B0005FFE77A3D3E90023CDE906013046394651
:10E7C000F1F756FE74A3D3E90023F1F79FFC32461C
:10E7D0003B46F1F74DFE72A3D3E90023F1F796FC17
:10E7E00032463B46F1F744FE6FA3D3E90023F1F72D
:10E7F0008DFC32463B46F1F73BFE6DA3D3E9002387
:10E80000F1F784FC32463B46F1F732FE6AA3D3E9C6
:10E810000023F1F77BFC6AA3D3E90023CDE90801CB
:10E8200030463946F1F724FE67A3D3E90023F1F718
:10E830006DFC32463B46F1F71BFE65A3D3E900238E
:10E84000F1F764FC32463B46F1F712FE62A3D3E9CE
:10E850000023F1F75BFC32463B46F1F709FE60A36B
:10E86000D3E90023F1F752FC32463B46F1F700FEB4
:10E870005DA3D3E90023F1F749FC52465B46F1F76B
:10E88000F7FD02460B46DDE90801F1F73FFCDDE943
:10E890000623F1F7EDFD4346029AF1F737FC5246A5
:10E8A0005B46F1F7E5FD4346029AF1F72FFC50A3D2
:10E8B000D3E9002306460F46DDE90601F1F7D8FD4E
:10E8C00032463B46F1F722FC06460F463B46484699
:10E8D00021463246F1F71AFC49F22743C3F6E573A5
:10E8E0009D4284468846149800F38680012808BF1C
:10E8F000E1463FD08B460B46002162460020CBF616
:10E90000F071F1F7DFFE4FF0000A0D46CDE902018C
:10E910004A46234650465946F1F7F6FB02460B4657
:10E9200030463946F1F7F0FB02460B465046294681
:10E93000F1F79EFDD046D94642464B4682468B466D
:10E9400040462946F1F794FD00230022C3F6F073F8
:10E95000F1F7DCFB02460B4650465946F1F7D6FB71
:10E96000DDE90223F1F784FD42462B46F1F7CEFBA9
:10E9700081468846484641460BB0BDE8F08F00BF4F
:10E98000182D4454FB21E93F075C143326A6813C33
:10E99000735360DBCB75F3BEA69237A0887E143F1D
:10E9A0000165F2F2D844433F280356C9226D6D3FFA
:10E9B00037D60684F464963F7AFE10111111C13FD8
:10E9C000D47ABF74702AFB3EE9A7F0320FB8123F29
:10E9D00068108D1AF726303F1583E0FEC8DB573FDD
:10E9E00093846EE9E326823FFE41B31BBAA1AB3F9D
:10E9F000635555555555D53FCDF804C0F1F7D2FCB8
:10EA0000059B8246981700F00200C0F101008B467A
:10EA1000F1F7C8FCDDF804C0CDE9020162464346C7
:10EA200060464146F1F724FDDDF804C0CDE904015C
:10EA3000524660465B464146F1F768FB02460B468C
:10EA4000DDE90401F1F73EFE32463B46F1F75CFB9F
:10EA500002460B4648462146F1F756FB02460B4656
:10EA6000F1F754FB02460B4650465946F1F74CFB72
:10EA700002460B46DDE90201F1F7FAFC81468846C1
:10EA8000484641460BB0BDE8F08F48462146FBF7AB
:10EA90006FF90B4600210246C3F6F0710020F1F732
:10EAA00011FE8146884665E7000000000000000076
:10EAB0002DE9F04746F6790C21F00047C4F2430CEB
:10EAC000674584B004460D4602460B4601F00046F9
:10EAD0001AD942F6416CC4F2860C674540F2DD80DB
:10EAE0004FF6FF7CC7F6EF7C674540F2CE80C1F35E
:10EAF0001307074340F0C481002E00F03A81002143
:10EB00000020CBF6F07134E142F64263C3F6D673CF
:10EB10009F4200F2DB804FF6FF73C3F68F439F42A4
:10EB200088BF4FF0000A40F24B8100230022C3F659
:10EB3000E07320462946F1F79BFC80468946424611
:10EB40004B4620462946F1F793FCA9A3D3E90023BD
:10EB500006460F46F1F78CFCA7A3D3E90023F1F793
:10EB6000D5FA32463B46F1F783FCA5A3D3E900234F
:10EB7000F1F7CAFA32463B46F1F77AFCA2A3D3E991
:10EB80000023F1F7C3FA32463B46F1F771FCA0A32C
:10EB9000D3E90023F1F7B8FA32463B46F1F768FCB7
:10EBA00000230022C3F6F073F1F7B0FA42464B4659
:10EBB000CDE90001F1F75CFC0B4600210246C4F2EE
:10EBC00008010020F1F7A0FA804689464246DDE9B7
:10EBD00000014B46F1F798FA4246CDE900014B4659
:10EBE00020462946F1F744FC0B4600210246C4F2B8
:10EBF00018010020F1F788FA02460B46DDE9000112
:10EC0000F1F760FD32463B46F1F732FC02460B4617
:10EC1000BAF1000F00F09F80DDE90223F1F774FAEA
:10EC200022462B46F1F724FCDDE90223F1F76CFACA
:10EC300032463B46F1F768FABAF1FF3F06460F4607
:10EC400000F02181BAF1010F00F002810AF1010305
:10EC5000392B00F2A080BAF1130F00F327814FF493
:10EC6000001343FA0AF3C3F17F5303F5401722461A
:10EC70002B46F1F749FA002602460B463046394644
:10EC8000F1F742FA01EB0A5173E063A3D3E90023E1
:10EC9000F1F784FE002840F0298120462946002E05
:10ECA00000F01A815EA3D3E90023F1F72FFA0022C6
:10ECB0000023F1F755FE00287FF421AF20462946B6
:10ECC00059A3D3E90023F1F7D3FB0CE04AF2B123B7
:10ECD000C3F6F0739F424FD953A3D3E90023F1F752
:10ECE000C7FB002E7FD000230022CBF6E073F1F7A4
:10ECF0000DFAF1F75DFE8246F1F754FB4CA3D3E920
:10ED0000002380468946F1F7B3FB02460B462046B6
:10ED10002946F1F7F9F948A3D3E9002306460F463F
:10ED200040464946F1F7A4FB8046894642464B4699
:10ED300030463946F1F7E8F904460D4622462B469F
:10ED400030463946F1F7E0F942464B46F1F7DCF937
:10ED5000CDE90201E9E620462946F1F789FB324672
:10ED60003B46F1F7D1F902460B4620462946F1F71A
:10ED7000CBF904B0BDE8F0872DA3D3E900233EBB57
:10ED8000F1F7C2F90FF2B009D9E9008906460F463A
:10ED90004FF0010ACAE722462B46F1F7B5F90B46B8
:10EDA00000210246C3F6F0710020F1F7ADF900230F
:10EDB00001EB0A510022C3F6F073F1F7A5F9D8E789
:10EDC0001FA3D3E90023F1F7A1F902460B46C8E7D8
:10EDD000F1F79CF90FF27009D9E9008906460F4650
:10EDE0004FF0FF3AA2E700230022C3F6E0737EE76C
:10EDF0002DC3096EB7FD8ABE3952E686CACFD03E12
:10EE0000B7DBAA9E19CE143F8555FE19A0015A3FC3
:10EE1000F41011111111A13FEF39FAFE422E864074
:10EE200059F3F8C21F6EA501FE822B654715F73F07
:10EE30000000E0FE422EE63F763C7935EF39EA3DB0
:10EE40009C7500883CE4377E763C7935EF39EABD25
:10EE50000023204629460022CBF6D073F1F780FD2F
:10EE600000284BD132463B4620462946F1F74CF963
:10EE700002460B46F1F74AF900230022C3F6F0736D
:10EE8000F1F744F975E732463B4620462946F1F74B
:10EE90003BF900230022C3F6E073F1F7E9FA0023FF
:10EEA0000022C3F6E073F1F72FF962E7CAF57F7627
:10EEB000033600223305F1F729F902460B462046B6
:10EEC0002946F1F721F900230022C3F6F073F1F788
:10EED0001DF901EB0A514CE713A3D3E90023F1F725
:10EEE000C7FA00230022C3F6E07300E710A1D1E9BE
:10EEF000000102460B46F1F7BBFA3AE70023204631
:10EF000029460022C3F6E073F1F700F902460B46EA
:10EF100030463946F1F7F8F800224FF04043F1F758
:10EF2000A7FA26E7AFF30080FE822B654715F73F6F
:10EF30009C7500883CE4377E000000000000000063
:10EF400041F0004101F58010C00F70470000000043
:10EF500000207047000000000000000000000000DA
:10EF600000210020C7F6F871704700BF00000000C4
:10EF70002DE9F043C1F30A5CACF2FF37132F83B0E5
:10EF800002460B460D46894680464FEAD17636DC6E
:10EF9000002F52DB4FF6FF71C0F20F01394101EA39
:10EFA0000300104330D0490801EA030858EA020878
:10EFB0000CD04FF480233B4125EA010141EA0309CB
:10EFC000132F0CBF4FF000484FF0000845F2A0117E
:10EFD000C0F2210101EBC606D6E900454B46424688
:10EFE00020462946F1F792F8CDE90001DDE900015C
:10EFF00022462B46F1F788F803B0BDE8F083332FA3
:10F0000007DDB7F5806F40D01046194603B0BDE864
:10F01000F083ACF2134C4FF0FF3121FA0CF10142B6
:10F02000F2D0490801421FBF4FF0804848FA0CFC5B
:10F0300020EA010141EA0C08C8E721F00041014340
:10F04000E2D0C3F3130101434842084345F2A01143
:10F05000000BC0F221015C0C00F4002001EBC601A2
:10F0600040EA4443D1E9004520462946F1F74EF8ED
:10F07000CDE90001DDE900012B462246F1F744F815
:10F0800021F0004343EAC671C0E7F1F73FF8BDE75E
:10F09000C1F30A532DE9F041904606460F460A4651
:10F0A00043BB21F00043034339D00023C4F2503363
:10F0B0000022F1F7DDF943F6B043CFF6FF73984530
:10F0C00006460F463BDBC1F30A53363B0A46434430
:10F0D00040F2FE718B4216DD29A1D1E900013246D2
:10F0E0003B4600F055F826A3D3E90023F1F7C0F919
:10F0F000BDE8F08140F2FF74A34227D0434440F2C0
:10F10000FE718B42E8DC002B0BDD22F0FF4222F483
:10F11000E00242EA035730463946BDE8F081BDE8D7
:10F12000F08113F1350F17DA4CF250339845D3DCE8
:10F1300015A1D1E9000132463B4600F029F812A39F
:10F14000D3E90023F1F794F9BDE8F08102460B46BC
:10F15000F0F7DCFFBDE8F08122F0FF4222F4E0028C
:10F16000363342EA03570023304639460022C3F6BD
:10F170009043F1F77DF9BDE8F08100BFAFF3008067
:10F180009C7500883CE4377E59F3F8C21F6EA501D8
:10F1900030B403F0004321F0004243EA020130BCE6
:10F1A000704700BF000000000000000000000000E9
:10F1B00000B540F6E844C2F200042468054685B074
:10F1C0000E46E06882B145F2B014C0F2210445F267
:10F1D000C0110292C0F221011A4600962B460194FA
:10F1E00000F016F802F02CFD44F65464C0F221043D
:10F1F0002246ECE7000000000000000000000000D4
:10F2000040F6E843C2F200031868704700000000AF
:10F210000EB430B582B005AC54F8042B40F6E84586
:10F22000C2F20005014623462868019401F058FE09
:10F2300002B0BDE8304003B0704700BF00000000DE
:10F2400040F6E843C2F200030146186800F008B82F
:10F2500040F6E843C2F200030146186803F050BFCD
:10F260002DE9F04F01F10B05162D87BF25F007059D
:10F27000EB0F002310258D422CBF194643F00101EE
:10F2800083B00746002940F0B48000F0F1FAB5F5EC
:10F29000FC7F1FD240F6EC46C2F200064FEAD50CC6
:10F2A00006EBCC03DC689C4200F0F4816368E26802
:10F2B00023F0030323445868A16840F00105CA60A5
:10F2C000384691605D6000F0DBFA0834204603B0F8
:10F2D000BDE8F08F5FEA552C04BF7E214FF03F0C54
:10F2E00040F08E8040F6EC46C2F2000606EB81014B
:10F2F000CC68A14206D10DE0002B80F26381E46866
:10F30000A14207D0626822F00302531B0F2BF3DDEA
:10F310000CF1FF3C0CF1010C40F6EC43C2F200038F
:10F32000346903F1080E744508BF5A6821D061683A
:10F3300021F003014A1B0F2A00F39081002AC3F831
:10F3400014E0C3F810E066DAB1F5007F80F05F8169
:10F35000C9088A104FF0010808FA02F803EBC1014E
:10F360005A68886848EA0202A060E1605A608C60CE
:10F37000C4604FEAAC0301209840904258D8024242
:10F3800006D12CF0030C400002420CF1040CFAD020
:10F3900006EBCC084446E146E3689C4207D170E1A5
:10F3A000002A80F28181DB689C4200F06A81596802
:10F3B00021F003014A1B0F2AF2DD1C4654F808CF46
:10F3C000D96845F0010942F001081D44C3F80490D2
:10F3D0003846CCF80C10C1F808C075613561C5F825
:10F3E0000CE0C5F808E0C5F80480AA5000F048FA1F
:10F3F0006CE70C2300240360204603B0BDE8F08FC7
:10F40000BCF1040F00F2EF804FEA951C0CF1380CB0
:10F410004FEA4C0166E721444B68384643F001034C
:10F420004B6000F02DFA0834204603B0BDE8F08FA1
:10F43000B468636823F003094D4504D8C5EB09039C
:10F440000F2B00F3AF8041F2C84341F2F80AC2F239
:10F450000003C2F2000A1B68DAF800102B440131E5
:10F460001DBF03F580530F3323F47F6303F1100CAA
:10F4700018BF23F00F0C04EB0902614638468DE8F3
:10F480000410F3F77DFC9DE80410B0F1FF3F8046C7
:10F4900000F02081824200F21A8141F2CC4BC2F28C
:10F4A000000BDBF8003042456344CBF8003000F03D
:10F4B0005F81DAF8000041F2F80101301CBFC2EBB5
:10F4C00008029B18C2F200010CBFC1F80080CBF803
:10F4D000003018F007031FBFC3F108029044C3F5C2
:10F4E000805303F1080A08EB0C0308BF4FF4805A5D
:10F4F000C3F30B03C3EB0A0A51463846F3F740FC4B
:10F50000431C18BFC8EB0001DBF8003015BF5144A5
:10F510004FF0000A41F00101012141F2CC42534475
:10F52000B442C6F80880CBF80030C8F80410C2F224
:10F53000000218D0B9F10F0F40F2FB806168A9F109
:10F540000C0020F0070001F0010140EA010C4FF02F
:10F55000050E21180F28C4F804C0C1F804E0C1F852
:10F5600008E000F2118141F2C442C2F200021168C7
:10F57000B4688B4288BF136041F2C042C2F20002FD
:10F5800011688B4288BF1360626822F003029542C3
:10F59000C5EB020301D80F2B04DC384600F070F9EC
:10F5A000002493E645F0010243F001032544626024
:10F5B0003846B5606B6000F063F90834204603B04C
:10F5C000BDE8F08F22445068E368A16840F001056F
:10F5D000CB6038469960556000F052F908342046F7
:10F5E00003B0BDE8F08FBCF1140F9CBF0CF15B0CB5
:10F5F0004FEA4C017FF676AEBCF1540F00F28F80DB
:10F600004FEA153C0CF16E0C4FEA4C016AE64B0ACE
:10F61000042B58D9142B9CBF03F15B02500005D971
:10F62000542B00F2BA800A0B6E32500006EB8000B9
:10F63000836840F6EC488342C2F200087FD05A68E3
:10F6400022F00302914202D29B689842F7D1D96816
:10F650007268E160A3608C60DC608AE645F00106B8
:10F6600042F001012544666038465D611D61C5F8C0
:10F670000CE0C5F808E06960AA50083400F000F911
:10F6800024E609F1010919F0030F04F108047FF4DD
:10F6900083AE28E004F108036469A34208BF0CF1BB
:10F6A000020C3FF439AE01E6194448681C4654F890
:10F6B000082FDB6840F001054D603846D3609A6042
:10F6C00000F0DEF802E68A0938325000AEE7B442B4
:10F6D0003FF4E3AEB468626822F0030257E7D8F85B
:10F6E000008098456BD11CF0030FA8F108030CF1C2
:10F6F000FF3CF4D1736823EA000373604000984232
:10F700003FF696AE00283FF493AE0342CC467FF41A
:10F710003FAE400003420CF1040CFAD038E6BCF5D1
:10F72000AA7F16D84FEAD53C0CF1770C4FEA4C0172
:10F73000D8E50123C8F804304446002227E7921098
:10F7400001209040D8F8042019460243C8F804204C
:10F750007FE740F254539C459DBF4FEA954C0CF116
:10F760007C0C4FEA4C01FC2188BF4FF07E0CB9E5C0
:10F77000C2F30B0100297FF49CAE0CEB0901B268C7
:10F7800041F001015160EEE604F1080138460092B3
:10F7900003F0B6FC009A1368E5E6B3F5AA7F03D838
:10F7A000CA0B7732500041E740F2545293429DBF5A
:10F7B0008A0C7C325000FC2088BF7E2236E77368BA
:10F7C0009CE700BF000000000000000000000000F7
:10F7D000F0B4840743D0541E002A3ED0CDB2034675
:10F7E00003E0621E002C38D0144603F8015B9A0730
:10F7F000F7D1032C2AD9CDB245EA05250F2C45EACD
:10F80000054515D9A4F110073F0903F1100606EBD1
:10F8100007161A46156055609560D5601032B242E1
:10F82000F8D104F00F040137032C03EB07130DD9B3
:10F830001E462246043A032A46F8045BFAD8221FE1
:10F8400022F003020432134404F003042CB1C9B2C1
:10F850001C4403F8011BA342FBD1F0BC70471446C3
:10F860000346C6E7000000000000000000000000A2
:10F87000704700BF00000000000000000000000012
:10F88000704700BF00000000000000000000000002
:10F8900010B440F6E843C2F2000319684FF22D435A
:10F8A000D1F8A820C5F6510303FB02F4D1F8AC004F
:10F8B00047F62D73C4F6954303FB0040A2FB0323D8
:10F8C0000344013243F10003C1E92A2323F000403D
:10F8D0005DF8044B704700BF00000000000000000E
:10F8E0000EB4F0B59CB021AC54F8042B40F6E841BE
:10F8F000C2F20001064623464FF4027E6FF0004537
:10F9000008684FF6FF7702A9029606960194ADF8B3
:10F9100014E004950795ADF8167000F039F8029BD5
:10F9200000221A701CB0BDE8F04003B0704700BF61
:10F9300020F0030110F00300C0F1000051F8043B77
:10F9400000F1040C4FEACC0C6FF000021CBF22FA4D
:10F950000CF213434FF0010C4CEA0C2C4CEA0C4C0B
:10F96000A3EB0C0222EA030212EACC1204BF51F804
:10F97000043B0430F4D013F0FF0F1FBF013013F429
:10F980007F4F013013F47F0F18BF0130704700BF65
:10F990002DE9F04FC7B00A91139393460F9003F0EF
:10F9A00047FE00681990FFF7C3FF0A9C1C90A389CB
:10F9B000190603D52369002B01F075800DF1D704DA
:10F9C00036AD07940895079D36A8441B45F20029DB
:10F9D0001F9444F6A42545F250240023C0F22104CC
:10F9E000C0F22109C0F2210510932B932A931A9398
:10F9F0001B9318931D931193299015941695064601
:10FA0000CDF82CB04F460B9C2378252B18BF002B2C
:10FA100000F0B480621C13781446252B18BF002B0D
:10FA200002F10102F7D10B98251A0FD02A9B2B9ACD
:10FA300001332A44072B86E821002B922A93D8BF52
:10FA4000083600F381801199294411912378002B05
:10FA500000F082800023651C94F801904FF0FF3481
:10FA60001A468DF88730129309930B950C942B4608
:10FA70000133A9F12001582900F2FF83DFE811F0DA
:10FA8000E203FD03FD03E903FD03FD03FD03FD03A5
:10FA9000FD03FD03F0039803FD035D002D02FD034C
:10FAA0006B027202720272027202720272027202BD
:10FAB00072027202FD03FD03FD03FD03FD03FD035E
:10FAC000FD03FD03FD03FD034D028A02FD038A02CF
:10FAD000FD03FD03FD03FD038302FD03FD03C702D8
:10FAE000FD03FD03FD03FD03FD03E202FD03FD0332
:10FAF000FA02FD03FD03FD03FD03FD03FD03FD030A
:10FB0000FD03FD03FD03210337038A028A028A02F3
:10FB1000DB033703FD03FD039C03FD03AF031C025E
:10FB2000C2034F03FD035603FD038000FD03FD03E5
:10FB30007E03129C139164421294099D45F00405C2
:10FB4000099593F8009093E70F980A9929AA04F071
:10FB500087FC40B936AE76E72B9B23B10F980A9904
:10FB600029AA04F07DFC0A9C1198A38913F0400F88
:10FB700018BF4FF0FF3047B0BDE8F08F0B9C65E732
:10FB8000099C0B93A30640F16682139DEB1D23F0A5
:10FB9000070303F108041394D3E9004501234FF050
:10FBA000000A8DF887A00C9A002AA2BF099820F0BD
:10FBB0008000099054EA05010C980CBF0022012234
:10FBC000002818BF42F00102002A00F0D683012B62
:10FBD00000F00385022B0DF1D70240F05281DDF8D1
:10FBE00060C0230904F00F0143EA057328091CF8DB
:10FBF00001101C46054654EA05009046117002F1BA
:10FC0000FF32EED1089BC8EB03030E930C9C0E9DB4
:10FC1000A542B8BF254600240D951794BAF1000FF0
:10FC200002D00D9C01340D94099D15F0020B18BFF4
:10FC30000D9C099D1CBF02340D9415F0840514958C
:10FC400040F02983129D0D982C1A002C40F3238339
:10FC5000102C45F2502A40F3CA8730461E972B9944
:10FC600027462A9AC0F2210A1025159E0F9C02E011
:10FC7000103F102F17DD01321031072A0660456052
:10FC80002B912A92D8BF0830F2DD20460A9929AA82
:10FC900004F0E6FB00287FF466AF103F102F2B998D
:10FCA0002A9A36A8E7DC3C461E9F064601322144CC
:10FCB000072A2B912A92C6F800A0746000F39B8457
:10FCC0009DF887A008360C46BAF1000F0ED02A9B8B
:10FCD000013401330DF187010122072B86E806006C
:10FCE0002B942A93D8BF083600F3D782BBF1000FBC
:10FCF0000DD02A9B0234013322A90222072B86E869
:10FD000006002B942A93D8BF083600F30384149B73
:10FD1000802B00F045830C9D0E9BC3EB050ABAF1C6
:10FD2000000F44DDBAF1100F45F20025DCBFC0F230
:10FD300021052A9B27DDC0F2210522462A9B544635
:10FD40004FF0100BAA460F9D02E0103C102C17DD5F
:10FD500001331032072B86E880082B922A93D8BFF4
:10FD60000836F2DD28460A9929AA04F079FB002812
:10FD70007FF4F9AE103C102C2B9A2A9B36AEE7DCB0
:10FD80005546A246144601335444072B86E8200406
:10FD90002B942A93D8BF083609DD0F980A9929AA0F
:10FDA00004F05EFB00287FF4DEAE2B9C36AE099D8E
:10FDB000EA0500F17D822A9B0E9D01332C44072B1E
:10FDC0002B94C6F8008075602A9300F38983083667
:10FDD000099D6B0746D512980D99451A002D41DDF6
:10FDE000102D45F2502ADCBFC0F2210A2A9B27DDE4
:10FDF00009972A9BC0F2210A4FF01008DDF83C90C9
:10FE0000DDF828B0159F02E0103D102D17DD0133FD
:10FE10001034072B86E880012B942A93D8BF08362C
:10FE2000F2DD4846594629AA04F01AFB00287FF45F
:10FE30009AAE103D102D2B9C2A9B36AEE7DC099F15
:10FE400001332C44072B2B942A93C6F800A075602D
:10FE500008DD0F980A9929AA04F002FB00287FF414
:10FE600082AE2B9C119D0D9912988142ACBF6D18EA
:10FE70002D181195002C40F03E8300232A9336AEB6
:10FE8000C1E5E30843EA4573E90804F007000D46BD
:10FE90001C4654EA050100F130039046137002F14C
:10FEA000FF32EED1099C4146E00700F1F684089D3F
:10FEB000C8EB05050E95A9E6099D0B9315F02003E7
:10FEC00000F0AF80139CE31D23F0070303F1080546
:10FED0001395D3E90045002361E693F80090581C80
:10FEE000B9F12A0F00F09887A9F13001092982BFE2
:10FEF000002403460C943FF6BCAD002310F8019B90
:10FF000003EB830301EB4303A9F130010929F5D980
:10FF100043EAE3730C930346ABE5099D8DF8872014
:10FF200045F010050995099C0B93A20640F1E68067
:10FF3000139DE91D21F00701D1E900230831139138
:10FF400014461D46002A73F10000C0F2C6839DF8D6
:10FF500087A0012327E6099C44F08004099493F8C4
:10FF6000009085E50025A9F130011295284613F887
:10FF7000019B00EB800001EB4000A9F13001092951
:10FF8000F5D9129075E5099C44F00804099493F89A
:10FF900000906DE5099C0B9324078DF8872040F1B4
:10FFA000A684139DEB1D23F0070303F108041D68CD
:10FFB0005B6813941A951B931B991A98F9F7B0FF75
:10FFC00001281B991A9840F0748400220023F0F74E
:10FFD000C7FC002840F04A869DF887A003250D95B0
:10FFE000099D002425F0800545F2142845F21023D0
:10FFF000C0F22108C0F221030C94099503240025C6
:020000040021D9
:10000000B9F1470FD8BF98460E94179506E6099C9C
:100010000B9344F010040994099D15F020037FF41C
:1000200051AF099C14F0100240F04483099C14F075
:10003000400300F03F8313981346048804300025E2
:100040001390ACE5099D0B9345F010050995099CAB
:10005000A3063FF59AAD099DED0600F11D83099CAD
:10006000640640F1198313980025048804300123A5
:10007000139094E5099D45F22024C0F22104A806BE
:100080000B938DF88720189440F18480139CE31D16
:1000900023F0070303F108051395D3E900450998F8
:1000A000C30740F1438254EA050100F03F82302348
:1000B00040F002008DF888308DF889900990022375
:1000C0006DE50B93139B139C1A68012500230434E0
:1000D0009A460D958DF8B02013948DF88730CDF8A1
:1000E00030A0CDF85CA00E950DF1B0089CE5099C00
:1000F0008DF88720A2060B933FF51AAF099CE30603
:1001000000F1DF82099C650640F1DB821398B0F9AB
:1001100000400430E51722462B46139012E7099C55
:1001200044F02004099493F80090A1E4139C002566
:10013000D4F800800B938DF887500434B8F1000F89
:1001400000F074850C9800284046C0F2428529468C
:100150000C9A03F0EDFA002800F099850C99C8EB91
:1001600000008842B8BF0146139421EAE1740E9161
:100170000C950D9417959DF887A04FE5099D45F2C4
:100180003424C0F22104A8060B938DF8872018941C
:100190003FF57CAF099CE10600F18682099C62066E
:1001A00040F182821398002504880430139076E78A
:1001B00093F800902B225BE493F800901946B9F174
:1001C0006C0F0BBF099C099D44F0200445F01005FD
:1001D00003BF0133099491F80190099548E4099D02
:1001E0000B93A9068DF8872040F18D83139C21681D
:1001F000119CE5172B46139D224604351395C1E942
:10020000002300E4099D0B9345F00205139B09951B
:10021000139D45F2342004351C684FF078093023D3
:10022000C0F2210013958DF8883000258DF8899053
:1002300018900223B3E4099D45F04005099593F811
:10024000009015E493F80090002A7FF411AC20226E
:100250000EE4099D45F00105099593F8009007E427
:10026000139C139D2468291D002C1294FFF661AC89
:10027000139193F80090FFF7FBBB0B938DF8872049
:10028000B9F1000F3FF468AC002301259A460D95A3
:100290008DF8B09021E72B9C16E50F980A9929AAB2
:1002A00004F0DEF800287FF45EAC2B9C36AE1DE532
:1002B000B9F1650F40F3C3801A981B9900220023FF
:1002C000F0F744FB002800F034812A9B169D01338F
:1002D00001340122072B356072602B942A93D8BF1A
:1002E000083600F31C83239B109DAB4203DB099D62
:1002F000EB077FF56DAD1C9D2A9B2C44199D0133A6
:1003000035601C9D072B75602B942A93D8BF083647
:1003100000F3BE83109D05F1FF38B8F1000F7FF7A1
:1003200057ADB8F1100F45F2002540F301852A9B27
:10033000C0F221054FF01009DDF83CA0DDF828B02F
:1003400005E0A8F11008B8F1100F40F3C0800133A8
:100350001034072B86E880022B942A93D8BF0836E6
:10036000EFDD5046594629AA04F07AF800287FF4B8
:10037000FAAB2B9C2A9B36AEE3E7002B40F0C580FE
:10038000099CE1075CBF0E930DF1D8087FF53EACE8
:100390001F9D30238DF8D7300E950DF1D70835E429
:1003A000129D0D98C0EB050ABAF1000F7FF7B3ACB0
:1003B000BAF1100F45F20025DCBFC0F221052A9BDF
:1003C00027DDC0F2210522462A9B54464FF0100B30
:1003D000AA460F9D02E0103C102C17DD01331032AD
:1003E000072B86E880082B922A93D8BF0836F2DDC7
:1003F00028460A9929AA04F033F800287FF4B3AB01
:10040000103C102C2B9A2A9B36AEE7DC5546A246B0
:10041000144601335444072B86E820042B942A9376
:10042000D8BF08367FF777AC0F980A9929AA04F04D
:1004300017F800287FF497AB2B9C36AE6BE4109D29
:10044000012D40F3D8812A9B621C01330121072B27
:10045000C6F8008071602B922A93D8BF083600F34B
:10046000F5811C9C199D224435605C1C1C9D072C49
:100470002B922A94756000F3DC81083691461A9815
:100480001B9900220023F0F761FA109D002840F02C
:10049000C0806B1E013408F1010103EB0902072C37
:1004A00031602A942B92736000F3B681083691462E
:1004B0001D9A631C1D9C4A4425A9072B2B922A9345
:1004C00086E812000CDC0836144681E41446013339
:1004D0004444072B2B942A9386E820017FF777ACBE
:1004E0000F980A9929AA03F0BBFF00287FF43BABC1
:1004F0002B9C36AE6CE40F980A9929AA03F0B0FF42
:1005000000283FF4BAACFFF72EBB0E920DF1D808CD
:10051000FFF77CBB0F980A9929AA03F0A1FF0028D6
:100520007FF421AB2B9C36AEFFF7F1BB0223FFF724
:1005300036BB239B002B40F3FD81109D1798DDF8FF
:1005400040B08542A8BF0546002DC3440CDD2A9B60
:100550002C440133072BC6F8008075602B942A9336
:10056000D8BF083600F34983179925EAE575C5EB2E
:100570000109B9F1000F40F3D080B9F1100F45F235
:100580000025DCBFC0F221052A9B40F3B280C0F2F7
:10059000210522460C952A9B4FF0100A0F9C0A9DBC
:1005A00005E0A9F11009B9F1100F40F3A080013363
:1005B0001032072B86E880042B922A93D8BF083686
:1005C000EFDD2046294629AA03F04AFF00287FF4E0
:1005D000CAAA2B9A2A9B36AEE3E7002D08BF0A2C45
:1005E00080F040811F9D30348DF8D7400E950DF17D
:1005F000D708FFF70BBB0F980A9929AA03F030FF21
:1006000000287FF4B0AA9DF887A02B9C36AEFFF798
:100610005BBB05F1FF38B8F1000F7FF749AF45F23A
:100620000025B8F1100FC0F2210528DD4B464FF030
:10063000100AA946DDF83CB00A9D04E0A8F11008B4
:10064000B8F1100F19DD01341033072C86E880044F
:100650002B932A94D8BF0836F0DD5846294629AA9C
:1006600003F0FEFE00287FF47EAAA8F11008B8F17E
:10067000100F2B9B2A9C36AEE5DC4D469946013483
:1006800008EB0903072C2B932A9486E8200100F33A
:10069000C380083699460BE7139D01232C68043567
:1006A00013950025FFF77BBA139D2C68043513952D
:1006B0000025F4E4139D2C68043513950025FFF7FD
:1006C0006EBA139D2C6804351395E51722462B4608
:1006D000002A73F10000BFF63AAC4FF02D0A6442D5
:1006E00065EB45058DF887A00123FFF75CBA0C9DEB
:1006F000144601334C44072B86E820022B942A939E
:10070000D8BF083609DD0F980A9929AA03F0A8FE78
:1007100000287FF428AA2B9C36AE179D239BA84463
:10072000109DAB424DDB099DE9074AD41098C8EBF8
:100730000B05C31AAB42B8BF1D46002D0CDD2A9A2B
:100740002C440132072AC6F8008075602B942A9247
:10075000D8BF083600F35C8225EAE575C5EB0308CF
:10076000B8F1000F7FF734ABB8F1100F45F2002558
:1007700040F3DE822A9BC0F221054FF01009224689
:10078000DDF83CA0DDF828B005E0A8F11008B8F1CC
:10079000100F7FF79BAE01331032072B86E88002E3
:1007A0002B922A93D8BF0836EFDD5046594629AA26
:1007B00003F056FE00287FF4D6A92B9A2A9B36AE6A
:1007C000E3E71C9D2A9A2C44199D013235601C9D3B
:1007D000072A75602B942A92D8BF0836A6DD0F9899
:1007E0000A9929AA03F03CFE00287FF4BCA9239BA8
:1007F0002B9C36AE9AE7099DEA073FF524AE2A9A6C
:10080000631C541C072C4FF001022B93C6F8008088
:100810002A9472607FF73DAF0F980A9929AA03F0D6
:100820001FFE00287FF49FA9DDF8AC902A9C36AE0D
:100830003EE60F980A9929AA03F012FE00287FF4D9
:1008400092A9DDF8AC902A9C36AE18E60F980A996A
:1008500029AA03F005FE00287FF485A92B9A2A9B7C
:1008600036AEFEE50DF1D70B204629460A220023BD
:10087000F0F7C6FD30328BF80020204629460A22C8
:100880000023F0F7BDFD04460D4654EA0500D846A6
:100890000BF1FF3BE8D1FFF7B5B9302B3FF4B2A91C
:1008A000089C3023A41A90460E9401F8013CFFF7EF
:1008B000ADB9F9F735FB002840F08C80099D45F271
:1008C0001C2845F218230324C0F22108C0F221039A
:1008D00025F080050C900D940995B9F1470FD8BF0C
:1008E000984617900E949DF887A0FFF797B9139C30
:1008F000E31D23F007031D685C6808331A951B94F9
:100900001393FFF759BB099CE20640F1B380139D96
:10091000119C2B68043513951C60FFF774B80F9871
:100920000A9929AA03F09CFD00287FF41CA92B9C9E
:1009300036AED8E42A9A169D013201340121072AE5
:100940002B9435602A92716000F3128108361846A4
:1009500028B9109D1DB9099DED077FF539AA2A9B7D
:100960001C99013321441C9D199C072B2B91346049
:1009700075602A93D8BF06F1080200F3BC81444297
:10098000002C40F3168145F20025102CC0F2210501
:1009900040F3FA801026DDF83C90DDF828A003E053
:1009A000103C102C40F3F08001331031072B1760FE
:1009B00056602B912A93D8BF0832F1DD4846514644
:1009C00029AA03F04DFD00287FF4CDA82B992A9B7E
:1009D00036AAE5E70C9C29F02005013404BF062463
:1009E0000C9406D0472D04D10C9C002C08BF012488
:1009F0000C941B9B099C002B44F480741494BDBF81
:100A00001C4604F1004A4FF02D0BDDF86CA0A8BF86
:100A10004FF0000BB5F14600D0F1000C5CEB000C80
:100A2000BCF1000F4DD0032123A80C9C0091029033
:100A300024A927A804901A9A5346019403910F9869
:100A4000CDF818C001F09CF9472D8046DDF818C09C
:100A500003D1099CE10740F10F810C9C4444BCF197
:100A6000000F43D098F80030302B00F0A581239B75
:100A70001C443BE0139C099D236815F0400F119D19
:100A800004F10404139414BF1D801D60FEF7BBBF66
:100A90000F980A9929AA03F0E3FC00287FF463A8C1
:100AA0002B9C36AE36E40F984021FEF7D9FB206030
:100AB0002061002800F0C6810A9C40236361FEF794
:100AC0007DBF452D40F032810C9823A9441C0220A3
:100AD0008DE81100029124A827A903901A9A534681
:100AE00004910F9801F04CF98046044400231A98B1
:100AF00051460022EFF72AFF234648B9279B9C4224
:100B000006D930215A1C27921970279B9C42F9D88C
:100B1000C8EB0303472D109300F0B180B9F1650FC6
:100B200040F38B81B9F1660F00F00781239D179583
:100B3000179C109DAC42C0F2EB80099C4FF06709F6
:100B4000E00749BF179B179D01330E935ABF25EA53
:100B5000E5730E9523EAE373BBF1000F7BD1149C80
:100B60000D930994CDF830B09DF887A0FFF756B8E3
:100B70000F980A9929AA03F073FC00287EF4F3AFBA
:100B800023982B9C36AEE3E601332144072B1560F6
:100B900054602B912A93D8BF08320ADD0F980A9926
:100BA00029AA03F05DFC00287EF4DDAF2B992A9B77
:100BB00036AA109C01332144072B2B912A93C2F8AB
:100BC000008054603FF78CAC02F108060C46FFF73A
:100BD000FFB80C95FEF7ACFE13940C9C20EAE07570
:100BE0000E900D9517949DF887A0FFF717B8C0F2E7
:100BF000210A2B992A9AFFF759B80F980A9929AA1E
:100C000003F02EFC00287EF4AEAF2B9C36AEABE496
:100C10000F980A9929AA03F023FC00287EF4A3AFB9
:100C2000239B10992B9CCB1A36AE95E50C9DC246A2
:100C3000062D28BF06250E9545F2482825EAE575BC
:100C40001394CDF830A05446CDF85CA00D95C0F2B9
:100C50002108FEF7E3BF149D4FF02D0A00240D93E9
:100C600009958DF887A00C94FEF7DBBF4FF02D0A95
:100C70008DF887A0FFF7B2B9279B1B1A1093239B0F
:100C8000DA1C11DB0C9C9C420EDB179350E70C9D89
:100C9000139425EAE5750D950C9D17900E950C9013
:100CA0009DF887A0FEF7BABFA9F10209013B002B0E
:100CB0002393BABF5B422D222B22092B8DF89490EF
:100CC0008DF8952048DC303330228DF897308DF840
:100CD000962026AB25AA109C109D9A1A1444012D2B
:100CE0001D920E947FDD0E9B002401330E9317940A
:100CF00023EAE37330E70F980A9929AA03F0B0FBBF
:100D000000287EF430AF23982B992A9B36AA36E62A
:100D1000179C109D002CD4BFC4F1020301231D4475
:100D20000E9525EAE5734FF0670915E702217BE68A
:100D3000C0F221052A9BFFF7CABB239C002C179405
:100D40005BDD0C9D002D46D1099CE50743D4179D22
:100D500025EAE5730E95FFE646F26760C6F2666027
:100D60000DF1A20180FB0354DA17C2EBA40202EBDF
:100D70008204A3EB4403092A0C4603F130012170DD
:100D8000134604F1FF31EDDC02F130030DF1A30055
:100D9000DAB2884204F8012C51D90DF195012346AD
:100DA00001E013F8012B834201F8012FF9D146A885
:100DB000C4EB4003F63B8DE71A985146002200230E
:100DC000EFF7C4FD00287FF452AE0C98C0F1010388
:100DD00023931C448AE60C9C179D631C1D440E95AE
:100DE00025EAE573B8E6099C14F001037FF47BAFB4
:100DF0000E9D179325EAE573AEE60C9C34B9099D68
:100E0000EC075CBF01230E937FF5A6AE0C9B02336B
:100E10000E9323EAE3739FE6139D139C2D68211D17
:100E2000002D0C95B8BF4FF0FF3593F8019013914A
:100E30000346B8BF0C95FEF71BBE239B36E70DF1AA
:100E4000960347E70F9D0C232B604FF0FF30FEF712
:100E500092BE00BF00000000000000000000000083
:100E60004B6E2DE9F0479C040E46804691462BD5EB
:100E70009368126802F1080A23B31AE9A000BF08B8
:100E80001CBF043D002402D114E0A74210D040460C
:100E900055F8041F324602F07BF8431C04F10104AC
:100EA000F3D10023C9F80830C9F80430BDE8F08751
:100EB000D9F80830A3EB8703C9F808300AF1080A0B
:100EC000002BDAD10020ECE702F0EAF90023C9F8A0
:100ED0000830C9F80430BDE8F08700BF000000000A
:100EE0002DE9F04FB1B01C46029190460893069050
:100EF00018B1836B002B00F0F280029DA9898AB2A1
:100F0000970407D46B6E41F4005223F40053AA8176
:100F10006B6692B2160740F1C280029D2B69002BCE
:100F200000F0BD8002F01A020A2A00F0C4800DF120
:100F30007F040194019D0DF1800AC5EB0A0545F27D
:100F400070240E9545F260250023C0F22105C0F201
:100F500021040D93159314930993CDF84CA00A9591
:100F60005646274698F80030002B18BF252B00F076
:100F7000A08308F1010213781446252B18BF002B1B
:100F800002F10102F7D1B4EB08050FD0149B159ABA
:100F900001332A44072BC6F800807560159214931C
:100FA000D8BF083675DC0998284409902378002BAF
:100FB00000F08C83002319468DF8473005939C463A
:100FC00004F1010863784FF0FF340494084608F1F7
:100FD0000108A3F12002582A00F2C282DFE812F0D1
:100FE000B402C002C002BB02C002C002C002C00202
:100FF000C002C0026C027602C00284007A02C00203
:10100000710176017601760176017601760176012D
:1010100076017601C002C002C002C002C002C00256
:10102000C002C002C002C0028401C002C002C002ED
:10103000C002C002C002C002C002C002C0029F01C2
:10104000C002C002C002C002C002B501C002C0029C
:10105000CA01C002C002C002C002C002C002C00277
:10106000C002C002C002F0010302C002C002C002FE
:101070001A020302C002C0021F02C0022C02890031
:101080005B016702C0023E02C0024C01C002C00206
:101090009A02002A40F05F841492564683E706982D
:1010A000029900F065FDA8B9029DAA8902F01A0212
:1010B0000A2A7FF43CAF029DB5F90E30002BFFF6F3
:1010C00036AF069829464246234600F011FD31B05E
:1010D000BDE8F08F4FF0FF3031B0BDE8F08F01F088
:1010E000C7FE0AE7404208934CF0040C98F8003021
:1010F0006DE71CF02003059000F01881089CE31DAB
:1011000023F0070303F108050895D3E90045002300
:101110004FF0000B8DF847B0049904980029A8BF40
:101120002CF0800C54EA05020CBF0022012200289A
:1011300018BF42F00102002A00F04483012B00F0A6
:10114000AE83022B0DF17F0217D1DDF83490230915
:1011500043EA057304F00F0128091C4619F8011031
:10116000054654EA05001346117002F1FF32EED134
:101170009946C3EB0A03079322E0E30843EA457369
:10118000E90804F007000D461C4654EA050100F189
:1011900030039146137002F1FF32EED11CF0010FC3
:1011A000494600F0A883302B17BF9146C9EB0A04CB
:1011B0003023C9EB0A050EBF0794079501F8013CDF
:1011C000079B049DAB42B8BF2B460393BBF1000FB6
:1011D00001D0013303931CF0020418BF039D0B944C
:1011E0001CBF023503951CF084030C9340F0D6819C
:1011F000059D039BEC1A002C40F3D081102C40F38A
:10120000368445F26025CDF83CC0159AB446149852
:10121000C0F221054FF0100B0A9E06E0831C0CF172
:10122000080C0846103C102C11DD411C1032072917
:1012300015928CE840081491F0DD1046002A40F029
:10124000A081103C102C4FF00103D446EDDC664623
:10125000DDF83CC0072B224435607460159214936E
:10126000DCBF0836581C40F39C81002A40F0C6833E
:1012700013460120564694E11CF0200F05906AD0D9
:10128000089CE31D23F0070303F108050895D3E943
:10129000004501233CE7089B089D059045F234205A
:1012A00004351C6830227823C0F2210008958DF89F
:1012B00049304CF0020C00258DF848200D90022397
:1012C00026E74CF0800C98F8003080E6A3F130025D
:1012D000002018F8013B00EB800002EB4000A3F176
:1012E0003002092AF5D974E64CF0100C1CF0200FDE
:1012F00005908DF847107CD0089CE11D21F0070176
:10130000D1E900230831089114461D46002A73F1E3
:101310000000C0F253839DF847B00123FCE64CF077
:10132000100C1CF0200305907FF4E8AE1CF01002B6
:1013300040F004831CF0400300F00083089813463B
:101340000488043000250890E2E64CF0100C1CF0F4
:10135000200F059094D11CF0100F40F0E7821CF094
:10136000400F00F0E3820898002504880430012330
:101370000890CDE645F22024C0F221041CF0200F95
:1013800005908DF847100D9400F0D080089DEA1D5F
:1013900022F0070202F108040894D2E900451CF08B
:1013A000010F00F07A8254EA050000F076823022C4
:1013B0008DF849304CF0020C8DF848200223A7E646
:1013C000089B089D1A6801240023043505900394A6
:1013D0008DF8582008958DF8473007940DF158097D
:1013E00000250495F7E61CF0200F05908DF84710B6
:1013F00082D11CF0100F40F091821CF0400F00F0E1
:101400008D820898B0F900400430E51722462B463B
:1014100008907BE74CF0400C98F80030D7E598F83E
:10142000003042466C2B03BF08F101084CF0200C41
:1014300053784CF0100CCAE51CF0200F8DF84710C3
:1014400000F0C682089C2168099CE5172B46089D80
:10145000224604350895C1E9002383E5089C0590E0
:10146000D4F80090089800248DF84740051DB9F184
:10147000000F00F00583049800284846C0F2D98286
:101480002146049ACDF800C002F052F9DDF800C000
:10149000002800F00E830499C9EB00008842B8BF11
:1014A00001460791089504949DF847B088E64CF0F2
:1014B000200C98F800308AE5089D28682B1D00282C
:1014C000FFF610AE089398F8003080E598F80030E9
:1014D0002B217CE598F8003008F101052A2B00F05B
:1014E000F082A3F13002092A82BF0024A8460494A6
:1014F0003FF66FAD002415F8013B04EB840402EBCA
:101500004404A3F13002092AF5D944EAE4740494AE
:10151000A8465EE545F23424C0F221041CF0200FF9
:1015200005908DF847100D947FF430AF1CF0100F2C
:1015300040F00B821CF0400F00F007820898002555
:101540000488043008902AE798F8003000297FF4D6
:101550003EAD20213BE54CF0010C98F8003036E51B
:1015600005908DF84710002B00F0B0800125002277
:1015700003958DF858308DF8472007950DF15809DF
:101580002EE70698029913AAFFF76AFC002840F09C
:10159000A4801498159A431CD44643E6149B159ACC
:1015A000581C9DF8471069B101320DF14703012124
:1015B0000728159214903360716000F35E81034632
:1015C000083608440B9C64B1023212A90223072892
:1015D0001592149086E80A0000F3558103460836F8
:1015E00001300C9D802D00F0FE80049C0799651A47
:1015F000002D40F38A8045F27024102DC0F22104A2
:1016000024DD21464FF0100B6446B4462E460D46AD
:1016100006E0981C0CF1080C0B46103E102E10DD55
:10162000591C1032072915928CE880081491F0DDBE
:101630001346002A3FD1103E102E4FF00100D44631
:10164000EEDC2B4635466646A4461C4607282A444F
:1016500086E8300014901592DCBF0836013054DD66
:10166000002A43D1079C0123CDF880902194159442
:101670002246149356461CF0040F06F1080655D175
:10168000099C039B059DAB42ACBFE4186419099407
:101690002AB10698029913AAFFF7E2FBE8B90023E2
:1016A000149398F800305646002B18BF252B7FF472
:1016B00060AC44467AE40698029913AAFFF7D0FB7F
:1016C00058B9149B159A581CD446A6E7159B23B10C
:1016D0000698029913AAFFF7C3FB029CA3895D0633
:1016E0003FF5F8AC099831B0BDE8F08F0698029943
:1016F00013AACDF800C0FFF7B3FBDDF800C0002847
:10170000EBD11498159A01305646079D07282A44B4
:101710001592C6F8009075601490ACDD002A40F078
:10172000EE80149256461CF0040FA9D0059D039B31
:10173000EC1A002CA4DD102C40F3B08145F260259A
:10174000B4461499C0F221054FF01009DDF818B025
:101750000A9E06E0881C0CF1080C1946103C102C5F
:101760000FDD4B1C1032072B15928CE840021493AE
:10177000F0DD1146D2B9103C102C4FF00100D446D8
:10178000EFDC664622440728159235607460149099
:101790007FF776AF002A40F04281099C039B059DAC
:1017A000AB42ACBFE4186419099478E75846029933
:1017B00013AAFFF755FB00288FD11499159A481CDE
:1017C000D446CBE7002B65D11CF0010F04BF079373
:1017D000D1463FF4F5AC0E9C30238DF87F30079452
:1017E0000DF17F09ECE4059C0399651A002D7FF744
:1017F000FCAE102D45F2702440F35781C0F2210455
:1018000021464FF0100B6446B4462E460D4606E0C6
:10181000991C0CF1080C0346103E102E0FDD581CCD
:101820001032072815928CE880081490F0DD1346DA
:10183000B2B9103E102E4FF00101D446EFDC2B461A
:1018400035466646A4461C462A440729159286E872
:101850003000149100F3AC800836481C0B46C4E6F7
:101860000698029913AAFFF7FBFA00287FF435AF18
:10187000149B159A591CD446CEE7002A76D11346FC
:10188000084656469EE6002A40F081801346012015
:101890005646A6E60792D14692E4022338E4002D8C
:1018A00008BF0A2C07D230348DF87F400E9C0DF112
:1018B0007F09079484E40DF17F09CDF80CC00796E9
:1018C000204629460A220023EFF79AFD303289F894
:1018D0000020204629460A220023EFF791FD044606
:1018E0000D4654EA05004E4609F1FF39E8D1B146EC
:1018F000DDF80CC0079EC9EB0A03079360E4069865
:10190000029913AACDF800C0FFF7AAFADDF800C0CB
:1019100000287FF4E2AE159A564604E7089D2C682D
:1019200004350895E51722462B46EFE4089D012370
:101930002C68043508950025FFF7EABB089D2C6844
:10194000043508950025FFF7E3BB089D2C68043596
:101950000895002523E50698029913AAFFF780FA57
:1019600000287FF4BAAE5646FFF71DBB06980299D1
:1019700013AACDF800C0FFF773FADDF800C0002805
:101980007FF4ABAE149B159A581C56461AE606987F
:10199000029913AACDF800C0FFF762FADDF800C083
:1019A00000287FF49AAE149B159A581C564618E6E8
:1019B000002A4BD113460120564616E64FF02D0B58
:1019C000644265EB45058DF847B00123FFF7A4BBE2
:1019D0001CF0100F0AD11CF0400F07D0089C099D85
:1019E0002368043408941D80FFF7BCBA089C099D45
:1019F0002368043408941D60FFF7B4BA069802996E
:101A000013AACDF800C0FFF72BFADDF800C00028BC
:101A10007FF463AE149B159A581C5646C1E5069890
:101A2000029913AAFFF71CFA00287FF456AE159A04
:101A300026E6CDF800C008950494FDF779FF9DF8DF
:101A400047B00790DDF800C0FFF7BABB06980299CF
:101A500013AACDF800C0FFF703FADDF800C0002894
:101A60007FF43BAE149B159A581C5646BDE5149B5B
:101A700045F260250133C0F22105159AFFF7EABB54
:101A8000049C45F24829062C28BF0624089524EA20
:101A9000E47507940395C0F22109A1E4149845F276
:101AA00060250130C0F221056CE60146C0F2210438
:101AB000CAE6049C9DF847B0079408950490FFF788
:101AC0007FBB089C98F801302468A8460494089CC1
:101AD000221D049C0892002CBCBF4FF0FF350495DA
:101AE000FFF775BA000000000000000000000000D1
:101AF0002DE9F0474F6EADF58D6D88461997D8F8F2
:101B00001C70B1F80CA0B1F80E900797D8F82470AB
:101B10001AAC4FF480652AF0020A00266946009448
:101B2000049402950595ADF80CA0ADF80E900997B8
:101B300006960546FFF7D4F9041E07DB28466946DA
:101B400001F076F9B04218BF4FF0FF34BDF80C3009
:101B500020465B0642BFB8F80C3043F04003A8F8BB
:101B60000C300DF58D6DBDE8F08700BF0000000062
:101B700038B540F6E843C2F200031B6805460C4640
:101B800013B19A6B002A36D0A28993B218070CD5EC
:101B90002169A9B113F001021ED0636900225B42E2
:101BA000A361A260F1B1002038BDD9063CD55B0726
:101BB00025D4216942F00803A3819BB20029E9D111
:101BC00003F42072B2F5007FE4D02146284601F0EC
:101BD00037FDA3892169DDE7980758BF6269A260D4
:101BE0000029E0D1A3891A06DDD543F04003A38183
:101BF0004FF0FF3038BD184601F03AF9C4E7216BC9
